{
    "contractName": "CoGatewaySpy",
    "abi": [
        {
            "constant": true,
            "inputs": [],
            "name": "recordedBeneficiary",
            "outputs": [
                {
                    "name": "",
                    "type": "address"
                }
            ],
            "payable": false,
            "stateMutability": "view",
            "type": "function"
        },
        {
            "constant": true,
            "inputs": [],
            "name": "recordedNonce",
            "outputs": [
                {
                    "name": "",
                    "type": "uint256"
                }
            ],
            "payable": false,
            "stateMutability": "view",
            "type": "function"
        },
        {
            "constant": true,
            "inputs": [],
            "name": "recordedGasLimit",
            "outputs": [
                {
                    "name": "",
                    "type": "uint256"
                }
            ],
            "payable": false,
            "stateMutability": "view",
            "type": "function"
        },
        {
            "constant": true,
            "inputs": [],
            "name": "recordedAmount",
            "outputs": [
                {
                    "name": "",
                    "type": "uint256"
                }
            ],
            "payable": false,
            "stateMutability": "view",
            "type": "function"
        },
        {
            "constant": true,
            "inputs": [],
            "name": "failRedemption",
            "outputs": [
                {
                    "name": "",
                    "type": "bool"
                }
            ],
            "payable": false,
            "stateMutability": "view",
            "type": "function"
        },
        {
            "constant": true,
            "inputs": [],
            "name": "recordedPayedAmount",
            "outputs": [
                {
                    "name": "",
                    "type": "uint256"
                }
            ],
            "payable": false,
            "stateMutability": "view",
            "type": "function"
        },
        {
            "constant": true,
            "inputs": [],
            "name": "recoerdedHashLock",
            "outputs": [
                {
                    "name": "",
                    "type": "bytes32"
                }
            ],
            "payable": false,
            "stateMutability": "view",
            "type": "function"
        },
        {
            "constant": true,
            "inputs": [],
            "name": "recordedGasPrice",
            "outputs": [
                {
                    "name": "",
                    "type": "uint256"
                }
            ],
            "payable": false,
            "stateMutability": "view",
            "type": "function"
        },
        {
            "constant": false,
            "inputs": [],
            "name": "makeRedemptionToFail",
            "outputs": [],
            "payable": false,
            "stateMutability": "nonpayable",
            "type": "function"
        },
        {
            "constant": false,
            "inputs": [
                {
                    "name": "_amount",
                    "type": "uint256"
                },
                {
                    "name": "_beneficiary",
                    "type": "address"
                },
                {
                    "name": "_gasPrice",
                    "type": "uint256"
                },
                {
                    "name": "_gasLimit",
                    "type": "uint256"
                },
                {
                    "name": "_nonce",
                    "type": "uint256"
                },
                {
                    "name": "_hashLock",
                    "type": "bytes32"
                }
            ],
            "name": "redeem",
            "outputs": [
                {
                    "name": "",
                    "type": "bytes32"
                }
            ],
            "payable": true,
            "stateMutability": "payable",
            "type": "function"
        }
    ],
    "bytecode": "0x608060405234801561001057600080fd5b5061037f806100206000396000f3fe6080604052600436106100a25763ffffffff7c01000000000000000000000000000000000000000000000000000000006000350416627d527e81146100a75780630756bb34146100e55780631cbb95c21461010c57806341c0cad4146101215780634c567665146101365780634dd98f151461015f5780636f4a9a34146101765780638dd4f87a1461018b578063bf41b9d9146101a0578063ecc5fed1146101f1575b600080fd5b3480156100b357600080fd5b506100bc610206565b6040805173ffffffffffffffffffffffffffffffffffffffff9092168252519081900360200190f35b3480156100f157600080fd5b506100fa610222565b60408051918252519081900360200190f35b34801561011857600080fd5b506100fa610228565b34801561012d57600080fd5b506100fa61022e565b34801561014257600080fd5b5061014b610234565b604080519115158252519081900360200190f35b34801561016b57600080fd5b5061017461023d565b005b34801561018257600080fd5b506100fa61024c565b34801561019757600080fd5b506100fa610252565b6100fa600480360360c08110156101b657600080fd5b5080359073ffffffffffffffffffffffffffffffffffffffff6020820135169060408101359060608101359060808101359060a00135610258565b3480156101fd57600080fd5b506100fa61034d565b60025473ffffffffffffffffffffffffffffffffffffffff1681565b60055481565b60045481565b60015481565b60075460ff1681565b6007805460ff19166001179055565b60005481565b60065481565b60075460009060ff16156102f357604080517f08c379a000000000000000000000000000000000000000000000000000000000815260206004820152602160248201527f43616c6c7320746f2072656465656d20617265206d61646520746f206661696c60448201527f2e00000000000000000000000000000000000000000000000000000000000000606482015290519081900360840190fd5b503460009081556001969096556002805473ffffffffffffffffffffffffffffffffffffffff191673ffffffffffffffffffffffffffffffffffffffff969096169590951790945560039290925560045560055560065590565b6003548156fea165627a7a7230582044f80ffbacd827cf6bab8efc73fd130d0f226bcf7301f3665e0ac0688e9100af0029",
    "source": "pragma solidity ^0.5.0;\n\n\n// Copyright 2019 OpenST Ltd.\n//\n// Licensed under the Apache License, Version 2.0 (the \"License\");\n// you may not use this file except in compliance with the License.\n// You may obtain a copy of the License at\n//\n//    http://www.apache.org/licenses/LICENSE-2.0\n//\n// Unless required by applicable law or agreed to in writing, software\n// distributed under the License is distributed on an \"AS IS\" BASIS,\n// WITHOUT WARRANTIES OR CONDITIONS OF ANY KIND, either express or implied.\n// See the License for the specific language governing permissions and\n// limitations under the License.\n\n/**\n * @notice Spy test double to catch inputs to verify.\n */\ncontract CoGatewaySpy {\n\n    /* Storage */\n\n    uint256 public recordedPayedAmount;\n\n    uint256 public recordedAmount;\n\n    address public recordedBeneficiary;\n\n    uint256 public recordedGasPrice;\n\n    uint256 public recordedGasLimit;\n\n    uint256 public recordedNonce;\n\n    bytes32 public recoerdedHashLock;\n\n    /** @dev If true, redeem() function fails by throwing an exception */\n    bool public failRedemption;\n\n\n    /* External Functions */\n\n    /**\n     * @dev Calling this function makes mocked redeem() function to fail\n     *      by throwing an exception.\n     */\n    function makeRedemptionToFail()\n        external\n    {\n        failRedemption = true;\n    }\n\n    function redeem(\n        uint256 _amount,\n        address _beneficiary,\n        uint256 _gasPrice,\n        uint256 _gasLimit,\n        uint256 _nonce,\n        bytes32 _hashLock\n    )\n        external\n        payable\n        returns (bytes32)\n    {\n        if (failRedemption) {\n            revert(\"Calls to redeem are made to fail.\");\n        }\n\n        recordedPayedAmount = msg.value;\n\n        recordedAmount = _amount;\n\n        recordedBeneficiary = _beneficiary;\n\n        recordedGasPrice = _gasPrice;\n    \n        recordedGasLimit = _gasLimit;\n\n        recordedNonce = _nonce;\n\n        recoerdedHashLock = _hashLock;\n\n        return bytes32(0);\n    }\n}\n",
    "sourcePath": "/Users/spuchbauer/dev/ethdenver/openst-contracts/contracts/test_doubles/unit_tests/token_holder/execute_redeem/CoGatewaySpy.sol",
    "compiler": {
        "name": "solc",
        "version": "0.5.0+commit.1d4f565a.Emscripten.clang"
    },
    "schemaVersion": "3.0.9",
    "updatedAt": "2020-02-15T21:03:36.448Z",
    "devdoc": {
        "methods": {
            "makeRedemptionToFail()": {
                "details": "Calling this function makes mocked redeem() function to fail     by throwing an exception."
            }
        }
    },
    "userdoc": {
        "methods": {},
        "notice": "Spy test double to catch inputs to verify."
    }
}