{
    "contractName": "CustomRuleDouble",
    "abi": [
        {
            "constant": true,
            "inputs": [],
            "name": "PASS_CALLPREFIX",
            "outputs": [
                {
                    "name": "",
                    "type": "bytes4"
                }
            ],
            "payable": false,
            "stateMutability": "view",
            "type": "function"
        },
        {
            "constant": true,
            "inputs": [],
            "name": "FAIL_CALLPREFIX",
            "outputs": [
                {
                    "name": "",
                    "type": "bytes4"
                }
            ],
            "payable": false,
            "stateMutability": "view",
            "type": "function"
        },
        {
            "constant": true,
            "inputs": [],
            "name": "recordedPayedAmount",
            "outputs": [
                {
                    "name": "",
                    "type": "uint256"
                }
            ],
            "payable": false,
            "stateMutability": "view",
            "type": "function"
        },
        {
            "constant": true,
            "inputs": [],
            "name": "recordedValue",
            "outputs": [
                {
                    "name": "",
                    "type": "address"
                }
            ],
            "payable": false,
            "stateMutability": "view",
            "type": "function"
        },
        {
            "constant": false,
            "inputs": [
                {
                    "name": "_value",
                    "type": "address"
                }
            ],
            "name": "fail",
            "outputs": [],
            "payable": false,
            "stateMutability": "nonpayable",
            "type": "function"
        },
        {
            "constant": false,
            "inputs": [
                {
                    "name": "_value",
                    "type": "address"
                }
            ],
            "name": "pass",
            "outputs": [],
            "payable": false,
            "stateMutability": "nonpayable",
            "type": "function"
        },
        {
            "constant": false,
            "inputs": [
                {
                    "name": "_value",
                    "type": "address"
                }
            ],
            "name": "passPayable",
            "outputs": [],
            "payable": true,
            "stateMutability": "payable",
            "type": "function"
        }
    ],
    "bytecode": "0x608060405234801561001057600080fd5b5061047e806100206000396000f3fe6080604052600436106100825763ffffffff7c0100000000000000000000000000000000000000000000000000000000600035041663351846fb81146100875780633524e95f146100d15780636aa90941146100f95780636f4a9a341461010e57806382c4b3b2146101355780638ed6a1e414610168578063e819906314610199575b600080fd5b34801561009357600080fd5b5061009c6101cc565b604080517fffffffff000000000000000000000000000000000000000000000000000000009092168252519081900360200190f35b6100f7600480360360208110156100e757600080fd5b5035600160a060020a0316610201565b005b34801561010557600080fd5b5061009c6102ab565b34801561011a57600080fd5b506101236102e0565b60408051918252519081900360200190f35b34801561014157600080fd5b506100f76004803603602081101561015857600080fd5b5035600160a060020a03166102e6565b34801561017457600080fd5b5061017d61038c565b60408051600160a060020a039092168252519081900360200190f35b3480156101a557600080fd5b506100f7600480360360208110156101bc57600080fd5b5035600160a060020a031661039b565b604080517f70617373286164647265737329000000000000000000000000000000000000008152905190819003600d01902081565b600160a060020a038116151561027857604080517f08c379a000000000000000000000000000000000000000000000000000000000815260206004820152600e60248201527f56616c7565206973206e756c6c2e000000000000000000000000000000000000604482015290519081900360640190fd5b6000805473ffffffffffffffffffffffffffffffffffffffff1916600160a060020a039290921691909117905534600155565b604080517f6661696c286164647265737329000000000000000000000000000000000000008152905190819003600d01902081565b60015481565b600160a060020a038116151561035d57604080517f08c379a000000000000000000000000000000000000000000000000000000000815260206004820152600e60248201527f56616c7565206973206e756c6c2e000000000000000000000000000000000000604482015290519081900360640190fd5b6000805473ffffffffffffffffffffffffffffffffffffffff1916600160a060020a0392909216919091179055565b600054600160a060020a031681565b60008054600160a060020a03831673ffffffffffffffffffffffffffffffffffffffff19909116179055604080517f08c379a000000000000000000000000000000000000000000000000000000000815260206004820152602560248201527f5468652066756e6374696f6e2073686f756c64206661696c206279207468726f60448201527f77696e672e000000000000000000000000000000000000000000000000000000606482015290519081900360840190fdfea165627a7a72305820469b27f47eb858ed83e6d8b899ce91d3c2cea5e9ef064e534537fe28ff1b66d00029",
    "source": "pragma solidity ^0.5.0;\n\n\n// Copyright 2019 OpenST Ltd.\n//\n// Licensed under the Apache License, Version 2.0 (the \"License\");\n// you may not use this file except in compliance with the License.\n// You may obtain a copy of the License at\n//\n//    http://www.apache.org/licenses/LICENSE-2.0\n//\n// Unless required by applicable law or agreed to in writing, software\n// distributed under the License is distributed on an \"AS IS\" BASIS,\n// WITHOUT WARRANTIES OR CONDITIONS OF ANY KIND, either express or implied.\n// See the License for the specific language governing permissions and\n// limitations under the License.\n\n\ncontract CustomRuleDouble {\n\n    /* Constants */\n\n    bytes4 constant public FAIL_CALLPREFIX = bytes4(\n        keccak256(\"fail(address)\")\n    );\n\n    bytes4 constant public PASS_CALLPREFIX = bytes4(\n        keccak256(\"pass(address)\")\n    );\n\n\n    /* Storage */\n\n    address public recordedValue;\n    uint256 public recordedPayedAmount;\n\n\n    /* Public Functions */\n\n    function fail(\n        address _value\n    )\n        public\n    {\n        recordedValue = _value;\n        revert(\"The function should fail by throwing.\");\n    }\n\n    function pass(\n        address _value\n    )\n        public\n    {\n        require(_value != address(0), \"Value is null.\");\n        recordedValue = _value;\n    }\n\n    function passPayable(\n        address _value\n    )\n        public\n        payable\n    {\n        require(_value != address(0), \"Value is null.\");\n        recordedValue = _value;\n        recordedPayedAmount = msg.value;\n    }\n\n}\n",
    "sourcePath": "/Users/spuchbauer/dev/ethdenver/openst-contracts/contracts/test_doubles/unit_tests/token_holder/execute_rule/CustomRuleDouble.sol",
    "compiler": {
        "name": "solc",
        "version": "0.5.0+commit.1d4f565a.Emscripten.clang"
    },
    "schemaVersion": "3.0.9",
    "updatedAt": "2020-02-15T21:03:36.449Z",
    "devdoc": {
        "methods": {}
    },
    "userdoc": {
        "methods": {}
    }
}