{
    "contractName": "DelayedRecoveryModule",
    "abi": [
        {
            "constant": true,
            "inputs": [],
            "name": "INITIATE_RECOVERY_STRUCT_TYPEHASH",
            "outputs": [
                {
                    "name": "",
                    "type": "bytes32"
                }
            ],
            "payable": false,
            "stateMutability": "view",
            "type": "function"
        },
        {
            "constant": true,
            "inputs": [],
            "name": "DOMAIN_SEPARATOR_TYPEHASH",
            "outputs": [
                {
                    "name": "",
                    "type": "bytes32"
                }
            ],
            "payable": false,
            "stateMutability": "view",
            "type": "function"
        },
        {
            "constant": true,
            "inputs": [],
            "name": "RESET_RECOVERY_OWNER_STRUCT_TYPEHASH",
            "outputs": [
                {
                    "name": "",
                    "type": "bytes32"
                }
            ],
            "payable": false,
            "stateMutability": "view",
            "type": "function"
        },
        {
            "constant": true,
            "inputs": [],
            "name": "activeRecoveryInfo",
            "outputs": [
                {
                    "name": "prevOwner",
                    "type": "address"
                },
                {
                    "name": "oldOwner",
                    "type": "address"
                },
                {
                    "name": "newOwner",
                    "type": "address"
                },
                {
                    "name": "executionBlockHeight",
                    "type": "uint256"
                }
            ],
            "payable": false,
            "stateMutability": "view",
            "type": "function"
        },
        {
            "constant": true,
            "inputs": [],
            "name": "manager",
            "outputs": [
                {
                    "name": "",
                    "type": "address"
                }
            ],
            "payable": false,
            "stateMutability": "view",
            "type": "function"
        },
        {
            "constant": true,
            "inputs": [],
            "name": "ABORT_RECOVERY_STRUCT_TYPEHASH",
            "outputs": [
                {
                    "name": "",
                    "type": "bytes32"
                }
            ],
            "payable": false,
            "stateMutability": "view",
            "type": "function"
        },
        {
            "constant": true,
            "inputs": [],
            "name": "recoveryOwner",
            "outputs": [
                {
                    "name": "",
                    "type": "address"
                }
            ],
            "payable": false,
            "stateMutability": "view",
            "type": "function"
        },
        {
            "constant": true,
            "inputs": [],
            "name": "NAME",
            "outputs": [
                {
                    "name": "",
                    "type": "string"
                }
            ],
            "payable": false,
            "stateMutability": "view",
            "type": "function"
        },
        {
            "constant": true,
            "inputs": [],
            "name": "recoveryBlockDelay",
            "outputs": [
                {
                    "name": "",
                    "type": "uint256"
                }
            ],
            "payable": false,
            "stateMutability": "view",
            "type": "function"
        },
        {
            "constant": true,
            "inputs": [],
            "name": "recoveryController",
            "outputs": [
                {
                    "name": "",
                    "type": "address"
                }
            ],
            "payable": false,
            "stateMutability": "view",
            "type": "function"
        },
        {
            "constant": true,
            "inputs": [],
            "name": "domainSeparator",
            "outputs": [
                {
                    "name": "",
                    "type": "bytes32"
                }
            ],
            "payable": false,
            "stateMutability": "view",
            "type": "function"
        },
        {
            "constant": true,
            "inputs": [],
            "name": "VERSION",
            "outputs": [
                {
                    "name": "",
                    "type": "string"
                }
            ],
            "payable": false,
            "stateMutability": "view",
            "type": "function"
        },
        {
            "anonymous": false,
            "inputs": [
                {
                    "indexed": false,
                    "name": "_prevOwner",
                    "type": "address"
                },
                {
                    "indexed": false,
                    "name": "_oldOwner",
                    "type": "address"
                },
                {
                    "indexed": false,
                    "name": "_newOwner",
                    "type": "address"
                }
            ],
            "name": "RecoveryInitiated",
            "type": "event"
        },
        {
            "anonymous": false,
            "inputs": [
                {
                    "indexed": false,
                    "name": "_prevOwner",
                    "type": "address"
                },
                {
                    "indexed": false,
                    "name": "_oldOwner",
                    "type": "address"
                },
                {
                    "indexed": false,
                    "name": "_newOwner",
                    "type": "address"
                }
            ],
            "name": "RecoveryExecuted",
            "type": "event"
        },
        {
            "anonymous": false,
            "inputs": [
                {
                    "indexed": false,
                    "name": "_prevOwner",
                    "type": "address"
                },
                {
                    "indexed": false,
                    "name": "_oldOwner",
                    "type": "address"
                },
                {
                    "indexed": false,
                    "name": "_newOwner",
                    "type": "address"
                }
            ],
            "name": "RecoveryAborted",
            "type": "event"
        },
        {
            "anonymous": false,
            "inputs": [
                {
                    "indexed": false,
                    "name": "_oldRecoveryOwner",
                    "type": "address"
                },
                {
                    "indexed": false,
                    "name": "_newRecoveryOwner",
                    "type": "address"
                }
            ],
            "name": "ResetRecoveryOwner",
            "type": "event"
        },
        {
            "constant": false,
            "inputs": [
                {
                    "name": "_recoveryOwner",
                    "type": "address"
                },
                {
                    "name": "_recoveryController",
                    "type": "address"
                },
                {
                    "name": "_recoveryBlockDelay",
                    "type": "uint256"
                }
            ],
            "name": "setup",
            "outputs": [],
            "payable": false,
            "stateMutability": "nonpayable",
            "type": "function"
        },
        {
            "constant": false,
            "inputs": [
                {
                    "name": "_prevOwner",
                    "type": "address"
                },
                {
                    "name": "_oldOwner",
                    "type": "address"
                },
                {
                    "name": "_newOwner",
                    "type": "address"
                },
                {
                    "name": "_r",
                    "type": "bytes32"
                },
                {
                    "name": "_s",
                    "type": "bytes32"
                },
                {
                    "name": "_v",
                    "type": "uint8"
                }
            ],
            "name": "initiateRecovery",
            "outputs": [],
            "payable": false,
            "stateMutability": "nonpayable",
            "type": "function"
        },
        {
            "constant": false,
            "inputs": [
                {
                    "name": "_prevOwner",
                    "type": "address"
                },
                {
                    "name": "_oldOwner",
                    "type": "address"
                },
                {
                    "name": "_newOwner",
                    "type": "address"
                }
            ],
            "name": "executeRecovery",
            "outputs": [],
            "payable": false,
            "stateMutability": "nonpayable",
            "type": "function"
        },
        {
            "constant": false,
            "inputs": [
                {
                    "name": "_prevOwner",
                    "type": "address"
                },
                {
                    "name": "_oldOwner",
                    "type": "address"
                },
                {
                    "name": "_newOwner",
                    "type": "address"
                },
                {
                    "name": "_r",
                    "type": "bytes32"
                },
                {
                    "name": "_s",
                    "type": "bytes32"
                },
                {
                    "name": "_v",
                    "type": "uint8"
                }
            ],
            "name": "abortRecoveryByOwner",
            "outputs": [],
            "payable": false,
            "stateMutability": "nonpayable",
            "type": "function"
        },
        {
            "constant": false,
            "inputs": [
                {
                    "name": "_prevOwner",
                    "type": "address"
                },
                {
                    "name": "_oldOwner",
                    "type": "address"
                },
                {
                    "name": "_newOwner",
                    "type": "address"
                }
            ],
            "name": "abortRecoveryByController",
            "outputs": [],
            "payable": false,
            "stateMutability": "nonpayable",
            "type": "function"
        },
        {
            "constant": false,
            "inputs": [
                {
                    "name": "_newRecoveryOwner",
                    "type": "address"
                },
                {
                    "name": "_r",
                    "type": "bytes32"
                },
                {
                    "name": "_s",
                    "type": "bytes32"
                },
                {
                    "name": "_v",
                    "type": "uint8"
                }
            ],
            "name": "resetRecoveryOwner",
            "outputs": [],
            "payable": false,
            "stateMutability": "nonpayable",
            "type": "function"
        }
    ],
    "bytecode": "0x608060405234801561001057600080fd5b50611956806100206000396000f3fe6080604052600436106100fb5763ffffffff7c010000000000000000000000000000000000000000000000000000000060003504166307218f4381146101005780631db61b54146101275780631de52d4e1461013c578063363893ae146101515780633811b1091461019b578063481c6a75146101e557806365ae42ae14610216578063698eb6681461025b5780637525c346146102a05780637ded0af7146102f95780638583c7c01461030e5780638931417414610323578063a3f4df7e1461037c578063bde4459014610406578063cbe406221461041b578063f48da4751461045e578063f698da2514610473578063ffa1ad7414610488575b600080fd5b34801561010c57600080fd5b5061011561049d565b60408051918252519081900360200190f35b34801561013357600080fd5b5061011561051d565b34801561014857600080fd5b50610115610578565b34801561015d57600080fd5b506101666105f8565b60408051600160a060020a03958616815293851660208501529190931682820152606082019290925290519081900360800190f35b3480156101a757600080fd5b506101e3600480360360808110156101be57600080fd5b508035600160a060020a0316906020810135906040810135906060013560ff1661061b565b005b3480156101f157600080fd5b506101fa61079f565b60408051600160a060020a039092168252519081900360200190f35b34801561022257600080fd5b506101e36004803603606081101561023957600080fd5b50600160a060020a0381358116916020810135821691604090910135166107ae565b34801561026757600080fd5b506101e36004803603606081101561027e57600080fd5b50600160a060020a0381358116916020810135821691604090910135166109ba565b3480156102ac57600080fd5b506101e3600480360360c08110156102c357600080fd5b508035600160a060020a039081169160208101358216916040820135169060608101359060808101359060a0013560ff16610e31565b34801561030557600080fd5b50610115611077565b34801561031a57600080fd5b506101fa6110f7565b34801561032f57600080fd5b506101e3600480360360c081101561034657600080fd5b508035600160a060020a039081169160208101358216916040820135169060608101359060808101359060a0013560ff16611106565b34801561038857600080fd5b50610391611314565b6040805160208082528351818301528351919283929083019185019080838360005b838110156103cb5781810151838201526020016103b3565b50505050905090810190601f1680156103f85780820380516001836020036101000a031916815260200191505b509250505060405180910390f35b34801561041257600080fd5b5061011561134b565b34801561042757600080fd5b506101e36004803603606081101561043e57600080fd5b50600160a060020a03813581169160208101359091169060400135611351565b34801561046a57600080fd5b506101fa6115fe565b34801561047f57600080fd5b5061011561160d565b34801561049457600080fd5b50610391611613565b604080517f496e6974696174655265636f766572795374727563742861646472657373207081527f7265764f776e65722c61646472657373206f6c644f776e65722c61646472657360208201527f73206e65774f776e65722900000000000000000000000000000000000000000081830152905190819003604b01902081565b604080517f454950373132446f6d61696e286164647265737320766572696679696e67436f81527f6e747261637429000000000000000000000000000000000000000000000000006020820152905190819003602701902081565b604080517f52657365745265636f766572794f776e6572537472756374286164647265737381527f206f6c645265636f766572794f776e65722c61646472657373206e657752656360208201527f6f766572794f776e65722900000000000000000000000000000000000000000081830152905190819003604b01902081565b600654600754600854600954600160a060020a0393841693928316929091169084565b600354600160a060020a0316331461067f576040805160e560020a62461bcd02815260206004820152602c60248201526000805160206118eb833981519152604482015260008051602061190b833981519152606482015290519081900360840190fd5b600160a060020a0384161515610705576040805160e560020a62461bcd02815260206004820152602560248201527f4e6577207265636f76657279206f776e6572277320616464726573732069732060448201527f6e756c6c2e000000000000000000000000000000000000000000000000000000606482015290519081900360840190fd5b60045460009061071e90600160a060020a03168661164a565b905061072c81858585611714565b60048054600160a060020a0387811673ffffffffffffffffffffffffffffffffffffffff19831617928390556040805192821680845293909116602083015280517f694d34d730078c03a64a5c5937027a85a71f3631085fb14efebcefba0f1200ad9281900390910190a1505050505050565b600154600160a060020a031681565b600354600160a060020a03163314610812576040805160e560020a62461bcd02815260206004820152602c60248201526000805160206118eb833981519152604482015260008051602061190b833981519152606482015290519081900360840190fd5b60095460001061086c576040805160e560020a62461bcd02815260206004820152601c60248201527f5468657265206973206e6f20616374697665207265636f766572792e00000000604482015290519081900360640190fd5b600654839083908390600160a060020a03808516911614801561089c5750600754600160a060020a038381169116145b80156108b55750600854600160a060020a038281169116145b1515610931576040805160e560020a62461bcd02815260206004820152602481018290527f54686520657865637574696f6e20726571756573742773206461746120646f6560448201527f73206e6f74206d6174636820776974682074686520616374697665206f6e652e606482015290519081900360840190fd5b6006805473ffffffffffffffffffffffffffffffffffffffff199081169091556007805482169055600880549091169055600060095560408051600160a060020a038881168252878116602083015286168183015290517f7789739c172389f440865a4d26a746e433bc23a4058077237b7c8cf47a9a18bb9181900360600190a1505050505050565b600354600160a060020a03163314610a1e576040805160e560020a62461bcd02815260206004820152602c60248201526000805160206118eb833981519152604482015260008051602061190b833981519152606482015290519081900360840190fd5b600954600010610a78576040805160e560020a62461bcd02815260206004820152601c60248201527f5468657265206973206e6f20616374697665207265636f766572792e00000000604482015290519081900360640190fd5b600654839083908390600160a060020a038085169116148015610aa85750600754600160a060020a038381169116145b8015610ac15750600854600160a060020a038281169116145b1515610b3d576040805160e560020a62461bcd02815260206004820152602481018290527f54686520657865637574696f6e20726571756573742773206461746120646f6560448201527f73206e6f74206d6174636820776974682074686520616374697665206f6e652e606482015290519081900360840190fd5b6009544311610bbc576040805160e560020a62461bcd02815260206004820152603860248201527f5265717569726564206e756d626572206f6620626c6f636b7320746f2072656360448201527f6f76657220776173206e6f742070726f677265737365642e0000000000000000606482015290519081900360840190fd5b6006805473ffffffffffffffffffffffffffffffffffffffff1990811690915560078054821690556008805490911690556000600981905560408051600160a060020a03898116602480840191909152898216604480850191909152898316606480860191909152855180860382018152608490950186526020850180517bffffffffffffffffffffffffffffffffffffffffffffffffffffffff167fe318b52b0000000000000000000000000000000000000000000000000000000017905260015495517f468721a700000000000000000000000000000000000000000000000000000000815295909316600486018181529286018790529395939463468721a7948694909388938593919290820191018360ff168152602001828103825284818151815260200191508051906020019080838360005b83811015610d0c578181015183820152602001610cf4565b50505050905090810190601f168015610d395780820380516001836020036101000a031916815260200191505b5095505050505050602060405180830381600087803b158015610d5b57600080fd5b505af1158015610d6f573d6000803e3d6000fd5b505050506040513d6020811015610d8557600080fd5b50511515610ddd576040805160e560020a62461bcd02815260206004820152601a60248201527f5265636f7665727920657865637574696f6e206661696c65642e000000000000604482015290519081900360640190fd5b60408051600160a060020a03808a168252808916602083015287168183015290517f39a93e422776c9b292c4617cb75d1f0bb8e528c2c06ea7cbc10cd233793a4f859181900360600190a150505050505050565b600954600010610e8b576040805160e560020a62461bcd02815260206004820152601c60248201527f5468657265206973206e6f20616374697665207265636f766572792e00000000604482015290519081900360640190fd5b600654869086908690600160a060020a038085169116148015610ebb5750600754600160a060020a038381169116145b8015610ed45750600854600160a060020a038281169116145b1515610f50576040805160e560020a62461bcd02815260206004820152602481018290527f54686520657865637574696f6e20726571756573742773206461746120646f6560448201527f73206e6f74206d6174636820776974682074686520616374697665206f6e652e606482015290519081900360840190fd5b604080517f41626f72745265636f766572795374727563742861646472657373207072657681527f4f776e65722c61646472657373206f6c644f776e65722c61646472657373206e60208201527f65774f776e657229000000000000000000000000000000000000000000000000818301529051908190036048019020600090610fdc908b8b8b611810565b9050610fea81888888611714565b6006805473ffffffffffffffffffffffffffffffffffffffff199081169091556007805482169055600880549091169055600060095560408051600160a060020a038c811682528b811660208301528a168183015290517f7789739c172389f440865a4d26a746e433bc23a4058077237b7c8cf47a9a18bb9181900360600190a150505050505050505050565b604080517f41626f72745265636f766572795374727563742861646472657373207072657681527f4f776e65722c61646472657373206f6c644f776e65722c61646472657373206e60208201527f65774f776e65722900000000000000000000000000000000000000000000000081830152905190819003604801902081565b600454600160a060020a031681565b600354600160a060020a0316331461116a576040805160e560020a62461bcd02815260206004820152602c60248201526000805160206118eb833981519152604482015260008051602061190b833981519152606482015290519081900360840190fd5b600954156111c2576040805160e560020a62461bcd02815260206004820152601c60248201527f546865726520697320616e20616374697665207265636f766572792e00000000604482015290519081900360640190fd5b604080517f496e6974696174655265636f766572795374727563742861646472657373207081527f7265764f776e65722c61646472657373206f6c644f776e65722c61646472657360208201527f73206e65774f776e65722900000000000000000000000000000000000000000081830152905190819003604b01902060009061124e90888888611810565b905061125c81858585611714565b60408051608081018252600160a060020a03808a168083528982166020808501829052928a16848601819052600554430160609586018190526006805473ffffffffffffffffffffffffffffffffffffffff1990811686179091556007805482168517905560088054909116831790556009558551928352928201528084019190915291517f984ae6bb7fc6ec202143bd903c70af8408ed9b154ef3e4cfe78e47a90ebbe2e49281900390910190a150505050505050565b60408051808201909152601781527f44656c61796564205265636f76657279204d6f64756c65000000000000000000602082015281565b60055481565b600254156113cf576040805160e560020a62461bcd02815260206004820152602160248201527f446f6d61696e20736570617261746f722077617320616c72656164792073657460448201527f2e00000000000000000000000000000000000000000000000000000000000000606482015290519081900360840190fd5b600160a060020a0383161515611455576040805160e560020a62461bcd02815260206004820152602160248201527f5265636f76657279206f776e657227732061646472657373206973206e756c6c60448201527f2e00000000000000000000000000000000000000000000000000000000000000606482015290519081900360840190fd5b600160a060020a03821615156114db576040805160e560020a62461bcd02815260206004820152602660248201527f5265636f7665727920636f6e74726f6c6c65722773206164647265737320697360448201527f206e756c6c2e0000000000000000000000000000000000000000000000000000606482015290519081900360840190fd5b60008111611533576040805160e560020a62461bcd02815260206004820152601a60248201527f5265636f7665727920626c6f636b2064656c617920697320302e000000000000604482015290519081900360640190fd5b604080517f454950373132446f6d61696e286164647265737320766572696679696e67436f81527f6e747261637429000000000000000000000000000000000000000000000000006020808301919091528251918290036027018220828201523082840152825180830384018152606090920190925280519101206002556001805473ffffffffffffffffffffffffffffffffffffffff19908116331790915560048054600160a060020a039586169083161790556003805493909416921691909117909155600555565b600354600160a060020a031681565b60025481565b60408051808201909152600581527f302e312e30000000000000000000000000000000000000000000000000000000602082015281565b604080517f52657365745265636f766572794f776e6572537472756374286164647265737381527f206f6c645265636f766572794f776e65722c61646472657373206e65775265636020808301919091527f6f766572794f776e65722900000000000000000000000000000000000000000082840152825191829003604b01822082820152600160a060020a03808616838501528416606080840191909152835180840390910181526080909201909252805191012060009061170c8161186b565b949350505050565b6004546040805160008152602080820180845288905260ff85168284015260608201879052608082018690529151600160a060020a039093169260019260a0808401939192601f1981019281900390910190855afa15801561177a573d6000803e3d6000fd5b50505060206040510351600160a060020a031614151561180a576040805160e560020a62461bcd02815260206004820152602560248201527f496e76616c6964207369676e617475726520666f72207265636f76657279206f60448201527f776e65722e000000000000000000000000000000000000000000000000000000606482015290519081900360840190fd5b50505050565b604080516020808201879052600160a060020a0380871683850152808616606084015284166080808401919091528351808403909101815260a090920190925280519101206000906118618161186b565b9695505050505050565b600254604080517f19000000000000000000000000000000000000000000000000000000000000006020808301919091527f01000000000000000000000000000000000000000000000000000000000000006021830152602282019390935260428082019490945281518082039094018452606201905281519101209056fe4f6e6c79207265636f7665727920636f6e74726f6c6c657220697320616c6c6f77656420746f2063616c6c2e0000000000000000000000000000000000000000a165627a7a723058203d10e87252aa4aa8cedd9d265ad9a03a99c8b8e7a6a1721f86bd1849fb7d46790029",
    "source": "pragma solidity ^0.5.0;\n\n// Copyright 2019 OpenST Ltd.\n//\n// Licensed under the Apache License, Version 2.0 (the \"License\");\n// you may not use this file except in compliance with the License.\n// You may obtain a copy of the License at\n//\n//    http://www.apache.org/licenses/LICENSE-2.0\n//\n// Unless required by applicable law or agreed to in writing, software\n// distributed under the License is distributed on an \"AS IS\" BASIS,\n// WITHOUT WARRANTIES OR CONDITIONS OF ANY KIND, either express or implied.\n// See the License for the specific language governing permissions and\n// limitations under the License.\n\nimport \"./GnosisSafeModule.sol\";\nimport \"./GnosisSafeModuleManagerInterface.sol\";\n\n/**\n * @title Allows to replace an owner without Safe confirmations\n *        if the recovery owner and the recovery controller approves\n *        replacement.\n *\n * @dev The contract is a module for gnosis safe multisig contract.\n *      Gnosis safe multisig's modules assume a common interface which\n *      in the current gnosis safe implementation is inside Module.sol\n *      contract of Gnosis Safe. Instead of inheriting from this contract\n *      (not to include gnosis contracts into build process)\n *      GnosisSafeModule.sol and GnosisSafeModuleManagerInterface.sol contracts\n *      are introduced that contains the required public interfaces.\n */\ncontract DelayedRecoveryModule is GnosisSafeModule {\n\n    /* Events */\n\n    event RecoveryInitiated(\n        address _prevOwner,\n        address _oldOwner,\n        address _newOwner\n    );\n\n    event RecoveryExecuted(\n        address _prevOwner,\n        address _oldOwner,\n        address _newOwner\n    );\n\n    event RecoveryAborted(\n        address _prevOwner,\n        address _oldOwner,\n        address _newOwner\n    );\n\n    event ResetRecoveryOwner(\n        address _oldRecoveryOwner,\n        address _newRecoveryOwner\n    );\n\n\n    /* Constants */\n\n    string public constant NAME = \"Delayed Recovery Module\";\n\n    string public constant VERSION = \"0.1.0\";\n\n    bytes32 public constant DOMAIN_SEPARATOR_TYPEHASH = keccak256(\n        \"EIP712Domain(address verifyingContract)\"\n    );\n\n    bytes32 public constant INITIATE_RECOVERY_STRUCT_TYPEHASH = keccak256(\n        \"InitiateRecoveryStruct(address prevOwner,address oldOwner,address newOwner)\"\n    );\n\n    bytes32 public constant ABORT_RECOVERY_STRUCT_TYPEHASH = keccak256(\n        \"AbortRecoveryStruct(address prevOwner,address oldOwner,address newOwner)\"\n    );\n\n    bytes32 public constant RESET_RECOVERY_OWNER_STRUCT_TYPEHASH = keccak256(\n        \"ResetRecoveryOwnerStruct(address oldRecoveryOwner,address newRecoveryOwner)\"\n    );\n\n\n    /* Structs */\n\n    struct RecoveryInfo {\n        address prevOwner;\n        address oldOwner;\n        address newOwner;\n        uint256 executionBlockHeight;\n    }\n\n\n    /* Storage */\n\n    bytes32 public domainSeparator;\n\n    address public recoveryController;\n\n    address public recoveryOwner;\n\n    uint256 public recoveryBlockDelay;\n\n    RecoveryInfo public activeRecoveryInfo;\n\n\n    /* Modifiers */\n\n    modifier onlyRecoveryController()\n    {\n        require(\n            msg.sender == recoveryController,\n            \"Only recovery controller is allowed to call.\"\n        );\n\n        _;\n    }\n\n    modifier activeRecovery()\n    {\n        require(\n            activeRecoveryInfo.executionBlockHeight > 0,\n            \"There is no active recovery.\"\n        );\n\n        _;\n    }\n\n    modifier noActiveRecovery()\n    {\n        require(\n            activeRecoveryInfo.executionBlockHeight == 0,\n            \"There is an active recovery.\"\n        );\n\n        _;\n    }\n\n    modifier validRecovery(\n        address _prevOwner,\n        address _oldOwner,\n        address _newOwner\n    )\n    {\n        require(\n            // solium-disable-next-line operator-whitespace\n            activeRecoveryInfo.prevOwner == _prevOwner\n            && activeRecoveryInfo.oldOwner == _oldOwner\n            && activeRecoveryInfo.newOwner == _newOwner,\n            \"The execution request's data does not match with the active one.\"\n        );\n\n        _;\n    }\n\n\n    /* External Functions */\n\n    /**\n     * @notice Setups the contract initial storage.\n     *\n     *      Function requires:\n     *          - Function can be called only once. This is assured by\n     *            checking domainSeparator not to be set previously (bytes32(0))\n     *          - Recovery owner's address is not null.\n     *          - Recovery controller's address is not null.\n     *          - A required number of blocks to pass to be able to execute\n     *            a recovery shoudld be greater than 0.\n     *\n     * @param _recoveryOwner  An address that signs the \"recovery\n     *                        initiation/abortion\" and \"reset recovery owner\"\n     *                        requests.\n     * @param _recoveryController An address that relays signed requests of\n     *                            different types.\n     * @param _recoveryBlockDelay A required number of blocks to pass to\n     *                            be able to execute a recovery request.\n     */\n    function setup(\n        address _recoveryOwner,\n        address _recoveryController,\n        uint256 _recoveryBlockDelay\n    )\n        external\n    {\n        // This check assures that the setup function is called only once.\n        require(\n            domainSeparator == bytes32(0),\n            \"Domain separator was already set.\"\n        );\n\n        require(\n            _recoveryOwner != address(0),\n            \"Recovery owner's address is null.\"\n        );\n\n        require(\n            _recoveryController != address(0),\n            \"Recovery controller's address is null.\"\n        );\n\n        require(\n            _recoveryBlockDelay > 0,\n            \"Recovery block delay is 0.\"\n        );\n\n        domainSeparator = keccak256(\n            abi.encode(\n                DOMAIN_SEPARATOR_TYPEHASH,\n                this\n            )\n        );\n\n        manager = GnosisSafeModuleManagerInterface(msg.sender);\n\n        recoveryOwner = _recoveryOwner;\n\n        recoveryController = _recoveryController;\n\n        recoveryBlockDelay = _recoveryBlockDelay;\n    }\n\n    /**\n     * @notice Initiates a recovery procedure.\n     *\n     * @dev Function requires:\n     *          - Only the recovery controller can call.\n     *          - There is no active recovery procedure.\n     *          - Recovery owner has signed struct.\n     *\n     * @param _prevOwner Owner that pointed to the owner to be replaced in the\n     *                   linked list.\n     * @param _oldOwner Owner address to replace.\n     * @param _newOwner New owner address.\n     */\n    function initiateRecovery(\n        address _prevOwner,\n        address _oldOwner,\n        address _newOwner,\n        bytes32 _r,\n        bytes32 _s,\n        uint8 _v\n    )\n        external\n        onlyRecoveryController\n        noActiveRecovery\n    {\n        bytes32 recoveryHash = hashRecovery(\n            INITIATE_RECOVERY_STRUCT_TYPEHASH,\n            _prevOwner,\n            _oldOwner,\n            _newOwner\n        );\n\n        verify(recoveryHash, _r, _s, _v);\n\n        activeRecoveryInfo = RecoveryInfo({\n            prevOwner: _prevOwner,\n            oldOwner: _oldOwner,\n            newOwner: _newOwner,\n            executionBlockHeight: block.number + recoveryBlockDelay\n        });\n\n        emit RecoveryInitiated(\n            _prevOwner,\n            _oldOwner,\n            _newOwner\n        );\n    }\n\n    /**\n     * @notice Executes the initiated recovery.\n     *\n     * @dev Function requires:\n     *          - Only recovery controller can call.\n     *          - There is an initiated recovery with the same tuple of\n     *            addresses (prevOwner, oldOwner, newOwner).\n     *          - The required (delay) block numbers has been progressed.\n     */\n    function executeRecovery(\n        address _prevOwner,\n        address _oldOwner,\n        address _newOwner\n    )\n        external\n        onlyRecoveryController\n        activeRecovery\n        validRecovery(_prevOwner, _oldOwner, _newOwner)\n    {\n        require(\n            activeRecoveryInfo.executionBlockHeight < block.number,\n            \"Required number of blocks to recover was not progressed.\"\n        );\n\n        // prevent re-entry by deleting activeRecoveryInfo early.\n        delete activeRecoveryInfo;\n\n        bytes memory data = abi.encodeWithSignature(\n            \"swapOwner(address,address,address)\",\n            _prevOwner,\n            _oldOwner,\n            _newOwner\n        );\n\n        require(\n            manager.execTransactionFromModule(\n                address(manager),\n                0,\n                data,\n                GnosisSafeModuleManagerInterface.Operation.Call\n            ),\n            \"Recovery execution failed.\"\n        );\n\n        emit RecoveryExecuted(\n            _prevOwner,\n            _oldOwner,\n            _newOwner\n        );\n    }\n\n    /**\n     * @notice Aborts the initiated recovery.\n     *\n     * @dev Function requires:\n     *          - There is an initiated recovery with the same tuple of\n     *            addresses (prevOwner, oldOwner, newOwner).\n     *          - Recovery owner has signed struct.\n     */\n    function abortRecoveryByOwner(\n        address _prevOwner,\n        address _oldOwner,\n        address _newOwner,\n        bytes32 _r,\n        bytes32 _s,\n        uint8 _v\n    )\n        external\n        activeRecovery\n        validRecovery(_prevOwner, _oldOwner, _newOwner)\n    {\n        bytes32 recoveryHash = hashRecovery(\n            ABORT_RECOVERY_STRUCT_TYPEHASH,\n            _prevOwner,\n            _oldOwner,\n            _newOwner\n        );\n\n        verify(recoveryHash, _r, _s, _v);\n\n        delete activeRecoveryInfo;\n\n        emit RecoveryAborted(\n            _prevOwner,\n            _oldOwner,\n            _newOwner\n        );\n    }\n\n    /**\n     * @notice Aborts the initiated recovery.\n     *\n     * @dev Function requires:\n     *          - Only recovery controller can call.\n     *          - There is an initiated recovery with the same tuple of\n     *            addresses (prevOwner, oldOwner, newOwner).\n     */\n    function abortRecoveryByController(\n        address _prevOwner,\n        address _oldOwner,\n        address _newOwner\n    )\n        external\n        onlyRecoveryController\n        activeRecovery\n        validRecovery(_prevOwner, _oldOwner, _newOwner)\n    {\n        delete activeRecoveryInfo;\n\n        emit RecoveryAborted(\n            _prevOwner,\n            _oldOwner,\n            _newOwner\n        );\n    }\n\n    function resetRecoveryOwner(\n        address _newRecoveryOwner,\n        bytes32 _r,\n        bytes32 _s,\n        uint8 _v\n    )\n        external\n        onlyRecoveryController\n    {\n        require(\n            _newRecoveryOwner != address(0),\n            \"New recovery owner's address is null.\"\n        );\n\n        bytes32 resetRecoveryOwnerHash = hashResetRecoveryOwner(\n            recoveryOwner,\n            _newRecoveryOwner\n        );\n\n        verify(resetRecoveryOwnerHash, _r, _s, _v);\n\n        address oldRecoveryOwner = recoveryOwner;\n\n        recoveryOwner = _newRecoveryOwner;\n\n        emit ResetRecoveryOwner(\n            oldRecoveryOwner,\n            recoveryOwner\n        );\n    }\n\n\n    /* Private Functions */\n\n    function verify(\n        bytes32 _digest,\n        bytes32 _r,\n        bytes32 _s,\n        uint8 _v\n    )\n        private\n        view\n    {\n        require(\n            ecrecover(_digest, _v, _r, _s) == recoveryOwner,\n            \"Invalid signature for recovery owner.\"\n        );\n    }\n\n    function hashEIP712TypedData(\n        bytes32 _structHash\n    )\n        private\n        view\n        returns (bytes32 eip712TypedDataHash_)\n    {\n        eip712TypedDataHash_ = keccak256(\n            abi.encodePacked(\n                \"\\x19\",\n                \"\\x01\",\n                domainSeparator,\n                _structHash\n            )\n        );\n    }\n\n    function hashRecovery(\n        bytes32 _structTypeHash,\n        address _prevOwner,\n        address _oldOwner,\n        address _newOwner\n    )\n        private\n        view\n        returns (bytes32 recoveryHash_ )\n    {\n        bytes32 recoveryStructHash = keccak256(\n            abi.encode(\n                _structTypeHash,\n                _prevOwner,\n                _oldOwner,\n                _newOwner\n            )\n        );\n\n        recoveryHash_ = hashEIP712TypedData(recoveryStructHash);\n    }\n\n    function hashResetRecoveryOwner(\n        address _oldRecoverySigner,\n        address _newRecoverySigner\n    )\n        private\n        view\n        returns (bytes32 resetRecoveryOwnerHash_ )\n    {\n        bytes32 resetRecoveryOwnerStructHash = keccak256(\n            abi.encode(\n                RESET_RECOVERY_OWNER_STRUCT_TYPEHASH,\n                _oldRecoverySigner,\n                _newRecoverySigner\n            )\n        );\n\n        resetRecoveryOwnerHash_ = hashEIP712TypedData(\n            resetRecoveryOwnerStructHash\n        );\n    }\n}",
    "sourcePath": "/Users/spuchbauer/dev/ethdenver/openst-contracts/contracts/gnosis_safe_modules/DelayedRecoveryModule.sol",
    "compiler": {
        "name": "solc",
        "version": "0.5.0+commit.1d4f565a.Emscripten.clang"
    },
    "schemaVersion": "3.0.9",
    "updatedAt": "2020-02-15T21:03:36.423Z",
    "devdoc": {
        "details": "The contract is a module for gnosis safe multisig contract.     Gnosis safe multisig's modules assume a common interface which     in the current gnosis safe implementation is inside Module.sol     contract of Gnosis Safe. Instead of inheriting from this contract     (not to include gnosis contracts into build process)     GnosisSafeModule.sol and GnosisSafeModuleManagerInterface.sol contracts     are introduced that contains the required public interfaces.",
        "methods": {
            "abortRecoveryByController(address,address,address)": {
                "details": "Function requires:         - Only recovery controller can call.         - There is an initiated recovery with the same tuple of           addresses (prevOwner, oldOwner, newOwner)."
            },
            "abortRecoveryByOwner(address,address,address,bytes32,bytes32,uint8)": {
                "details": "Function requires:         - There is an initiated recovery with the same tuple of           addresses (prevOwner, oldOwner, newOwner).         - Recovery owner has signed struct."
            },
            "executeRecovery(address,address,address)": {
                "details": "Function requires:         - Only recovery controller can call.         - There is an initiated recovery with the same tuple of           addresses (prevOwner, oldOwner, newOwner).         - The required (delay) block numbers has been progressed."
            },
            "initiateRecovery(address,address,address,bytes32,bytes32,uint8)": {
                "details": "Function requires:         - Only the recovery controller can call.         - There is no active recovery procedure.         - Recovery owner has signed struct.",
                "params": {
                    "_newOwner": "New owner address.",
                    "_oldOwner": "Owner address to replace.",
                    "_prevOwner": "Owner that pointed to the owner to be replaced in the                  linked list."
                }
            },
            "setup(address,address,uint256)": {
                "params": {
                    "_recoveryBlockDelay": "A required number of blocks to pass to                           be able to execute a recovery request.",
                    "_recoveryController": "An address that relays signed requests of                           different types.",
                    "_recoveryOwner": "An address that signs the \"recovery                       initiation/abortion\" and \"reset recovery owner\"                       requests."
                }
            }
        },
        "title": "Allows to replace an owner without Safe confirmations       if the recovery owner and the recovery controller approves       replacement."
    },
    "userdoc": {
        "methods": {
            "abortRecoveryByController(address,address,address)": {
                "notice": "Aborts the initiated recovery."
            },
            "abortRecoveryByOwner(address,address,address,bytes32,bytes32,uint8)": {
                "notice": "Aborts the initiated recovery."
            },
            "executeRecovery(address,address,address)": {
                "notice": "Executes the initiated recovery."
            },
            "initiateRecovery(address,address,address,bytes32,bytes32,uint8)": {
                "notice": "Initiates a recovery procedure."
            },
            "setup(address,address,uint256)": {
                "notice": "Setups the contract initial storage.     *      Function requires:         - Function can be called only once. This is assured by           checking domainSeparator not to be set previously (bytes32(0))         - Recovery owner's address is not null.         - Recovery controller's address is not null.         - A required number of blocks to pass to be able to execute           a recovery shoudld be greater than 0."
            }
        }
    }
}