{
    "contractName": "EIP20TokenFake",
    "abi": [
        {
            "inputs": [
                {
                    "name": "_symbol",
                    "type": "string"
                },
                {
                    "name": "_name",
                    "type": "string"
                },
                {
                    "name": "_decimals",
                    "type": "uint8"
                }
            ],
            "payable": false,
            "stateMutability": "nonpayable",
            "type": "constructor"
        },
        {
            "anonymous": false,
            "inputs": [
                {
                    "indexed": true,
                    "name": "_from",
                    "type": "address"
                },
                {
                    "indexed": true,
                    "name": "_to",
                    "type": "address"
                },
                {
                    "indexed": false,
                    "name": "_value",
                    "type": "uint256"
                }
            ],
            "name": "Transfer",
            "type": "event"
        },
        {
            "anonymous": false,
            "inputs": [
                {
                    "indexed": true,
                    "name": "_owner",
                    "type": "address"
                },
                {
                    "indexed": true,
                    "name": "_spender",
                    "type": "address"
                },
                {
                    "indexed": false,
                    "name": "_value",
                    "type": "uint256"
                }
            ],
            "name": "Approval",
            "type": "event"
        },
        {
            "constant": true,
            "inputs": [],
            "name": "name",
            "outputs": [
                {
                    "name": "",
                    "type": "string"
                }
            ],
            "payable": false,
            "stateMutability": "view",
            "type": "function"
        },
        {
            "constant": true,
            "inputs": [],
            "name": "symbol",
            "outputs": [
                {
                    "name": "",
                    "type": "string"
                }
            ],
            "payable": false,
            "stateMutability": "view",
            "type": "function"
        },
        {
            "constant": true,
            "inputs": [],
            "name": "decimals",
            "outputs": [
                {
                    "name": "",
                    "type": "uint8"
                }
            ],
            "payable": false,
            "stateMutability": "view",
            "type": "function"
        },
        {
            "constant": true,
            "inputs": [],
            "name": "totalSupply",
            "outputs": [
                {
                    "name": "",
                    "type": "uint256"
                }
            ],
            "payable": false,
            "stateMutability": "view",
            "type": "function"
        },
        {
            "constant": true,
            "inputs": [
                {
                    "name": "_owner",
                    "type": "address"
                }
            ],
            "name": "balanceOf",
            "outputs": [
                {
                    "name": "",
                    "type": "uint256"
                }
            ],
            "payable": false,
            "stateMutability": "view",
            "type": "function"
        },
        {
            "constant": true,
            "inputs": [
                {
                    "name": "_owner",
                    "type": "address"
                },
                {
                    "name": "_spender",
                    "type": "address"
                }
            ],
            "name": "allowance",
            "outputs": [
                {
                    "name": "remaining_",
                    "type": "uint256"
                }
            ],
            "payable": false,
            "stateMutability": "view",
            "type": "function"
        },
        {
            "constant": false,
            "inputs": [
                {
                    "name": "_to",
                    "type": "address"
                },
                {
                    "name": "_value",
                    "type": "uint256"
                }
            ],
            "name": "transfer",
            "outputs": [
                {
                    "name": "success",
                    "type": "bool"
                }
            ],
            "payable": false,
            "stateMutability": "nonpayable",
            "type": "function"
        },
        {
            "constant": false,
            "inputs": [
                {
                    "name": "_from",
                    "type": "address"
                },
                {
                    "name": "_to",
                    "type": "address"
                },
                {
                    "name": "_value",
                    "type": "uint256"
                }
            ],
            "name": "transferFrom",
            "outputs": [
                {
                    "name": "success",
                    "type": "bool"
                }
            ],
            "payable": false,
            "stateMutability": "nonpayable",
            "type": "function"
        },
        {
            "constant": false,
            "inputs": [
                {
                    "name": "_spender",
                    "type": "address"
                },
                {
                    "name": "_value",
                    "type": "uint256"
                }
            ],
            "name": "approve",
            "outputs": [
                {
                    "name": "success",
                    "type": "bool"
                }
            ],
            "payable": false,
            "stateMutability": "nonpayable",
            "type": "function"
        },
        {
            "constant": false,
            "inputs": [
                {
                    "name": "_owner",
                    "type": "address"
                },
                {
                    "name": "_value",
                    "type": "uint256"
                }
            ],
            "name": "increaseBalance",
            "outputs": [],
            "payable": false,
            "stateMutability": "nonpayable",
            "type": "function"
        }
    ],
    "bytecode": "0x608060405234801561001057600080fd5b506040516109873803806109878339810180604052606081101561003357600080fd5b81019080805164010000000081111561004b57600080fd5b8201602081018481111561005e57600080fd5b815164010000000081118282018710171561007857600080fd5b5050929190602001805164010000000081111561009457600080fd5b820160208101848111156100a757600080fd5b81516401000000008111828201871017156100c157600080fd5b505060209182015160008055855191945092506100e49160029190860190610115565b5081516100f8906001906020850190610115565b506003805460ff191660ff92909216919091179055506101b09050565b828054600181600116156101000203166002900490600052602060002090601f016020900481019282601f1061015657805160ff1916838001178555610183565b82800160010185558215610183579182015b82811115610183578251825591602001919060010190610168565b5061018f929150610193565b5090565b6101ad91905b8082111561018f5760008155600101610199565b90565b6107c8806101bf6000396000f3fe6080604052600436106100a35763ffffffff7c010000000000000000000000000000000000000000000000000000000060003504166306fdde0381146100a8578063095ea7b31461013257806318160ddd1461017f57806323b872dd146101a6578063313ce567146101e95780635b86f5991461021457806370a082311461024f57806395d89b4114610282578063a9059cbb14610297578063dd62ed3e146102d0575b600080fd5b3480156100b457600080fd5b506100bd61030b565b6040805160208082528351818301528351919283929083019185019080838360005b838110156100f75781810151838201526020016100df565b50505050905090810190601f1680156101245780820380516001836020036101000a031916815260200191505b509250505060405180910390f35b34801561013e57600080fd5b5061016b6004803603604081101561015557600080fd5b50600160a060020a0381351690602001356103a0565b604080519115158252519081900360200190f35b34801561018b57600080fd5b50610194610406565b60408051918252519081900360200190f35b3480156101b257600080fd5b5061016b600480360360608110156101c957600080fd5b50600160a060020a0381358116916020810135909116906040013561040c565b3480156101f557600080fd5b506101fe610517565b6040805160ff9092168252519081900360200190f35b34801561022057600080fd5b5061024d6004803603604081101561023757600080fd5b50600160a060020a038135169060200135610520565b005b34801561025b57600080fd5b506101946004803603602081101561027257600080fd5b5035600160a060020a031661061a565b34801561028e57600080fd5b506100bd610635565b3480156102a357600080fd5b5061016b600480360360408110156102ba57600080fd5b50600160a060020a038135169060200135610693565b3480156102dc57600080fd5b50610194600480360360408110156102f357600080fd5b50600160a060020a0381358116916020013516610743565b60018054604080516020601f600260001961010087891615020190951694909404938401819004810282018101909252828152606093909290918301828280156103965780601f1061036b57610100808354040283529160200191610396565b820191906000526020600020905b81548152906001019060200180831161037957829003601f168201915b5050505050905090565b336000818152600560209081526040808320600160a060020a038716808552908352818420869055815186815291519394909390927f8c5be1e5ebec7d5bd14f71427d1e84f3dd0314c0f7b2291e5b200ac8c7c3b925928290030190a350600192915050565b60005490565b600160a060020a038316600090815260046020526040812054610435908363ffffffff61076e16565b600160a060020a0385166000908152600460209081526040808320939093556005815282822033835290522054610472908363ffffffff61076e16565b600160a060020a0380861660009081526005602090815260408083203384528252808320949094559186168152600490915220546104b6908363ffffffff61078316565b600160a060020a0380851660008181526004602090815260409182902094909455805186815290519193928816927fddf252ad1be2c89b69c2b068fc378daa952ba7f163c4a11628f55a4df523b3ef92918290030190a35060019392505050565b60035460ff1690565b600160a060020a03821615156105bd57604080517f08c379a000000000000000000000000000000000000000000000000000000000815260206004820152602360248201527f546865206163636f756e7420746f207365742062616c616e6365206973206e7560448201527f6c6c2e0000000000000000000000000000000000000000000000000000000000606482015290519081900360840190fd5b600160a060020a0382166000908152600460205260409020546105e6908263ffffffff61078316565b600160a060020a03831660009081526004602052604081209190915554610613908263ffffffff61078316565b6000555050565b600160a060020a031660009081526004602052604090205490565b60028054604080516020601f60001961010060018716150201909416859004938401819004810282018101909252828152606093909290918301828280156103965780601f1061036b57610100808354040283529160200191610396565b336000908152600460205260408120546106b3908363ffffffff61076e16565b3360009081526004602052604080822092909255600160a060020a038516815220546106e5908363ffffffff61078316565b600160a060020a0384166000818152600460209081526040918290209390935580518581529051919233927fddf252ad1be2c89b69c2b068fc378daa952ba7f163c4a11628f55a4df523b3ef9281900390910190a350600192915050565b600160a060020a03918216600090815260056020908152604080832093909416825291909152205490565b60008282111561077d57600080fd5b50900390565b60008282018381101561079557600080fd5b939250505056fea165627a7a723058203ccab3f842623156643c6751506dee119a1ca1dec571c75dafc93e81d4cf4e920029",
    "source": "/* solhint-disable-next-line compiler-fixed */\npragma solidity ^0.5.0;\n\n// Copyright 2019 OpenST Ltd.\n//\n// Licensed under the Apache License, Version 2.0 (the \"License\");\n// you may not use this file except in compliance with the License.\n// You may obtain a copy of the License at\n//\n//    http://www.apache.org/licenses/LICENSE-2.0\n//\n// Unless required by applicable law or agreed to in writing, software\n// distributed under the License is distributed on an \"AS IS\" BASIS,\n// WITHOUT WARRANTIES OR CONDITIONS OF ANY KIND, either express or implied.\n// See the License for the specific language governing permissions and\n// limitations under the License.\n\nimport \"../../token/EIP20TokenInterface.sol\";\nimport \"../../external/SafeMath.sol\";\n\n\ncontract EIP20TokenFake is EIP20TokenInterface {\n\n    /* Usings */\n\n    using SafeMath for uint256;\n\n\n    /* Storage */\n\n    uint256 tokenTotalSupply;\n\n    string private tokenName;\n\n    string private tokenSymbol;\n\n    uint8  private tokenDecimals;\n\n    mapping(address => uint256) balances;\n    mapping(address => mapping (address => uint256)) allowed;\n\n\n    /* Special Functions */\n\n    /**\n     * @notice Constructs an EIP20 token based on input parameters.\n     *\n     * @param _symbol Symbol of the token.\n     * @param _name Name of the token.\n     * @param _decimals Decimal places of the token.\n     */\n    constructor(string memory _symbol, string memory _name, uint8 _decimals)\n        public\n    {\n        tokenTotalSupply = 0;\n\n        tokenSymbol = _symbol;\n        tokenName = _name;\n        tokenDecimals = _decimals;\n    }\n\n\n    /* External Functions */\n\n    /**\n     * @dev Implements EIP20TokenInterface::name() function.\n     *\n     * @return Name of the EIP20 token.\n     */\n    function name() external view returns (string memory) {\n        return tokenName;\n    }\n\n    /**\n     * @dev Implements EIP20TokenInterface::symbol() function.\n     *\n     * @return Symbol of the EIP20 token.\n     */\n    function symbol() external view returns (string memory) {\n        return tokenSymbol;\n    }\n\n    /**\n     * @dev Implements EIP20TokenInterface::decimals() function.\n     *\n     * @return Decimal places of the EIP20 token.\n     */\n    function decimals() external view returns (uint8) {\n        return tokenDecimals;\n    }\n\n    /**\n     * @dev Implements EIP20TokenInterface::totalSupply() function.\n     *      Function is only overriden and not implemented as it's not used\n     *      during testing.\n     */\n    function totalSupply() external view returns (uint256) {\n        return tokenTotalSupply;\n    }\n\n    /**\n     * @notice Returns balance of the owner account.\n     *\n     * @param _owner Address of the owner account.\n     *\n     * @return Account balance of the owner account.\n     */\n    function balanceOf(address _owner) external view returns (uint256) {\n        return balances[_owner];\n    }\n\n    /**\n     * @notice Returns allowance of a spender for the owner account.\n     *\n     * @param _owner Address of the owner account.\n     * @param _spender Address of the spender account.\n     *\n     * @return remaining_ Remaining allowance for the spender to spend from\n     *                    the owner's account.\n     */\n    function allowance(address _owner, address _spender)\n        external\n        view\n        returns (uint256 remaining_)\n    {\n        remaining_ = allowed[_owner][_spender];\n    }\n\n    /**\n     * @notice Transfers an amount from msg.sender account.\n     *\n     * @dev Fires the \"Transfer\" event, throws if, _from account does not\n     *      have enough tokens to spend.\n     *\n     * @param _to Address to which tokens are transferred.\n     * @param _value Amount of tokens to be transferred.\n     *\n     * @return True for a successful transfer, false otherwise.\n     */\n    function transfer(address _to, uint256 _value)\n        external\n        returns (bool success)\n    {\n        // According to the EIP20 spec, \"transfers of 0 values MUST be treated\n        // as normal transfers and fire the Transfer event\".\n        // Also, should throw if not enough balance.\n        // This is taken care of by SafeMath.\n\n        balances[msg.sender] = balances[msg.sender].sub(_value);\n        balances[_to] = balances[_to].add(_value);\n\n        emit Transfer(msg.sender, _to, _value);\n\n        return true;\n    }\n\n    /**\n     * @notice Transfer the specified amount between accounts.\n     *\n     * @dev Allows a contract to transfer tokens on behalf of _from address\n     *      to _to address, the function caller has to be pre-authorized for\n     *      multiple transfers up to the total of _value amount by the\n     *      _from address.\n     *\n     * @param _from Address from which tokens are transferred.\n     * @param _to Address to which tokens are transferred.\n     * @param _value Amount of tokens transferred.\n     *\n     * @return True for a successful transfer, false otherwise.\n     */\n    function transferFrom(address _from, address _to, uint256 _value)\n        external\n        returns (bool success)\n    {\n        balances[_from] = balances[_from].sub(_value);\n        allowed[_from][msg.sender] = allowed[_from][msg.sender].sub(_value);\n        balances[_to] = balances[_to].add(_value);\n\n        emit Transfer(_from, _to, _value);\n\n        return true;\n    }\n\n    /**\n     * @notice Allows spender to withdraw from function caller's account.\n     *\n     * @dev Allows _spender address to withdraw from function caller's account,\n     *      multiple times up to the _value amount, if this function is called\n     *      again it overwrites the current allowance with _value.\n     *      Emits \"Approval\" event.\n     *\n     * @param _spender Address authorized to spend from the function\n     *                 caller's address.\n     * @param _value Amount up to which spender is authorized to spend.\n     *\n     * @return True for a successful approval, false otherwise.\n     */\n    function approve(address _spender, uint256 _value)\n        external\n        returns (bool success)\n    {\n        allowed[msg.sender][_spender] = _value;\n\n        emit Approval(msg.sender, _spender, _value);\n\n        return true;\n    }\n\n    /**\n     * @notice Increase balance of the account with the specified value.\n     *\n     * @dev The function is not part of EIP20TokenInterface and is here\n     *      to fill the balance of accounts during testing.\n     *\n     * @param _owner Account's address.\n     * @param _value Amount to increase for the account.\n     */\n    function increaseBalance(address _owner, uint256 _value)\n        external\n    {\n        require(\n            _owner != address(0),\n            \"The account to set balance is null.\"\n        );\n\n        balances[_owner] = balances[_owner].add(_value);\n\n        tokenTotalSupply = tokenTotalSupply.add(_value);\n    }\n\n}\n",
    "sourcePath": "/Users/spuchbauer/dev/ethdenver/openst-contracts/contracts/test_doubles/unit_tests/EIP20TokenFake.sol",
    "compiler": {
        "name": "solc",
        "version": "0.5.0+commit.1d4f565a.Emscripten.clang"
    },
    "schemaVersion": "3.0.9",
    "updatedAt": "2020-02-15T21:03:36.441Z",
    "devdoc": {
        "methods": {
            "allowance(address,address)": {
                "params": {
                    "_owner": "Address of the owner account.",
                    "_spender": "Address of the spender account."
                },
                "return": "remaining_ Remaining allowance for the spender to spend from                   the owner's account."
            },
            "approve(address,uint256)": {
                "details": "Allows _spender address to withdraw from function caller's account,     multiple times up to the _value amount, if this function is called     again it overwrites the current allowance with _value.     Emits \"Approval\" event.",
                "params": {
                    "_spender": "Address authorized to spend from the function                caller's address.",
                    "_value": "Amount up to which spender is authorized to spend."
                },
                "return": "True for a successful approval, false otherwise."
            },
            "balanceOf(address)": {
                "params": {
                    "_owner": "Address of the owner account."
                },
                "return": "Account balance of the owner account."
            },
            "constructor": {
                "params": {
                    "_decimals": "Decimal places of the token.",
                    "_name": "Name of the token.",
                    "_symbol": "Symbol of the token."
                }
            },
            "decimals()": {
                "details": "Implements EIP20TokenInterface::decimals() function.",
                "return": "Decimal places of the EIP20 token."
            },
            "increaseBalance(address,uint256)": {
                "details": "The function is not part of EIP20TokenInterface and is here     to fill the balance of accounts during testing.",
                "params": {
                    "_owner": "Account's address.",
                    "_value": "Amount to increase for the account."
                }
            },
            "name()": {
                "details": "Implements EIP20TokenInterface::name() function.",
                "return": "Name of the EIP20 token."
            },
            "symbol()": {
                "details": "Implements EIP20TokenInterface::symbol() function.",
                "return": "Symbol of the EIP20 token."
            },
            "totalSupply()": {
                "details": "Implements EIP20TokenInterface::totalSupply() function.     Function is only overriden and not implemented as it's not used     during testing."
            },
            "transfer(address,uint256)": {
                "details": "Fires the \"Transfer\" event, throws if, _from account does not     have enough tokens to spend.",
                "params": {
                    "_to": "Address to which tokens are transferred.",
                    "_value": "Amount of tokens to be transferred."
                },
                "return": "True for a successful transfer, false otherwise."
            },
            "transferFrom(address,address,uint256)": {
                "details": "Allows a contract to transfer tokens on behalf of _from address     to _to address, the function caller has to be pre-authorized for     multiple transfers up to the total of _value amount by the     _from address.",
                "params": {
                    "_from": "Address from which tokens are transferred.",
                    "_to": "Address to which tokens are transferred.",
                    "_value": "Amount of tokens transferred."
                },
                "return": "True for a successful transfer, false otherwise."
            }
        }
    },
    "userdoc": {
        "methods": {
            "allowance(address,address)": {
                "notice": "Returns allowance of a spender for the owner account."
            },
            "approve(address,uint256)": {
                "notice": "Allows spender to withdraw from function caller's account."
            },
            "balanceOf(address)": {
                "notice": "Returns balance of the owner account."
            },
            "constructor": "Constructs an EIP20 token based on input parameters.",
            "increaseBalance(address,uint256)": {
                "notice": "Increase balance of the account with the specified value."
            },
            "transfer(address,uint256)": {
                "notice": "Transfers an amount from msg.sender account."
            },
            "transferFrom(address,address,uint256)": {
                "notice": "Transfer the specified amount between accounts."
            }
        }
    }
}