{
    "contractName": "GnosisSafeModule",
    "abi": [
        {
            "constant": true,
            "inputs": [],
            "name": "manager",
            "outputs": [
                {
                    "name": "",
                    "type": "address"
                }
            ],
            "payable": false,
            "stateMutability": "view",
            "type": "function"
        }
    ],
    "bytecode": "0x608060405234801561001057600080fd5b5060c68061001f6000396000f3fe608060405260043610603e5763ffffffff7c0100000000000000000000000000000000000000000000000000000000600035041663481c6a7581146043575b600080fd5b348015604e57600080fd5b506055607e565b6040805173ffffffffffffffffffffffffffffffffffffffff9092168252519081900360200190f35b60015473ffffffffffffffffffffffffffffffffffffffff168156fea165627a7a7230582052308fac41a90c4e0942b69b8fa0ba7b4979d97f18a775908101f2a22f3b29860029",
    "source": "pragma solidity ^0.5.0;\n\n// Copyright 2019 OpenST Ltd.\n//\n// Licensed under the Apache License, Version 2.0 (the \"License\");\n// you may not use this file except in compliance with the License.\n// You may obtain a copy of the License at\n//\n//    http://www.apache.org/licenses/LICENSE-2.0\n//\n// Unless required by applicable law or agreed to in writing, software\n// distributed under the License is distributed on an \"AS IS\" BASIS,\n// WITHOUT WARRANTIES OR CONDITIONS OF ANY KIND, either express or implied.\n// See the License for the specific language governing permissions and\n// limitations under the License.\n\nimport \"../proxies/MasterCopyNonUpgradable.sol\";\nimport \"./GnosisSafeModuleManagerInterface.sol\";\n\n/**\n * @title Contract contains the required, public interface by\n *        gnosis/safe-contracts/contracts/base/Module.sol\n *\n * @dev Instead of inheriting from\n *      gnosis/safe-contracts/contracts/base/Module.sol and pulling all needed\n *      contracts by Module.sol into openst-contracts building process,\n *      we define this contract, that contains only required, public interface\n *      of Module.sol.\n *\n *      The current contract is non-upgradable in contrast to GnosisSafe\n *      Module contract.\n */\ncontract GnosisSafeModule is MasterCopyNonUpgradable\n{\n    /* Storage */\n\n    GnosisSafeModuleManagerInterface public manager;\n\n\n    /* Modifiers */\n\n    modifier authorized() {\n        require(\n            msg.sender == address(manager),\n            \"Method can only be called from manager\"\n        );\n\n        _;\n    }\n}",
    "sourcePath": "/Users/spuchbauer/dev/ethdenver/openst-contracts/contracts/gnosis_safe_modules/GnosisSafeModule.sol",
    "compiler": {
        "name": "solc",
        "version": "0.5.0+commit.1d4f565a.Emscripten.clang"
    },
    "schemaVersion": "3.0.9",
    "updatedAt": "2020-02-15T21:03:36.430Z",
    "devdoc": {
        "details": "Instead of inheriting from     gnosis/safe-contracts/contracts/base/Module.sol and pulling all needed     contracts by Module.sol into openst-contracts building process,     we define this contract, that contains only required, public interface     of Module.sol. *      The current contract is non-upgradable in contrast to GnosisSafe     Module contract.",
        "methods": {},
        "title": "Contract contains the required, public interface by       gnosis/safe-contracts/contracts/base/Module.sol"
    },
    "userdoc": {
        "methods": {}
    }
}