{
    "contractName": "GnosisSafeModuleManagerSpy",
    "abi": [
        {
            "constant": true,
            "inputs": [],
            "name": "recordedTo",
            "outputs": [
                {
                    "name": "",
                    "type": "address"
                }
            ],
            "payable": false,
            "stateMutability": "view",
            "type": "function"
        },
        {
            "constant": true,
            "inputs": [],
            "name": "recordedOperation",
            "outputs": [
                {
                    "name": "",
                    "type": "uint8"
                }
            ],
            "payable": false,
            "stateMutability": "view",
            "type": "function"
        },
        {
            "constant": true,
            "inputs": [],
            "name": "recordedValue",
            "outputs": [
                {
                    "name": "",
                    "type": "uint256"
                }
            ],
            "payable": false,
            "stateMutability": "view",
            "type": "function"
        },
        {
            "constant": true,
            "inputs": [],
            "name": "recordedData",
            "outputs": [
                {
                    "name": "",
                    "type": "bytes"
                }
            ],
            "payable": false,
            "stateMutability": "view",
            "type": "function"
        },
        {
            "anonymous": false,
            "inputs": [
                {
                    "indexed": false,
                    "name": "_contractAddress",
                    "type": "address"
                }
            ],
            "name": "DelayedRedcoveryModuleCreated",
            "type": "event"
        },
        {
            "constant": false,
            "inputs": [],
            "name": "makeFail",
            "outputs": [],
            "payable": false,
            "stateMutability": "nonpayable",
            "type": "function"
        },
        {
            "constant": false,
            "inputs": [
                {
                    "name": "_recoveryOwner",
                    "type": "address"
                },
                {
                    "name": "_recoveryController",
                    "type": "address"
                },
                {
                    "name": "_recoveryBlockDelay",
                    "type": "uint256"
                }
            ],
            "name": "createDelayedRecoveryModule",
            "outputs": [
                {
                    "name": "",
                    "type": "address"
                }
            ],
            "payable": false,
            "stateMutability": "nonpayable",
            "type": "function"
        },
        {
            "constant": false,
            "inputs": [
                {
                    "name": "_to",
                    "type": "address"
                },
                {
                    "name": "_value",
                    "type": "uint256"
                },
                {
                    "name": "_data",
                    "type": "bytes"
                },
                {
                    "name": "_operation",
                    "type": "uint8"
                }
            ],
            "name": "execTransactionFromModule",
            "outputs": [
                {
                    "name": "success_",
                    "type": "bool"
                }
            ],
            "payable": false,
            "stateMutability": "nonpayable",
            "type": "function"
        }
    ],
    "bytecode": "0x608060405234801561001057600080fd5b50611f18806100206000396000f3fe6080604052600436106100825763ffffffff7c0100000000000000000000000000000000000000000000000000000000600035041663260035a98114610087578063468721a7146100b85780634dc2c47f146101615780638ed6a1e41461019a578063a50dbdd4146101c1578063d985b94814610204578063f1d1cdf41461021b575b600080fd5b34801561009357600080fd5b5061009c6102a5565b60408051600160a060020a039092168252519081900360200190f35b3480156100c457600080fd5b5061014d600480360360808110156100db57600080fd5b600160a060020a038235169160208101359181019060608101604082013564010000000081111561010b57600080fd5b82018360208201111561011d57600080fd5b8035906020019184600183028401116401000000008311171561013f57600080fd5b91935091503560ff166102b9565b604080519115158252519081900360200190f35b34801561016d57600080fd5b50610176610327565b6040518082600281111561018657fe5b60ff16815260200191505060405180910390f35b3480156101a657600080fd5b506101af610330565b60408051918252519081900360200190f35b3480156101cd57600080fd5b5061009c600480360360608110156101e457600080fd5b50600160a060020a03813581169160208101359091169060400135610336565b34801561021057600080fd5b50610219610431565b005b34801561022757600080fd5b50610230610440565b6040805160208082528351818301528351919283929083019185019080838360005b8381101561026a578181015183820152602001610252565b50505050905090810190601f1680156102975780820380516001836020036101000a031916815260200191505b509250505060405180910390f35b6000546101009004600160a060020a031681565b6000805474ffffffffffffffffffffffffffffffffffffffff001916610100600160a060020a0388160217815560018590556102f7600285856104cb565b506003805483919060ff1916600183600281111561031157fe5b02179055505060005460ff161595945050505050565b60035460ff1681565b60015481565b600080610341610549565b604051809103906000f08015801561035d573d6000803e3d6000fd5b50604080517fcbe40622000000000000000000000000000000000000000000000000000000008152600160a060020a03888116600483015287811660248301526044820187905291519293509083169163cbe406229160648082019260009290919082900301818387803b1580156103d457600080fd5b505af11580156103e8573d6000803e3d6000fd5b505060408051600160a060020a038516815290517f467bcb51fc1594036bfb5bae8ba6263bb7d8fe46e6808b9d4362e776058bf7239350908190036020019150a1949350505050565b6000805460ff19166001179055565b6002805460408051602060018416156101000260001901909316849004601f810184900484028201840190925281815292918301828280156104c35780601f10610498576101008083540402835291602001916104c3565b820191906000526020600020905b8154815290600101906020018083116104a657829003601f168201915b505050505081565b828054600181600116156101000203166002900490600052602060002090601f016020900481019282601f1061050c5782800160ff19823516178555610539565b82800160010185558215610539579182015b8281111561053957823582559160200191906001019061051e565b50610545929150610559565b5090565b6040516119768061057783390190565b61057391905b80821115610545576000815560010161055f565b9056fe608060405234801561001057600080fd5b50611956806100206000396000f3fe6080604052600436106100fb5763ffffffff7c010000000000000000000000000000000000000000000000000000000060003504166307218f4381146101005780631db61b54146101275780631de52d4e1461013c578063363893ae146101515780633811b1091461019b578063481c6a75146101e557806365ae42ae14610216578063698eb6681461025b5780637525c346146102a05780637ded0af7146102f95780638583c7c01461030e5780638931417414610323578063a3f4df7e1461037c578063bde4459014610406578063cbe406221461041b578063f48da4751461045e578063f698da2514610473578063ffa1ad7414610488575b600080fd5b34801561010c57600080fd5b5061011561049d565b60408051918252519081900360200190f35b34801561013357600080fd5b5061011561051d565b34801561014857600080fd5b50610115610578565b34801561015d57600080fd5b506101666105f8565b60408051600160a060020a03958616815293851660208501529190931682820152606082019290925290519081900360800190f35b3480156101a757600080fd5b506101e3600480360360808110156101be57600080fd5b508035600160a060020a0316906020810135906040810135906060013560ff1661061b565b005b3480156101f157600080fd5b506101fa61079f565b60408051600160a060020a039092168252519081900360200190f35b34801561022257600080fd5b506101e36004803603606081101561023957600080fd5b50600160a060020a0381358116916020810135821691604090910135166107ae565b34801561026757600080fd5b506101e36004803603606081101561027e57600080fd5b50600160a060020a0381358116916020810135821691604090910135166109ba565b3480156102ac57600080fd5b506101e3600480360360c08110156102c357600080fd5b508035600160a060020a039081169160208101358216916040820135169060608101359060808101359060a0013560ff16610e31565b34801561030557600080fd5b50610115611077565b34801561031a57600080fd5b506101fa6110f7565b34801561032f57600080fd5b506101e3600480360360c081101561034657600080fd5b508035600160a060020a039081169160208101358216916040820135169060608101359060808101359060a0013560ff16611106565b34801561038857600080fd5b50610391611314565b6040805160208082528351818301528351919283929083019185019080838360005b838110156103cb5781810151838201526020016103b3565b50505050905090810190601f1680156103f85780820380516001836020036101000a031916815260200191505b509250505060405180910390f35b34801561041257600080fd5b5061011561134b565b34801561042757600080fd5b506101e36004803603606081101561043e57600080fd5b50600160a060020a03813581169160208101359091169060400135611351565b34801561046a57600080fd5b506101fa6115fe565b34801561047f57600080fd5b5061011561160d565b34801561049457600080fd5b50610391611613565b604080517f496e6974696174655265636f766572795374727563742861646472657373207081527f7265764f776e65722c61646472657373206f6c644f776e65722c61646472657360208201527f73206e65774f776e65722900000000000000000000000000000000000000000081830152905190819003604b01902081565b604080517f454950373132446f6d61696e286164647265737320766572696679696e67436f81527f6e747261637429000000000000000000000000000000000000000000000000006020820152905190819003602701902081565b604080517f52657365745265636f766572794f776e6572537472756374286164647265737381527f206f6c645265636f766572794f776e65722c61646472657373206e657752656360208201527f6f766572794f776e65722900000000000000000000000000000000000000000081830152905190819003604b01902081565b600654600754600854600954600160a060020a0393841693928316929091169084565b600354600160a060020a0316331461067f576040805160e560020a62461bcd02815260206004820152602c60248201526000805160206118eb833981519152604482015260008051602061190b833981519152606482015290519081900360840190fd5b600160a060020a0384161515610705576040805160e560020a62461bcd02815260206004820152602560248201527f4e6577207265636f76657279206f776e6572277320616464726573732069732060448201527f6e756c6c2e000000000000000000000000000000000000000000000000000000606482015290519081900360840190fd5b60045460009061071e90600160a060020a03168661164a565b905061072c81858585611714565b60048054600160a060020a0387811673ffffffffffffffffffffffffffffffffffffffff19831617928390556040805192821680845293909116602083015280517f694d34d730078c03a64a5c5937027a85a71f3631085fb14efebcefba0f1200ad9281900390910190a1505050505050565b600154600160a060020a031681565b600354600160a060020a03163314610812576040805160e560020a62461bcd02815260206004820152602c60248201526000805160206118eb833981519152604482015260008051602061190b833981519152606482015290519081900360840190fd5b60095460001061086c576040805160e560020a62461bcd02815260206004820152601c60248201527f5468657265206973206e6f20616374697665207265636f766572792e00000000604482015290519081900360640190fd5b600654839083908390600160a060020a03808516911614801561089c5750600754600160a060020a038381169116145b80156108b55750600854600160a060020a038281169116145b1515610931576040805160e560020a62461bcd02815260206004820152602481018290527f54686520657865637574696f6e20726571756573742773206461746120646f6560448201527f73206e6f74206d6174636820776974682074686520616374697665206f6e652e606482015290519081900360840190fd5b6006805473ffffffffffffffffffffffffffffffffffffffff199081169091556007805482169055600880549091169055600060095560408051600160a060020a038881168252878116602083015286168183015290517f7789739c172389f440865a4d26a746e433bc23a4058077237b7c8cf47a9a18bb9181900360600190a1505050505050565b600354600160a060020a03163314610a1e576040805160e560020a62461bcd02815260206004820152602c60248201526000805160206118eb833981519152604482015260008051602061190b833981519152606482015290519081900360840190fd5b600954600010610a78576040805160e560020a62461bcd02815260206004820152601c60248201527f5468657265206973206e6f20616374697665207265636f766572792e00000000604482015290519081900360640190fd5b600654839083908390600160a060020a038085169116148015610aa85750600754600160a060020a038381169116145b8015610ac15750600854600160a060020a038281169116145b1515610b3d576040805160e560020a62461bcd02815260206004820152602481018290527f54686520657865637574696f6e20726571756573742773206461746120646f6560448201527f73206e6f74206d6174636820776974682074686520616374697665206f6e652e606482015290519081900360840190fd5b6009544311610bbc576040805160e560020a62461bcd02815260206004820152603860248201527f5265717569726564206e756d626572206f6620626c6f636b7320746f2072656360448201527f6f76657220776173206e6f742070726f677265737365642e0000000000000000606482015290519081900360840190fd5b6006805473ffffffffffffffffffffffffffffffffffffffff1990811690915560078054821690556008805490911690556000600981905560408051600160a060020a03898116602480840191909152898216604480850191909152898316606480860191909152855180860382018152608490950186526020850180517bffffffffffffffffffffffffffffffffffffffffffffffffffffffff167fe318b52b0000000000000000000000000000000000000000000000000000000017905260015495517f468721a700000000000000000000000000000000000000000000000000000000815295909316600486018181529286018790529395939463468721a7948694909388938593919290820191018360ff168152602001828103825284818151815260200191508051906020019080838360005b83811015610d0c578181015183820152602001610cf4565b50505050905090810190601f168015610d395780820380516001836020036101000a031916815260200191505b5095505050505050602060405180830381600087803b158015610d5b57600080fd5b505af1158015610d6f573d6000803e3d6000fd5b505050506040513d6020811015610d8557600080fd5b50511515610ddd576040805160e560020a62461bcd02815260206004820152601a60248201527f5265636f7665727920657865637574696f6e206661696c65642e000000000000604482015290519081900360640190fd5b60408051600160a060020a03808a168252808916602083015287168183015290517f39a93e422776c9b292c4617cb75d1f0bb8e528c2c06ea7cbc10cd233793a4f859181900360600190a150505050505050565b600954600010610e8b576040805160e560020a62461bcd02815260206004820152601c60248201527f5468657265206973206e6f20616374697665207265636f766572792e00000000604482015290519081900360640190fd5b600654869086908690600160a060020a038085169116148015610ebb5750600754600160a060020a038381169116145b8015610ed45750600854600160a060020a038281169116145b1515610f50576040805160e560020a62461bcd02815260206004820152602481018290527f54686520657865637574696f6e20726571756573742773206461746120646f6560448201527f73206e6f74206d6174636820776974682074686520616374697665206f6e652e606482015290519081900360840190fd5b604080517f41626f72745265636f766572795374727563742861646472657373207072657681527f4f776e65722c61646472657373206f6c644f776e65722c61646472657373206e60208201527f65774f776e657229000000000000000000000000000000000000000000000000818301529051908190036048019020600090610fdc908b8b8b611810565b9050610fea81888888611714565b6006805473ffffffffffffffffffffffffffffffffffffffff199081169091556007805482169055600880549091169055600060095560408051600160a060020a038c811682528b811660208301528a168183015290517f7789739c172389f440865a4d26a746e433bc23a4058077237b7c8cf47a9a18bb9181900360600190a150505050505050505050565b604080517f41626f72745265636f766572795374727563742861646472657373207072657681527f4f776e65722c61646472657373206f6c644f776e65722c61646472657373206e60208201527f65774f776e65722900000000000000000000000000000000000000000000000081830152905190819003604801902081565b600454600160a060020a031681565b600354600160a060020a0316331461116a576040805160e560020a62461bcd02815260206004820152602c60248201526000805160206118eb833981519152604482015260008051602061190b833981519152606482015290519081900360840190fd5b600954156111c2576040805160e560020a62461bcd02815260206004820152601c60248201527f546865726520697320616e20616374697665207265636f766572792e00000000604482015290519081900360640190fd5b604080517f496e6974696174655265636f766572795374727563742861646472657373207081527f7265764f776e65722c61646472657373206f6c644f776e65722c61646472657360208201527f73206e65774f776e65722900000000000000000000000000000000000000000081830152905190819003604b01902060009061124e90888888611810565b905061125c81858585611714565b60408051608081018252600160a060020a03808a168083528982166020808501829052928a16848601819052600554430160609586018190526006805473ffffffffffffffffffffffffffffffffffffffff1990811686179091556007805482168517905560088054909116831790556009558551928352928201528084019190915291517f984ae6bb7fc6ec202143bd903c70af8408ed9b154ef3e4cfe78e47a90ebbe2e49281900390910190a150505050505050565b60408051808201909152601781527f44656c61796564205265636f76657279204d6f64756c65000000000000000000602082015281565b60055481565b600254156113cf576040805160e560020a62461bcd02815260206004820152602160248201527f446f6d61696e20736570617261746f722077617320616c72656164792073657460448201527f2e00000000000000000000000000000000000000000000000000000000000000606482015290519081900360840190fd5b600160a060020a0383161515611455576040805160e560020a62461bcd02815260206004820152602160248201527f5265636f76657279206f776e657227732061646472657373206973206e756c6c60448201527f2e00000000000000000000000000000000000000000000000000000000000000606482015290519081900360840190fd5b600160a060020a03821615156114db576040805160e560020a62461bcd02815260206004820152602660248201527f5265636f7665727920636f6e74726f6c6c65722773206164647265737320697360448201527f206e756c6c2e0000000000000000000000000000000000000000000000000000606482015290519081900360840190fd5b60008111611533576040805160e560020a62461bcd02815260206004820152601a60248201527f5265636f7665727920626c6f636b2064656c617920697320302e000000000000604482015290519081900360640190fd5b604080517f454950373132446f6d61696e286164647265737320766572696679696e67436f81527f6e747261637429000000000000000000000000000000000000000000000000006020808301919091528251918290036027018220828201523082840152825180830384018152606090920190925280519101206002556001805473ffffffffffffffffffffffffffffffffffffffff19908116331790915560048054600160a060020a039586169083161790556003805493909416921691909117909155600555565b600354600160a060020a031681565b60025481565b60408051808201909152600581527f302e312e30000000000000000000000000000000000000000000000000000000602082015281565b604080517f52657365745265636f766572794f776e6572537472756374286164647265737381527f206f6c645265636f766572794f776e65722c61646472657373206e65775265636020808301919091527f6f766572794f776e65722900000000000000000000000000000000000000000082840152825191829003604b01822082820152600160a060020a03808616838501528416606080840191909152835180840390910181526080909201909252805191012060009061170c8161186b565b949350505050565b6004546040805160008152602080820180845288905260ff85168284015260608201879052608082018690529151600160a060020a039093169260019260a0808401939192601f1981019281900390910190855afa15801561177a573d6000803e3d6000fd5b50505060206040510351600160a060020a031614151561180a576040805160e560020a62461bcd02815260206004820152602560248201527f496e76616c6964207369676e617475726520666f72207265636f76657279206f60448201527f776e65722e000000000000000000000000000000000000000000000000000000606482015290519081900360840190fd5b50505050565b604080516020808201879052600160a060020a0380871683850152808616606084015284166080808401919091528351808403909101815260a090920190925280519101206000906118618161186b565b9695505050505050565b600254604080517f19000000000000000000000000000000000000000000000000000000000000006020808301919091527f01000000000000000000000000000000000000000000000000000000000000006021830152602282019390935260428082019490945281518082039094018452606201905281519101209056fe4f6e6c79207265636f7665727920636f6e74726f6c6c657220697320616c6c6f77656420746f2063616c6c2e0000000000000000000000000000000000000000a165627a7a723058203d10e87252aa4aa8cedd9d265ad9a03a99c8b8e7a6a1721f86bd1849fb7d46790029a165627a7a723058204eff971f74f366b60ab7267b1369a97c2ace9a84c535fe8bc3b136749aacd4dd0029",
    "source": "pragma solidity ^0.5.0;\n\n// Copyright 2019 OpenST Ltd.\n//\n// Licensed under the Apache License, Version 2.0 (the \"License\");\n// you may not use this file except in compliance with the License.\n// You may obtain a copy of the License at\n//\n//    http://www.apache.org/licenses/LICENSE-2.0\n//\n// Unless required by applicable law or agreed to in writing, software\n// distributed under the License is distributed on an \"AS IS\" BASIS,\n// WITHOUT WARRANTIES OR CONDITIONS OF ANY KIND, either express or implied.\n// See the License for the specific language governing permissions and\n// limitations under the License.\n\nimport \"../../../gnosis_safe_modules/GnosisSafeModuleManagerInterface.sol\";\nimport \"../../../gnosis_safe_modules/DelayedRecoveryModule.sol\";\n\ncontract GnosisSafeModuleManagerSpy is GnosisSafeModuleManagerInterface\n{\n    /* Events */\n\n    event DelayedRedcoveryModuleCreated(address _contractAddress);\n\n\n    /* Storage */\n\n    bool shouldExecutionFail;\n\n    address public recordedTo;\n\n    uint256 public recordedValue;\n\n    bytes public recordedData;\n\n    Operation public recordedOperation;\n\n\n    /* External Functions */\n\n    function makeFail()\n        external\n    {\n        shouldExecutionFail = true;\n    }\n\n    function createDelayedRecoveryModule(\n        address _recoveryOwner,\n        address _recoveryController,\n        uint256 _recoveryBlockDelay\n    )\n        external\n        returns (DelayedRecoveryModule)\n    {\n        DelayedRecoveryModule module = new DelayedRecoveryModule();\n        module.setup(\n            _recoveryOwner,\n            _recoveryController,\n            _recoveryBlockDelay\n        );\n\n        emit DelayedRedcoveryModuleCreated(address(module));\n\n        return module;\n    }\n\n    /**\n     * @dev Allows a module to execute a Safe transaction without any\n     *      further confirmations.\n     *\n     * @param _to Destination address of module transaction.\n     * @param _value Ether value of module transaction.\n     * @param _data Data payload of module transaction.\n     * @param _operation Operation type of module transaction.\n     */\n    function execTransactionFromModule(\n        address _to,\n        uint256 _value,\n        bytes calldata _data,\n        Operation _operation\n    )\n        external\n        returns (bool success_)\n    {\n        recordedTo = _to;\n        recordedValue = _value;\n        recordedData = _data;\n        recordedOperation = _operation;\n\n        return !shouldExecutionFail;\n    }\n}",
    "sourcePath": "/Users/spuchbauer/dev/ethdenver/openst-contracts/contracts/test_doubles/unit_tests/gnosis_safe/GnosisSafeModuleManagerSpy.sol",
    "compiler": {
        "name": "solc",
        "version": "0.5.0+commit.1d4f565a.Emscripten.clang"
    },
    "schemaVersion": "3.0.9",
    "updatedAt": "2020-02-15T21:03:36.446Z",
    "devdoc": {
        "methods": {
            "execTransactionFromModule(address,uint256,bytes,uint8)": {
                "details": "Allows a module to execute a Safe transaction without any     further confirmations.",
                "params": {
                    "_data": "Data payload of module transaction.",
                    "_operation": "Operation type of module transaction.",
                    "_to": "Destination address of module transaction.",
                    "_value": "Ether value of module transaction."
                }
            }
        }
    },
    "userdoc": {
        "methods": {}
    }
}