{
    "contractName": "MasterCopySpy",
    "abi": [
        {
            "constant": true,
            "inputs": [],
            "name": "recordedBeneficiary",
            "outputs": [
                {
                    "name": "",
                    "type": "address"
                }
            ],
            "payable": false,
            "stateMutability": "view",
            "type": "function"
        },
        {
            "constant": true,
            "inputs": [],
            "name": "recordedMsgValue",
            "outputs": [
                {
                    "name": "",
                    "type": "uint256"
                }
            ],
            "payable": false,
            "stateMutability": "view",
            "type": "function"
        },
        {
            "constant": true,
            "inputs": [],
            "name": "contractShouldFail",
            "outputs": [
                {
                    "name": "",
                    "type": "bool"
                }
            ],
            "payable": false,
            "stateMutability": "view",
            "type": "function"
        },
        {
            "constant": true,
            "inputs": [],
            "name": "recordedCurrencyCode",
            "outputs": [
                {
                    "name": "",
                    "type": "uint8"
                }
            ],
            "payable": false,
            "stateMutability": "view",
            "type": "function"
        },
        {
            "constant": true,
            "inputs": [],
            "name": "recordedMsgSender",
            "outputs": [
                {
                    "name": "",
                    "type": "address"
                }
            ],
            "payable": false,
            "stateMutability": "view",
            "type": "function"
        },
        {
            "constant": true,
            "inputs": [],
            "name": "reservedStorageSlotForProxy",
            "outputs": [
                {
                    "name": "",
                    "type": "address"
                }
            ],
            "payable": false,
            "stateMutability": "view",
            "type": "function"
        },
        {
            "constant": true,
            "inputs": [],
            "name": "remainingBalance",
            "outputs": [
                {
                    "name": "",
                    "type": "uint256"
                }
            ],
            "payable": false,
            "stateMutability": "view",
            "type": "function"
        },
        {
            "inputs": [
                {
                    "name": "_initialBalance",
                    "type": "uint256"
                }
            ],
            "payable": false,
            "stateMutability": "nonpayable",
            "type": "constructor"
        },
        {
            "anonymous": false,
            "inputs": [
                {
                    "indexed": false,
                    "name": "_beneficiary",
                    "type": "address"
                },
                {
                    "indexed": false,
                    "name": "_amount",
                    "type": "uint256"
                }
            ],
            "name": "Payment",
            "type": "event"
        },
        {
            "constant": false,
            "inputs": [
                {
                    "name": "_initialBalance",
                    "type": "uint256"
                }
            ],
            "name": "setup",
            "outputs": [],
            "payable": false,
            "stateMutability": "nonpayable",
            "type": "function"
        },
        {
            "constant": false,
            "inputs": [
                {
                    "name": "_currencyCode",
                    "type": "uint8"
                },
                {
                    "name": "_beneficiary",
                    "type": "address"
                }
            ],
            "name": "pay",
            "outputs": [
                {
                    "name": "",
                    "type": "uint256"
                }
            ],
            "payable": true,
            "stateMutability": "payable",
            "type": "function"
        }
    ],
    "bytecode": "0x608060405234801561001057600080fd5b506040516020806104508339810180604052602081101561003057600080fd5b50516100448164010000000061004a810204565b5061004f565b600555565b6103f28061005e6000396000f3fe6080604052600436106100975763ffffffff7c01000000000000000000000000000000000000000000000000000000006000350416627d527e811461009c5780634313b9e5146100cd5780637a7423a9146100f95780638c43bddb14610120578063a85d49261461014f578063bd84e61814610178578063cc6bdda8146101a3578063d50722e6146101b8578063da25de3c146101cd575b600080fd5b3480156100a857600080fd5b506100b16101e2565b60408051600160a060020a039092168252519081900360200190f35b3480156100d957600080fd5b506100f7600480360360208110156100f057600080fd5b50356101f1565b005b34801561010557600080fd5b5061010e6101f6565b60408051918252519081900360200190f35b61010e6004803603604081101561013657600080fd5b50803560ff169060200135600160a060020a03166101fc565b34801561015b57600080fd5b50610164610363565b604080519115158252519081900360200190f35b34801561018457600080fd5b5061018d61036c565b6040805160ff9092168252519081900360200190f35b3480156101af57600080fd5b506100b161038d565b3480156101c457600080fd5b506100b161039c565b3480156101d957600080fd5b5061010e6103ab565b600354600160a060020a031681565b600555565b60045481565b60065460009060ff161561029757604080517f08c379a000000000000000000000000000000000000000000000000000000000815260206004820152602160248201527f436f6e747261637420686173206265656e206d61726b656420746f206661696c60448201527f2e00000000000000000000000000000000000000000000000000000000000000606482015290519081900360840190fd5b600280543373ffffffffffffffffffffffffffffffffffffffff19918216179091556003805474ff000000000000000000000000000000000000000019167401000000000000000000000000000000000000000060ff87160217909116600160a060020a038416179055346004819055600554610313916103b1565b60055560408051600160a060020a038416815234602082015281517fd4f43975feb89f48dd30cabbb32011045be187d1e11c8ea9faa43efc35282519929181900390910190a15060055492915050565b60065460ff1681565b60035474010000000000000000000000000000000000000000900460ff1681565b600254600160a060020a031681565b600154600160a060020a031681565b60055481565b6000828211156103c057600080fd5b5090039056fea165627a7a7230582054080f7c32194e27dc68a92fa2b470b76808828a1f0b1982ebc3c868068cf2ec0029",
    "source": "pragma solidity ^0.5.0;\n\n// Copyright 2019 OpenST Ltd.\n//\n// Licensed under the Apache License, Version 2.0 (the \"License\");\n// you may not use this file except in compliance with the License.\n// You may obtain a copy of the License at\n//\n//    http://www.apache.org/licenses/LICENSE-2.0\n//\n// Unless required by applicable law or agreed to in writing, software\n// distributed under the License is distributed on an \"AS IS\" BASIS,\n// WITHOUT WARRANTIES OR CONDITIONS OF ANY KIND, either express or implied.\n// See the License for the specific language governing permissions and\n// limitations under the License.\n\nimport \"../../external/SafeMath.sol\";\nimport \"../../proxies/MasterCopyNonUpgradable.sol\";\n\n/**\n * @title A test double (spy) contract acting as a master copy for proxies\n *        during testing.\n *        Contract is a generic master copy implementation, that implements\n *        setup() function to initialize proxy's storage layout, records\n *        parameters, msg.value and msg.sender values once calling the pay()\n *        function to test validity afterwards.\n */\ncontract MasterCopySpy is MasterCopyNonUpgradable {\n\n    /* Usings */\n\n    using SafeMath for uint256;\n\n\n    /* Events */\n\n    event Payment(\n        address _beneficiary,\n        uint256 _amount\n    );\n\n\n    /* Storage */\n\n    address public reservedStorageSlotForProxy;\n\n    address public recordedMsgSender;\n\n    address public recordedBeneficiary;\n\n    uint8 public recordedCurrencyCode;\n\n    uint256 public recordedMsgValue;\n\n    uint256 public remainingBalance;\n\n    bool public contractShouldFail;\n\n\n    /* Special Functions */\n\n    constructor(uint256 _initialBalance)\n        public\n    {\n        setup(_initialBalance);\n    }\n\n    function setup(uint256 _initialBalance)\n        public\n    {\n        remainingBalance = _initialBalance;\n    }\n\n\n    /* External Functions */\n\n    function pay(uint8 _currencyCode, address _beneficiary)\n        external\n        payable\n        returns (uint256)\n    {\n        if (contractShouldFail) {\n            revert(\"Contract has been marked to fail.\");\n        }\n\n        recordedMsgSender = msg.sender;\n\n        recordedCurrencyCode = _currencyCode;\n\n        recordedBeneficiary = _beneficiary;\n\n        recordedMsgValue = msg.value;\n\n        remainingBalance = remainingBalance.sub(msg.value);\n\n        emit Payment(_beneficiary, msg.value);\n\n        return remainingBalance;\n    }\n}",
    "sourcePath": "/Users/spuchbauer/dev/ethdenver/openst-contracts/contracts/test_doubles/unit_tests/MasterCopySpy.sol",
    "compiler": {
        "name": "solc",
        "version": "0.5.0+commit.1d4f565a.Emscripten.clang"
    },
    "schemaVersion": "3.0.9",
    "updatedAt": "2020-02-15T21:03:36.444Z",
    "devdoc": {
        "methods": {},
        "title": "A test double (spy) contract acting as a master copy for proxies       during testing.       Contract is a generic master copy implementation, that implements       setup() function to initialize proxy's storage layout, records       parameters, msg.value and msg.sender values once calling the pay()       function to test validity afterwards."
    },
    "userdoc": {
        "methods": {}
    }
}