{
    "contractName": "Organized",
    "abi": [
        {
            "constant": true,
            "inputs": [],
            "name": "organization",
            "outputs": [
                {
                    "name": "",
                    "type": "address"
                }
            ],
            "payable": false,
            "stateMutability": "view",
            "type": "function"
        },
        {
            "inputs": [
                {
                    "name": "_organization",
                    "type": "address"
                }
            ],
            "payable": false,
            "stateMutability": "nonpayable",
            "type": "constructor"
        }
    ],
    "bytecode": "0x608060405234801561001057600080fd5b506040516020806101c48339810180604052602081101561003057600080fd5b5051600160a060020a03811615156100cf57604080517f08c379a000000000000000000000000000000000000000000000000000000000815260206004820152602f60248201527f4f7267616e697a6174696f6e20636f6e74726163742061646472657373206d7560448201527f7374206e6f74206265207a65726f2e0000000000000000000000000000000000606482015290519081900360840190fd5b60008054600160a060020a03909216600160a060020a031990921691909117905560c6806100fe6000396000f3fe608060405260043610603e5763ffffffff7c010000000000000000000000000000000000000000000000000000000060003504166323bd4d7a81146043575b600080fd5b348015604e57600080fd5b506055607e565b6040805173ffffffffffffffffffffffffffffffffffffffff9092168252519081900360200190f35b60005473ffffffffffffffffffffffffffffffffffffffff168156fea165627a7a72305820bf74c97718b904f386bc9a9bfb7a10faba9ae2a0c01be0aced52d45571787fee0029",
    "source": "pragma solidity ^0.5.0;\n\n// Copyright 2019 OpenST Ltd.\n//\n// Licensed under the Apache License, Version 2.0 (the \"License\");\n// you may not use this file except in compliance with the License.\n// You may obtain a copy of the License at\n//\n//    http://www.apache.org/licenses/LICENSE-2.0\n//\n// Unless required by applicable law or agreed to in writing, software\n// distributed under the License is distributed on an \"AS IS\" BASIS,\n// WITHOUT WARRANTIES OR CONDITIONS OF ANY KIND, either express or implied.\n// See the License for the specific language governing permissions and\n// limitations under the License.\n//\n// ----------------------------------------------------------------------------\n//\n// http://www.simpletoken.org/\n//\n// ----------------------------------------------------------------------------\n\nimport \"./OrganizationInterface.sol\";\n\n/**\n * @title Organized contract.\n *\n * @notice The Organized contract facilitates integration of\n *         organization administration keys with different contracts.\n */\ncontract Organized {\n\n\n    /* Storage */\n\n    /** Organization which holds all the keys needed to administer the economy. */\n    OrganizationInterface public organization;\n\n\n    /* Modifiers */\n\n    modifier onlyOrganization()\n    {\n        require(\n            organization.isOrganization(msg.sender),\n            \"Only the organization is allowed to call this method.\"\n        );\n\n        _;\n    }\n\n    modifier onlyWorker()\n    {\n        require(\n            organization.isWorker(msg.sender),\n            \"Only whitelisted workers are allowed to call this method.\"\n        );\n\n        _;\n    }\n\n\n    /* Constructor */\n\n    /**\n     * @notice Sets the address of the organization contract.\n     *\n     * @param _organization A contract that manages worker keys.\n     */\n    constructor(OrganizationInterface _organization) public {\n        require(\n            address(_organization) != address(0),\n            \"Organization contract address must not be zero.\"\n        );\n\n        organization = _organization;\n    }\n\n}\n",
    "sourcePath": "/Users/spuchbauer/dev/ethdenver/openst-contracts/contracts/organization/Organized.sol",
    "compiler": {
        "name": "solc",
        "version": "0.5.0+commit.1d4f565a.Emscripten.clang"
    },
    "schemaVersion": "3.0.9",
    "updatedAt": "2020-02-15T21:03:36.434Z",
    "devdoc": {
        "methods": {
            "constructor": {
                "params": {
                    "_organization": "A contract that manages worker keys."
                }
            }
        },
        "title": "Organized contract."
    },
    "userdoc": {
        "methods": {
            "constructor": "Sets the address of the organization contract."
        },
        "notice": "The Organized contract facilitates integration of        organization administration keys with different contracts."
    }
}