{
    "contractName": "Organization",
    "abi": [
        {
            "constant": true,
            "inputs": [
                {
                    "name": "",
                    "type": "address"
                }
            ],
            "name": "workers",
            "outputs": [
                {
                    "name": "",
                    "type": "uint256"
                }
            ],
            "payable": false,
            "stateMutability": "view",
            "type": "function"
        },
        {
            "constant": true,
            "inputs": [],
            "name": "owner",
            "outputs": [
                {
                    "name": "",
                    "type": "address"
                }
            ],
            "payable": false,
            "stateMutability": "view",
            "type": "function"
        },
        {
            "constant": true,
            "inputs": [],
            "name": "proposedOwner",
            "outputs": [
                {
                    "name": "",
                    "type": "address"
                }
            ],
            "payable": false,
            "stateMutability": "view",
            "type": "function"
        },
        {
            "constant": true,
            "inputs": [],
            "name": "admin",
            "outputs": [
                {
                    "name": "",
                    "type": "address"
                }
            ],
            "payable": false,
            "stateMutability": "view",
            "type": "function"
        },
        {
            "inputs": [
                {
                    "name": "_owner",
                    "type": "address"
                },
                {
                    "name": "_admin",
                    "type": "address"
                },
                {
                    "name": "_workers",
                    "type": "address[]"
                },
                {
                    "name": "_expirationHeight",
                    "type": "uint256"
                }
            ],
            "payable": false,
            "stateMutability": "nonpayable",
            "type": "constructor"
        },
        {
            "anonymous": false,
            "inputs": [
                {
                    "indexed": true,
                    "name": "proposedOwner",
                    "type": "address"
                },
                {
                    "indexed": false,
                    "name": "currentOwner",
                    "type": "address"
                }
            ],
            "name": "OwnershipTransferInitiated",
            "type": "event"
        },
        {
            "anonymous": false,
            "inputs": [
                {
                    "indexed": false,
                    "name": "newOwner",
                    "type": "address"
                },
                {
                    "indexed": false,
                    "name": "previousOwner",
                    "type": "address"
                }
            ],
            "name": "OwnershipTransferCompleted",
            "type": "event"
        },
        {
            "anonymous": false,
            "inputs": [
                {
                    "indexed": true,
                    "name": "newAdmin",
                    "type": "address"
                },
                {
                    "indexed": false,
                    "name": "previousAdmin",
                    "type": "address"
                }
            ],
            "name": "AdminAddressChanged",
            "type": "event"
        },
        {
            "anonymous": false,
            "inputs": [
                {
                    "indexed": true,
                    "name": "worker",
                    "type": "address"
                },
                {
                    "indexed": false,
                    "name": "expirationHeight",
                    "type": "uint256"
                }
            ],
            "name": "WorkerSet",
            "type": "event"
        },
        {
            "anonymous": false,
            "inputs": [
                {
                    "indexed": false,
                    "name": "worker",
                    "type": "address"
                }
            ],
            "name": "WorkerUnset",
            "type": "event"
        },
        {
            "constant": false,
            "inputs": [
                {
                    "name": "_proposedOwner",
                    "type": "address"
                }
            ],
            "name": "initiateOwnershipTransfer",
            "outputs": [
                {
                    "name": "success_",
                    "type": "bool"
                }
            ],
            "payable": false,
            "stateMutability": "nonpayable",
            "type": "function"
        },
        {
            "constant": false,
            "inputs": [],
            "name": "completeOwnershipTransfer",
            "outputs": [
                {
                    "name": "success_",
                    "type": "bool"
                }
            ],
            "payable": false,
            "stateMutability": "nonpayable",
            "type": "function"
        },
        {
            "constant": false,
            "inputs": [
                {
                    "name": "_admin",
                    "type": "address"
                }
            ],
            "name": "setAdmin",
            "outputs": [
                {
                    "name": "success_",
                    "type": "bool"
                }
            ],
            "payable": false,
            "stateMutability": "nonpayable",
            "type": "function"
        },
        {
            "constant": false,
            "inputs": [
                {
                    "name": "_worker",
                    "type": "address"
                },
                {
                    "name": "_expirationHeight",
                    "type": "uint256"
                }
            ],
            "name": "setWorker",
            "outputs": [],
            "payable": false,
            "stateMutability": "nonpayable",
            "type": "function"
        },
        {
            "constant": false,
            "inputs": [
                {
                    "name": "_worker",
                    "type": "address"
                }
            ],
            "name": "unsetWorker",
            "outputs": [
                {
                    "name": "isUnset_",
                    "type": "bool"
                }
            ],
            "payable": false,
            "stateMutability": "nonpayable",
            "type": "function"
        },
        {
            "constant": true,
            "inputs": [
                {
                    "name": "_organization",
                    "type": "address"
                }
            ],
            "name": "isOrganization",
            "outputs": [
                {
                    "name": "isOrganization_",
                    "type": "bool"
                }
            ],
            "payable": false,
            "stateMutability": "view",
            "type": "function"
        },
        {
            "constant": true,
            "inputs": [
                {
                    "name": "_worker",
                    "type": "address"
                }
            ],
            "name": "isWorker",
            "outputs": [
                {
                    "name": "isWorker_",
                    "type": "bool"
                }
            ],
            "payable": false,
            "stateMutability": "view",
            "type": "function"
        }
    ],
    "bytecode": "0x608060405234801561001057600080fd5b50604051610d3a380380610d3a8339810180604052608081101561003357600080fd5b815160208301516040840180519294919382019264010000000081111561005957600080fd5b8201602081018481111561006c57600080fd5b815185602082028301116401000000008211171561008957600080fd5b50506020909101519092509050600160a060020a038416151561013357604080517f08c379a000000000000000000000000000000000000000000000000000000000815260206004820152602760248201527f546865206f776e6572206d757374206e6f7420626520746865207a65726f206160448201527f6464726573732e00000000000000000000000000000000000000000000000000606482015290519081900360840190fd5b60008054600160a060020a03808716600160a060020a031992831617835560028054918716919092161790555b82518110156101a157610199838281518110151561017a57fe5b90602001906020020151836101ab640100000000026401000000009004565b600101610160565b505050505061030a565b600160a060020a038216151561022257604080517f08c379a000000000000000000000000000000000000000000000000000000000815260206004820152601e60248201527f576f726b657220616464726573732063616e6e6f74206265206e756c6c2e0000604482015290519081900360640190fd5b4381116102b657604080517f08c379a000000000000000000000000000000000000000000000000000000000815260206004820152602860248201527f45787069726174696f6e20686569676874206d75737420626520696e2074686560448201527f206675747572652e000000000000000000000000000000000000000000000000606482015290519081900360840190fd5b600160a060020a038216600081815260036020908152604091829020849055815184815291517f7a4238744ef0a84bc93273958cca94ecc9e1fa40cf18fc52eca877f3078eeb0c9281900390910190a25050565b610a21806103196000396000f3fe6080604052600436106100ae5763ffffffff7c01000000000000000000000000000000000000000000000000000000006000350416634048a25781146100b3578063704b6c02146100f85780637860bb6e1461013f5780638da5cb5b14610172578063aa156645146101a3578063b1ce8eab146101d6578063c0b6f56114610209578063d153b60c1461023c578063e71a781114610251578063ea6790cf14610266578063f851a440146102a1575b600080fd5b3480156100bf57600080fd5b506100e6600480360360208110156100d657600080fd5b5035600160a060020a03166102b6565b60408051918252519081900360200190f35b34801561010457600080fd5b5061012b6004803603602081101561011b57600080fd5b5035600160a060020a03166102c8565b604080519115158252519081900360200190f35b34801561014b57600080fd5b5061012b6004803603602081101561016257600080fd5b5035600160a060020a03166103f2565b34801561017e57600080fd5b5061018761050a565b60408051600160a060020a039092168252519081900360200190f35b3480156101af57600080fd5b5061012b600480360360208110156101c657600080fd5b5035600160a060020a0316610519565b3480156101e257600080fd5b5061012b600480360360208110156101f957600080fd5b5035600160a060020a0316610536565b34801561021557600080fd5b5061012b6004803603602081101561022c57600080fd5b5035600160a060020a0316610566565b34801561024857600080fd5b506101876106ec565b34801561025d57600080fd5b5061012b6106fb565b34801561027257600080fd5b5061029f6004803603604081101561028957600080fd5b50600160a060020a038135169060200135610808565b005b3480156102ad57600080fd5b506101876108b5565b60036020526000908152604090205481565b60008054600160a060020a03163314806102ec5750600254600160a060020a031633145b1515610368576040805160e560020a62461bcd02815260206004820152603560248201527f4f6e6c79206f776e657220616e642061646d696e2061726520616c6c6f77656460448201527f20746f2063616c6c2074686973206d6574686f642e0000000000000000000000606482015290519081900360840190fd5b600254600160a060020a038381169116146103ea5760025460408051600160a060020a0392831681529051918416917f4c6c9f2e0d636d426dd6cbccdb380e6a35ebc2248bc04029484d4ebaaafe4b4f9181900360200190a26002805473ffffffffffffffffffffffffffffffffffffffff1916600160a060020a0384161790555b506001919050565b60008054600160a060020a03163314806104165750600254600160a060020a031633145b1515610492576040805160e560020a62461bcd02815260206004820152603560248201527f4f6e6c79206f776e657220616e642061646d696e2061726520616c6c6f77656460448201527f20746f2063616c6c2074686973206d6574686f642e0000000000000000000000606482015290519081900360840190fd5b600160a060020a038216600090815260036020526040812054111561050557600160a060020a038216600081815260036020908152604080832092909255815192835290517f40311c754879c7ab9a3785519f6a08a4fbc64b3b7f4eec5ab201e784d48bb1e59281900390910190a15060015b919050565b600054600160a060020a031681565b600160a060020a0316600090815260036020526040902054431090565b60008054600160a060020a03838116911614806105605750600254600160a060020a038381169116145b92915050565b60008054600160a060020a031633146105ef576040805160e560020a62461bcd02815260206004820152602a60248201527f4f6e6c79206f776e657220697320616c6c6f77656420746f2063616c6c20746860448201527f6973206d6574686f642e00000000000000000000000000000000000000000000606482015290519081900360840190fd5b600054600160a060020a038381169116141561067b576040805160e560020a62461bcd02815260206004820152603660248201527f50726f706f736564206f776e657220616464726573732063616e27742062652060448201527f63757272656e74206f776e657220616464726573732e00000000000000000000606482015290519081900360840190fd5b60018054600160a060020a0380851673ffffffffffffffffffffffffffffffffffffffff19909216821790925560005460408051919093168152915190917fb150023a879fd806e3599b6ca8ee3b60f0e360ab3846d128d67ebce1a391639a919081900360200190a2506001919050565b600154600160a060020a031681565b600154600090600160a060020a03163314610786576040805160e560020a62461bcd02815260206004820152602560248201527f43616c6c6572206973206e6f742070726f706f736564206f776e65722061646460448201527f726573732e000000000000000000000000000000000000000000000000000000606482015290519081900360840190fd5b60015460005460408051600160a060020a03938416815292909116602083015280517fe9a5158ac7353c7c7322ececc080bc8e89334efa5795b6e21e40eb266b0003d69281900390910190a150600180546000805473ffffffffffffffffffffffffffffffffffffffff19908116600160a060020a0384161790915516815590565b600054600160a060020a031633148061082b5750600254600160a060020a031633145b15156108a7576040805160e560020a62461bcd02815260206004820152603560248201527f4f6e6c79206f776e657220616e642061646d696e2061726520616c6c6f77656460448201527f20746f2063616c6c2074686973206d6574686f642e0000000000000000000000606482015290519081900360840190fd5b6108b182826108c4565b5050565b600254600160a060020a031681565b600160a060020a0382161515610924576040805160e560020a62461bcd02815260206004820152601e60248201527f576f726b657220616464726573732063616e6e6f74206265206e756c6c2e0000604482015290519081900360640190fd5b4381116109a1576040805160e560020a62461bcd02815260206004820152602860248201527f45787069726174696f6e20686569676874206d75737420626520696e2074686560448201527f206675747572652e000000000000000000000000000000000000000000000000606482015290519081900360840190fd5b600160a060020a038216600081815260036020908152604091829020849055815184815291517f7a4238744ef0a84bc93273958cca94ecc9e1fa40cf18fc52eca877f3078eeb0c9281900390910190a2505056fea165627a7a723058209630d7b9c1b5ab8d73b798b9f5931389574310661bdb6c57a37751c974529d9c0029",
    "source": "pragma solidity ^0.5.0;\n\n// Copyright 2019 OpenST Ltd.\n//\n// Licensed under the Apache License, Version 2.0 (the \"License\");\n// you may not use this file except in compliance with the License.\n// You may obtain a copy of the License at\n//\n//    http://www.apache.org/licenses/LICENSE-2.0\n//\n// Unless required by applicable law or agreed to in writing, software\n// distributed under the License is distributed on an \"AS IS\" BASIS,\n// WITHOUT WARRANTIES OR CONDITIONS OF ANY KIND, either express or implied.\n// See the License for the specific language governing permissions and\n// limitations under the License.\n//\n// ----------------------------------------------------------------------------\n//\n// http://www.simpletoken.org/\n//\n// ----------------------------------------------------------------------------\n\nimport \"./OrganizationInterface.sol\";\n\n/**\n * @title Organization contract handles an organization and its workers.\n *\n * @notice The organization represents an entity that manages other contracts\n *         and therefore the `Organization.sol` contract holds all the keys\n *         required to administer the other contracts.\n *         This contract supports the notion of an \"admin\" that can act on\n *         behalf of the organization. When seen from the outside by consumers\n *         of the `OrganizationInterface`, a notion of an admin does not exist.\n */\ncontract Organization is OrganizationInterface {\n\n    /* Events */\n\n    /** Emitted when a current owner initiates a change of ownership. */\n    event OwnershipTransferInitiated(\n        address indexed proposedOwner,\n        address currentOwner\n    );\n\n    /** Emitted when a new owner accepts the ownership transfer. */\n    event OwnershipTransferCompleted(address newOwner, address previousOwner);\n\n    /** Emitted whenever an owner or admin changes the address of the admin. */\n    event AdminAddressChanged(address indexed newAdmin, address previousAdmin);\n\n    /** Emitted when a worker address was set. */\n    event WorkerSet(address indexed worker, uint256 expirationHeight);\n\n    /** Emitted when a worker address is deleted from the contract. */\n    event WorkerUnset(address worker);\n\n\n    /* Storage */\n\n    /** Address for which private key will be owned by the organization. */\n    address public owner;\n\n    /**\n     * Proposed Owner is the newly proposed address that was proposed by the\n     * current owner for ownership transfer.\n     */\n    address public proposedOwner;\n\n    /**\n     * Admin address set by owner to facilitate operations of an economy on\n     * behalf of the owner.\n     * While this contract includes details that regard the admin, e.g. a\n     * modifier, when looking at the `OrganizationInterface`, the existence of\n     * an admin is a concrete implementation detail and not known to the\n     * consumers of the interface.\n     */\n    address public admin;\n\n    /**\n     *  Map of whitelisted worker addresses to their expiration block height.\n     */\n    mapping(address => uint256) public workers;\n\n\n    /* Modifiers */\n\n    /**\n     * onlyOwner functions can only be called from the address that is\n     * registered as the owner.\n     */\n    modifier onlyOwner() {\n        require(\n            msg.sender == owner,\n            \"Only owner is allowed to call this method.\"\n        );\n\n        _;\n    }\n\n    /**\n     * onlyOwnerOrAdmin functions can only be called from an address that is\n     * registered as owner or as admin.\n     */\n    modifier onlyOwnerOrAdmin() {\n        require(\n            msg.sender == owner || msg.sender == admin,\n            \"Only owner and admin are allowed to call this method.\"\n        );\n\n        _;\n    }\n\n\n    /* Constructor */\n\n    /**\n     * @notice Creates a new organization. When you first initialize the\n     *         organization, you can specify owner, admin, and workers. The\n     *         owner is mandatory as it will be the only address able to make\n     *         all later changes. An admin and workers can be added at\n     *         construction or they can be set by the owner later.\n     *\n     * @param _owner The address that shall be registered as the owner of the\n     *               organization.\n     * @param _admin The address that shall be registered as the admin of the\n     *               organization. Can be address(0) if no admin is desired.\n     * @param _workers An array of initial worker addresses. Can be an empty\n     *                 array if no workers are desired or known at construction.\n     * @param _expirationHeight If any workers are given, this will be the\n     *                          block height at which they expire.\n     */\n    constructor(\n        address _owner,\n        address _admin,\n        address[] memory _workers,\n        uint256 _expirationHeight\n    )\n        public\n    {\n        require(\n            _owner != address(0),\n            \"The owner must not be the zero address.\"\n        );\n\n        owner = _owner;\n        admin = _admin;\n\n        for(uint256 i = 0; i < _workers.length; i++) {\n            setWorkerInternal(_workers[i], _expirationHeight);\n        }\n    }\n\n\n    /* External Functions */\n\n    /**\n     * @notice Proposes a new owner of this contract. Ownership will not be\n     *         transferred until the new, proposed owner accepts the proposal.\n     *         Allows resetting of proposed owner to address(0).\n     *\n     * @param _proposedOwner Proposed owner address.\n     *\n     * @return success_ True on successful execution.\n     */\n    function initiateOwnershipTransfer(\n        address _proposedOwner\n    )\n        external\n        onlyOwner\n        returns (bool success_)\n    {\n        require(\n            _proposedOwner != owner,\n            \"Proposed owner address can't be current owner address.\"\n        );\n\n        proposedOwner = _proposedOwner;\n\n        emit OwnershipTransferInitiated(_proposedOwner, owner);\n\n        success_ = true;\n    }\n\n    /**\n     * @notice Complete ownership transfer to proposed owner. Must be called by\n     *         the proposed owner.\n     *\n     * @return success_ True on successful execution.\n     */\n    function completeOwnershipTransfer() external returns (bool success_)\n    {\n        require(\n            msg.sender == proposedOwner,\n            \"Caller is not proposed owner address.\"\n        );\n\n        emit OwnershipTransferCompleted(proposedOwner, owner);\n\n        owner = proposedOwner;\n        proposedOwner = address(0);\n\n        success_ = true;\n    }\n\n    /**\n     * @notice Sets the admin address. Can only be called by owner or current\n     *         admin. If called by the current admin, adminship is transferred\n     *         to the given address immediately.\n     *         It is discouraged to set the admin address to be the same as the\n     *         address of the owner. The point of the admin is to act on behalf\n     *         of the organization without requiring the possibly very safely\n     *         stored owner key(s).\n     *         Admin can be set to `address(0)` if no admin is desired.\n     *\n     * @param _admin Admin address to be set.\n     *\n     * @return success_ True on successful execution.\n     */\n    function setAdmin(\n        address _admin\n    )\n        external\n        onlyOwnerOrAdmin\n        returns (bool success_)\n    {\n        /*\n         * If the address does not change, the call is considered a success,\n         * but we don't need to emit an event as it did not actually change.\n         */\n        if (admin != _admin) {\n            emit AdminAddressChanged(_admin, admin);\n            admin = _admin;\n        }\n\n        success_ = true;\n    }\n\n    /**\n     * @notice Sets worker and its expiration block height.\n     *         Admin/Owner has the flexibility to extend/reduce worker\n     *         expiration height. This way, a worker activation/deactivation\n     *         can be controlled without adding/removing worker keys.\n     *\n     * @param _worker Worker address to be added.\n     * @param _expirationHeight Expiration block height of worker.\n     *\n     * @return remainingBlocks_ Remaining number of blocks for which worker is\n     *                          active.\n     */\n    function setWorker(\n        address _worker,\n        uint256 _expirationHeight\n    )\n        external\n        onlyOwnerOrAdmin\n    {\n        setWorkerInternal(_worker, _expirationHeight);\n    }\n\n    /**\n     * @notice Removes a worker.\n     *\n     * @param _worker Worker address to be removed.\n     *\n     * @return isUnset_ True if the worker existed else returns false.\n     */\n    function unsetWorker(\n        address _worker\n    )\n        external\n        onlyOwnerOrAdmin\n        returns (bool isUnset_)\n    {\n        if (workers[_worker] > 0) {\n            delete workers[_worker];\n            emit WorkerUnset(_worker);\n\n            isUnset_ = true;\n        }\n    }\n\n    /**\n     * @notice Checks if an address is currently registered as the organization.\n     *\n     * @dev It is an implementation detail of this contract that the admin can\n     *      act on behalf of the organization. To the outside, an \"admin\"\n     *      doesn't exist. See also the `admin` storage variable.\n     *\n     * @param _organization Address to check.\n     *\n     * @return isOrganization_ True if the given address represents the\n     *                         organization. Returns false otherwise.\n     */\n    function isOrganization(\n        address _organization\n    )\n        external\n        view\n        returns (bool isOrganization_)\n    {\n        isOrganization_ = _organization == owner || _organization == admin;\n    }\n\n    /**\n     * @notice Checks if an address is currently registered as an active worker.\n     *\n     * @param _worker Address to check.\n     *\n     * @return isWorker_ True if the worker is already added and expiration\n     *                   height is more than or equal to current block number.\n     *                   Returns false otherwise.\n     */\n    function isWorker(address _worker) external view returns (bool isWorker_)\n    {\n        isWorker_ = workers[_worker] > block.number;\n    }\n\n\n    /* Private Functions */\n\n    /**\n     * @notice Sets worker and its expiration block height. If the worker\n     *         already exists, then its expiration height will be overwritten\n     *         with the given one.\n     *\n     * @param _worker Worker address to be added.\n     * @param _expirationHeight Expiration block height of worker.\n     *\n     * @return remainingBlocks_ Remaining number of blocks for which worker is\n     *                          active.\n     */\n    function setWorkerInternal(\n        address _worker,\n        uint256 _expirationHeight\n    )\n        private\n    {\n        require(\n            _worker != address(0),\n            \"Worker address cannot be null.\"\n        );\n\n        require(\n            _expirationHeight > block.number,\n            \"Expiration height must be in the future.\"\n        );\n\n        workers[_worker] = _expirationHeight;\n\n        emit WorkerSet(_worker, _expirationHeight);\n    }\n\n}\n",
    "sourcePath": "/Users/spuchbauer/dev/ethdenver/openst-contracts/contracts/organization/Organization.sol",
    "compiler": {
        "name": "solc",
        "version": "0.5.0+commit.1d4f565a.Emscripten.clang"
    },
    "schemaVersion": "3.0.9",
    "updatedAt": "2020-02-15T21:03:36.431Z",
    "devdoc": {
        "methods": {
            "completeOwnershipTransfer()": {
                "return": "success_ True on successful execution."
            },
            "constructor": {
                "params": {
                    "_admin": "The address that shall be registered as the admin of the              organization. Can be address(0) if no admin is desired.",
                    "_expirationHeight": "If any workers are given, this will be the                         block height at which they expire.",
                    "_owner": "The address that shall be registered as the owner of the              organization.",
                    "_workers": "An array of initial worker addresses. Can be an empty                array if no workers are desired or known at construction."
                }
            },
            "initiateOwnershipTransfer(address)": {
                "params": {
                    "_proposedOwner": "Proposed owner address."
                },
                "return": "success_ True on successful execution."
            },
            "isOrganization(address)": {
                "details": "It is an implementation detail of this contract that the admin can     act on behalf of the organization. To the outside, an \"admin\"     doesn't exist. See also the `admin` storage variable.",
                "params": {
                    "_organization": "Address to check."
                },
                "return": "isOrganization_ True if the given address represents the                        organization. Returns false otherwise."
            },
            "isWorker(address)": {
                "params": {
                    "_worker": "Address to check."
                },
                "return": "isWorker_ True if the worker is already added and expiration                  height is more than or equal to current block number.                  Returns false otherwise."
            },
            "setAdmin(address)": {
                "params": {
                    "_admin": "Admin address to be set."
                },
                "return": "success_ True on successful execution."
            },
            "setWorker(address,uint256)": {
                "params": {
                    "_expirationHeight": "Expiration block height of worker.",
                    "_worker": "Worker address to be added."
                },
                "return": "remainingBlocks_ Remaining number of blocks for which worker is                         active."
            },
            "unsetWorker(address)": {
                "params": {
                    "_worker": "Worker address to be removed."
                },
                "return": "isUnset_ True if the worker existed else returns false."
            }
        },
        "title": "Organization contract handles an organization and its workers."
    },
    "userdoc": {
        "methods": {
            "completeOwnershipTransfer()": {
                "notice": "Complete ownership transfer to proposed owner. Must be called by        the proposed owner."
            },
            "constructor": "Creates a new organization. When you first initialize the        organization, you can specify owner, admin, and workers. The        owner is mandatory as it will be the only address able to make        all later changes. An admin and workers can be added at        construction or they can be set by the owner later.",
            "initiateOwnershipTransfer(address)": {
                "notice": "Proposes a new owner of this contract. Ownership will not be        transferred until the new, proposed owner accepts the proposal.        Allows resetting of proposed owner to address(0)."
            },
            "isOrganization(address)": {
                "notice": "Checks if an address is currently registered as the organization."
            },
            "isWorker(address)": {
                "notice": "Checks if an address is currently registered as an active worker."
            },
            "setAdmin(address)": {
                "notice": "Sets the admin address. Can only be called by owner or current        admin. If called by the current admin, adminship is transferred        to the given address immediately.        It is discouraged to set the admin address to be the same as the        address of the owner. The point of the admin is to act on behalf        of the organization without requiring the possibly very safely        stored owner key(s).        Admin can be set to `address(0)` if no admin is desired."
            },
            "setWorker(address,uint256)": {
                "notice": "Sets worker and its expiration block height.        Admin/Owner has the flexibility to extend/reduce worker        expiration height. This way, a worker activation/deactivation        can be controlled without adding/removing worker keys."
            },
            "unsetWorker(address)": {
                "notice": "Removes a worker."
            }
        },
        "notice": "The organization represents an entity that manages other contracts        and therefore the `Organization.sol` contract holds all the keys        required to administer the other contracts.        This contract supports the notion of an \"admin\" that can act on        behalf of the organization. When seen from the outside by consumers        of the `OrganizationInterface`, a notion of an admin does not exist."
    }
}