{
    "contractName": "PriceOracleFake",
    "abi": [
        {
            "inputs": [
                {
                    "name": "_baseCurrencyCode",
                    "type": "bytes3"
                },
                {
                    "name": "_quoteCurrencyCode",
                    "type": "bytes3"
                },
                {
                    "name": "_quoteCurrencyDecimals",
                    "type": "uint8"
                },
                {
                    "name": "_initialPrice",
                    "type": "uint256"
                },
                {
                    "name": "_expirationHeight",
                    "type": "uint256"
                }
            ],
            "payable": false,
            "stateMutability": "nonpayable",
            "type": "constructor"
        },
        {
            "anonymous": false,
            "inputs": [
                {
                    "indexed": false,
                    "name": "_price",
                    "type": "uint256"
                }
            ],
            "name": "PriceUpdated",
            "type": "event"
        },
        {
            "constant": true,
            "inputs": [],
            "name": "baseCurrency",
            "outputs": [
                {
                    "name": "",
                    "type": "bytes3"
                }
            ],
            "payable": false,
            "stateMutability": "view",
            "type": "function"
        },
        {
            "constant": true,
            "inputs": [],
            "name": "quoteCurrency",
            "outputs": [
                {
                    "name": "",
                    "type": "bytes3"
                }
            ],
            "payable": false,
            "stateMutability": "view",
            "type": "function"
        },
        {
            "constant": true,
            "inputs": [],
            "name": "decimals",
            "outputs": [
                {
                    "name": "",
                    "type": "uint8"
                }
            ],
            "payable": false,
            "stateMutability": "view",
            "type": "function"
        },
        {
            "constant": true,
            "inputs": [],
            "name": "getPrice",
            "outputs": [
                {
                    "name": "",
                    "type": "uint256"
                }
            ],
            "payable": false,
            "stateMutability": "view",
            "type": "function"
        },
        {
            "constant": false,
            "inputs": [
                {
                    "name": "_price",
                    "type": "uint256"
                },
                {
                    "name": "_expirationHeight",
                    "type": "uint256"
                }
            ],
            "name": "setPrice",
            "outputs": [],
            "payable": false,
            "stateMutability": "nonpayable",
            "type": "function"
        }
    ],
    "bytecode": "0x608060405234801561001057600080fd5b5060405160a080610619833981018060405260a081101561003057600080fd5b508051602082015160408301516060840151608090940151929391929091907fffffff0000000000000000000000000000000000000000000000000000000000851615156100df57604080517f08c379a000000000000000000000000000000000000000000000000000000000815260206004820152601c60248201527f426173652063757272656e637920636f646520697320656d7074792e00000000604482015290519081900360640190fd5b7fffffff00000000000000000000000000000000000000000000000000000000008416151561016f57604080517f08c379a000000000000000000000000000000000000000000000000000000000815260206004820152601d60248201527f51756f74652063757272656e637920636f646520697320656d7074792e000000604482015290519081900360640190fd5b6000805462ffffff19167d0100000000000000000000000000000000000000000000000000000000008088049190911765ffffff00000019166301000000918704919091021790556003805460ff191660ff85161790556101d982826401000000006101e3810204565b50505050506102b8565b43811161027757604080517f08c379a000000000000000000000000000000000000000000000000000000000815260206004820152603b60248201527f50726963652065787069726174696f6e20686569676874206973206c7465207460448201527f6f207468652063757272656e7420626c6f636b206865696768742e0000000000606482015290519081900360840190fd5b600182905560028190556040805183815290517f66cbca4f3c64fecf1dcb9ce094abcf7f68c3450a1d4e3a8e917dd621edb4ebe09181900360200190a15050565b610352806102c76000396000f3fe60806040526004361061006c5763ffffffff7c0100000000000000000000000000000000000000000000000000000000600035041663313ce567811461007157806382564bca1461009c57806392a85fde146100e657806398d5fdca146100fb578063f7d9757714610122575b600080fd5b34801561007d57600080fd5b50610086610154565b6040805160ff9092168252519081900360200190f35b3480156100a857600080fd5b506100b161015d565b604080517fffffff00000000000000000000000000000000000000000000000000000000009092168252519081900360200190f35b3480156100f257600080fd5b506100b161018a565b34801561010757600080fd5b506101106101b0565b60408051918252519081900360200190f35b34801561012e57600080fd5b506101526004803603604081101561014557600080fd5b5080359060200135610251565b005b60035460ff1690565b600054630100000090047d0100000000000000000000000000000000000000000000000000000000000290565b6000547d0100000000000000000000000000000000000000000000000000000000000290565b60004360025411151561024a57604080517f08c379a000000000000000000000000000000000000000000000000000000000815260206004820152603b60248201527f50726963652065787069726174696f6e20686569676874206973206c7465207460448201527f6f207468652063757272656e7420626c6f636b206865696768742e0000000000606482015290519081900360840190fd5b5060015490565b4381116102e557604080517f08c379a000000000000000000000000000000000000000000000000000000000815260206004820152603b60248201527f50726963652065787069726174696f6e20686569676874206973206c7465207460448201527f6f207468652063757272656e7420626c6f636b206865696768742e0000000000606482015290519081900360840190fd5b600182905560028190556040805183815290517f66cbca4f3c64fecf1dcb9ce094abcf7f68c3450a1d4e3a8e917dd621edb4ebe09181900360200190a1505056fea165627a7a72305820b657ca343a06e8ddcb0ab844949dea52a2e7882c5b74a7f7674c53945813d8880029",
    "source": "pragma solidity ^0.5.0;\n\n// Copyright 2019 OpenST Ltd.\n//\n// Licensed under the Apache License, Version 2.0 (the \"License\");\n// you may not use this file except in compliance with the License.\n// You may obtain a copy of the License at\n//\n//    http://www.apache.org/licenses/LICENSE-2.0\n//\n// Unless required by applicable law or agreed to in writing, software\n// distributed under the License is distributed on an \"AS IS\" BASIS,\n// WITHOUT WARRANTIES OR CONDITIONS OF ANY KIND, either express or implied.\n// See the License for the specific language governing permissions and\n// limitations under the License.\n\nimport \"../../../rules/PriceOracleInterface.sol\";\n\ncontract PriceOracleFake is PriceOracleInterface {\n\n    /* Storage */\n\n    bytes3 baseCurrencyCode;\n\n    bytes3 quoteCurrencyCode;\n\n    uint256 price;\n\n    uint256 expirationHeight;\n\n    uint8 quoteCurrencyDecimals;\n\n\n    /* Special */\n\n    constructor(\n        bytes3 _baseCurrencyCode,\n        bytes3 _quoteCurrencyCode,\n        uint8 _quoteCurrencyDecimals,\n        uint256 _initialPrice,\n        uint256 _expirationHeight\n    )\n        public\n    {\n        require(\n            _baseCurrencyCode != bytes3(0),\n            \"Base currency code is empty.\"\n        );\n\n        require(\n            _quoteCurrencyCode != bytes3(0),\n            \"Quote currency code is empty.\"\n        );\n\n        baseCurrencyCode = _baseCurrencyCode;\n\n        quoteCurrencyCode = _quoteCurrencyCode;\n\n        quoteCurrencyDecimals = _quoteCurrencyDecimals;\n\n        setPrice(_initialPrice, _expirationHeight);\n    }\n\n\n    /* External Functions */\n\n    /**\n     * @notice Returns base currency code.\n     *\n     * @dev Base currency code is not according to ISO 4217 or other standard.\n     */\n    function baseCurrency()\n        external\n        view\n        returns (bytes3)\n    {\n        return baseCurrencyCode;\n    }\n\n    /**\n     * @notice Returns quote currency code.\n     *\n     * @dev Quote currency code is not according to ISO 4217 or other standard.\n     */\n    function quoteCurrency()\n        external\n        view\n        returns (bytes3)\n    {\n        return quoteCurrencyCode;\n    }\n\n    /**\n     * @notice Returns quote currency decimals.\n     */\n    function decimals()\n        external\n        view\n        returns(uint8)\n    {\n        return quoteCurrencyDecimals;\n    }\n\n    /**\n     * @notice Returns an amount of the quote currency needed to purchase\n     *         one unit of the base currency.\n     *\n     * @dev Function throws an exception if the price is invalid, for example,\n     *      was not set, or became outdated, etc.\n     *\n     * @return An amount of the quote currency needed to purchase one unit of\n     *         the base base currency.\n     */\n    function getPrice()\n        external\n        view\n        returns (uint256)\n    {\n        require(\n            expirationHeight > block.number,\n            \"Price expiration height is lte to the current block height.\"\n        );\n\n        return price;\n    }\n\n\n    /* Public Functions */\n\n    function setPrice(\n        uint256 _price,\n        uint256 _expirationHeight\n    )\n        public\n    {\n        require(\n            _expirationHeight > block.number,\n            \"Price expiration height is lte to the current block height.\"\n        );\n\n        price = _price;\n\n        expirationHeight = _expirationHeight;\n\n        emit PriceUpdated(price);\n    }\n}",
    "sourcePath": "/Users/spuchbauer/dev/ethdenver/openst-contracts/contracts/test_doubles/unit_tests/pricer_rule/PriceOracleFake.sol",
    "compiler": {
        "name": "solc",
        "version": "0.5.0+commit.1d4f565a.Emscripten.clang"
    },
    "schemaVersion": "3.0.9",
    "updatedAt": "2020-02-15T21:03:36.447Z",
    "devdoc": {
        "methods": {
            "baseCurrency()": {
                "details": "Base currency code is not according to ISO 4217 or other standard."
            },
            "getPrice()": {
                "details": "Function throws an exception if the price is invalid, for example,     was not set, or became outdated, etc.",
                "return": "An amount of the quote currency needed to purchase one unit of        the base base currency."
            },
            "quoteCurrency()": {
                "details": "Quote currency code is not according to ISO 4217 or other standard."
            }
        }
    },
    "userdoc": {
        "methods": {
            "baseCurrency()": {
                "notice": "Returns base currency code."
            },
            "decimals()": {
                "notice": "Returns quote currency decimals."
            },
            "getPrice()": {
                "notice": "Returns an amount of the quote currency needed to purchase        one unit of the base currency."
            },
            "quoteCurrency()": {
                "notice": "Returns quote currency code."
            }
        }
    }
}