{
    "contractName": "PricerRule",
    "abi": [
        {
            "constant": true,
            "inputs": [
                {
                    "name": "",
                    "type": "bytes3"
                }
            ],
            "name": "baseCurrencyPriceAcceptanceMargins",
            "outputs": [
                {
                    "name": "",
                    "type": "uint256"
                }
            ],
            "payable": false,
            "stateMutability": "view",
            "type": "function"
        },
        {
            "constant": true,
            "inputs": [],
            "name": "organization",
            "outputs": [
                {
                    "name": "",
                    "type": "address"
                }
            ],
            "payable": false,
            "stateMutability": "view",
            "type": "function"
        },
        {
            "constant": true,
            "inputs": [],
            "name": "tokenDecimals",
            "outputs": [
                {
                    "name": "",
                    "type": "uint8"
                }
            ],
            "payable": false,
            "stateMutability": "view",
            "type": "function"
        },
        {
            "constant": true,
            "inputs": [],
            "name": "eip20Token",
            "outputs": [
                {
                    "name": "",
                    "type": "address"
                }
            ],
            "payable": false,
            "stateMutability": "view",
            "type": "function"
        },
        {
            "constant": true,
            "inputs": [
                {
                    "name": "",
                    "type": "bytes3"
                }
            ],
            "name": "baseCurrencyPriceOracles",
            "outputs": [
                {
                    "name": "",
                    "type": "address"
                }
            ],
            "payable": false,
            "stateMutability": "view",
            "type": "function"
        },
        {
            "constant": true,
            "inputs": [],
            "name": "conversionRateFromBaseCurrencyToToken",
            "outputs": [
                {
                    "name": "",
                    "type": "uint256"
                }
            ],
            "payable": false,
            "stateMutability": "view",
            "type": "function"
        },
        {
            "constant": true,
            "inputs": [],
            "name": "tokenRules",
            "outputs": [
                {
                    "name": "",
                    "type": "address"
                }
            ],
            "payable": false,
            "stateMutability": "view",
            "type": "function"
        },
        {
            "constant": true,
            "inputs": [],
            "name": "requiredPriceOracleDecimals",
            "outputs": [
                {
                    "name": "",
                    "type": "uint8"
                }
            ],
            "payable": false,
            "stateMutability": "view",
            "type": "function"
        },
        {
            "constant": true,
            "inputs": [],
            "name": "conversionRateDecimalsFromBaseCurrencyToToken",
            "outputs": [
                {
                    "name": "",
                    "type": "uint256"
                }
            ],
            "payable": false,
            "stateMutability": "view",
            "type": "function"
        },
        {
            "constant": true,
            "inputs": [],
            "name": "baseCurrencyCode",
            "outputs": [
                {
                    "name": "",
                    "type": "bytes3"
                }
            ],
            "payable": false,
            "stateMutability": "view",
            "type": "function"
        },
        {
            "inputs": [
                {
                    "name": "_organization",
                    "type": "address"
                },
                {
                    "name": "_eip20Token",
                    "type": "address"
                },
                {
                    "name": "_baseCurrencyCode",
                    "type": "bytes3"
                },
                {
                    "name": "_conversionRate",
                    "type": "uint256"
                },
                {
                    "name": "_conversionRateDecimals",
                    "type": "uint8"
                },
                {
                    "name": "_requiredPriceOracleDecimals",
                    "type": "uint8"
                },
                {
                    "name": "_tokenRules",
                    "type": "address"
                }
            ],
            "payable": false,
            "stateMutability": "nonpayable",
            "type": "constructor"
        },
        {
            "anonymous": false,
            "inputs": [
                {
                    "indexed": false,
                    "name": "_priceOracle",
                    "type": "address"
                }
            ],
            "name": "PriceOracleAdded",
            "type": "event"
        },
        {
            "anonymous": false,
            "inputs": [
                {
                    "indexed": false,
                    "name": "_priceOracle",
                    "type": "address"
                }
            ],
            "name": "PriceOracleRemoved",
            "type": "event"
        },
        {
            "anonymous": false,
            "inputs": [
                {
                    "indexed": false,
                    "name": "_quoteCurrencyCode",
                    "type": "bytes3"
                },
                {
                    "indexed": false,
                    "name": "_acceptanceMargin",
                    "type": "uint256"
                }
            ],
            "name": "AcceptanceMarginSet",
            "type": "event"
        },
        {
            "anonymous": false,
            "inputs": [
                {
                    "indexed": false,
                    "name": "_quoteCurrencyCode",
                    "type": "bytes3"
                }
            ],
            "name": "AcceptanceMarginRemoved",
            "type": "event"
        },
        {
            "constant": false,
            "inputs": [
                {
                    "name": "_from",
                    "type": "address"
                },
                {
                    "name": "_toList",
                    "type": "address[]"
                },
                {
                    "name": "_amountList",
                    "type": "uint256[]"
                },
                {
                    "name": "_payCurrencyCode",
                    "type": "bytes3"
                },
                {
                    "name": "_baseCurrencyIntendedPrice",
                    "type": "uint256"
                }
            ],
            "name": "pay",
            "outputs": [],
            "payable": false,
            "stateMutability": "nonpayable",
            "type": "function"
        },
        {
            "constant": false,
            "inputs": [
                {
                    "name": "_priceOracle",
                    "type": "address"
                }
            ],
            "name": "addPriceOracle",
            "outputs": [],
            "payable": false,
            "stateMutability": "nonpayable",
            "type": "function"
        },
        {
            "constant": false,
            "inputs": [
                {
                    "name": "_payCurrencyCode",
                    "type": "bytes3"
                }
            ],
            "name": "removePriceOracle",
            "outputs": [],
            "payable": false,
            "stateMutability": "nonpayable",
            "type": "function"
        },
        {
            "constant": false,
            "inputs": [
                {
                    "name": "_payCurrencyCode",
                    "type": "bytes3"
                },
                {
                    "name": "_acceptanceMargin",
                    "type": "uint256"
                }
            ],
            "name": "setAcceptanceMargin",
            "outputs": [],
            "payable": false,
            "stateMutability": "nonpayable",
            "type": "function"
        },
        {
            "constant": false,
            "inputs": [
                {
                    "name": "_payCurrencyCode",
                    "type": "bytes3"
                }
            ],
            "name": "removeAcceptanceMargin",
            "outputs": [],
            "payable": false,
            "stateMutability": "nonpayable",
            "type": "function"
        }
    ],
    "bytecode": "0x608060405234801561001057600080fd5b5060405160e080611953833981018060405260e081101561003057600080fd5b508051602082015160408301516060840151608085015160a086015160c090960151949593949293919290919086600160a060020a03811615156100fb57604080517f08c379a000000000000000000000000000000000000000000000000000000000815260206004820152602f60248201527f4f7267616e697a6174696f6e20636f6e74726163742061646472657373206d7560448201527f7374206e6f74206265207a65726f2e0000000000000000000000000000000000606482015290519081900360840190fd5b60008054600160a060020a031916600160a060020a039283161790558616151561018657604080517f08c379a000000000000000000000000000000000000000000000000000000000815260206004820152601660248201527f546f6b656e2061646472657373206973206e756c6c2e00000000000000000000604482015290519081900360640190fd5b7fffffff00000000000000000000000000000000000000000000000000000000008516151561021657604080517f08c379a000000000000000000000000000000000000000000000000000000000815260206004820152601b60248201527f426173652063757272656e637920636f6465206973206e756c6c2e0000000000604482015290519081900360640190fd5b8315156102aa57604080517f08c379a000000000000000000000000000000000000000000000000000000000815260206004820152603960248201527f436f6e76657273696f6e20726174652066726f6d20746865206261736520637560448201527f7272656e637920746f2074686520746f6b656e20697320302e00000000000000606482015290519081900360840190fd5b600160a060020a038116151561032157604080517f08c379a000000000000000000000000000000000000000000000000000000000815260206004820152601c60248201527f546f6b656e2072756c65732061646472657373206973206e756c6c2e00000000604482015290519081900360640190fd5b60018054600160a060020a031916600160a060020a038816908117909155604080517f313ce567000000000000000000000000000000000000000000000000000000008152905163313ce56791600480820192602092909190829003018186803b15801561038e57600080fd5b505afa1580156103a2573d6000803e3d6000fd5b505050506040513d60208110156103b857600080fd5b505160048054600080547d010000000000000000000000000000000000000000000000000000000000909904740100000000000000000000000000000000000000000260a060020a62ffffff02199099169890981790975560029590955560ff938416600355600160a060020a0390911662010000026201000060b060020a03199284166101000261ff00199490921660ff199096169590951792909216919091171691909117905550506114e1806104726000396000f3fe6080604052600436106100c15763ffffffff60e060020a60003504166306a2768781146100c65780631e82d63d1461010c57806323bd4d7a146101415780633b97e856146101725780635a8870471461019d5780635a8f94081461028c578063612367bf146102a1578063780e2e2e146102d55780637db547c7146102ea5780639c144d5e1461031e578063bb716ef414610333578063e5c379d81461036d578063f07478af14610382578063f756eb73146103b6578063fabdb613146103cb575b600080fd5b3480156100d257600080fd5b506100fa600480360360208110156100e957600080fd5b5035600160e860020a0319166103fd565b60408051918252519081900360200190f35b34801561011857600080fd5b5061013f6004803603602081101561012f57600080fd5b5035600160a060020a031661040f565b005b34801561014d57600080fd5b506101566108fa565b60408051600160a060020a039092168252519081900360200190f35b34801561017e57600080fd5b50610187610909565b6040805160ff9092168252519081900360200190f35b3480156101a957600080fd5b5061013f600480360360a08110156101c057600080fd5b600160a060020a0382351691908101906040810160208201356401000000008111156101eb57600080fd5b8201836020820111156101fd57600080fd5b8035906020019184602083028401116401000000008311171561021f57600080fd5b91939092909160208101903564010000000081111561023d57600080fd5b82018360208201111561024f57600080fd5b8035906020019184602083028401116401000000008311171561027157600080fd5b9193509150600160e860020a03198135169060200135610912565b34801561029857600080fd5b50610156610cd1565b3480156102ad57600080fd5b50610156600480360360208110156102c457600080fd5b5035600160e860020a031916610ce0565b3480156102e157600080fd5b506100fa610cfb565b3480156102f657600080fd5b5061013f6004803603602081101561030d57600080fd5b5035600160e860020a031916610d01565b34801561032a57600080fd5b50610156610e88565b34801561033f57600080fd5b5061013f6004803603604081101561035657600080fd5b50600160e860020a03198135169060200135610e9d565b34801561037957600080fd5b5061018761102a565b34801561038e57600080fd5b5061013f600480360360208110156103a557600080fd5b5035600160e860020a031916611038565b3480156103c257600080fd5b506100fa611220565b3480156103d757600080fd5b506103e0611226565b60408051600160e860020a03199092168252519081900360200190f35b60066020526000908152604090205481565b6000546040805160e060020a63aa1566450281523360048201529051600160a060020a039092169163aa15664591602480820192602092909190829003018186803b15801561045d57600080fd5b505afa158015610471573d6000803e3d6000fd5b505050506040513d602081101561048757600080fd5b505115156104e1576040805160e560020a62461bcd02815260206004820152603960248201526000805160206114968339815191526044820152600080516020611476833981519152606482015290519081900360840190fd5b600160a060020a0381161515610541576040805160e560020a62461bcd02815260206004820152601d60248201527f5072696365206f7261636c652061646472657373206973206e756c6c2e000000604482015290519081900360640190fd5b600460019054906101000a900460ff1660ff1681600160a060020a031663313ce5676040518163ffffffff1660e060020a02815260040160206040518083038186803b15801561059057600080fd5b505afa1580156105a4573d6000803e3d6000fd5b505050506040513d60208110156105ba57600080fd5b505160ff1614610660576040805160e560020a62461bcd02815260206004820152604160248201527f5072696365206f7261636c6520646563696d616c73206e756d6265722069732060448201527f646966666572656e63652066726f6d20746865207265717569726564206f6e6560648201527f2e00000000000000000000000000000000000000000000000000000000000000608482015290519081900360a40190fd5b600081600160a060020a03166382564bca6040518163ffffffff1660e060020a02815260040160206040518083038186803b15801561069e57600080fd5b505afa1580156106b2573d6000803e3d6000fd5b505050506040513d60208110156106c857600080fd5b5051600160e860020a03198116600090815260056020526040902054909150600160a060020a031615610745576040805160e560020a62461bcd02815260206004820152601c60248201527f5072696365206f7261636c6520616c7265616479206578697374732e00000000604482015290519081900360640190fd5b600060149054906101000a90047d010000000000000000000000000000000000000000000000000000000000027cffffffffffffffffffffffffffffffffffffffffffffffffffffffffff191682600160a060020a03166392a85fde6040518163ffffffff1660e060020a02815260040160206040518083038186803b1580156107ce57600080fd5b505afa1580156107e2573d6000803e3d6000fd5b505050506040513d60208110156107f857600080fd5b5051600160e860020a0319161461087f576040805160e560020a62461bcd02815260206004820152603160248201527f5072696365206f7261636c65277320626173652063757272656e637920636f6460448201527f6520646f6573206e6f74206d617463682e000000000000000000000000000000606482015290519081900360840190fd5b600160e860020a03198116600090815260056020908152604091829020805473ffffffffffffffffffffffffffffffffffffffff1916600160a060020a038616908117909155825190815291517facf23cc5480d1d549f783a7bd5430fec8c74f0044e925e78beb6733023a105159281900390910190a15050565b600054600160a060020a031681565b60045460ff1681565b600160a060020a0387161515610972576040805160e560020a62461bcd02815260206004820152601560248201527f46726f6d2061646472657373206973206e756c6c2e0000000000000000000000604482015290519081900360640190fd5b8483146109ef576040805160e560020a62461bcd02815260206004820152603960248201527f27746f2720616e642027616d6f756e7427207472616e7366657220617272617960448201527f7327206c656e6774687320617265206e6f7420657175616c2e00000000000000606482015290519081900360840190fd5b8415156109fb57610cc8565b6000610a0683611264565b9050801515610a85576040805160e560020a62461bcd02815260206004820152602960248201527f426173652063757272656e637920707269636520696e2070617920637572726560448201527f6e637920697320302e0000000000000000000000000000000000000000000000606482015290519081900360840190fd5b600160e860020a03198316600090815260066020526040902054610aac9083908390611373565b1515610b4e576040805160e560020a62461bcd02815260206004820152604160248201527f496e74656e646564207072696365206973206e6f7420696e207468652061636360448201527f65707461626c65206d617267696e207772742063757272656e7420707269636560648201527f2e00000000000000000000000000000000000000000000000000000000000000608482015290519081900360a40190fd5b604080518581526020808702820101909152606090858015610b7a578160200160208202803883390190505b50905060005b85811015610bc457610ba483888884818110610b9857fe5b905060200201356113b3565b8282815181101515610bb257fe5b60209081029091010152600101610b80565b50600480546040517fa6a192da000000000000000000000000000000000000000000000000000000008152600160a060020a038c8116938201938452606060248301908152606483018c905262010000909304169263a6a192da928d928d928d92889260448101906084018660208702808284376000838201819052601f909101601f1916909201858103845286518152865160209182019382890193509102908190849084905b83811015610c84578181015183820152602001610c6c565b505050509050019650505050505050600060405180830381600087803b158015610cad57600080fd5b505af1158015610cc1573d6000803e3d6000fd5b5050505050505b50505050505050565b600154600160a060020a031681565b600560205260009081526040902054600160a060020a031681565b60025481565b6000546040805160e060020a63aa1566450281523360048201529051600160a060020a039092169163aa15664591602480820192602092909190829003018186803b158015610d4f57600080fd5b505afa158015610d63573d6000803e3d6000fd5b505050506040513d6020811015610d7957600080fd5b50511515610dd3576040805160e560020a62461bcd02815260206004820152603960248201526000805160206114968339815191526044820152600080516020611476833981519152606482015290519081900360840190fd5b600160e860020a031981161515610e34576040805160e560020a62461bcd02815260206004820152601a60248201527f5061792063757272656e637920636f6465206973206e756c6c2e000000000000604482015290519081900360640190fd5b600160e860020a03198116600081815260066020908152604080832092909255815192835290517f2c48f41fb0ac91148a38a270c2227239ead8136223f9b12cf603e57c799d5e609281900390910190a150565b600454620100009004600160a060020a031681565b6000546040805160e060020a63aa1566450281523360048201529051600160a060020a039092169163aa15664591602480820192602092909190829003018186803b158015610eeb57600080fd5b505afa158015610eff573d6000803e3d6000fd5b505050506040513d6020811015610f1557600080fd5b50511515610f6f576040805160e560020a62461bcd02815260206004820152603960248201526000805160206114968339815191526044820152600080516020611476833981519152606482015290519081900360840190fd5b600160e860020a031982161515610fd0576040805160e560020a62461bcd02815260206004820152601a60248201527f5061792063757272656e637920636f6465206973206e756c6c2e000000000000604482015290519081900360640190fd5b600160e860020a031982166000818152600660209081526040918290208490558151928352820183905280517f9342d2e77f78a211818c17938619fcbb5d57089d24841841df0ff3fa4b13b1639281900390910190a15050565b600454610100900460ff1681565b6000546040805160e060020a63aa1566450281523360048201529051600160a060020a039092169163aa15664591602480820192602092909190829003018186803b15801561108657600080fd5b505afa15801561109a573d6000803e3d6000fd5b505050506040513d60208110156110b057600080fd5b5051151561110a576040805160e560020a62461bcd02815260206004820152603960248201526000805160206114968339815191526044820152600080516020611476833981519152606482015290519081900360840190fd5b600160e860020a03198116600090815260056020526040902054600160a060020a03168015156111aa576040805160e560020a62461bcd02815260206004820152602660248201527f5072696365206f7261636c6520746f2072656d6f766520646f6573206e6f742060448201527f65786973742e0000000000000000000000000000000000000000000000000000606482015290519081900360840190fd5b600160e860020a03198216600090815260056020908152604091829020805473ffffffffffffffffffffffffffffffffffffffff191690558151600160a060020a038416815291517f1ab93c820592302b2bef0070dd03654585b6942bfde155498ddd3d69190bf0429281900390910190a15050565b60035481565b6000547401000000000000000000000000000000000000000090047d0100000000000000000000000000000000000000000000000000000000000281565b600160e860020a03198116600090815260056020526040812054600160a060020a0316801515611304576040805160e560020a62461bcd02815260206004820152603c60248201527f5072696365206f7261636c6520666f722074686520737065636966696564206360448201527f757272656e637920636f646520646f6573206e6f742065786973742e00000000606482015290519081900360840190fd5b80600160a060020a03166398d5fdca6040518163ffffffff1660e060020a02815260040160206040518083038186803b15801561134057600080fd5b505afa158015611354573d6000803e3d6000fd5b505050506040513d602081101561136a57600080fd5b50519392505050565b600080848411156113955761138e848663ffffffff61141116565b90506113a8565b6113a5858563ffffffff61141116565b90505b909110159392505050565b6000611408836113fc600354600a0a6113fc600460009054906101000a900460ff1660ff16600a0a6113f06002548961142690919063ffffffff16565b9063ffffffff61142616565b9063ffffffff61145116565b90505b92915050565b60008282111561142057600080fd5b50900390565b60008215156114375750600061140b565b82820282848281151561144657fe5b041461140857600080fd5b600080821161145f57600080fd5b6000828481151561146c57fe5b0494935050505056fe6f77656420746f2063616c6c2074686973206d6574686f642e000000000000004f6e6c792077686974656c697374656420776f726b6572732061726520616c6ca165627a7a72305820c93b9a731178a8eaab78c4613f2e73ea677b4459a9b1ec9b67abf786bf1bb3e90029",
    "source": "pragma solidity ^0.5.0;\n\n// Copyright 2019 OpenST Ltd.\n//\n// Licensed under the Apache License, Version 2.0 (the \"License\");\n// you may not use this file except in compliance with the License.\n// You may obtain a copy of the License at\n//\n//    http://www.apache.org/licenses/LICENSE-2.0\n//\n// Unless required by applicable law or agreed to in writing, software\n// distributed under the License is distributed on an \"AS IS\" BASIS,\n// WITHOUT WARRANTIES OR CONDITIONS OF ANY KIND, either express or implied.\n// See the License for the specific language governing permissions and\n// limitations under the License.\n\nimport \"./PriceOracleInterface.sol\";\nimport \"../token/EIP20TokenInterface.sol\";\nimport \"../token/TokenRules.sol\";\nimport \"../external/SafeMath.sol\";\n\n\ncontract PricerRule is Organized {\n\n    /* Usings */\n\n    using SafeMath for uint256;\n\n\n    /* Events */\n\n    event PriceOracleAdded(\n        address _priceOracle\n    );\n\n    event PriceOracleRemoved(\n        address _priceOracle\n    );\n\n    event AcceptanceMarginSet(\n        bytes3 _quoteCurrencyCode,\n        uint256 _acceptanceMargin\n    );\n\n    event AcceptanceMarginRemoved(\n        bytes3 _quoteCurrencyCode\n    );\n\n\n    /* Storage */\n\n    /**\n     * @dev The code of the base currency of the economy.\n     */\n    bytes3 public baseCurrencyCode;\n\n    /**\n     * @dev EIP20 token address of the economy.\n     */\n    EIP20TokenInterface public eip20Token;\n\n    /**\n     * @dev Conversion rate from the base currency to the economy token.\n     */\n    uint256 public conversionRateFromBaseCurrencyToToken;\n\n    /**\n     * @dev Conversion rate decimals from the base currency to the\n     *      economy token.\n     */\n    uint256 public conversionRateDecimalsFromBaseCurrencyToToken;\n\n    /**\n     * @dev Token decimals of EIP20Token. Since Pay method can be called multiple\n     *      times, for optimization it's fetched from eip20Token and stored.\n     */\n    uint8 public tokenDecimals;\n\n    /**\n     * @dev Required decimals for price oracles.\n     */\n    uint8 public requiredPriceOracleDecimals;\n\n    /**\n     * @dev Token rules address of the economy.\n     */\n    TokenRules public tokenRules;\n\n    /**\n     * @dev Mapping from pay-currency code to corresponding price oracle.\n     *      The mapped price oracle's base currency code should be the economy\n     *      base currency code (see baseCurrencyCode storage variable)\n     *      and the quote currency code should be the corresponding pay-currency\n     *      code.\n     */\n    mapping(bytes3 => PriceOracleInterface) public baseCurrencyPriceOracles;\n\n    /**\n     * @dev Mapping from pay-currency code to price difference accepatance\n     *      margin. During a pay operation an intended price for\n     *      pay-currency is presented, that is checked against current price of\n     *      pay-currenency wrt stored acceptance margin.\n     */\n    mapping(bytes3 => uint256) public baseCurrencyPriceAcceptanceMargins;\n\n\n    /* Special Functions */\n\n    /**\n     * @notice Constructs a new pricer object.\n     *\n     * @dev Function requires:\n     *          - The economy token address is not null.\n     *          - The base currency code is not empty.\n     *          - Conversion rate from the base currency to the token is not 0.\n     *          - The economy token rules address is not null.\n     *\n     * @param _organization Organization address.\n     * @param _eip20Token The economy token address.\n     * @param _baseCurrencyCode The economy base currency code.\n     * @param _conversionRate The conversion rate from the economy base currency\n     *                        to the token.\n     * @param _conversionRateDecimals The conversion rate's decimals from the\n     *                                economy base currency to the token.\n     * @param _requiredPriceOracleDecimals Required decimals for price oracles.\n     * @param _tokenRules The economy token rules address.\n     */\n    constructor(\n        OrganizationInterface _organization,\n        address _eip20Token,\n        bytes3 _baseCurrencyCode,\n        uint256 _conversionRate,\n        uint8 _conversionRateDecimals,\n        uint8 _requiredPriceOracleDecimals,\n        address _tokenRules\n    )\n        Organized(_organization)\n        public\n    {\n        require(_eip20Token != address(0), \"Token address is null.\");\n\n        require(\n            _baseCurrencyCode != bytes3(0),\n            \"Base currency code is null.\"\n        );\n\n        require(\n            _conversionRate != 0,\n            \"Conversion rate from the base currency to the token is 0.\"\n        );\n\n        require(\n            _tokenRules != address(0),\n            \"Token rules address is null.\"\n        );\n\n        eip20Token = EIP20TokenInterface(_eip20Token);\n\n        tokenDecimals = EIP20TokenInterface(_eip20Token).decimals();\n\n        baseCurrencyCode = _baseCurrencyCode;\n\n        conversionRateFromBaseCurrencyToToken = _conversionRate;\n\n        conversionRateDecimalsFromBaseCurrencyToToken = _conversionRateDecimals;\n\n        requiredPriceOracleDecimals = _requiredPriceOracleDecimals;\n\n        tokenRules = TokenRules(_tokenRules);\n    }\n\n\n    /* External Functions */\n\n    /**\n     * @notice Transfers from the msg.sender account to the specified addresses\n     *         an amount of the economy tokens equivalent (after conversion) to\n     *         the specified amounts in pay currency.\n     *\n     * @dev Function requires:\n     *          - From address is not null.\n     *          - The lengths of arrays of beneficiaries and amounts are equal.\n     *          - The intended price of the base currency in the pay currency\n     *            wrt the current price is in the registered acceptance margin.\n     *\n     * @param _payCurrencyCode Currency code of the specified amounts.\n     * @param _baseCurrencyIntendedPrice The intended price of the base currency\n     *                                   used during conversion within function.\n     */\n    function pay(\n        address _from,\n        address[] calldata _toList,\n        uint256[] calldata _amountList,\n        bytes3 _payCurrencyCode,\n        uint256 _baseCurrencyIntendedPrice\n    )\n        external\n    {\n        require(\n            _from != address(0),\n            \"From address is null.\"\n        );\n\n        require(\n            _toList.length == _amountList.length,\n            \"'to' and 'amount' transfer arrays' lengths are not equal.\"\n        );\n\n        if (_toList.length == 0) {\n            return;\n        }\n\n        uint256 baseCurrencyCurrentPrice = baseCurrencyPrice(\n            _payCurrencyCode\n        );\n\n        require(\n            baseCurrencyCurrentPrice != 0,\n            \"Base currency price in pay currency is 0.\"\n        );\n\n        require(\n            isPriceInRange(\n                _baseCurrencyIntendedPrice,\n                baseCurrencyCurrentPrice,\n                baseCurrencyPriceAcceptanceMargins[_payCurrencyCode]\n            ),\n            \"Intended price is not in the acceptable margin wrt current price.\"\n        );\n\n        uint256[] memory convertedAmounts = new uint256[](_amountList.length);\n\n        for(uint256 i = 0; i < _amountList.length; ++i) {\n            convertedAmounts[i] = convertPayCurrencyToToken(\n                baseCurrencyCurrentPrice,\n                _amountList[i]\n            );\n        }\n\n        tokenRules.executeTransfers(\n            _from,\n            _toList,\n            convertedAmounts\n        );\n    }\n\n    /**\n     * @notice Adds a new price oracle.\n     *\n     * @dev Function requires:\n     *          - Only organization's workers are allowed to call the function.\n     *          - The proposed price oracle's address is not null.\n     *          - The proposed price oracle's base currency code is\n     *            equal to the economy base currency code specified in this\n     *            contract constructor.\n     *          - The proposed price oracle does not exist.\n     *          - The proposed price oracle decimals number is equal to\n     *            the contract required price oracle decimals number.\n     *\n     * @param _priceOracle The proposed price oracle.\n     */\n    function addPriceOracle(\n        PriceOracleInterface _priceOracle\n    )\n        external\n        onlyWorker\n    {\n        require(\n            address(_priceOracle) != address(0),\n            \"Price oracle address is null.\"\n        );\n\n        require(\n            _priceOracle.decimals() == requiredPriceOracleDecimals,\n            \"Price oracle decimals number is difference from the required one.\"\n        );\n\n        bytes3 payCurrencyCode = _priceOracle.quoteCurrency();\n\n        require(\n            address(baseCurrencyPriceOracles[payCurrencyCode]) == address(0),\n            \"Price oracle already exists.\"\n        );\n\n        require(\n            _priceOracle.baseCurrency() == baseCurrencyCode,\n            \"Price oracle's base currency code does not match.\"\n        );\n\n        baseCurrencyPriceOracles[payCurrencyCode] = _priceOracle;\n\n        emit PriceOracleAdded(address(_priceOracle));\n    }\n\n    /**\n     * @notice Removes the price oracle for the specified pay currency code.\n     *\n     * @dev Function requires:\n     *          - Only organization's workers are allowed to call the function.\n     *          - Price oracle matching with the specified pay currency code\n     *            exists.\n     */\n    function removePriceOracle(\n        bytes3 _payCurrencyCode\n    )\n        external\n        onlyWorker\n    {\n        PriceOracleInterface priceOracle = baseCurrencyPriceOracles[\n            _payCurrencyCode\n        ];\n\n        require(\n            address(priceOracle) != address(0),\n            \"Price oracle to remove does not exist.\"\n        );\n\n        delete baseCurrencyPriceOracles[_payCurrencyCode];\n\n        emit PriceOracleRemoved(address(priceOracle));\n    }\n\n    /**\n     * @notice Sets an acceptance margin for the base currency price per pay\n     *         currency.\n     *\n     * @dev Function requires:\n     *          - Only organization's workers are allowed to call the function.\n     *          - The specified pay currency code is not null.\n     */\n    function setAcceptanceMargin(\n        bytes3 _payCurrencyCode,\n        uint256 _acceptanceMargin\n    )\n        external\n        onlyWorker\n    {\n        require(\n            _payCurrencyCode != bytes3(0),\n            \"Pay currency code is null.\"\n        );\n\n        baseCurrencyPriceAcceptanceMargins[_payCurrencyCode] = _acceptanceMargin;\n\n        emit AcceptanceMarginSet(\n            _payCurrencyCode,\n            _acceptanceMargin\n        );\n    }\n\n    /**\n     * @notice Removes an acceptance margin of the base currency price in the\n     *         specified pay currency.\n     *\n     * @dev Function requires:\n     *          - Only organization's workers are allowed to call the function.\n     *          - The specified pay currency code is not null.\n     */\n    function removeAcceptanceMargin(\n        bytes3 _payCurrencyCode\n    )\n        external\n        onlyWorker\n    {\n        require(\n            _payCurrencyCode != bytes3(0),\n            \"Pay currency code is null.\"\n        );\n\n        delete baseCurrencyPriceAcceptanceMargins[_payCurrencyCode];\n\n        emit AcceptanceMarginRemoved(_payCurrencyCode);\n    }\n\n\n    /* Private Functions */\n\n    function baseCurrencyPrice(\n        bytes3 _payCurrencyCode\n    )\n        private\n        view\n        returns(uint256)\n    {\n        PriceOracleInterface priceOracle = baseCurrencyPriceOracles[\n            _payCurrencyCode\n        ];\n\n        require(\n            address(priceOracle) != address(0),\n            \"Price oracle for the specified currency code does not exist.\"\n        );\n\n        return priceOracle.getPrice();\n    }\n\n    function convertPayCurrencyToToken(\n        uint256 _baseCurrencyPriceInPayCurrency,\n        uint256 _payCurrencyAmount\n    )\n        private\n        view\n        returns (uint256)\n    {\n        return _payCurrencyAmount\n            .mul(\n                conversionRateFromBaseCurrencyToToken\n            )\n            .mul(\n                10 ** uint256(tokenDecimals)\n            )\n            .div(\n                10 ** conversionRateDecimalsFromBaseCurrencyToToken\n            )\n            .div(\n                _baseCurrencyPriceInPayCurrency\n            );\n    }\n\n    function isPriceInRange(\n        uint256 _intendedPrice,\n        uint256 _currentPrice,\n        uint256 _acceptanceMargin\n    )\n        private\n        pure\n        returns(bool isInRange)\n    {\n        uint256 diff = 0;\n        if (_currentPrice > _intendedPrice) {\n            diff = _currentPrice.sub(_intendedPrice);\n        } else {\n            diff = _intendedPrice.sub(_currentPrice);\n        }\n\n        return diff <= _acceptanceMargin;\n    }\n\n}",
    "sourcePath": "/Users/spuchbauer/dev/ethdenver/openst-contracts/contracts/rules/PricerRule.sol",
    "compiler": {
        "name": "solc",
        "version": "0.5.0+commit.1d4f565a.Emscripten.clang"
    },
    "schemaVersion": "3.0.9",
    "updatedAt": "2020-02-15T21:03:36.437Z",
    "devdoc": {
        "methods": {
            "addPriceOracle(address)": {
                "details": "Function requires:         - Only organization's workers are allowed to call the function.         - The proposed price oracle's address is not null.         - The proposed price oracle's base currency code is           equal to the economy base currency code specified in this           contract constructor.         - The proposed price oracle does not exist.         - The proposed price oracle decimals number is equal to           the contract required price oracle decimals number.",
                "params": {
                    "_priceOracle": "The proposed price oracle."
                }
            },
            "constructor": {
                "details": "Function requires:         - The economy token address is not null.         - The base currency code is not empty.         - Conversion rate from the base currency to the token is not 0.         - The economy token rules address is not null.",
                "params": {
                    "_baseCurrencyCode": "The economy base currency code.",
                    "_conversionRate": "The conversion rate from the economy base currency                       to the token.",
                    "_conversionRateDecimals": "The conversion rate's decimals from the                               economy base currency to the token.",
                    "_eip20Token": "The economy token address.",
                    "_organization": "Organization address.",
                    "_requiredPriceOracleDecimals": "Required decimals for price oracles.",
                    "_tokenRules": "The economy token rules address."
                }
            },
            "pay(address,address[],uint256[],bytes3,uint256)": {
                "details": "Function requires:         - From address is not null.         - The lengths of arrays of beneficiaries and amounts are equal.         - The intended price of the base currency in the pay currency           wrt the current price is in the registered acceptance margin.",
                "params": {
                    "_baseCurrencyIntendedPrice": "The intended price of the base currency                                  used during conversion within function.",
                    "_payCurrencyCode": "Currency code of the specified amounts."
                }
            },
            "removeAcceptanceMargin(bytes3)": {
                "details": "Function requires:         - Only organization's workers are allowed to call the function.         - The specified pay currency code is not null."
            },
            "removePriceOracle(bytes3)": {
                "details": "Function requires:         - Only organization's workers are allowed to call the function.         - Price oracle matching with the specified pay currency code           exists."
            },
            "setAcceptanceMargin(bytes3,uint256)": {
                "details": "Function requires:         - Only organization's workers are allowed to call the function.         - The specified pay currency code is not null."
            }
        }
    },
    "userdoc": {
        "methods": {
            "addPriceOracle(address)": {
                "notice": "Adds a new price oracle."
            },
            "constructor": "Constructs a new pricer object.",
            "pay(address,address[],uint256[],bytes3,uint256)": {
                "notice": "Transfers from the msg.sender account to the specified addresses        an amount of the economy tokens equivalent (after conversion) to        the specified amounts in pay currency."
            },
            "removeAcceptanceMargin(bytes3)": {
                "notice": "Removes an acceptance margin of the base currency price in the        specified pay currency."
            },
            "removePriceOracle(bytes3)": {
                "notice": "Removes the price oracle for the specified pay currency code."
            },
            "setAcceptanceMargin(bytes3,uint256)": {
                "notice": "Sets an acceptance margin for the base currency price per pay        currency."
            }
        }
    }
}