{
    "contractName": "Proxy",
    "abi": [
        {
            "constant": true,
            "inputs": [],
            "name": "masterCopy",
            "outputs": [
                {
                    "name": "",
                    "type": "address"
                }
            ],
            "payable": false,
            "stateMutability": "view",
            "type": "function"
        },
        {
            "inputs": [
                {
                    "name": "_masterCopy",
                    "type": "address"
                }
            ],
            "payable": false,
            "stateMutability": "nonpayable",
            "type": "constructor"
        },
        {
            "payable": true,
            "stateMutability": "payable",
            "type": "fallback"
        }
    ],
    "bytecode": "0x608060405234801561001057600080fd5b506040516020806101d58339810180604052602081101561003057600080fd5b5051600160a060020a03811615156100a957604080517f08c379a000000000000000000000000000000000000000000000000000000000815260206004820152601c60248201527f4d617374657220636f70792061646472657373206973206e756c6c2e00000000604482015290519081900360640190fd5b60008054600160a060020a03909216600160a060020a031990921691909117905560fd806100d86000396000f3fe608060405260043610603e5763ffffffff7c0100000000000000000000000000000000000000000000000000000000600035041663a619486e8114607a575b73ffffffffffffffffffffffffffffffffffffffff600054163660008037600080366000845af43d6000803e8015156075573d6000fd5b3d6000f35b348015608557600080fd5b50608c60b5565b6040805173ffffffffffffffffffffffffffffffffffffffff9092168252519081900360200190f35b60005473ffffffffffffffffffffffffffffffffffffffff168156fea165627a7a72305820cf9e2c7681f8e7f12b9a478ce37d7e69e4eed76cc645504441372ba8b01a92230029",
    "source": "pragma solidity ^0.5.0;\n\n// Copyright 2019 OpenST Ltd.\n//\n// Licensed under the Apache License, Version 2.0 (the \"License\");\n// you may not use this file except in compliance with the License.\n// You may obtain a copy of the License at\n//\n//    http://www.apache.org/licenses/LICENSE-2.0\n//\n// Unless required by applicable law or agreed to in writing, software\n// distributed under the License is distributed on an \"AS IS\" BASIS,\n// WITHOUT WARRANTIES OR CONDITIONS OF ANY KIND, either express or implied.\n// See the License for the specific language governing permissions and\n// limitations under the License.\n\n/**\n * @title Proxy contract that delegates calls to the master contract.\n *\n * @notice Allows to create a proxy from a master copy of any contract.\n *         An important requirement on a master contract is to have a reserved\n *         slot of an address type, within its storage, in a first position.\n *         For an example, please, see TokenHolder contract.\n */\ncontract Proxy {\n\n    /**\n     * @dev THIS STORAGE VARIABLE *MUST* BE ALWAYS THE FIRST STORAGE\n     *      ELEMENT FOR THIS CONTRACT.\n     */\n    address public masterCopy;\n\n    constructor(address _masterCopy)\n        public\n    {\n        require(\n            _masterCopy != address(0),\n            \"Master copy address is null.\"\n        );\n\n        masterCopy = _masterCopy;\n    }\n\n    /**\n     * @dev Fallback function allowing to perform a delegatecall to the given\n     *      implementation. The function will return whatever the\n     *      implementation call returns.\n     */\n    function ()\n        external\n        payable\n    {\n        // solium-disable-next-line security/no-inline-assembly\n        assembly {\n            let masterCopy := and(sload(0), 0xffffffffffffffffffffffffffffffffffffffff)\n            calldatacopy(0, 0, calldatasize())\n            let success := delegatecall(gas, masterCopy, 0, calldatasize(), 0, 0)\n            returndatacopy(0, 0, returndatasize())\n            if eq(success, 0) { revert(0, returndatasize()) }\n            return(0, returndatasize())\n        }\n    }\n}\n",
    "sourcePath": "/Users/spuchbauer/dev/ethdenver/openst-contracts/contracts/proxies/Proxy.sol",
    "compiler": {
        "name": "solc",
        "version": "0.5.0+commit.1d4f565a.Emscripten.clang"
    },
    "schemaVersion": "3.0.9",
    "updatedAt": "2020-02-15T21:03:36.435Z",
    "devdoc": {
        "methods": {},
        "title": "Proxy contract that delegates calls to the master contract."
    },
    "userdoc": {
        "methods": {},
        "notice": "Allows to create a proxy from a master copy of any contract.        An important requirement on a master contract is to have a reserved        slot of an address type, within its storage, in a first position.        For an example, please, see TokenHolder contract."
    }
}