{
    "contractName": "ProxyFactory",
    "abi": [
        {
            "anonymous": false,
            "inputs": [
                {
                    "indexed": false,
                    "name": "_proxy",
                    "type": "address"
                }
            ],
            "name": "ProxyCreated",
            "type": "event"
        },
        {
            "constant": false,
            "inputs": [
                {
                    "name": "_masterCopy",
                    "type": "address"
                },
                {
                    "name": "_data",
                    "type": "bytes"
                }
            ],
            "name": "createProxy",
            "outputs": [
                {
                    "name": "proxy_",
                    "type": "address"
                }
            ],
            "payable": false,
            "stateMutability": "nonpayable",
            "type": "function"
        }
    ],
    "bytecode": "0x608060405234801561001057600080fd5b5061048e806100206000396000f3fe6080604052600436106100405763ffffffff7c010000000000000000000000000000000000000000000000000000000060003504166361b69abd8114610045575b600080fd5b34801561005157600080fd5b506101156004803603604081101561006857600080fd5b73ffffffffffffffffffffffffffffffffffffffff82351691908101906040810160208201356401000000008111156100a057600080fd5b8201836020820111156100b257600080fd5b803590602001918460018302840111640100000000831117156100d457600080fd5b91908080601f01602080910402602001604051908101604052809392919081815260200183838082843760009201919091525092955061013e945050505050565b6040805173ffffffffffffffffffffffffffffffffffffffff9092168252519081900360200190f35b600073ffffffffffffffffffffffffffffffffffffffff831615156101c457604080517f08c379a000000000000000000000000000000000000000000000000000000000815260206004820152601c60248201527f4d617374657220636f70792061646472657373206973206e756c6c2e00000000604482015290519081900360640190fd5b826101cd61027d565b73ffffffffffffffffffffffffffffffffffffffff909116815260405190819003602001906000f080158015610207573d6000803e3d6000fd5b50905060008251111561022f5760008060008451602086016000865af1141561022f57600080fd5b6040805173ffffffffffffffffffffffffffffffffffffffff8316815290517efffc2da0b561cae30d9826d37709e9421c4725faebc226cbbb7ef5fc5e73499181900360200190a192915050565b6040516101d58061028e8339019056fe608060405234801561001057600080fd5b506040516020806101d58339810180604052602081101561003057600080fd5b5051600160a060020a03811615156100a957604080517f08c379a000000000000000000000000000000000000000000000000000000000815260206004820152601c60248201527f4d617374657220636f70792061646472657373206973206e756c6c2e00000000604482015290519081900360640190fd5b60008054600160a060020a03909216600160a060020a031990921691909117905560fd806100d86000396000f3fe608060405260043610603e5763ffffffff7c0100000000000000000000000000000000000000000000000000000000600035041663a619486e8114607a575b73ffffffffffffffffffffffffffffffffffffffff600054163660008037600080366000845af43d6000803e8015156075573d6000fd5b3d6000f35b348015608557600080fd5b50608c60b5565b6040805173ffffffffffffffffffffffffffffffffffffffff9092168252519081900360200190f35b60005473ffffffffffffffffffffffffffffffffffffffff168156fea165627a7a72305820cf9e2c7681f8e7f12b9a478ce37d7e69e4eed76cc645504441372ba8b01a92230029a165627a7a7230582012cf3086d080cbb7dcc4ba88d3618dbaa24a0d017dbd6a518a14b6afef6786490029",
    "source": "pragma solidity ^0.5.0;\n\n// Copyright 2019 OpenST Ltd.\n//\n// Licensed under the Apache License, Version 2.0 (the \"License\");\n// you may not use this file except in compliance with the License.\n// You may obtain a copy of the License at\n//\n//    http://www.apache.org/licenses/LICENSE-2.0\n//\n// Unless required by applicable law or agreed to in writing, software\n// distributed under the License is distributed on an \"AS IS\" BASIS,\n// WITHOUT WARRANTIES OR CONDITIONS OF ANY KIND, either express or implied.\n// See the License for the specific language governing permissions and\n// limitations under the License.\n\nimport \"./Proxy.sol\";\n\n/**\n * @title Allows to create new proxy contact and execute a message call to the\n *        new proxy within one transaction.\n *\n * @dev This contract is adapted from a ProxyFactory contract implementation\n *      from https://github.com/gnosis/safe-contracts.\n */\ncontract ProxyFactory {\n\n    /**\n     * @notice The event is emitted from the ProxyFactory::createProxy\n     *         function on success.\n     *\n     * @param _proxy A newly created proxy.\n     */\n    event ProxyCreated(Proxy _proxy);\n\n    /**\n     * @dev Allows to create new proxy contact and execute a message call (if\n     *      a message data is non-empty) to the new proxy within one\n     *      transaction.\n     *\n     *      Function requires:\n     *          - The specified master copy address is not null.\n     *\n     * @param _masterCopy Address of a master copy.\n     * @param _data Payload for message call sent to new proxy contract.\n     *              Executes a message call to this parameter if it's not empty.\n     *\n     * @return proxy_ A newly created proxy.\n     */\n    function createProxy(address _masterCopy, bytes memory _data)\n        public\n        returns (Proxy proxy_)\n    {\n        require(\n            _masterCopy != address(0),\n            \"Master copy address is null.\"\n        );\n\n        proxy_ = new Proxy(_masterCopy);\n        if (_data.length > 0)\n            // solium-disable-next-line security/no-inline-assembly\n            assembly {\n                if eq(call(gas, proxy_, 0, add(_data, 0x20), mload(_data), 0, 0), 0) {\n                    revert(0, 0)\n                }\n            }\n\n        emit ProxyCreated(proxy_);\n    }\n}\n",
    "sourcePath": "/Users/spuchbauer/dev/ethdenver/openst-contracts/contracts/proxies/ProxyFactory.sol",
    "compiler": {
        "name": "solc",
        "version": "0.5.0+commit.1d4f565a.Emscripten.clang"
    },
    "schemaVersion": "3.0.9",
    "updatedAt": "2020-02-15T21:03:36.435Z",
    "devdoc": {
        "details": "This contract is adapted from a ProxyFactory contract implementation     from https://github.com/gnosis/safe-contracts.",
        "methods": {
            "createProxy(address,bytes)": {
                "details": "Allows to create new proxy contact and execute a message call (if     a message data is non-empty) to the new proxy within one     transaction.     *      Function requires:         - The specified master copy address is not null.",
                "params": {
                    "_data": "Payload for message call sent to new proxy contract.             Executes a message call to this parameter if it's not empty.",
                    "_masterCopy": "Address of a master copy."
                },
                "return": "proxy_ A newly created proxy."
            }
        },
        "title": "Allows to create new proxy contact and execute a message call to the       new proxy within one transaction."
    },
    "userdoc": {
        "methods": {}
    }
}