{
    "contractName": "SafeMathLibraryDouble",
    "abi": [
        {
            "constant": true,
            "inputs": [
                {
                    "name": "a",
                    "type": "uint256"
                },
                {
                    "name": "b",
                    "type": "uint256"
                }
            ],
            "name": "mul",
            "outputs": [
                {
                    "name": "",
                    "type": "uint256"
                }
            ],
            "payable": false,
            "stateMutability": "pure",
            "type": "function"
        },
        {
            "constant": true,
            "inputs": [
                {
                    "name": "a",
                    "type": "uint256"
                },
                {
                    "name": "b",
                    "type": "uint256"
                }
            ],
            "name": "div",
            "outputs": [
                {
                    "name": "",
                    "type": "uint256"
                }
            ],
            "payable": false,
            "stateMutability": "pure",
            "type": "function"
        },
        {
            "constant": true,
            "inputs": [
                {
                    "name": "a",
                    "type": "uint256"
                },
                {
                    "name": "b",
                    "type": "uint256"
                }
            ],
            "name": "sub",
            "outputs": [
                {
                    "name": "",
                    "type": "uint256"
                }
            ],
            "payable": false,
            "stateMutability": "pure",
            "type": "function"
        },
        {
            "constant": true,
            "inputs": [
                {
                    "name": "a",
                    "type": "uint256"
                },
                {
                    "name": "b",
                    "type": "uint256"
                }
            ],
            "name": "add",
            "outputs": [
                {
                    "name": "",
                    "type": "uint256"
                }
            ],
            "payable": false,
            "stateMutability": "pure",
            "type": "function"
        },
        {
            "constant": true,
            "inputs": [
                {
                    "name": "a",
                    "type": "uint256"
                },
                {
                    "name": "b",
                    "type": "uint256"
                }
            ],
            "name": "mod",
            "outputs": [
                {
                    "name": "",
                    "type": "uint256"
                }
            ],
            "payable": false,
            "stateMutability": "pure",
            "type": "function"
        }
    ],
    "bytecode": "0x608060405234801561001057600080fd5b5061027b806100206000396000f3fe60806040526004361061006c5763ffffffff7c0100000000000000000000000000000000000000000000000000000000600035041663771602f78114610071578063a391c15b146100b3578063b67d77c5146100e3578063c8a4ac9c14610113578063f43f523a14610143575b600080fd5b34801561007d57600080fd5b506100a16004803603604081101561009457600080fd5b5080359060200135610173565b60408051918252519081900360200190f35b3480156100bf57600080fd5b506100a1600480360360408110156100d657600080fd5b5080359060200135610188565b3480156100ef57600080fd5b506100a16004803603604081101561010657600080fd5b5080359060200135610194565b34801561011f57600080fd5b506100a16004803603604081101561013657600080fd5b50803590602001356101a0565b34801561014f57600080fd5b506100a16004803603604081101561016657600080fd5b50803590602001356101ac565b600061017f83836101b8565b90505b92915050565b600061017f83836101ca565b600061017f83836101ee565b600061017f8383610203565b600061017f838361022e565b60008282018381101561017f57600080fd5b60008082116101d857600080fd5b600082848115156101e557fe5b04949350505050565b6000828211156101fd57600080fd5b50900390565b600082151561021457506000610182565b82820282848281151561022357fe5b041461017f57600080fd5b600081151561023c57600080fd5b818381151561024757fe5b06939250505056fea165627a7a72305820cd2ea95fb95cb7cd7e123ffefadb28878bda1a217eb32079974606a720875c380029",
    "source": "pragma solidity ^0.5.0;\n\nimport \"../../../external/SafeMath.sol\";\n\n/**\n * It is used to test SafeMath contract.\n */\ncontract SafeMathLibraryDouble {\n\n    /* Public Functions */\n\n    /** @dev Multiplies two numbers, reverts on overflow.*/\n    function mul(uint256 a, uint256 b)\n        public\n        pure\n        returns (uint256)\n    {\n        return SafeMath.mul(a,b);\n    }\n\n    /**\n     * @dev Integer division of two numbers truncating the quotient,\n     *      reverts on division by zero.\n     */\n    function div(uint256 a, uint256 b)\n        public\n        pure\n        returns (uint256)\n    {\n        return SafeMath.div(a,b);\n    }\n\n    /**\n     * @dev Subtracts two numbers, reverts on overflow (i.e. if subtrahend\n     *      is greater than minuend).\n     */\n    function sub(uint256 a, uint256 b)\n        public\n        pure\n        returns (uint256)\n    {\n        return SafeMath.sub(a,b);\n    }\n\n    /**\n     * @dev Adds two numbers, reverts on overflow.\n     */\n    function add(uint256 a, uint256 b)\n        public\n        pure\n        returns (uint256)\n    {\n        return SafeMath.add(a,b);\n    }\n\n    /**\n     * @dev Divides two numbers and returns the remainder (unsigned integer\n     *      modulo), reverts when dividing by zero.\n     */\n    function mod(uint256 a, uint256 b)\n        public\n        pure\n        returns (uint256)\n    {\n        return SafeMath.mod(a,b);\n    }\n\n}\n",
    "sourcePath": "/Users/spuchbauer/dev/ethdenver/openst-contracts/contracts/test_doubles/unit_tests/safe_math/SafeMathLibraryDouble.sol",
    "compiler": {
        "name": "solc",
        "version": "0.5.0+commit.1d4f565a.Emscripten.clang"
    },
    "schemaVersion": "3.0.9",
    "updatedAt": "2020-02-15T21:03:36.448Z",
    "devdoc": {
        "methods": {
            "add(uint256,uint256)": {
                "details": "Adds two numbers, reverts on overflow."
            },
            "div(uint256,uint256)": {
                "details": "Integer division of two numbers truncating the quotient,     reverts on division by zero."
            },
            "mod(uint256,uint256)": {
                "details": "Divides two numbers and returns the remainder (unsigned integer     modulo), reverts when dividing by zero."
            },
            "mul(uint256,uint256)": {
                "details": "Multiplies two numbers, reverts on overflow."
            },
            "sub(uint256,uint256)": {
                "details": "Subtracts two numbers, reverts on overflow (i.e. if subtrahend     is greater than minuend)."
            }
        }
    },
    "userdoc": {
        "methods": {},
        "notice": "It is used to test SafeMath contract."
    }
}