{
    "contractName": "TokenRulesSpy",
    "abi": [
        {
            "constant": true,
            "inputs": [],
            "name": "recordedFrom",
            "outputs": [
                {
                    "name": "",
                    "type": "address"
                }
            ],
            "payable": false,
            "stateMutability": "view",
            "type": "function"
        },
        {
            "constant": true,
            "inputs": [
                {
                    "name": "",
                    "type": "uint256"
                }
            ],
            "name": "recordedTransfersAmount",
            "outputs": [
                {
                    "name": "",
                    "type": "uint256"
                }
            ],
            "payable": false,
            "stateMutability": "view",
            "type": "function"
        },
        {
            "constant": true,
            "inputs": [
                {
                    "name": "",
                    "type": "address"
                }
            ],
            "name": "allowedTransfers",
            "outputs": [
                {
                    "name": "",
                    "type": "bool"
                }
            ],
            "payable": false,
            "stateMutability": "view",
            "type": "function"
        },
        {
            "constant": true,
            "inputs": [
                {
                    "name": "",
                    "type": "uint256"
                }
            ],
            "name": "recordedTransfersTo",
            "outputs": [
                {
                    "name": "",
                    "type": "address"
                }
            ],
            "payable": false,
            "stateMutability": "view",
            "type": "function"
        },
        {
            "constant": true,
            "inputs": [],
            "name": "recordedTransfersToLength",
            "outputs": [
                {
                    "name": "",
                    "type": "uint256"
                }
            ],
            "payable": false,
            "stateMutability": "view",
            "type": "function"
        },
        {
            "constant": true,
            "inputs": [],
            "name": "recordedTransfersAmountLength",
            "outputs": [
                {
                    "name": "",
                    "type": "uint256"
                }
            ],
            "payable": false,
            "stateMutability": "view",
            "type": "function"
        },
        {
            "constant": false,
            "inputs": [],
            "name": "allowTransfers",
            "outputs": [],
            "payable": false,
            "stateMutability": "nonpayable",
            "type": "function"
        },
        {
            "constant": false,
            "inputs": [],
            "name": "disallowTransfers",
            "outputs": [],
            "payable": false,
            "stateMutability": "nonpayable",
            "type": "function"
        },
        {
            "constant": false,
            "inputs": [
                {
                    "name": "_from",
                    "type": "address"
                },
                {
                    "name": "_transfersTo",
                    "type": "address[]"
                },
                {
                    "name": "_transfersAmount",
                    "type": "uint256[]"
                }
            ],
            "name": "executeTransfers",
            "outputs": [],
            "payable": false,
            "stateMutability": "nonpayable",
            "type": "function"
        }
    ],
    "bytecode": "0x608060405234801561001057600080fd5b506104dd806100206000396000f3fe6080604052600436106100985763ffffffff7c0100000000000000000000000000000000000000000000000000000000600035041663212c8157811461009d5780632185810b146100b45780632aeac3b2146100c95780635838421c146100fa578063661309ac1461013657806387da540e1461017d578063a6a192da146101a7578063b466d01314610286578063f49a30c01461029b575b600080fd5b3480156100a957600080fd5b506100b26102b0565b005b3480156100c057600080fd5b506100b26102c9565b3480156100d557600080fd5b506100de6102e5565b60408051600160a060020a039092168252519081900360200190f35b34801561010657600080fd5b506101246004803603602081101561011d57600080fd5b50356102f4565b60408051918252519081900360200190f35b34801561014257600080fd5b506101696004803603602081101561015957600080fd5b5035600160a060020a0316610313565b604080519115158252519081900360200190f35b34801561018957600080fd5b506100de600480360360208110156101a057600080fd5b5035610328565b3480156101b357600080fd5b506100b2600480360360608110156101ca57600080fd5b600160a060020a0382351691908101906040810160208201356401000000008111156101f557600080fd5b82018360208201111561020757600080fd5b8035906020019184602083028401116401000000008311171561022957600080fd5b91939092909160208101903564010000000081111561024757600080fd5b82018360208201111561025957600080fd5b8035906020019184602083028401116401000000008311171561027b57600080fd5b509092509050610350565b34801561029257600080fd5b506101246103a0565b3480156102a757600080fd5b506101246103a6565b336000908152602081905260409020805460ff19169055565b336000908152602081905260409020805460ff19166001179055565b600154600160a060020a031681565b600480548290811061030257fe5b600091825260209091200154905081565b60006020819052908152604090205460ff1681565b600280548290811061033657fe5b600091825260209091200154600160a060020a0316905081565b6001805473ffffffffffffffffffffffffffffffffffffffff1916600160a060020a038716179055610384600285856103ac565b5060038390556103966004838361041c565b5060055550505050565b60035481565b60055481565b82805482825590600052602060002090810192821561040c579160200282015b8281111561040c57815473ffffffffffffffffffffffffffffffffffffffff1916600160a060020a038435161782556020909201916001909101906103cc565b50610418929150610463565b5090565b828054828255906000526020600020908101928215610457579160200282015b8281111561045757823582559160200191906001019061043c565b50610418929150610497565b61049491905b8082111561041857805473ffffffffffffffffffffffffffffffffffffffff19168155600101610469565b90565b61049491905b80821115610418576000815560010161049d56fea165627a7a723058201b5520a879f1d7ea058d3f8046e734bee4c48d85432a9dea29baab4b768bd30b0029",
    "source": "pragma solidity ^0.5.0;\n\n// Copyright 2019 OpenST Ltd.\n//\n// Licensed under the Apache License, Version 2.0 (the \"License\");\n// you may not use this file except in compliance with the License.\n// You may obtain a copy of the License at\n//\n//    http://www.apache.org/licenses/LICENSE-2.0\n//\n// Unless required by applicable law or agreed to in writing, software\n// distributed under the License is distributed on an \"AS IS\" BASIS,\n// WITHOUT WARRANTIES OR CONDITIONS OF ANY KIND, either express or implied.\n// See the License for the specific language governing permissions and\n// limitations under the License.\n\ncontract TokenRulesSpy {\n\n    /* Storage */\n\n    mapping (address => bool) public allowedTransfers;\n\n    address public recordedFrom;\n\n    address[] public recordedTransfersTo;\n    uint256 public recordedTransfersToLength;\n\n    uint256[] public recordedTransfersAmount;\n    uint256 public recordedTransfersAmountLength;\n\n\n    /* External Functions */\n\n    function allowTransfers()\n        external\n    {\n        allowedTransfers[msg.sender] = true;\n    }\n\n    function disallowTransfers()\n        external\n    {\n        allowedTransfers[msg.sender] = false;\n    }\n\n    function executeTransfers(\n        address _from,\n        address[] calldata _transfersTo,\n        uint256[] calldata _transfersAmount\n    )\n        external\n    {\n        recordedFrom = _from;\n\n        recordedTransfersTo = _transfersTo;\n        recordedTransfersToLength = _transfersTo.length;\n\n        recordedTransfersAmount = _transfersAmount;\n        recordedTransfersAmountLength = _transfersAmount.length;\n    }\n\n}\n",
    "sourcePath": "/Users/spuchbauer/dev/ethdenver/openst-contracts/contracts/test_doubles/unit_tests/TokenRulesSpy.sol",
    "compiler": {
        "name": "solc",
        "version": "0.5.0+commit.1d4f565a.Emscripten.clang"
    },
    "schemaVersion": "3.0.9",
    "updatedAt": "2020-02-15T21:03:36.445Z",
    "devdoc": {
        "methods": {}
    },
    "userdoc": {
        "methods": {}
    }
}