{
    "contractName": "TokenHolder",
    "abi": [
        {
            "constant": true,
            "inputs": [],
            "name": "EXECUTE_RULE_CALLPREFIX",
            "outputs": [
                {
                    "name": "",
                    "type": "bytes4"
                }
            ],
            "payable": false,
            "stateMutability": "view",
            "type": "function"
        },
        {
            "constant": true,
            "inputs": [],
            "name": "sessionWindow",
            "outputs": [
                {
                    "name": "",
                    "type": "uint256"
                }
            ],
            "payable": false,
            "stateMutability": "view",
            "type": "function"
        },
        {
            "constant": true,
            "inputs": [],
            "name": "owner",
            "outputs": [
                {
                    "name": "",
                    "type": "address"
                }
            ],
            "payable": false,
            "stateMutability": "view",
            "type": "function"
        },
        {
            "constant": true,
            "inputs": [],
            "name": "tokenRules",
            "outputs": [
                {
                    "name": "",
                    "type": "address"
                }
            ],
            "payable": false,
            "stateMutability": "view",
            "type": "function"
        },
        {
            "constant": true,
            "inputs": [],
            "name": "EXECUTE_REDEMPTION_CALLPREFIX",
            "outputs": [
                {
                    "name": "",
                    "type": "bytes4"
                }
            ],
            "payable": false,
            "stateMutability": "view",
            "type": "function"
        },
        {
            "constant": true,
            "inputs": [
                {
                    "name": "",
                    "type": "address"
                }
            ],
            "name": "sessionKeys",
            "outputs": [
                {
                    "name": "spendingLimit",
                    "type": "uint256"
                },
                {
                    "name": "expirationHeight",
                    "type": "uint256"
                },
                {
                    "name": "nonce",
                    "type": "uint256"
                },
                {
                    "name": "session",
                    "type": "uint256"
                }
            ],
            "payable": false,
            "stateMutability": "view",
            "type": "function"
        },
        {
            "constant": true,
            "inputs": [],
            "name": "token",
            "outputs": [
                {
                    "name": "",
                    "type": "address"
                }
            ],
            "payable": false,
            "stateMutability": "view",
            "type": "function"
        },
        {
            "anonymous": false,
            "inputs": [
                {
                    "indexed": false,
                    "name": "_sessionKey",
                    "type": "address"
                }
            ],
            "name": "SessionAuthorized",
            "type": "event"
        },
        {
            "anonymous": false,
            "inputs": [
                {
                    "indexed": false,
                    "name": "_sessionKey",
                    "type": "address"
                }
            ],
            "name": "SessionRevoked",
            "type": "event"
        },
        {
            "anonymous": false,
            "inputs": [
                {
                    "indexed": false,
                    "name": "_sessionWindow",
                    "type": "uint256"
                }
            ],
            "name": "SessionsLoggedOut",
            "type": "event"
        },
        {
            "anonymous": false,
            "inputs": [
                {
                    "indexed": false,
                    "name": "_messageHash",
                    "type": "bytes32"
                },
                {
                    "indexed": false,
                    "name": "_status",
                    "type": "bool"
                }
            ],
            "name": "RuleExecuted",
            "type": "event"
        },
        {
            "anonymous": false,
            "inputs": [
                {
                    "indexed": false,
                    "name": "_messageHash",
                    "type": "bytes32"
                },
                {
                    "indexed": false,
                    "name": "_status",
                    "type": "bool"
                }
            ],
            "name": "RedemptionExecuted",
            "type": "event"
        },
        {
            "constant": false,
            "inputs": [
                {
                    "name": "_token",
                    "type": "address"
                },
                {
                    "name": "_tokenRules",
                    "type": "address"
                },
                {
                    "name": "_owner",
                    "type": "address"
                },
                {
                    "name": "_sessionKeys",
                    "type": "address[]"
                },
                {
                    "name": "_sessionKeysSpendingLimits",
                    "type": "uint256[]"
                },
                {
                    "name": "_sessionKeysExpirationHeights",
                    "type": "uint256[]"
                }
            ],
            "name": "setup",
            "outputs": [],
            "payable": false,
            "stateMutability": "nonpayable",
            "type": "function"
        },
        {
            "constant": false,
            "inputs": [
                {
                    "name": "_sessionKey",
                    "type": "address"
                },
                {
                    "name": "_spendingLimit",
                    "type": "uint256"
                },
                {
                    "name": "_expirationHeight",
                    "type": "uint256"
                }
            ],
            "name": "authorizeSession",
            "outputs": [],
            "payable": false,
            "stateMutability": "nonpayable",
            "type": "function"
        },
        {
            "constant": false,
            "inputs": [
                {
                    "name": "_sessionKey",
                    "type": "address"
                }
            ],
            "name": "revokeSession",
            "outputs": [],
            "payable": false,
            "stateMutability": "nonpayable",
            "type": "function"
        },
        {
            "constant": false,
            "inputs": [],
            "name": "logout",
            "outputs": [],
            "payable": false,
            "stateMutability": "nonpayable",
            "type": "function"
        },
        {
            "constant": false,
            "inputs": [
                {
                    "name": "_to",
                    "type": "address"
                },
                {
                    "name": "_data",
                    "type": "bytes"
                },
                {
                    "name": "_nonce",
                    "type": "uint256"
                },
                {
                    "name": "_r",
                    "type": "bytes32"
                },
                {
                    "name": "_s",
                    "type": "bytes32"
                },
                {
                    "name": "_v",
                    "type": "uint8"
                }
            ],
            "name": "executeRule",
            "outputs": [
                {
                    "name": "executionStatus_",
                    "type": "bool"
                }
            ],
            "payable": true,
            "stateMutability": "payable",
            "type": "function"
        },
        {
            "constant": false,
            "inputs": [
                {
                    "name": "_to",
                    "type": "address"
                },
                {
                    "name": "_data",
                    "type": "bytes"
                },
                {
                    "name": "_nonce",
                    "type": "uint256"
                },
                {
                    "name": "_r",
                    "type": "bytes32"
                },
                {
                    "name": "_s",
                    "type": "bytes32"
                },
                {
                    "name": "_v",
                    "type": "uint8"
                }
            ],
            "name": "executeRedemption",
            "outputs": [
                {
                    "name": "executionStatus_",
                    "type": "bool"
                }
            ],
            "payable": true,
            "stateMutability": "payable",
            "type": "function"
        }
    ],
    "bytecode": "0x608060405234801561001057600080fd5b5061198a806100206000396000f3fe6080604052600436106100ab5763ffffffff60e060020a600035041663028c979d81146100b05780631f3c99c3146100f15780631fa5d6a41461010657806351491e0c146101395780635c0a60f91461018057806360c30e8f146102c257806389aa2af01461036b5780638da5cb5b1461039257806397ebe030146103c35780639c144d5e14610458578063a2d2ff681461046d578063b7b8d60414610482578063fc0c546a146104db575b600080fd5b3480156100bc57600080fd5b506100ef600480360360608110156100d357600080fd5b50600160a060020a0381351690602081013590604001356104f0565b005b3480156100fd57600080fd5b506100ef610562565b34801561011257600080fd5b506100ef6004803603602081101561012957600080fd5b5035600160a060020a0316610612565b34801561014557600080fd5b5061014e610742565b604080517bffffffffffffffffffffffffffffffffffffffffffffffffffffffff199092168252519081900360200190f35b34801561018c57600080fd5b506100ef600480360360c08110156101a357600080fd5b600160a060020a03823581169260208101358216926040820135909216918101906080810160608201356401000000008111156101df57600080fd5b8201836020820111156101f157600080fd5b8035906020019184602083028401116401000000008311171561021357600080fd5b91939092909160208101903564010000000081111561023157600080fd5b82018360208201111561024357600080fd5b8035906020019184602083028401116401000000008311171561026557600080fd5b91939092909160208101903564010000000081111561028357600080fd5b82018360208201111561029557600080fd5b803590602001918460208302840111640100000000831117156102b757600080fd5b50909250905061079d565b610357600480360360c08110156102d857600080fd5b600160a060020a03823516919081019060408101602082013564010000000081111561030357600080fd5b82018360208201111561031557600080fd5b8035906020019184600183028401116401000000008311171561033757600080fd5b91935091508035906020810135906040810135906060013560ff16610b4a565b604080519115158252519081900360200190f35b34801561037757600080fd5b50610380610f33565b60408051918252519081900360200190f35b34801561039e57600080fd5b506103a7610f39565b60408051600160a060020a039092168252519081900360200190f35b610357600480360360c08110156103d957600080fd5b600160a060020a03823516919081019060408101602082013564010000000081111561040457600080fd5b82018360208201111561041657600080fd5b8035906020019184600183028401116401000000008311171561043857600080fd5b91935091508035906020810135906040810135906060013560ff16610f48565b34801561046457600080fd5b506103a7611403565b34801561047957600080fd5b5061014e611412565b34801561048e57600080fd5b506104b5600480360360208110156104a557600080fd5b5035600160a060020a031661146d565b604080519485526020850193909352838301919091526060830152519081900360800190f35b3480156104e757600080fd5b506103a7611496565b600554600160a060020a03163314610552576040805160e560020a62461bcd02815260206004820152601e60248201527f4f6e6c79206f776e657220697320616c6c6f77656420746f2063616c6c2e0000604482015290519081900360640190fd5b61055d8383836114a5565b505050565b600554600160a060020a031633146105c4576040805160e560020a62461bcd02815260206004820152601e60248201527f4f6e6c79206f776e657220697320616c6c6f77656420746f2063616c6c2e0000604482015290519081900360640190fd5b60025460408051918252517f4fdc3ae5b88cfb88e6fd0018782bd67575d1f425d78385735194b2607f7eda739181900360200190a160025461060d90600163ffffffff61166b16565b600255565b600554600160a060020a03163314610674576040805160e560020a62461bcd02815260206004820152601e60248201527f4f6e6c79206f776e657220697320616c6c6f77656420746f2063616c6c2e0000604482015290519081900360640190fd5b806001600160a060020a03821660009081526003602081905260409091200154116106e9576040805160e560020a62461bcd02815260206004820152601660248201527f4b6579206973206e6f7420617574686f72697a65642e00000000000000000000604482015290519081900360640190fd5b600160a060020a0382166000818152600360208181526040928390206001920191909155815192835290517f2991ab7bfda4556c9e662762b3dfa89a1df391084c4278286d466c1c187e55239281900390910190a15050565b604080517f6578656375746552756c6528616464726573732c62797465732c75696e74323581527f362c627974657333322c627974657333322c75696e74382900000000000000006020820152905190819003603801902081565b600154600160a060020a03161580156107bf5750600554600160a060020a0316155b80156107d45750600454600160a060020a0316155b151561082a576040805160e560020a62461bcd02815260206004820181905260248201527f436f6e747261637420686173206265656e20616c72656164792073657475702e604482015290519081900360640190fd5b600160a060020a038916151561088a576040805160e560020a62461bcd02815260206004820152601f60248201527f546f6b656e20636f6e74726163742061646472657373206973206e756c6c2e00604482015290519081900360640190fd5b600160a060020a038816151561090f576040805160e560020a62461bcd028152602060048201526024808201527f546f6b656e52756c657320636f6e74726163742061646472657373206973206e60448201527f756c6c2e00000000000000000000000000000000000000000000000000000000606482015290519081900360840190fd5b600160a060020a038716151561096f576040805160e560020a62461bcd02815260206004820152601660248201527f4f776e65722061646472657373206973206e756c6c2e00000000000000000000604482015290519081900360640190fd5b8483146109ec576040805160e560020a62461bcd02815260206004820152603e60248201527f53657373696f6e206b65797320616e64207370656e64696e67206c696d69747360448201527f20617272617973206c656e677468732061726520646966666572656e742e0000606482015290519081900360840190fd5b848114610a8f576040805160e560020a62461bcd02815260206004820152604160248201527f53657373696f6e206b65797320616e642065787069726174696f6e206865696760448201527f68747320617272617973206c656e677468732061726520646966666572656e7460648201527f2e00000000000000000000000000000000000000000000000000000000000000608482015290519081900360a40190fd5b60018054600160a060020a03808c1673ffffffffffffffffffffffffffffffffffffffff1992831617909255600480548b841690831617905560058054928a16929091169190911790556002805560005b85811015610b3e57610b36878783818110610af757fe5b90506020020135600160a060020a03168686848181101515610b1557fe5b905060200201358585858181101515610b2a57fe5b905060200201356114a5565b600101610ae0565b50505050505050505050565b600080600160009054906101000a9004600160a060020a0316600160a060020a03166384f48d6a6040518163ffffffff1660e060020a02815260040160206040518083038186803b158015610b9e57600080fd5b505afa158015610bb2573d6000803e3d6000fd5b505050506040513d6020811015610bc857600080fd5b50519050600160a060020a0389811690821614610c55576040805160e560020a62461bcd02815260206004820152602660248201527f27746f272061646472657373206973206e6f7420636f4761746577617920616460448201527f64726573732e0000000000000000000000000000000000000000000000000000606482015290519081900360840190fd5b600080610cfa60405180807f65786563757465526564656d7074696f6e28616464726573732c62797465732c81526020017f75696e743235362c627974657333322c627974657333322c75696e7438290000815250603e01905060405180910390208c8c8c8080601f0160208091040260200160405190810160405280939291908181526020018383808284376000920191909152508e92508d91508c90508b611684565b9150915060006003600083600160a060020a0316600160a060020a031681526020019081526020016000209050600160009054906101000a9004600160a060020a0316600160a060020a031663095ea7b38d83600001546040518363ffffffff1660e060020a0281526004018083600160a060020a0316600160a060020a0316815260200182815260200192505050602060405180830381600087803b158015610da357600080fd5b505af1158015610db7573d6000803e3d6000fd5b505050506040513d6020811015610dcd57600080fd5b5050604051606090600160a060020a038e169034908e908e90808383808284376040519201945060009350909150508083038185875af1925050503d8060008114610e34576040519150601f19603f3d011682016040523d82523d6000602084013e610e39565b606091505b508092508197505050600160009054906101000a9004600160a060020a0316600160a060020a031663095ea7b38e60006040518363ffffffff1660e060020a0281526004018083600160a060020a0316600160a060020a0316815260200182815260200192505050602060405180830381600087803b158015610ebb57600080fd5b505af1158015610ecf573d6000803e3d6000fd5b505050506040513d6020811015610ee557600080fd5b505060408051858152871515602082015281517f23a87d3083eafe50e6f601373e38cd7afe8a0725d15d3f8b097a83f03acdb064929181900390910190a15050505050979650505050505050565b60025481565b600554600160a060020a031681565b600154600090600160a060020a0389811691161415610fd7576040805160e560020a62461bcd02815260206004820152602660248201527f27746f272061646472657373206973207574696c69747920746f6b656e20616460448201527f64726573732e0000000000000000000000000000000000000000000000000000606482015290519081900360840190fd5b600160a060020a03881630141561105e576040805160e560020a62461bcd02815260206004820152602b60248201527f27746f27206164647265737320697320546f6b656e486f6c646572206164647260448201527f65737320697473656c662e000000000000000000000000000000000000000000606482015290519081900360840190fd5b60008061110360405180807f6578656375746552756c6528616464726573732c62797465732c75696e74323581526020017f362c627974657333322c627974657333322c75696e7438290000000000000000815250603801905060405180910390208b8b8b8080601f0160208091040260200160405190810160405280939291908181526020018383808284376000920191909152508d92508c91508b90508a611684565b600160a060020a038082166000908152600360205260408082206004805483517f2185810b000000000000000000000000000000000000000000000000000000008152935197995095975090959490931693632185810b93828101939282900301818387803b15801561117557600080fd5b505af1158015611189573d6000803e3d6000fd5b5050600154600480548554604080517f095ea7b3000000000000000000000000000000000000000000000000000000008152600160a060020a03938416948101949094526024840191909152519216935063095ea7b392506044808201926020929091908290030181600087803b15801561120357600080fd5b505af1158015611217573d6000803e3d6000fd5b505050506040513d602081101561122d57600080fd5b5050604051606090600160a060020a038d169034908d908d90808383808284376040519201945060009350909150508083038185875af1925050503d8060008114611294576040519150601f19603f3d011682016040523d82523d6000602084013e611299565b606091505b5060015460048054604080517f095ea7b3000000000000000000000000000000000000000000000000000000008152600160a060020a03928316938101939093526000602484018190529051959a509395509091169263095ea7b392604480840193602093929083900390910190829087803b15801561131857600080fd5b505af115801561132c573d6000803e3d6000fd5b505050506040513d602081101561134257600080fd5b505060048054604080517f212c81570000000000000000000000000000000000000000000000000000000081529051600160a060020a039092169263212c815792828201926000929082900301818387803b1580156113a057600080fd5b505af11580156113b4573d6000803e3d6000fd5b505060408051878152881515602082015281517f36cd2662860eb4ad66890c2d0ac0af9dde2f8927a7190e1eaed43ce9d43682b19450908190039091019150a150505050979650505050505050565b600454600160a060020a031681565b604080517f65786563757465526564656d7074696f6e28616464726573732c62797465732c81527f75696e743235362c627974657333322c627974657333322c75696e74382900006020820152905190819003603e01902081565b600360208190526000918252604090912080546001820154600283015492909301549092919084565b600154600160a060020a031681565b82600160a060020a0381161515611506576040805160e560020a62461bcd02815260206004820152601460248201527f4b65792061646472657373206973206e756c6c2e000000000000000000000000604482015290519081900360640190fd5b836000600160a060020a038216600090815260036020819052604090912001541461157b576040805160e560020a62461bcd02815260206004820152600b60248201527f4b6579206578697374732e000000000000000000000000000000000000000000604482015290519081900360640190fd5b4383116115f8576040805160e560020a62461bcd02815260206004820152603560248201527f45787069726174696f6e20686569676874206973206c746520746f207468652060448201527f63757272656e7420626c6f636b206865696768742e0000000000000000000000606482015290519081900360840190fd5b600160a060020a0385166000818152600360208181526040808420898155600181018990556002808201959095559354928401929092558151938452905191927faaf20b4ab9461ac8240a308f4bae35956040be348d648df2aa88137418189887929081900390910190a1505050505050565b60008282018381101561167d57600080fd5b9392505050565b60008061169a8989898051906020012089611884565b915060018284878760405160008152602001604052604051808581526020018460ff1660ff1681526020018381526020018281526020019450505050506020604051602081039080840390855afa1580156116f9573d6000803e3d6000fd5b505060408051601f190151600160a060020a038116600090815260036020819052929020600254928101549194509250146117a4576040805160e560020a62461bcd02815260206004820152603860248201527f4b657927732073657373696f6e206973206e6f7420657175616c20746f20636f60448201527f6e747261637427732073657373696f6e2077696e646f772e0000000000000000606482015290519081900360840190fd5b600181015443106117ff576040805160e560020a62461bcd02815260206004820152601860248201527f53657373696f6e206b65792077617320657870697265642e0000000000000000604482015290519081900360640190fd5b6002810154871461185a576040805160e560020a62461bcd02815260206004820152601d60248201527f496e636f7272656374206e6f6e6365206973207370656369666965642e000000604482015290519081900360640190fd5b600281015461187090600163ffffffff61166b16565b600290910155909890975095505050505050565b604080517f19000000000000000000000000000000000000000000000000000000000000006020808301919091526000602183018190526c010000000000000000000000003081026022850152600160a060020a039097169096026036830152604a8201869052604b820194909452606b810192909252608b8201849052608c8201849052608d82018490527bffffffffffffffffffffffffffffffffffffffffffffffffffffffff19909416608e820152609281018390526093808201939093528351808203909301835260b30190925280519101209056fea165627a7a723058203a42079b4fb4438d8a0fd14d83f8a2fd03dba4b91036079aab535fbf51538c5e0029",
    "source": "pragma solidity ^0.5.0;\n\n// Copyright 2019 OpenST Ltd.\n//\n// Licensed under the Apache License, Version 2.0 (the \"License\");\n// you may not use this file except in compliance with the License.\n// You may obtain a copy of the License at\n//\n//    http://www.apache.org/licenses/LICENSE-2.0\n//\n// Unless required by applicable law or agreed to in writing, software\n// distributed under the License is distributed on an \"AS IS\" BASIS,\n// WITHOUT WARRANTIES OR CONDITIONS OF ANY KIND, either express or implied.\n// See the License for the specific language governing permissions and\n// limitations under the License.\n\nimport \"./EIP20TokenInterface.sol\";\nimport \"../proxies/MasterCopyNonUpgradable.sol\";\nimport \"../external/SafeMath.sol\";\nimport \"./TokenRules.sol\";\nimport \"./UtilityTokenRequiredInterface.sol\";\n\n/**\n * @title TokenHolder contract.\n *\n * @notice Implements executable transactions (EIP-1077) for users to interact\n *         with token rules. It enables users to authorise sessions for\n *         session keys that dapps and mainstream applications can use to\n *         generate token events on-chain.\n */\ncontract TokenHolder is MasterCopyNonUpgradable\n{\n\n    /* Usings */\n\n    using SafeMath for uint256;\n\n\n    /* Events */\n\n    event SessionAuthorized(\n        address _sessionKey\n    );\n\n    event SessionRevoked(\n        address _sessionKey\n    );\n\n    event SessionsLoggedOut(\n        uint256 _sessionWindow\n    );\n\n    /**\n     * @param _messageHash Executed rule message hash according to EIP-1077.\n     * @param _status Rule execution's status.\n     */\n    event RuleExecuted(\n        bytes32 _messageHash,\n        bool _status\n    );\n\n    /**\n     * @param _messageHash Executed redemption request message hash according\n     *                 to EIP-1077.\n     * @param _status Redemption execution's status.\n     */\n    event RedemptionExecuted(\n        bytes32 _messageHash,\n        bool _status\n    );\n\n\n    /* Enums */\n\n    enum AuthorizationStatus {\n        NOT_AUTHORIZED,\n        REVOKED\n    }\n\n\n    /* Structs */\n\n    /** expirationHeight is the block number at which sessionKey expires. */\n    struct SessionKeyData {\n        uint256 spendingLimit;\n        uint256 expirationHeight;\n        uint256 nonce;\n        uint256 session;\n    }\n\n\n    /* Constants */\n\n    bytes4 public constant EXECUTE_RULE_CALLPREFIX = bytes4(\n        keccak256(\n            \"executeRule(address,bytes,uint256,bytes32,bytes32,uint8)\"\n        )\n    );\n\n    bytes4 public constant EXECUTE_REDEMPTION_CALLPREFIX = bytes4(\n        keccak256(\n            \"executeRedemption(address,bytes,uint256,bytes32,bytes32,uint8)\"\n        )\n    );\n\n\n    /* Storage */\n\n    EIP20TokenInterface public token;\n\n    uint256 public sessionWindow;\n\n    mapping(address /* key */ => SessionKeyData) public sessionKeys;\n\n    address public tokenRules;\n\n    address public owner;\n\n\n    /* Modifiers */\n\n    modifier onlyOwner()\n    {\n        require(msg.sender == owner, \"Only owner is allowed to call.\");\n\n        _;\n    }\n\n    modifier keyIsNotNull(address _key)\n    {\n        require(_key != address(0), \"Key address is null.\");\n        _;\n    }\n\n    /** Requires that key is in authorized state. */\n    modifier keyIsAuthorized(address _key)\n    {\n        require(\n            sessionKeys[_key].session > uint256(AuthorizationStatus.REVOKED),\n            \"Key is not authorized.\"\n        );\n        _;\n    }\n\n    /** Requires that key was not authorized. */\n    modifier keyDoesNotExist(address _key)\n    {\n        require(\n            sessionKeys[_key].session == uint256(\n                AuthorizationStatus.NOT_AUTHORIZED\n            ),\n            \"Key exists.\"\n        );\n        _;\n    }\n\n\n    /* External Functions */\n\n    /**\n     * @notice Setups an already deployed contract.\n     *\n     * @dev The function acts as a \"constructor\" to the contract and initializes\n     *      the proxy's storage layout.\n     *\n     *      Function requires:\n     *          - It can be called only once for this contract.\n     *          - Token address is not null.\n     *          - Token rules address is not null.\n     *          - Owner address is not null.\n     *          - Session key addresses, spending limits and expiration height\n     *            arrays lengths are equal.\n     *\n     * @param _token EIP20 token contract address deployed for an economy.\n     * @param _tokenRules Token rules contract address.\n     * @param _owner The contract's owner address.\n     * @param _sessionKeys Session key addresses to authorize.\n     * @param _sessionKeysSpendingLimits Session keys' spending limits.\n     * @param _sessionKeysExpirationHeights Session keys' expiration heights.\n     */\n    function setup(\n        EIP20TokenInterface _token,\n        address _tokenRules,\n        address _owner,\n        address[] calldata _sessionKeys,\n        uint256[] calldata _sessionKeysSpendingLimits,\n        uint256[] calldata _sessionKeysExpirationHeights\n    )\n        external\n    {\n        // Assures that function can be called only once.\n        require(\n            address(token) == address(0) &&\n            address(owner) == address(0) &&\n            address(tokenRules) == address(0),\n            \"Contract has been already setup.\"\n        );\n\n        require(\n            address(_token) != address(0),\n            \"Token contract address is null.\"\n        );\n        require(\n            _tokenRules != address(0),\n            \"TokenRules contract address is null.\"\n        );\n        require(\n            _owner != address(0),\n            \"Owner address is null.\"\n        );\n\n        require(\n            _sessionKeys.length == _sessionKeysSpendingLimits.length,\n            \"Session keys and spending limits arrays lengths are different.\"\n        );\n\n        require(\n            _sessionKeys.length == _sessionKeysExpirationHeights.length,\n            \"Session keys and expiration heights arrays lengths are different.\"\n        );\n\n        token = _token;\n        tokenRules = _tokenRules;\n        owner = _owner;\n\n        sessionWindow = 2;\n\n        for (uint256 i = 0; i < _sessionKeys.length; ++i) {\n            _authorizeSession(\n                _sessionKeys[i],\n                _sessionKeysSpendingLimits[i],\n                _sessionKeysExpirationHeights[i]\n            );\n        }\n    }\n\n    /**\n     * @notice Authorizes a session.\n     *\n     * @dev Function requires:\n     *          - Only owner address can call.\n     *          - The key is not null.\n     *          - The key does not exist.\n     *          - Expiration height is bigger than the current block height.\n     *\n     * @param _sessionKey Session key address to authorize.\n     * @param _spendingLimit Spending limit of the session key.\n     * @param _expirationHeight Expiration height of the session key.\n     */\n    function authorizeSession(\n        address _sessionKey,\n        uint256 _spendingLimit,\n        uint256 _expirationHeight\n    )\n        external\n        onlyOwner\n    {\n        _authorizeSession(_sessionKey, _spendingLimit, _expirationHeight);\n    }\n\n    /**\n     * @notice Revokes session for the specified session key.\n     *\n     * @dev Function revokes the key even if it has expired.\n     *      Function requires:\n     *          - Only owner can call.\n     *          - The key is authorized.\n     *\n     * @param _sessionKey Session key to revoke.\n     */\n    function revokeSession(address _sessionKey)\n        external\n        onlyOwner\n        keyIsAuthorized(_sessionKey)\n    {\n        sessionKeys[_sessionKey].session = uint256(AuthorizationStatus.REVOKED);\n\n        emit SessionRevoked(_sessionKey);\n    }\n\n    /**\n     * @notice Logout all authorized sessions.\n     *\n     * @dev Function requires:\n     *          - Only owner is allowed to call.\n     */\n    function logout()\n        external\n        onlyOwner\n    {\n        emit SessionsLoggedOut(sessionWindow);\n\n        sessionWindow = sessionWindow.add(1);\n    }\n\n    /**\n     * @notice Evaluates executable transaction signed by a session key.\n     *\n     * @dev As a first step, function validates executable transaction by\n     *      checking that the specified signature matches one of the\n     *      authorized (non-expired) session keys.\n     *\n     *      On success, function executes transaction by calling:\n     *          _to.call(_data);\n     *\n     *      Before execution, it approves the tokenRules as a spender\n     *      for sessionKey.spendingLimit amount. This allowance is cleared\n     *      after execution.\n     *\n     *      Function requires:\n     *          - _to address cannot be EIP20 Token.\n     *          - key used to sign data is authorized and have not expired.\n     *          - nonce is equal to the stored nonce value.\n     *\n     * @param _to The target contract address the transaction will be executed\n     *            upon.\n     * @param _data The payload of a function to be executed in the target\n     *              contract.\n     * @param _nonce The nonce of an session key that was used to sign\n     *               the transaction.\n     *\n     * @return executeStatus_ True in case of successfull execution of the\n     *                        executable transaction, otherwise, false.\n     */\n    function executeRule(\n        address _to,\n        bytes calldata _data,\n        uint256 _nonce,\n        bytes32 _r,\n        bytes32 _s,\n        uint8 _v\n    )\n        external\n        payable\n        returns (bool executionStatus_)\n    {\n        require(\n            _to != address(token),\n            \"'to' address is utility token address.\"\n        );\n\n        require(\n            _to != address(this),\n            \"'to' address is TokenHolder address itself.\"\n        );\n\n        (bytes32 messageHash, address sessionKey) = verifyExecutableTransaction(\n            EXECUTE_RULE_CALLPREFIX,\n            _to,\n            _data,\n            _nonce,\n            _r,\n            _s,\n            _v\n        );\n\n        SessionKeyData storage sessionKeyData = sessionKeys[sessionKey];\n\n        TokenRules(tokenRules).allowTransfers();\n\n        token.approve(\n            tokenRules,\n            sessionKeyData.spendingLimit\n        );\n\n        bytes memory returnData;\n        // solium-disable-next-line security/no-call-value\n        (executionStatus_, returnData) = _to.call.value(msg.value)(_data);\n\n        token.approve(tokenRules, 0);\n\n        TokenRules(tokenRules).disallowTransfers();\n\n        emit RuleExecuted(\n            messageHash,\n            executionStatus_\n        );\n    }\n\n    function executeRedemption(\n        address _to,\n        bytes calldata _data,\n        uint256 _nonce,\n        bytes32 _r,\n        bytes32 _s,\n        uint8 _v\n    )\n        external\n        payable\n        returns (bool executionStatus_)\n    {\n        address coGateway = UtilityTokenRequiredInterface(\n            address(token)\n        ).coGateway();\n\n        require(_to == coGateway,\"'to' address is not coGateway address.\");\n\n        (bytes32 messageHash, address sessionKey) = verifyExecutableTransaction(\n            EXECUTE_REDEMPTION_CALLPREFIX,\n            _to,\n            _data,\n            _nonce,\n            _r,\n            _s,\n            _v\n        );\n\n        SessionKeyData storage sessionKeyData = sessionKeys[sessionKey];\n\n        token.approve(_to, sessionKeyData.spendingLimit);\n\n        bytes memory returnData;\n        // solium-disable-next-line security/no-call-value\n        (executionStatus_, returnData) = _to.call.value(msg.value)(_data);\n\n        token.approve(_to, 0);\n\n        emit RedemptionExecuted(\n            messageHash,\n            executionStatus_\n        );\n    }\n\n\n    /* Private Functions */\n\n    function _authorizeSession(\n        address _sessionKey,\n        uint256 _spendingLimit,\n        uint256 _expirationHeight\n    )\n        private\n        keyIsNotNull(_sessionKey)\n        keyDoesNotExist(_sessionKey)\n    {\n        require(\n            _expirationHeight > block.number,\n            \"Expiration height is lte to the current block height.\"\n        );\n\n        SessionKeyData storage keyData = sessionKeys[_sessionKey];\n\n        keyData.spendingLimit = _spendingLimit;\n        keyData.expirationHeight = _expirationHeight;\n        keyData.nonce = 0;\n        keyData.session = sessionWindow;\n\n        emit SessionAuthorized(_sessionKey);\n    }\n\n    function verifyExecutableTransaction(\n        bytes4 _callPrefix,\n        address _to,\n        bytes memory _data,\n        uint256 _nonce,\n        bytes32 _r,\n        bytes32 _s,\n        uint8 _v\n    )\n        private\n        returns (bytes32 messageHash_, address key_)\n    {\n        messageHash_ = getMessageHash(\n            _callPrefix,\n            _to,\n            keccak256(_data),\n            _nonce\n        );\n\n        key_ = ecrecover(messageHash_, _v, _r, _s);\n\n        SessionKeyData storage keyData = sessionKeys[key_];\n\n        // The following checks appears here and not higher in the stack,\n        // as session key is only retrieved here, after calculation\n        // of message hash according EIP-1077 and retriving the key\n        // from the signature (_r, _s, _v).\n        require(\n            keyData.session == sessionWindow,\n            \"Key's session is not equal to contract's session window.\"\n        );\n\n        require(\n            keyData.expirationHeight > block.number,\n            \"Session key was expired.\"\n        );\n\n        require(\n            _nonce == keyData.nonce,\n            \"Incorrect nonce is specified.\"\n        );\n\n        keyData.nonce = keyData.nonce.add(1);\n    }\n\n    /**\n     * @notice The hashed message format is compliant with EIP-1077.\n     *\n     * @dev EIP-1077 enables user to sign messages to show intent of execution,\n     *      but allows a third party relayer to execute them.\n     *      https://github.com/ethereum/EIPs/blob/master/EIPS/eip-1077.md\n     */\n    function getMessageHash(\n        bytes4 _callPrefix,\n        address _to,\n        bytes32 _dataHash,\n        uint256 _nonce\n    )\n        private\n        view\n        returns (bytes32 messageHash_)\n    {\n        messageHash_ = keccak256(\n            abi.encodePacked(\n                byte(0x19), // Starting a transaction with byte(0x19) ensure\n                            // the signed data from being a valid ethereum\n                            // transaction.\n                byte(0), // The version control byte.\n                address(this), // The from field will always be the contract\n                               // executing the code.\n                _to,\n                uint8(0), // The amount in ether to be sent.\n                _dataHash,\n                _nonce,\n                uint8(0), // gasPrice\n                uint8(0), // gasLimit\n                uint8(0), // gasToken\n                _callPrefix, // 4 byte standard call prefix of the\n                             // function to be called in the 'from' contract.\n                             // This guarantees that signed message can\n                             // be only executed in a single instance.\n                uint8(0), // 0 for a standard call, 1 for a DelegateCall and 2\n                          // for a create opcode\n                bytes32(0) // extraHash is always hashed at the end. This is\n                           // done to increase future compatibility of the\n                           // standard.\n            )\n        );\n    }\n}\n",
    "sourcePath": "/Users/spuchbauer/dev/ethdenver/openst-contracts/contracts/token/TokenHolder.sol",
    "compiler": {
        "name": "solc",
        "version": "0.5.0+commit.1d4f565a.Emscripten.clang"
    },
    "schemaVersion": "3.0.9",
    "updatedAt": "2020-02-15T21:03:36.451Z",
    "devdoc": {
        "methods": {
            "authorizeSession(address,uint256,uint256)": {
                "details": "Function requires:         - Only owner address can call.         - The key is not null.         - The key does not exist.         - Expiration height is bigger than the current block height.",
                "params": {
                    "_expirationHeight": "Expiration height of the session key.",
                    "_sessionKey": "Session key address to authorize.",
                    "_spendingLimit": "Spending limit of the session key."
                }
            },
            "executeRule(address,bytes,uint256,bytes32,bytes32,uint8)": {
                "details": "As a first step, function validates executable transaction by     checking that the specified signature matches one of the     authorized (non-expired) session keys.     *      On success, function executes transaction by calling:         _to.call(_data);     *      Before execution, it approves the tokenRules as a spender     for sessionKey.spendingLimit amount. This allowance is cleared     after execution.     *      Function requires:         - _to address cannot be EIP20 Token.         - key used to sign data is authorized and have not expired.         - nonce is equal to the stored nonce value.",
                "params": {
                    "_data": "The payload of a function to be executed in the target             contract.",
                    "_nonce": "The nonce of an session key that was used to sign              the transaction.",
                    "_to": "The target contract address the transaction will be executed           upon."
                },
                "return": "executeStatus_ True in case of successfull execution of the                       executable transaction, otherwise, false."
            },
            "logout()": {
                "details": "Function requires:         - Only owner is allowed to call."
            },
            "revokeSession(address)": {
                "details": "Function revokes the key even if it has expired.     Function requires:         - Only owner can call.         - The key is authorized.",
                "params": {
                    "_sessionKey": "Session key to revoke."
                }
            },
            "setup(address,address,address,address[],uint256[],uint256[])": {
                "details": "The function acts as a \"constructor\" to the contract and initializes     the proxy's storage layout.     *      Function requires:         - It can be called only once for this contract.         - Token address is not null.         - Token rules address is not null.         - Owner address is not null.         - Session key addresses, spending limits and expiration height           arrays lengths are equal.",
                "params": {
                    "_owner": "The contract's owner address.",
                    "_sessionKeys": "Session key addresses to authorize.",
                    "_sessionKeysExpirationHeights": "Session keys' expiration heights.",
                    "_sessionKeysSpendingLimits": "Session keys' spending limits.",
                    "_token": "EIP20 token contract address deployed for an economy.",
                    "_tokenRules": "Token rules contract address."
                }
            }
        },
        "title": "TokenHolder contract."
    },
    "userdoc": {
        "methods": {
            "authorizeSession(address,uint256,uint256)": {
                "notice": "Authorizes a session."
            },
            "executeRule(address,bytes,uint256,bytes32,bytes32,uint8)": {
                "notice": "Evaluates executable transaction signed by a session key."
            },
            "logout()": {
                "notice": "Logout all authorized sessions."
            },
            "revokeSession(address)": {
                "notice": "Revokes session for the specified session key."
            },
            "setup(address,address,address,address[],uint256[],uint256[])": {
                "notice": "Setups an already deployed contract."
            }
        },
        "notice": "Implements executable transactions (EIP-1077) for users to interact        with token rules. It enables users to authorise sessions for        session keys that dapps and mainstream applications can use to        generate token events on-chain."
    }
}