{
    "contractName": "UserWalletFactory",
    "abi": [
        {
            "constant": true,
            "inputs": [],
            "name": "TOKENHOLDER_SETUP_CALLPREFIX",
            "outputs": [
                {
                    "name": "",
                    "type": "bytes4"
                }
            ],
            "payable": false,
            "stateMutability": "view",
            "type": "function"
        },
        {
            "anonymous": false,
            "inputs": [
                {
                    "indexed": false,
                    "name": "_gnosisSafeProxy",
                    "type": "address"
                },
                {
                    "indexed": false,
                    "name": "_tokenHolderProxy",
                    "type": "address"
                }
            ],
            "name": "UserWalletCreated",
            "type": "event"
        },
        {
            "constant": false,
            "inputs": [
                {
                    "name": "_gnosisSafeMasterCopy",
                    "type": "address"
                },
                {
                    "name": "_gnosisSafeData",
                    "type": "bytes"
                },
                {
                    "name": "_tokenHolderMasterCopy",
                    "type": "address"
                },
                {
                    "name": "_token",
                    "type": "address"
                },
                {
                    "name": "_tokenRules",
                    "type": "address"
                },
                {
                    "name": "_sessionKeys",
                    "type": "address[]"
                },
                {
                    "name": "_sessionKeysSpendingLimits",
                    "type": "uint256[]"
                },
                {
                    "name": "_sessionKeysExpirationHeights",
                    "type": "uint256[]"
                }
            ],
            "name": "createUserWallet",
            "outputs": [
                {
                    "name": "gnosisSafeProxy_",
                    "type": "address"
                },
                {
                    "name": "tokenHolderProxy_",
                    "type": "address"
                }
            ],
            "payable": false,
            "stateMutability": "nonpayable",
            "type": "function"
        }
    ],
    "bytecode": "0x608060405234801561001057600080fd5b506107ba806100206000396000f3fe60806040526004361061004b5763ffffffff7c0100000000000000000000000000000000000000000000000000000000600035041663d94c25298114610050578063f6b48b131461021a575b600080fd5b34801561005c57600080fd5b506101f4600480360361010081101561007457600080fd5b600160a060020a03823516919081019060408101602082013564010000000081111561009f57600080fd5b8201836020820111156100b157600080fd5b803590602001918460018302840111640100000000831117156100d357600080fd5b91939092600160a060020a03833581169360208101358216936040820135909216929060808101906060013564010000000081111561011157600080fd5b82018360208201111561012357600080fd5b8035906020019184602083028401116401000000008311171561014557600080fd5b91939092909160208101903564010000000081111561016357600080fd5b82018360208201111561017557600080fd5b8035906020019184602083028401116401000000008311171561019757600080fd5b9193909290916020810190356401000000008111156101b557600080fd5b8201836020820111156101c757600080fd5b803590602001918460208302840111640100000000831117156101e957600080fd5b509092509050610264565b60408051600160a060020a03938416815291909216602082015281519081900390910190f35b34801561022657600080fd5b5061022f610525565b604080517fffffffff000000000000000000000000000000000000000000000000000000009092168252519081900360200190f35b6000808d6102706105a9565b600160a060020a03909116815260405190819003602001906000f08015801561029d573d6000803e3d6000fd5b5091506102e0828e8e8080601f01602080910402602001604051908101604052809392919081815260200183838082843760009201919091525061058092505050565b8a6102e96105a9565b600160a060020a03909116815260405190819003602001906000f080158015610316573d6000803e3d6000fd5b509050606060405180807f736574757028616464726573732c616464726573732c616464726573732c616481526020017f64726573735b5d2c75696e743235365b5d2c75696e743235365b5d2900000000815250603c01905060405180910390208b8b858c8c8c8c8c8c604051602401808a600160a060020a0316600160a060020a0316815260200189600160a060020a0316600160a060020a0316815260200188600160a060020a0316600160a060020a0316815260200180602001806020018060200184810384528a8a82818152602001925060200280828437600083820152601f01601f19169091018581038452888152602090810191508990890280828437600083820152601f01601f19169091018581038352868152602090810191508790870280828437600081840152601f19601f8201169050808301925050509c50505050505050505050505050604051602081830303815290604052907bffffffffffffffffffffffffffffffffffffffffffffffffffffffff19166020820180517bffffffffffffffffffffffffffffffffffffffffffffffffffffffff838183161783525050505090506104ce8282610580565b60408051600160a060020a0380861682528416602082015281517f3760dde36ca0d14503ddc7d9cf7b88cc01aa497561b9a3c2bc94bb77812c8cf7929181900390910190a1509c509c9a5050505050505050505050565b604080517f736574757028616464726573732c616464726573732c616464726573732c616481527f64726573735b5d2c75696e743235365b5d2c75696e743235365b5d29000000006020820152905190819003603c01902081565b6000815111156105a55760008060008351602085016000875af114156105a557600080fd5b5050565b6040516101d5806105ba8339019056fe608060405234801561001057600080fd5b506040516020806101d58339810180604052602081101561003057600080fd5b5051600160a060020a03811615156100a957604080517f08c379a000000000000000000000000000000000000000000000000000000000815260206004820152601c60248201527f4d617374657220636f70792061646472657373206973206e756c6c2e00000000604482015290519081900360640190fd5b60008054600160a060020a03909216600160a060020a031990921691909117905560fd806100d86000396000f3fe608060405260043610603e5763ffffffff7c0100000000000000000000000000000000000000000000000000000000600035041663a619486e8114607a575b73ffffffffffffffffffffffffffffffffffffffff600054163660008037600080366000845af43d6000803e8015156075573d6000fd5b3d6000f35b348015608557600080fd5b50608c60b5565b6040805173ffffffffffffffffffffffffffffffffffffffff9092168252519081900360200190f35b60005473ffffffffffffffffffffffffffffffffffffffff168156fea165627a7a72305820cf9e2c7681f8e7f12b9a478ce37d7e69e4eed76cc645504441372ba8b01a92230029a165627a7a72305820f41030587dc82830191ca68fa2633455912f03644dcbcf77acf5fb500927edb90029",
    "source": "pragma solidity ^0.5.0;\n\n// Copyright 2019 OpenST Ltd.\n//\n// Licensed under the Apache License, Version 2.0 (the \"License\");\n// you may not use this file except in compliance with the License.\n// You may obtain a copy of the License at\n//\n//    http://www.apache.org/licenses/LICENSE-2.0\n//\n// Unless required by applicable law or agreed to in writing, software\n// distributed under the License is distributed on an \"AS IS\" BASIS,\n// WITHOUT WARRANTIES OR CONDITIONS OF ANY KIND, either express or implied.\n// See the License for the specific language governing permissions and\n// limitations under the License.\n\nimport \"./Proxy.sol\";\n\n\n/**\n * @title Allows to create a new gnosis safe proxy and executes a\n *        message call to the newly created proxy. Afterwards, in the same\n *        transaction, creates a new token holder proxy by specifying\n *        as an owner the newly created gnosis safe proxy contract.\n */\ncontract UserWalletFactory {\n\n    /* Events */\n\n    /**\n     * @notice The event is emitted the from UserWalletFactory::createUserWallet\n     *         function on success.\n     *\n     * @param _gnosisSafeProxy A newly created gnosis safe's proxy.\n     * @param _tokenHolderProxy A newly created token holder's proxy.\n     */\n    event UserWalletCreated(\n        Proxy _gnosisSafeProxy,\n        Proxy _tokenHolderProxy\n    );\n\n\n    /* Constants */\n\n    /** The callprefix of the TokenHolder::setup function. */\n    bytes4 public constant TOKENHOLDER_SETUP_CALLPREFIX = bytes4(\n        keccak256(\n            \"setup(address,address,address,address[],uint256[],uint256[])\"\n        )\n    );\n\n\n    /* External Functions  */\n\n    /**\n    * @notice Create a new gnosis safe proxy and executes a\n    *         message call to the newly created proxy. Afterwards, in the same\n    *         transaction, creates a new token holder proxy by specifying\n    *         as an owner the newly created gnosis safe proxy contract.\n    *\n    * @param _gnosisSafeMasterCopy The address of a master copy of gnosis safe.\n    * @param _gnosisSafeData The message data to be called on a newly created\n    *                        gnosis safe proxy.\n    * @param _tokenHolderMasterCopy The address of a master copy of token\n    *                               holder.\n    * @param _token The address of the economy token.\n    * @param _tokenRules The address of the token rules.\n    * @param _sessionKeys Session key addresses to authorize.\n    * @param _sessionKeysSpendingLimits Session keys' spending limits.\n    * @param _sessionKeysExpirationHeights Session keys' expiration heights.\n    *\n    * @return gnosisSafeProxy_ A newly created gnosis safe's proxy address.\n    * @return tokenHolderProxy_ A newly created token holder's proxy address.\n    */\n    function createUserWallet(\n        address _gnosisSafeMasterCopy,\n        bytes calldata _gnosisSafeData,\n        address _tokenHolderMasterCopy,\n        address _token,\n        address _tokenRules,\n        address[] calldata _sessionKeys,\n        uint256[] calldata _sessionKeysSpendingLimits,\n        uint256[] calldata _sessionKeysExpirationHeights\n    )\n        external\n        returns (Proxy gnosisSafeProxy_, Proxy tokenHolderProxy_)\n    {\n        gnosisSafeProxy_ = new Proxy(_gnosisSafeMasterCopy);\n        callProxyData(gnosisSafeProxy_, _gnosisSafeData);\n\n        tokenHolderProxy_ = new Proxy(_tokenHolderMasterCopy);\n\n        bytes memory tokenHolderData = abi.encodeWithSelector(\n            TOKENHOLDER_SETUP_CALLPREFIX,\n            _token,\n            _tokenRules,\n            gnosisSafeProxy_,\n            _sessionKeys,\n            _sessionKeysSpendingLimits,\n            _sessionKeysExpirationHeights\n        );\n        callProxyData(tokenHolderProxy_, tokenHolderData);\n\n        emit UserWalletCreated(gnosisSafeProxy_, tokenHolderProxy_);\n    }\n\n\n    /* Private Functions */\n\n    function callProxyData(\n        Proxy _proxy,\n        bytes memory _data\n    )\n        private\n    {\n        if (_data.length > 0) {\n            // solium-disable-next-line security/no-inline-assembly\n            assembly {\n                if eq(call(gas, _proxy, 0, add(_data, 0x20), mload(_data), 0, 0), 0) {\n                    revert(0, 0)\n                }\n            }\n        }\n    }\n}\n",
    "sourcePath": "/Users/spuchbauer/dev/ethdenver/openst-contracts/contracts/proxies/UserWalletFactory.sol",
    "compiler": {
        "name": "solc",
        "version": "0.5.0+commit.1d4f565a.Emscripten.clang"
    },
    "schemaVersion": "3.0.9",
    "updatedAt": "2020-02-15T21:03:36.436Z",
    "devdoc": {
        "methods": {
            "createUserWallet(address,bytes,address,address,address,address[],uint256[],uint256[])": {
                "params": {
                    "_gnosisSafeData": "The message data to be called on a newly created                       gnosis safe proxy.",
                    "_gnosisSafeMasterCopy": "The address of a master copy of gnosis safe.",
                    "_sessionKeys": "Session key addresses to authorize.",
                    "_sessionKeysExpirationHeights": "Session keys' expiration heights.",
                    "_sessionKeysSpendingLimits": "Session keys' spending limits.",
                    "_token": "The address of the economy token.",
                    "_tokenHolderMasterCopy": "The address of a master copy of token                              holder.",
                    "_tokenRules": "The address of the token rules."
                },
                "return": "gnosisSafeProxy_ A newly created gnosis safe's proxy address.tokenHolderProxy_ A newly created token holder's proxy address."
            }
        },
        "title": "Allows to create a new gnosis safe proxy and executes a       message call to the newly created proxy. Afterwards, in the same       transaction, creates a new token holder proxy by specifying       as an owner the newly created gnosis safe proxy contract."
    },
    "userdoc": {
        "methods": {
            "createUserWallet(address,bytes,address,address,address,address[],uint256[],uint256[])": {
                "notice": "Create a new gnosis safe proxy and executes a        message call to the newly created proxy. Afterwards, in the same        transaction, creates a new token holder proxy by specifying        as an owner the newly created gnosis safe proxy contract."
            }
        }
    }
}