{
    "contractName": "UtilityTokenFake",
    "abi": [
        {
            "constant": true,
            "inputs": [],
            "name": "name",
            "outputs": [
                {
                    "name": "",
                    "type": "string"
                }
            ],
            "payable": false,
            "stateMutability": "view",
            "type": "function"
        },
        {
            "constant": false,
            "inputs": [
                {
                    "name": "_spender",
                    "type": "address"
                },
                {
                    "name": "_value",
                    "type": "uint256"
                }
            ],
            "name": "approve",
            "outputs": [
                {
                    "name": "success",
                    "type": "bool"
                }
            ],
            "payable": false,
            "stateMutability": "nonpayable",
            "type": "function"
        },
        {
            "constant": true,
            "inputs": [],
            "name": "totalSupply",
            "outputs": [
                {
                    "name": "",
                    "type": "uint256"
                }
            ],
            "payable": false,
            "stateMutability": "view",
            "type": "function"
        },
        {
            "constant": false,
            "inputs": [
                {
                    "name": "_from",
                    "type": "address"
                },
                {
                    "name": "_to",
                    "type": "address"
                },
                {
                    "name": "_value",
                    "type": "uint256"
                }
            ],
            "name": "transferFrom",
            "outputs": [
                {
                    "name": "success",
                    "type": "bool"
                }
            ],
            "payable": false,
            "stateMutability": "nonpayable",
            "type": "function"
        },
        {
            "constant": true,
            "inputs": [],
            "name": "decimals",
            "outputs": [
                {
                    "name": "",
                    "type": "uint8"
                }
            ],
            "payable": false,
            "stateMutability": "view",
            "type": "function"
        },
        {
            "constant": false,
            "inputs": [
                {
                    "name": "_owner",
                    "type": "address"
                },
                {
                    "name": "_value",
                    "type": "uint256"
                }
            ],
            "name": "increaseBalance",
            "outputs": [],
            "payable": false,
            "stateMutability": "nonpayable",
            "type": "function"
        },
        {
            "constant": true,
            "inputs": [
                {
                    "name": "_owner",
                    "type": "address"
                }
            ],
            "name": "balanceOf",
            "outputs": [
                {
                    "name": "",
                    "type": "uint256"
                }
            ],
            "payable": false,
            "stateMutability": "view",
            "type": "function"
        },
        {
            "constant": true,
            "inputs": [],
            "name": "coGateway",
            "outputs": [
                {
                    "name": "",
                    "type": "address"
                }
            ],
            "payable": false,
            "stateMutability": "view",
            "type": "function"
        },
        {
            "constant": true,
            "inputs": [],
            "name": "symbol",
            "outputs": [
                {
                    "name": "",
                    "type": "string"
                }
            ],
            "payable": false,
            "stateMutability": "view",
            "type": "function"
        },
        {
            "constant": false,
            "inputs": [
                {
                    "name": "_to",
                    "type": "address"
                },
                {
                    "name": "_value",
                    "type": "uint256"
                }
            ],
            "name": "transfer",
            "outputs": [
                {
                    "name": "success",
                    "type": "bool"
                }
            ],
            "payable": false,
            "stateMutability": "nonpayable",
            "type": "function"
        },
        {
            "constant": true,
            "inputs": [
                {
                    "name": "_owner",
                    "type": "address"
                },
                {
                    "name": "_spender",
                    "type": "address"
                }
            ],
            "name": "allowance",
            "outputs": [
                {
                    "name": "remaining_",
                    "type": "uint256"
                }
            ],
            "payable": false,
            "stateMutability": "view",
            "type": "function"
        },
        {
            "inputs": [
                {
                    "name": "_symbol",
                    "type": "string"
                },
                {
                    "name": "_name",
                    "type": "string"
                },
                {
                    "name": "_decimals",
                    "type": "uint8"
                }
            ],
            "payable": false,
            "stateMutability": "nonpayable",
            "type": "constructor"
        },
        {
            "anonymous": false,
            "inputs": [
                {
                    "indexed": true,
                    "name": "_from",
                    "type": "address"
                },
                {
                    "indexed": true,
                    "name": "_to",
                    "type": "address"
                },
                {
                    "indexed": false,
                    "name": "_value",
                    "type": "uint256"
                }
            ],
            "name": "Transfer",
            "type": "event"
        },
        {
            "anonymous": false,
            "inputs": [
                {
                    "indexed": true,
                    "name": "_owner",
                    "type": "address"
                },
                {
                    "indexed": true,
                    "name": "_spender",
                    "type": "address"
                },
                {
                    "indexed": false,
                    "name": "_value",
                    "type": "uint256"
                }
            ],
            "name": "Approval",
            "type": "event"
        },
        {
            "constant": false,
            "inputs": [
                {
                    "name": "_coGateway",
                    "type": "address"
                }
            ],
            "name": "setCoGateway",
            "outputs": [],
            "payable": false,
            "stateMutability": "nonpayable",
            "type": "function"
        }
    ],
    "bytecode": "0x608060405234801561001057600080fd5b50604051610a47380380610a478339810180604052606081101561003357600080fd5b81019080805164010000000081111561004b57600080fd5b8201602081018481111561005e57600080fd5b815164010000000081118282018710171561007857600080fd5b5050929190602001805164010000000081111561009457600080fd5b820160208101848111156100a757600080fd5b81516401000000008111828201871017156100c157600080fd5b505060209182015160008055855191945092508491849184916100e99160029186019061011d565b5081516100fd90600190602085019061011d565b506003805460ff191660ff92909216919091179055506101b89350505050565b828054600181600116156101000203166002900490600052602060002090601f016020900481019282601f1061015e57805160ff191683800117855561018b565b8280016001018555821561018b579182015b8281111561018b578251825591602001919060010190610170565b5061019792915061019b565b5090565b6101b591905b8082111561019757600081556001016101a1565b90565b610880806101c76000396000f3fe6080604052600436106100b95763ffffffff7c010000000000000000000000000000000000000000000000000000000060003504166306fdde0381146100be578063095ea7b31461014857806318160ddd1461019557806323b872dd146101bc578063313ce567146101ff5780635b86f5991461022a57806370a082311461026557806384f48d6a1461029857806395d89b41146102c9578063a9059cbb146102de578063ac908e4c14610317578063dd62ed3e1461034a575b600080fd5b3480156100ca57600080fd5b506100d3610385565b6040805160208082528351818301528351919283929083019185019080838360005b8381101561010d5781810151838201526020016100f5565b50505050905090810190601f16801561013a5780820380516001836020036101000a031916815260200191505b509250505060405180910390f35b34801561015457600080fd5b506101816004803603604081101561016b57600080fd5b50600160a060020a03813516906020013561041a565b604080519115158252519081900360200190f35b3480156101a157600080fd5b506101aa610480565b60408051918252519081900360200190f35b3480156101c857600080fd5b50610181600480360360608110156101df57600080fd5b50600160a060020a03813581169160208101359091169060400135610486565b34801561020b57600080fd5b50610214610591565b6040805160ff9092168252519081900360200190f35b34801561023657600080fd5b506102636004803603604081101561024d57600080fd5b50600160a060020a03813516906020013561059a565b005b34801561027157600080fd5b506101aa6004803603602081101561028857600080fd5b5035600160a060020a0316610694565b3480156102a457600080fd5b506102ad6106af565b60408051600160a060020a039092168252519081900360200190f35b3480156102d557600080fd5b506100d36106be565b3480156102ea57600080fd5b506101816004803603604081101561030157600080fd5b50600160a060020a03813516906020013561071c565b34801561032357600080fd5b506102636004803603602081101561033a57600080fd5b5035600160a060020a03166107cc565b34801561035657600080fd5b506101aa6004803603604081101561036d57600080fd5b50600160a060020a03813581169160200135166107fb565b60018054604080516020601f600260001961010087891615020190951694909404938401819004810282018101909252828152606093909290918301828280156104105780601f106103e557610100808354040283529160200191610410565b820191906000526020600020905b8154815290600101906020018083116103f357829003601f168201915b5050505050905090565b336000818152600560209081526040808320600160a060020a038716808552908352818420869055815186815291519394909390927f8c5be1e5ebec7d5bd14f71427d1e84f3dd0314c0f7b2291e5b200ac8c7c3b925928290030190a350600192915050565b60005490565b600160a060020a0383166000908152600460205260408120546104af908363ffffffff61082616565b600160a060020a03851660009081526004602090815260408083209390935560058152828220338352905220546104ec908363ffffffff61082616565b600160a060020a038086166000908152600560209081526040808320338452825280832094909455918616815260049091522054610530908363ffffffff61083b16565b600160a060020a0380851660008181526004602090815260409182902094909455805186815290519193928816927fddf252ad1be2c89b69c2b068fc378daa952ba7f163c4a11628f55a4df523b3ef92918290030190a35060019392505050565b60035460ff1690565b600160a060020a038216151561063757604080517f08c379a000000000000000000000000000000000000000000000000000000000815260206004820152602360248201527f546865206163636f756e7420746f207365742062616c616e6365206973206e7560448201527f6c6c2e0000000000000000000000000000000000000000000000000000000000606482015290519081900360840190fd5b600160a060020a038216600090815260046020526040902054610660908263ffffffff61083b16565b600160a060020a0383166000908152600460205260408120919091555461068d908263ffffffff61083b16565b6000555050565b600160a060020a031660009081526004602052604090205490565b600654600160a060020a031681565b60028054604080516020601f60001961010060018716150201909416859004938401819004810282018101909252828152606093909290918301828280156104105780601f106103e557610100808354040283529160200191610410565b3360009081526004602052604081205461073c908363ffffffff61082616565b3360009081526004602052604080822092909255600160a060020a0385168152205461076e908363ffffffff61083b16565b600160a060020a0384166000818152600460209081526040918290209390935580518581529051919233927fddf252ad1be2c89b69c2b068fc378daa952ba7f163c4a11628f55a4df523b3ef9281900390910190a350600192915050565b6006805473ffffffffffffffffffffffffffffffffffffffff1916600160a060020a0392909216919091179055565b600160a060020a03918216600090815260056020908152604080832093909416825291909152205490565b60008282111561083557600080fd5b50900390565b60008282018381101561084d57600080fd5b939250505056fea165627a7a723058204999cdc0babe21c53ccf388cc63aefafd0bdb35c8cf44d72b7745660ce7daaaa0029",
    "source": "/* solhint-disable-next-line compiler-fixed */\npragma solidity ^0.5.0;\n\n// Copyright 2019 OpenST Ltd.\n//\n// Licensed under the Apache License, Version 2.0 (the \"License\");\n// you may not use this file except in compliance with the License.\n// You may obtain a copy of the License at\n//\n//    http://www.apache.org/licenses/LICENSE-2.0\n//\n// Unless required by applicable law or agreed to in writing, software\n// distributed under the License is distributed on an \"AS IS\" BASIS,\n// WITHOUT WARRANTIES OR CONDITIONS OF ANY KIND, either express or implied.\n// See the License for the specific language governing permissions and\n// limitations under the License.\n\nimport \"./EIP20TokenFake.sol\";\n\n/**\n * @title EIP20TokenMock contract.\n *\n * @notice Provides EIP20Token with mock functionality to facilitate testing.\n */\ncontract UtilityTokenFake is EIP20TokenFake {\n\n    /* Storage */\n\n    address public coGateway;\n\n\n    /* Special Functions */\n\n    /**\n     *  @param _symbol Symbol of the token.\n     *  @param _name Name of the token.\n     *  @param _decimals Decimal places of the token.\n     */\n    constructor(\n        string memory _symbol,\n        string memory _name,\n        uint8 _decimals\n    )\n        EIP20TokenFake(_symbol, _name, _decimals)\n        public\n    {\n    }\n\n\n    /* External functions */\n\n    /** @notice Sets coGateway address. */\n    function setCoGateway(address _coGateway)\n        external\n    {\n        coGateway = _coGateway;\n    }\n}\n",
    "sourcePath": "/Users/spuchbauer/dev/ethdenver/openst-contracts/contracts/test_doubles/unit_tests/UtilityTokenFake.sol",
    "compiler": {
        "name": "solc",
        "version": "0.5.0+commit.1d4f565a.Emscripten.clang"
    },
    "schemaVersion": "3.0.9",
    "updatedAt": "2020-02-15T21:03:36.445Z",
    "devdoc": {
        "methods": {
            "allowance(address,address)": {
                "params": {
                    "_owner": "Address of the owner account.",
                    "_spender": "Address of the spender account."
                },
                "return": "remaining_ Remaining allowance for the spender to spend from                   the owner's account."
            },
            "approve(address,uint256)": {
                "details": "Allows _spender address to withdraw from function caller's account,     multiple times up to the _value amount, if this function is called     again it overwrites the current allowance with _value.     Emits \"Approval\" event.",
                "params": {
                    "_spender": "Address authorized to spend from the function                caller's address.",
                    "_value": "Amount up to which spender is authorized to spend."
                },
                "return": "True for a successful approval, false otherwise."
            },
            "balanceOf(address)": {
                "params": {
                    "_owner": "Address of the owner account."
                },
                "return": "Account balance of the owner account."
            },
            "constructor": {
                "params": {
                    "_decimals": "Decimal places of the token.",
                    "_name": "Name of the token.",
                    "_symbol": "Symbol of the token."
                }
            },
            "decimals()": {
                "details": "Implements EIP20TokenInterface::decimals() function.",
                "return": "Decimal places of the EIP20 token."
            },
            "increaseBalance(address,uint256)": {
                "details": "The function is not part of EIP20TokenInterface and is here     to fill the balance of accounts during testing.",
                "params": {
                    "_owner": "Account's address.",
                    "_value": "Amount to increase for the account."
                }
            },
            "name()": {
                "details": "Implements EIP20TokenInterface::name() function.",
                "return": "Name of the EIP20 token."
            },
            "symbol()": {
                "details": "Implements EIP20TokenInterface::symbol() function.",
                "return": "Symbol of the EIP20 token."
            },
            "totalSupply()": {
                "details": "Implements EIP20TokenInterface::totalSupply() function.     Function is only overriden and not implemented as it's not used     during testing."
            },
            "transfer(address,uint256)": {
                "details": "Fires the \"Transfer\" event, throws if, _from account does not     have enough tokens to spend.",
                "params": {
                    "_to": "Address to which tokens are transferred.",
                    "_value": "Amount of tokens to be transferred."
                },
                "return": "True for a successful transfer, false otherwise."
            },
            "transferFrom(address,address,uint256)": {
                "details": "Allows a contract to transfer tokens on behalf of _from address     to _to address, the function caller has to be pre-authorized for     multiple transfers up to the total of _value amount by the     _from address.",
                "params": {
                    "_from": "Address from which tokens are transferred.",
                    "_to": "Address to which tokens are transferred.",
                    "_value": "Amount of tokens transferred."
                },
                "return": "True for a successful transfer, false otherwise."
            }
        },
        "title": "EIP20TokenMock contract."
    },
    "userdoc": {
        "methods": {
            "allowance(address,address)": {
                "notice": "Returns allowance of a spender for the owner account."
            },
            "approve(address,uint256)": {
                "notice": "Allows spender to withdraw from function caller's account."
            },
            "balanceOf(address)": {
                "notice": "Returns balance of the owner account."
            },
            "increaseBalance(address,uint256)": {
                "notice": "Increase balance of the account with the specified value."
            },
            "setCoGateway(address)": {
                "notice": "Sets coGateway address. "
            },
            "transfer(address,uint256)": {
                "notice": "Transfers an amount from msg.sender account."
            },
            "transferFrom(address,address,uint256)": {
                "notice": "Transfer the specified amount between accounts."
            }
        },
        "notice": "Provides EIP20Token with mock functionality to facilitate testing."
    }
}