{
    "contractName": "Airdropper",
    "abi": [
        {
            "constant": false,
            "inputs": [],
            "name": "renounceOwnership",
            "outputs": [],
            "payable": false,
            "stateMutability": "nonpayable",
            "type": "function"
        },
        {
            "constant": true,
            "inputs": [],
            "name": "owner",
            "outputs": [
                {
                    "name": "",
                    "type": "address"
                }
            ],
            "payable": false,
            "stateMutability": "view",
            "type": "function"
        },
        {
            "constant": true,
            "inputs": [],
            "name": "isOwner",
            "outputs": [
                {
                    "name": "",
                    "type": "bool"
                }
            ],
            "payable": false,
            "stateMutability": "view",
            "type": "function"
        },
        {
            "constant": false,
            "inputs": [
                {
                    "name": "newOwner",
                    "type": "address"
                }
            ],
            "name": "transferOwnership",
            "outputs": [],
            "payable": false,
            "stateMutability": "nonpayable",
            "type": "function"
        },
        {
            "payable": true,
            "stateMutability": "payable",
            "type": "fallback"
        },
        {
            "anonymous": false,
            "inputs": [
                {
                    "indexed": false,
                    "name": "total",
                    "type": "uint256"
                },
                {
                    "indexed": false,
                    "name": "tokenAddress",
                    "type": "address"
                }
            ],
            "name": "MultiSended",
            "type": "event"
        },
        {
            "anonymous": false,
            "inputs": [
                {
                    "indexed": true,
                    "name": "previousOwner",
                    "type": "address"
                },
                {
                    "indexed": true,
                    "name": "newOwner",
                    "type": "address"
                }
            ],
            "name": "OwnershipTransferred",
            "type": "event"
        },
        {
            "constant": false,
            "inputs": [
                {
                    "name": "value",
                    "type": "uint256"
                }
            ],
            "name": "withdraw",
            "outputs": [],
            "payable": false,
            "stateMutability": "nonpayable",
            "type": "function"
        },
        {
            "constant": false,
            "inputs": [
                {
                    "name": "token",
                    "type": "address"
                },
                {
                    "name": "_contributors",
                    "type": "address[]"
                },
                {
                    "name": "_balances",
                    "type": "uint256[]"
                },
                {
                    "name": "fuel",
                    "type": "uint256"
                },
                {
                    "name": "low_limit",
                    "type": "uint256"
                }
            ],
            "name": "multiSendToken",
            "outputs": [],
            "payable": true,
            "stateMutability": "payable",
            "type": "function"
        },
        {
            "constant": false,
            "inputs": [
                {
                    "name": "badgeToken",
                    "type": "address"
                },
                {
                    "name": "token",
                    "type": "address"
                },
                {
                    "name": "_contributors",
                    "type": "address[]"
                },
                {
                    "name": "_balances",
                    "type": "uint256[]"
                },
                {
                    "name": "_url",
                    "type": "string[]"
                },
                {
                    "name": "fuel",
                    "type": "uint256"
                },
                {
                    "name": "low_limit",
                    "type": "uint256"
                }
            ],
            "name": "multiSendBadge",
            "outputs": [],
            "payable": true,
            "stateMutability": "payable",
            "type": "function"
        }
    ],
    "bytecode": "0x6080604052336000806101000a81548173ffffffffffffffffffffffffffffffffffffffff021916908373ffffffffffffffffffffffffffffffffffffffff1602179055506000809054906101000a900473ffffffffffffffffffffffffffffffffffffffff1673ffffffffffffffffffffffffffffffffffffffff16600073ffffffffffffffffffffffffffffffffffffffff167f8be0079c531659141344cd1fd0a4f28419497f9722a3daafe3b4186f6b6457e060405160405180910390a3611363806100cf6000396000f3fe6080604052600436106100705760003560e01c80637f9017f11161004e5780637f9017f1146100ce5780638da5cb5b146100ea5780638f32d59b14610115578063f2fde38b1461014057610070565b80632e1a7d4d14610072578063715018a61461009b5780637c1e71f7146100b2575b005b34801561007e57600080fd5b5061009960048036036100949190810190610e8a565b610169565b005b3480156100a757600080fd5b506100b06101fa565b005b6100cc60048036036100c79190810190610cd4565b610300565b005b6100e860048036036100e39190810190610dba565b610625565b005b3480156100f657600080fd5b506100ff610888565b60405161010c9190610fce565b60405180910390f35b34801561012157600080fd5b5061012a6108b1565b6040516101379190611050565b60405180910390f35b34801561014c57600080fd5b5061016760048036036101629190810190610cab565b610908565b005b6101716108b1565b6101b0576040517f08c379a00000000000000000000000000000000000000000000000000000000081526004016101a79061108b565b60405180910390fd5b3373ffffffffffffffffffffffffffffffffffffffff166108fc829081150290604051600060405180830381858888f193505050501580156101f6573d6000803e3d6000fd5b5050565b6102026108b1565b610241576040517f08c379a00000000000000000000000000000000000000000000000000000000081526004016102389061108b565b60405180910390fd5b600073ffffffffffffffffffffffffffffffffffffffff166000809054906101000a900473ffffffffffffffffffffffffffffffffffffffff1673ffffffffffffffffffffffffffffffffffffffff167f8be0079c531659141344cd1fd0a4f28419497f9722a3daafe3b4186f6b6457e060405160405180910390a360008060006101000a81548173ffffffffffffffffffffffffffffffffffffffff021916908373ffffffffffffffffffffffffffffffffffffffff160217905550565b6103086108b1565b610347576040517f08c379a000000000000000000000000000000000000000000000000000000000815260040161033e9061108b565b60405180910390fd5b60008090506000809050600088905060008a905060008090505b89518160ff1610156105a3578273ffffffffffffffffffffffffffffffffffffffff166323b872dd338c8460ff168151811061039957fe5b60200260200101518c8560ff16815181106103b057fe5b60200260200101516040518463ffffffff1660e01b81526004016103d693929190610fe9565b602060405180830381600087803b1580156103f057600080fd5b505af1158015610404573d6000803e3d6000fd5b505050506040513d601f19601f820116820180604052506104289190810190610e61565b508173ffffffffffffffffffffffffffffffffffffffff16638139f64c8b8360ff168151811061045457fe5b60200260200101518a8460ff168151811061046b57fe5b60200260200101516040518363ffffffff1660e01b8152600401610490929190611020565b602060405180830381600087803b1580156104aa57600080fd5b505af11580156104be573d6000803e3d6000fd5b505050506040513d601f19601f820116820180604052506104e29190810190610e61565b50858a8260ff16815181106104f357fe5b602002602001015173ffffffffffffffffffffffffffffffffffffffff1631101561057b57898160ff168151811061052757fe5b602002602001015173ffffffffffffffffffffffffffffffffffffffff166108fc889081150290604051600060405180830381858888f19350505050158015610574573d6000803e3d6000fd5b5086840193505b888160ff168151811061058a57fe5b6020026020010151850194508080600101915050610361565b7f61f622a329a69372a43043391304622d3c455605ee7e10c0acd493fb0098bbcd858c6040516105d49291906110ab565b60405180910390a17f61f622a329a69372a43043391304622d3c455605ee7e10c0acd493fb0098bbcd8461beef60405161060f9291906110d4565b60405180910390a1505050505050505050505050565b61062d6108b1565b61066c576040517f08c379a00000000000000000000000000000000000000000000000000000000081526004016106639061108b565b60405180910390fd5b60008090506000809050600087905060008090505b87518160ff161015610809578173ffffffffffffffffffffffffffffffffffffffff166323b872dd338a8460ff16815181106106b957fe5b60200260200101518a8560ff16815181106106d057fe5b60200260200101516040518463ffffffff1660e01b81526004016106f693929190610fe9565b602060405180830381600087803b15801561071057600080fd5b505af1158015610724573d6000803e3d6000fd5b505050506040513d601f19601f820116820180604052506107489190810190610e61565b5084888260ff168151811061075957fe5b602002602001015173ffffffffffffffffffffffffffffffffffffffff163110156107e157878160ff168151811061078d57fe5b602002602001015173ffffffffffffffffffffffffffffffffffffffff166108fc879081150290604051600060405180830381858888f193505050501580156107da573d6000803e3d6000fd5b5085830192505b868160ff16815181106107f057fe5b6020026020010151840193508080600101915050610681565b7f61f622a329a69372a43043391304622d3c455605ee7e10c0acd493fb0098bbcd848a60405161083a9291906110ab565b60405180910390a17f61f622a329a69372a43043391304622d3c455605ee7e10c0acd493fb0098bbcd8361beef6040516108759291906110d4565b60405180910390a1505050505050505050565b60008060009054906101000a900473ffffffffffffffffffffffffffffffffffffffff16905090565b60008060009054906101000a900473ffffffffffffffffffffffffffffffffffffffff1673ffffffffffffffffffffffffffffffffffffffff163373ffffffffffffffffffffffffffffffffffffffff1614905090565b6109106108b1565b61094f576040517f08c379a00000000000000000000000000000000000000000000000000000000081526004016109469061108b565b60405180910390fd5b6109588161095b565b50565b600073ffffffffffffffffffffffffffffffffffffffff168173ffffffffffffffffffffffffffffffffffffffff1614156109cb576040517f08c379a00000000000000000000000000000000000000000000000000000000081526004016109c29061106b565b60405180910390fd5b8073ffffffffffffffffffffffffffffffffffffffff166000809054906101000a900473ffffffffffffffffffffffffffffffffffffffff1673ffffffffffffffffffffffffffffffffffffffff167f8be0079c531659141344cd1fd0a4f28419497f9722a3daafe3b4186f6b6457e060405160405180910390a3806000806101000a81548173ffffffffffffffffffffffffffffffffffffffff021916908373ffffffffffffffffffffffffffffffffffffffff16021790555050565b600081359050610a98816112cd565b92915050565b600081359050610aad816112e4565b92915050565b600082601f830112610ac457600080fd5b8135610ad7610ad28261112a565b6110fd565b91508181835260208401935060208101905083856020840282011115610afc57600080fd5b60005b83811015610b2c5781610b128882610a9e565b845260208401935060208301925050600181019050610aff565b5050505092915050565b600082601f830112610b4757600080fd5b8135610b5a610b5582611152565b6110fd565b9150818183526020840193506020810190508360005b83811015610ba05781358601610b868882610c42565b845260208401935060208301925050600181019050610b70565b5050505092915050565b600082601f830112610bbb57600080fd5b8135610bce610bc98261117a565b6110fd565b91508181835260208401935060208101905083856020840282011115610bf357600080fd5b60005b83811015610c235781610c098882610c96565b845260208401935060208301925050600181019050610bf6565b5050505092915050565b600081519050610c3c816112fb565b92915050565b600082601f830112610c5357600080fd5b8135610c66610c61826111a2565b6110fd565b91508082526020830160208301858383011115610c8257600080fd5b610c8d83828461127a565b50505092915050565b600081359050610ca581611312565b92915050565b600060208284031215610cbd57600080fd5b6000610ccb84828501610a89565b91505092915050565b600080600080600080600060e0888a031215610cef57600080fd5b6000610cfd8a828b01610a89565b9750506020610d0e8a828b01610a89565b965050604088013567ffffffffffffffff811115610d2b57600080fd5b610d378a828b01610ab3565b955050606088013567ffffffffffffffff811115610d5457600080fd5b610d608a828b01610baa565b945050608088013567ffffffffffffffff811115610d7d57600080fd5b610d898a828b01610b36565b93505060a0610d9a8a828b01610c96565b92505060c0610dab8a828b01610c96565b91505092959891949750929550565b600080600080600060a08688031215610dd257600080fd5b6000610de088828901610a89565b955050602086013567ffffffffffffffff811115610dfd57600080fd5b610e0988828901610ab3565b945050604086013567ffffffffffffffff811115610e2657600080fd5b610e3288828901610baa565b9350506060610e4388828901610c96565b9250506080610e5488828901610c96565b9150509295509295909350565b600060208284031215610e7357600080fd5b6000610e8184828501610c2d565b91505092915050565b600060208284031215610e9c57600080fd5b6000610eaa84828501610c96565b91505092915050565b610ebc81611244565b82525050565b610ecb816111ea565b82525050565b610eda8161120e565b82525050565b6000610eeb826111ce565b610ef581856111d9565b9350610f05818560208601611289565b610f0e816112bc565b840191505092915050565b6000610f266026836111d9565b91507f4f776e61626c653a206e6577206f776e657220697320746865207a65726f206160008301527f64647265737300000000000000000000000000000000000000000000000000006020830152604082019050919050565b6000610f8c6020836111d9565b91507f4f776e61626c653a2063616c6c6572206973206e6f7420746865206f776e65726000830152602082019050919050565b610fc88161123a565b82525050565b6000602082019050610fe36000830184610ec2565b92915050565b6000606082019050610ffe6000830186610eb3565b61100b6020830185610eb3565b6110186040830184610fbf565b949350505050565b60006040820190506110356000830185610eb3565b81810360208301526110478184610ee0565b90509392505050565b60006020820190506110656000830184610ed1565b92915050565b6000602082019050818103600083015261108481610f19565b9050919050565b600060208201905081810360008301526110a481610f7f565b9050919050565b60006040820190506110c06000830185610fbf565b6110cd6020830184610ec2565b9392505050565b60006040820190506110e96000830185610fbf565b6110f66020830184610eb3565b9392505050565b6000604051905081810181811067ffffffffffffffff8211171561112057600080fd5b8060405250919050565b600067ffffffffffffffff82111561114157600080fd5b602082029050602081019050919050565b600067ffffffffffffffff82111561116957600080fd5b602082029050602081019050919050565b600067ffffffffffffffff82111561119157600080fd5b602082029050602081019050919050565b600067ffffffffffffffff8211156111b957600080fd5b601f19601f8301169050602081019050919050565b600081519050919050565b600082825260208201905092915050565b60006111f58261121a565b9050919050565b60006112078261121a565b9050919050565b60008115159050919050565b600073ffffffffffffffffffffffffffffffffffffffff82169050919050565b6000819050919050565b600061124f82611256565b9050919050565b600061126182611268565b9050919050565b60006112738261121a565b9050919050565b82818337600083830152505050565b60005b838110156112a757808201518184015260208101905061128c565b838111156112b6576000848401525b50505050565b6000601f19601f8301169050919050565b6112d6816111ea565b81146112e157600080fd5b50565b6112ed816111fc565b81146112f857600080fd5b50565b6113048161120e565b811461130f57600080fd5b50565b61131b8161123a565b811461132657600080fd5b5056fea265627a7a723058204fae5ebde8a6e0dec0aa97cbbb37e30b5816169f464bc8d5fca626061863782e6c6578706572696d656e74616cf50037",
    "source": "pragma solidity ^0.5.0;\npragma experimental ABIEncoderV2;\n\nimport 'openzeppelin-solidity/contracts/math/SafeMath.sol';\nimport 'openzeppelin-solidity/contracts/token/ERC20/ERC20.sol';\nimport 'openzeppelin-solidity/contracts/ownership/Ownable.sol';\nimport './Badges.sol';\n\ncontract Airdropper is Ownable {\n    using SafeMath for uint256;\n\n    event MultiSended(uint256 total, address tokenAddress);\n\n    // Lets you send ether to contract\n    function() external payable {}\n\n    function withdraw(uint256 value) public onlyOwner {\n        msg.sender.transfer(value);\n    }\n\n    function multiSendToken(\n        address token,\n        address payable[] memory _contributors,\n        uint256[] memory _balances,\n        uint256 fuel,\n        uint256 low_limit\n    ) public payable onlyOwner {\n        uint256 totalToken = 0;\n        uint256 totalEth = 0;\n        ERC20 erc20token = ERC20(token);\n        uint8 i = 0;\n        for (i; i < _contributors.length; i++) {\n            erc20token.transferFrom(msg.sender, _contributors[i], _balances[i]);\n            if (_contributors[i].balance < low_limit) {\n                _contributors[i].transfer(fuel);\n                totalEth += fuel;\n            }\n            totalToken += _balances[i];\n        }\n        emit MultiSended(totalToken, token);\n        emit MultiSended(totalEth, 0x000000000000000000000000000000000000bEEF);\n    }\n\n    function multiSendBadge(\n        address badgeToken,\n        address token,\n        address payable[] memory _contributors,\n        uint256[] memory _balances,\n        string[] memory _url,\n        uint256 fuel,\n        uint256 low_limit\n    ) public payable onlyOwner {\n        uint256 totalToken = 0;\n        uint256 totalEth = 0;\n        ERC20 erc20token = ERC20(token);\n        Badges erc721token = Badges(badgeToken);\n        uint8 i = 0;\n        for (i; i < _contributors.length; i++) {\n            erc20token.transferFrom(msg.sender, _contributors[i], _balances[i]);\n            erc721token.mintNextTokenWithTokenURI(_contributors[i], _url[i]);\n            if (_contributors[i].balance < low_limit) {\n                _contributors[i].transfer(fuel);\n                totalEth += fuel;\n            }\n            totalToken += _balances[i];\n        }\n        emit MultiSended(totalToken, token);\n        emit MultiSended(totalEth, 0x000000000000000000000000000000000000bEEF);\n    }\n}\n",
    "sourcePath": "/Users/hugo/dev/bingo/truffle/contracts/Airdropper.sol",
    "compiler": {
        "name": "solc",
        "version": "0.5.8+commit.23d335f2.Emscripten.clang"
    },
    "schemaVersion": "3.0.15",
    "updatedAt": "2019-10-15T16:51:40.641Z",
    "devdoc": {
        "methods": {
            "isOwner()": {
                "details": "Returns true if the caller is the current owner."
            },
            "owner()": {
                "details": "Returns the address of the current owner."
            },
            "renounceOwnership()": {
                "details": "Leaves the contract without owner. It will not be possible to call `onlyOwner` functions anymore. Can only be called by the current owner.     * > Note: Renouncing ownership will leave the contract without an owner, thereby removing any functionality that is only available to the owner."
            },
            "transferOwnership(address)": {
                "details": "Transfers ownership of the contract to a new account (`newOwner`). Can only be called by the current owner."
            }
        }
    },
    "userdoc": {
        "methods": {}
    }
}