{
    "contractName": "Dispenser",
    "abi": [
        {
            "constant": true,
            "inputs": [],
            "name": "getHubAddr",
            "outputs": [
                {
                    "name": "",
                    "type": "address"
                }
            ],
            "payable": false,
            "stateMutability": "view",
            "type": "function"
        },
        {
            "constant": false,
            "inputs": [
                {
                    "name": "context",
                    "type": "bytes"
                }
            ],
            "name": "preRelayedCall",
            "outputs": [
                {
                    "name": "",
                    "type": "bytes32"
                }
            ],
            "payable": false,
            "stateMutability": "nonpayable",
            "type": "function"
        },
        {
            "constant": true,
            "inputs": [
                {
                    "name": "",
                    "type": "address"
                },
                {
                    "name": "",
                    "type": "address"
                },
                {
                    "name": "",
                    "type": "bytes"
                },
                {
                    "name": "",
                    "type": "uint256"
                },
                {
                    "name": "",
                    "type": "uint256"
                },
                {
                    "name": "",
                    "type": "uint256"
                },
                {
                    "name": "",
                    "type": "uint256"
                },
                {
                    "name": "",
                    "type": "bytes"
                },
                {
                    "name": "",
                    "type": "uint256"
                }
            ],
            "name": "acceptRelayedCall",
            "outputs": [
                {
                    "name": "",
                    "type": "uint256"
                },
                {
                    "name": "",
                    "type": "bytes"
                }
            ],
            "payable": false,
            "stateMutability": "view",
            "type": "function"
        },
        {
            "constant": true,
            "inputs": [],
            "name": "admins",
            "outputs": [
                {
                    "name": "",
                    "type": "address"
                }
            ],
            "payable": false,
            "stateMutability": "view",
            "type": "function"
        },
        {
            "constant": true,
            "inputs": [],
            "name": "getRecipientBalance",
            "outputs": [
                {
                    "name": "",
                    "type": "uint256"
                }
            ],
            "payable": false,
            "stateMutability": "view",
            "type": "function"
        },
        {
            "constant": true,
            "inputs": [],
            "name": "relayHubVersion",
            "outputs": [
                {
                    "name": "",
                    "type": "string"
                }
            ],
            "payable": false,
            "stateMutability": "view",
            "type": "function"
        },
        {
            "constant": false,
            "inputs": [],
            "name": "depositForRelay",
            "outputs": [],
            "payable": true,
            "stateMutability": "payable",
            "type": "function"
        },
        {
            "constant": false,
            "inputs": [
                {
                    "name": "context",
                    "type": "bytes"
                },
                {
                    "name": "success",
                    "type": "bool"
                },
                {
                    "name": "actualCharge",
                    "type": "uint256"
                },
                {
                    "name": "preRetVal",
                    "type": "bytes32"
                }
            ],
            "name": "postRelayedCall",
            "outputs": [],
            "payable": false,
            "stateMutability": "nonpayable",
            "type": "function"
        },
        {
            "constant": true,
            "inputs": [],
            "name": "gsnDepositAddress",
            "outputs": [
                {
                    "name": "",
                    "type": "address"
                }
            ],
            "payable": false,
            "stateMutability": "view",
            "type": "function"
        },
        {
            "constant": true,
            "inputs": [],
            "name": "token",
            "outputs": [
                {
                    "name": "",
                    "type": "address"
                }
            ],
            "payable": false,
            "stateMutability": "view",
            "type": "function"
        },
        {
            "inputs": [
                {
                    "name": "admins",
                    "type": "address"
                }
            ],
            "payable": false,
            "stateMutability": "nonpayable",
            "type": "constructor"
        },
        {
            "anonymous": false,
            "inputs": [
                {
                    "indexed": true,
                    "name": "claimer",
                    "type": "address"
                },
                {
                    "indexed": true,
                    "name": "code",
                    "type": "address"
                },
                {
                    "indexed": false,
                    "name": "value",
                    "type": "uint256"
                }
            ],
            "name": "Claim",
            "type": "event"
        },
        {
            "anonymous": false,
            "inputs": [
                {
                    "indexed": false,
                    "name": "signer",
                    "type": "address"
                },
                {
                    "indexed": false,
                    "name": "value",
                    "type": "uint256"
                },
                {
                    "indexed": false,
                    "name": "message",
                    "type": "string"
                }
            ],
            "name": "CodeCreated",
            "type": "event"
        },
        {
            "anonymous": false,
            "inputs": [
                {
                    "indexed": true,
                    "name": "oldRelayHub",
                    "type": "address"
                },
                {
                    "indexed": true,
                    "name": "newRelayHub",
                    "type": "address"
                }
            ],
            "name": "RelayHubChanged",
            "type": "event"
        },
        {
            "constant": false,
            "inputs": [
                {
                    "name": "_token",
                    "type": "address"
                }
            ],
            "name": "setToken",
            "outputs": [],
            "payable": false,
            "stateMutability": "nonpayable",
            "type": "function"
        },
        {
            "constant": false,
            "inputs": [
                {
                    "name": "signature",
                    "type": "bytes"
                }
            ],
            "name": "claim",
            "outputs": [],
            "payable": false,
            "stateMutability": "nonpayable",
            "type": "function"
        },
        {
            "constant": true,
            "inputs": [
                {
                    "name": "signer",
                    "type": "address"
                }
            ],
            "name": "getCode",
            "outputs": [
                {
                    "name": "value",
                    "type": "uint256"
                },
                {
                    "name": "enabled",
                    "type": "bool"
                },
                {
                    "name": "message",
                    "type": "string"
                }
            ],
            "payable": false,
            "stateMutability": "view",
            "type": "function"
        },
        {
            "constant": true,
            "inputs": [
                {
                    "name": "signer",
                    "type": "address"
                },
                {
                    "name": "user",
                    "type": "address"
                }
            ],
            "name": "canClaim",
            "outputs": [
                {
                    "name": "",
                    "type": "bool"
                }
            ],
            "payable": false,
            "stateMutability": "view",
            "type": "function"
        },
        {
            "constant": false,
            "inputs": [
                {
                    "name": "value",
                    "type": "uint256"
                },
                {
                    "name": "signer",
                    "type": "address"
                },
                {
                    "name": "message",
                    "type": "string"
                }
            ],
            "name": "createCode",
            "outputs": [],
            "payable": false,
            "stateMutability": "nonpayable",
            "type": "function"
        },
        {
            "constant": false,
            "inputs": [
                {
                    "name": "signer",
                    "type": "address"
                },
                {
                    "name": "isEnabled",
                    "type": "bool"
                }
            ],
            "name": "setEnabled",
            "outputs": [],
            "payable": false,
            "stateMutability": "nonpayable",
            "type": "function"
        },
        {
            "constant": false,
            "inputs": [
                {
                    "name": "",
                    "type": "address"
                },
                {
                    "name": "",
                    "type": "address"
                },
                {
                    "name": "",
                    "type": "address"
                },
                {
                    "name": "",
                    "type": "uint256"
                },
                {
                    "name": "",
                    "type": "bytes"
                },
                {
                    "name": "",
                    "type": "bytes"
                }
            ],
            "name": "tokensReceived",
            "outputs": [],
            "payable": false,
            "stateMutability": "nonpayable",
            "type": "function"
        }
    ],
    "bytecode": "0x608060405273d216153c06e857cd7f72665e0af1d7d82172f4946000806101000a81548173ffffffffffffffffffffffffffffffffffffffff021916908373ffffffffffffffffffffffffffffffffffffffff1602179055503480156200006557600080fd5b50604051620023c1380380620023c1833981810160405260208110156200008b57600080fd5b810190808051906020019092919050505080604051620000ab9062000270565b604051809103906000f080158015620000c8573d6000803e3d6000fd5b50600160006101000a81548173ffffffffffffffffffffffffffffffffffffffff021916908373ffffffffffffffffffffffffffffffffffffffff16021790555080600260006101000a81548173ffffffffffffffffffffffffffffffffffffffff021916908373ffffffffffffffffffffffffffffffffffffffff16021790555050731820a4b7618bde71dce8cdc73aab6c95905fad2473ffffffffffffffffffffffffffffffffffffffff166329965a1d3060405180807f455243373737546f6b656e73526563697069656e74000000000000000000000081525060150190506040518091039020306040518463ffffffff1660e01b8152600401808473ffffffffffffffffffffffffffffffffffffffff1673ffffffffffffffffffffffffffffffffffffffff1681526020018381526020018273ffffffffffffffffffffffffffffffffffffffff1673ffffffffffffffffffffffffffffffffffffffff1681526020019350505050600060405180830381600087803b1580156200025057600080fd5b505af115801562000265573d6000803e3d6000fd5b50505050506200027e565b610127806200229a83390190565b61200c806200028e6000396000f3fe6080604052600436106100fd5760003560e01c8063a5de361911610095578063c63ff8dd11610064578063c63ff8dd146108db578063ca89987814610961578063e06e0e221461096b578063e53117b014610a11578063fc0c546a14610a68576100fd565b8063a5de361914610740578063a617e65314610797578063ac57041114610820578063ad61ccd51461084b576100fd565b806374e861d6116100d157806374e861d6146103a55780637e105ce2146103fc57806380274db7146104d857806383947ea014610572576100fd565b806223de2914610102578063144fa6d71461024757806315b4fd941461029857806317fe72bb14610348575b600080fd5b34801561010e57600080fd5b50610245600480360360c081101561012557600080fd5b81019080803573ffffffffffffffffffffffffffffffffffffffff169060200190929190803573ffffffffffffffffffffffffffffffffffffffff169060200190929190803573ffffffffffffffffffffffffffffffffffffffff16906020019092919080359060200190929190803590602001906401000000008111156101ac57600080fd5b8201836020820111156101be57600080fd5b803590602001918460018302840111640100000000831117156101e057600080fd5b90919293919293908035906020019064010000000081111561020157600080fd5b82018360208201111561021357600080fd5b8035906020019184600183028401116401000000008311171561023557600080fd5b9091929391929390505050610abf565b005b34801561025357600080fd5b506102966004803603602081101561026a57600080fd5b81019080803573ffffffffffffffffffffffffffffffffffffffff169060200190929190505050610ac9565b005b3480156102a457600080fd5b50610346600480360360608110156102bb57600080fd5b8101908080359060200190929190803573ffffffffffffffffffffffffffffffffffffffff1690602001909291908035906020019064010000000081111561030257600080fd5b82018360208201111561031457600080fd5b8035906020019184600183028401116401000000008311171561033657600080fd5b9091929391929390505050610bf0565b005b34801561035457600080fd5b506103a36004803603604081101561036b57600080fd5b81019080803573ffffffffffffffffffffffffffffffffffffffff169060200190929190803515159060200190929190505050610e6c565b005b3480156103b157600080fd5b506103ba610fad565b604051808273ffffffffffffffffffffffffffffffffffffffff1673ffffffffffffffffffffffffffffffffffffffff16815260200191505060405180910390f35b34801561040857600080fd5b5061044b6004803603602081101561041f57600080fd5b81019080803573ffffffffffffffffffffffffffffffffffffffff169060200190929190505050610fd6565b604051808481526020018315151515815260200180602001828103825283818151815260200191508051906020019080838360005b8381101561049b578082015181840152602081019050610480565b50505050905090810190601f1680156104c85780820380516001836020036101000a031916815260200191505b5094505050505060405180910390f35b3480156104e457600080fd5b5061055c600480360360208110156104fb57600080fd5b810190808035906020019064010000000081111561051857600080fd5b82018360208201111561052a57600080fd5b8035906020019184600183028401116401000000008311171561054c57600080fd5b9091929391929390505050611156565b6040518082815260200191505060405180910390f35b34801561057e57600080fd5b506106be600480360361012081101561059657600080fd5b81019080803573ffffffffffffffffffffffffffffffffffffffff169060200190929190803573ffffffffffffffffffffffffffffffffffffffff169060200190929190803590602001906401000000008111156105f357600080fd5b82018360208201111561060557600080fd5b8035906020019184600183028401116401000000008311171561062757600080fd5b9091929391929390803590602001909291908035906020019092919080359060200190929190803590602001909291908035906020019064010000000081111561067057600080fd5b82018360208201111561068257600080fd5b803590602001918460018302840111640100000000831117156106a457600080fd5b909192939192939080359060200190929190505050611238565b6040518083815260200180602001828103825283818151815260200191508051906020019080838360005b838110156107045780820151818401526020810190506106e9565b50505050905090810190601f1680156107315780820380516001836020036101000a031916815260200191505b50935050505060405180910390f35b34801561074c57600080fd5b50610755611258565b604051808273ffffffffffffffffffffffffffffffffffffffff1673ffffffffffffffffffffffffffffffffffffffff16815260200191505060405180910390f35b3480156107a357600080fd5b50610806600480360360408110156107ba57600080fd5b81019080803573ffffffffffffffffffffffffffffffffffffffff169060200190929190803573ffffffffffffffffffffffffffffffffffffffff16906020019092919050505061127e565b604051808215151515815260200191505060405180910390f35b34801561082c57600080fd5b50610835611316565b6040518082815260200191505060405180910390f35b34801561085757600080fd5b506108606113dc565b6040518080602001828103825283818151815260200191508051906020019080838360005b838110156108a0578082015181840152602081019050610885565b50505050905090810190601f1680156108cd5780820380516001836020036101000a031916815260200191505b509250505060405180910390f35b3480156108e757600080fd5b5061095f600480360360208110156108fe57600080fd5b810190808035906020019064010000000081111561091b57600080fd5b82018360208201111561092d57600080fd5b8035906020019184600183028401116401000000008311171561094f57600080fd5b9091929391929390505050611419565b005b610969611aaf565b005b34801561097757600080fd5b50610a0f6004803603608081101561098e57600080fd5b81019080803590602001906401000000008111156109ab57600080fd5b8201836020820111156109bd57600080fd5b803590602001918460018302840111640100000000831117156109df57600080fd5b90919293919293908035151590602001909291908035906020019092919080359060200190929190505050611b50565b005b348015610a1d57600080fd5b50610a26611c32565b604051808273ffffffffffffffffffffffffffffffffffffffff1673ffffffffffffffffffffffffffffffffffffffff16815260200191505060405180910390f35b348015610a7457600080fd5b50610a7d611c58565b604051808273ffffffffffffffffffffffffffffffffffffffff1673ffffffffffffffffffffffffffffffffffffffff16815260200191505060405180910390f35b5050505050505050565b600260009054906101000a900473ffffffffffffffffffffffffffffffffffffffff1673ffffffffffffffffffffffffffffffffffffffff16633af32abf336040518263ffffffff1660e01b8152600401808273ffffffffffffffffffffffffffffffffffffffff1673ffffffffffffffffffffffffffffffffffffffff16815260200191505060206040518083038186803b158015610b6857600080fd5b505afa158015610b7c573d6000803e3d6000fd5b505050506040513d6020811015610b9257600080fd5b8101908080519060200190929190505050610bac57600080fd5b80600360006101000a81548173ffffffffffffffffffffffffffffffffffffffff021916908373ffffffffffffffffffffffffffffffffffffffff16021790555050565b600260009054906101000a900473ffffffffffffffffffffffffffffffffffffffff1673ffffffffffffffffffffffffffffffffffffffff16633af32abf336040518263ffffffff1660e01b8152600401808273ffffffffffffffffffffffffffffffffffffffff1673ffffffffffffffffffffffffffffffffffffffff16815260200191505060206040518083038186803b158015610c8f57600080fd5b505afa158015610ca3573d6000803e3d6000fd5b505050506040513d6020811015610cb957600080fd5b8101908080519060200190929190505050610cd357600080fd5b83600460008573ffffffffffffffffffffffffffffffffffffffff1673ffffffffffffffffffffffffffffffffffffffff168152602001908152602001600020600001819055506001600460008573ffffffffffffffffffffffffffffffffffffffff1673ffffffffffffffffffffffffffffffffffffffff16815260200190815260200160002060010160006101000a81548160ff0219169083151502179055508181600460008673ffffffffffffffffffffffffffffffffffffffff1673ffffffffffffffffffffffffffffffffffffffff1681526020019081526020016000206002019190610dc6929190611f0e565b507ffb280774fc07b6e66e11f5a4cdc4ff9cc87612ff9fe146dedcb16daf81bc661383858484604051808573ffffffffffffffffffffffffffffffffffffffff1673ffffffffffffffffffffffffffffffffffffffff168152602001848152602001806020018281038252848482818152602001925080828437600081840152601f19601f8201169050808301925050509550505050505060405180910390a150505050565b600260009054906101000a900473ffffffffffffffffffffffffffffffffffffffff1673ffffffffffffffffffffffffffffffffffffffff16633af32abf336040518263ffffffff1660e01b8152600401808273ffffffffffffffffffffffffffffffffffffffff1673ffffffffffffffffffffffffffffffffffffffff16815260200191505060206040518083038186803b158015610f0b57600080fd5b505afa158015610f1f573d6000803e3d6000fd5b505050506040513d6020811015610f3557600080fd5b8101908080519060200190929190505050610f4f57600080fd5b80600460008473ffffffffffffffffffffffffffffffffffffffff1673ffffffffffffffffffffffffffffffffffffffff16815260200190815260200160002060010160006101000a81548160ff0219169083151502179055505050565b60008060009054906101000a900473ffffffffffffffffffffffffffffffffffffffff16905090565b6000806060600460008573ffffffffffffffffffffffffffffffffffffffff1673ffffffffffffffffffffffffffffffffffffffff168152602001908152602001600020600001549250600460008573ffffffffffffffffffffffffffffffffffffffff1673ffffffffffffffffffffffffffffffffffffffff16815260200190815260200160002060010160009054906101000a900460ff169150600460008573ffffffffffffffffffffffffffffffffffffffff1673ffffffffffffffffffffffffffffffffffffffff1681526020019081526020016000206002018054600181600116156101000203166002900480601f0160208091040260200160405190810160405280929190818152602001828054600181600116156101000203166002900480156111485780601f1061111d57610100808354040283529160200191611148565b820191906000526020600020905b81548152906001019060200180831161112b57829003601f168201915b505050505090509193909250565b6000611160610fad565b73ffffffffffffffffffffffffffffffffffffffff163373ffffffffffffffffffffffffffffffffffffffff16146111e3576040517f08c379a0000000000000000000000000000000000000000000000000000000008152600401808060200182810382526024815260200180611fb46024913960400191505060405180910390fd5b61123083838080601f016020809104026020016040519081016040528093929190818152602001838380828437600081840152601f19601f82011690508083019250505050505050611c7e565b905092915050565b60006060611244611c85565b915091509b509b9950505050505050505050565b600260009054906101000a900473ffffffffffffffffffffffffffffffffffffffff1681565b6000600460008473ffffffffffffffffffffffffffffffffffffffff1673ffffffffffffffffffffffffffffffffffffffff16815260200190815260200160002060030160008373ffffffffffffffffffffffffffffffffffffffff1673ffffffffffffffffffffffffffffffffffffffff16815260200190815260200160002060009054906101000a900460ff1615905092915050565b6000611320611ca9565b73ffffffffffffffffffffffffffffffffffffffff166370a08231306040518263ffffffff1660e01b8152600401808273ffffffffffffffffffffffffffffffffffffffff1673ffffffffffffffffffffffffffffffffffffffff16815260200191505060206040518083038186803b15801561139c57600080fd5b505afa1580156113b0573d6000803e3d6000fd5b505050506040513d60208110156113c657600080fd5b8101908080519060200190929190505050905090565b60606040518060400160405280600581526020017f312e302e30000000000000000000000000000000000000000000000000000000815250905090565b6000611423611cb8565b905060006114db84848080601f016020809104026020016040519081016040528093929190818152602001838380828437600081840152601f19601f820116905080830192505050505050506114cd84604051602001808273ffffffffffffffffffffffffffffffffffffffff1673ffffffffffffffffffffffffffffffffffffffff1660601b815260140191505060405160208183030381529060405280519060200120611d24565b611d7c90919063ffffffff16565b9050600460008273ffffffffffffffffffffffffffffffffffffffff1673ffffffffffffffffffffffffffffffffffffffff16815260200190815260200160002060010160009054906101000a900460ff1661159f576040517f08c379a00000000000000000000000000000000000000000000000000000000081526004018080602001828103825260128152602001807f4e6f7420616e2061637469766520636f6465000000000000000000000000000081525060200191505060405180910390fd5b600460008273ffffffffffffffffffffffffffffffffffffffff1673ffffffffffffffffffffffffffffffffffffffff16815260200190815260200160002060030160008373ffffffffffffffffffffffffffffffffffffffff1673ffffffffffffffffffffffffffffffffffffffff16815260200190815260200160002060009054906101000a900460ff161561169f576040517f08c379a000000000000000000000000000000000000000000000000000000000815260040180806020018281038252600f8152602001807f416c726561647920636c61696d6564000000000000000000000000000000000081525060200191505060405180910390fd5b6001600460008373ffffffffffffffffffffffffffffffffffffffff1673ffffffffffffffffffffffffffffffffffffffff16815260200190815260200160002060030160008473ffffffffffffffffffffffffffffffffffffffff1673ffffffffffffffffffffffffffffffffffffffff16815260200190815260200160002060006101000a81548160ff021916908315150217905550600360009054906101000a900473ffffffffffffffffffffffffffffffffffffffff1673ffffffffffffffffffffffffffffffffffffffff166394d008ef30600460008573ffffffffffffffffffffffffffffffffffffffff1673ffffffffffffffffffffffffffffffffffffffff1681526020019081526020016000206000015460006040519080825280601f01601f1916602001820160405280156117ed5781602001600182028038833980820191505090505b506040518463ffffffff1660e01b8152600401808473ffffffffffffffffffffffffffffffffffffffff1673ffffffffffffffffffffffffffffffffffffffff16815260200183815260200180602001828103825283818151815260200191508051906020019080838360005b8381101561187557808201518184015260208101905061185a565b50505050905090810190601f1680156118a25780820380516001836020036101000a031916815260200191505b50945050505050600060405180830381600087803b1580156118c357600080fd5b505af11580156118d7573d6000803e3d6000fd5b50505050600360009054906101000a900473ffffffffffffffffffffffffffffffffffffffff1673ffffffffffffffffffffffffffffffffffffffff16639bd9bbc683600460008573ffffffffffffffffffffffffffffffffffffffff1673ffffffffffffffffffffffffffffffffffffffff16815260200190815260200160002060000154600460008673ffffffffffffffffffffffffffffffffffffffff1673ffffffffffffffffffffffffffffffffffffffff1681526020019081526020016000206002016040518463ffffffff1660e01b8152600401808473ffffffffffffffffffffffffffffffffffffffff1673ffffffffffffffffffffffffffffffffffffffff16815260200183815260200180602001828103825283818154600181600116156101000203166002900481526020019150805460018160011615610100020316600290048015611a6f5780601f10611a4457610100808354040283529160200191611a6f565b820191906000526020600020905b815481529060010190602001808311611a5257829003601f168201915b5050945050505050600060405180830381600087803b158015611a9157600080fd5b505af1158015611aa5573d6000803e3d6000fd5b5050505050505050565b611ab7611ca9565b73ffffffffffffffffffffffffffffffffffffffff1663aa67c91934306040518363ffffffff1660e01b8152600401808273ffffffffffffffffffffffffffffffffffffffff1673ffffffffffffffffffffffffffffffffffffffff1681526020019150506000604051808303818588803b158015611b3557600080fd5b505af1158015611b49573d6000803e3d6000fd5b5050505050565b611b58610fad565b73ffffffffffffffffffffffffffffffffffffffff163373ffffffffffffffffffffffffffffffffffffffff1614611bdb576040517f08c379a0000000000000000000000000000000000000000000000000000000008152600401808060200182810382526024815260200180611fb46024913960400191505060405180910390fd5b611c2b85858080601f016020809104026020016040519081016040528093929190818152602001838380828437600081840152601f19601f82011690508083019250505050505050848484611e80565b5050505050565b600160009054906101000a900473ffffffffffffffffffffffffffffffffffffffff1681565b600360009054906101000a900473ffffffffffffffffffffffffffffffffffffffff1681565b6000919050565b60006060611ca160405180602001604052806000815250611e86565b915091509091565b6000611cb3610fad565b905090565b60008060009054906101000a900473ffffffffffffffffffffffffffffffffffffffff1673ffffffffffffffffffffffffffffffffffffffff163373ffffffffffffffffffffffffffffffffffffffff1614611d1657339050611d21565b611d1e611e96565b90505b90565b60008160405160200180807f19457468657265756d205369676e6564204d6573736167653a0a333200000000815250601c01828152602001915050604051602081830303815290604052805190602001209050919050565b60006041825114611d905760009050611e7a565b60008060006020850151925060408501519150606085015160001a90507f7fffffffffffffffffffffffffffffff5d576e7357a4501ddfe92f46681b20a08260001c1115611de45760009350505050611e7a565b601b8160ff1614158015611dfc5750601c8160ff1614155b15611e0d5760009350505050611e7a565b60018682858560405160008152602001604052604051808581526020018460ff1660ff1681526020018381526020018281526020019450505050506020604051602081039080840390855afa158015611e6a573d6000803e3d6000fd5b5050506020604051035193505050505b92915050565b50505050565b6000606060008391509150915091565b600060606000368080601f016020809104026020016040519081016040528093929190818152602001838380828437600081840152601f19601f820116905080830192505050505050509050600080369050905073ffffffffffffffffffffffffffffffffffffffff81830151169250829250505090565b828054600181600116156101000203166002900490600052602060002090601f016020900481019282601f10611f4f57803560ff1916838001178555611f7d565b82800160010185558215611f7d579182015b82811115611f7c578235825591602001919060010190611f61565b5b509050611f8a9190611f8e565b5090565b611fb091905b80821115611fac576000816000905550600101611f94565b5090565b9056fe47534e526563697069656e743a2063616c6c6572206973206e6f742052656c6179487562a265627a7a72305820cbc0358620f416feb16ba43fed1caec45eee723c9037433612ef06029321635564736f6c634300050a0032608060405234801561001057600080fd5b50336000806101000a81548173ffffffffffffffffffffffffffffffffffffffff021916908373ffffffffffffffffffffffffffffffffffffffff16021790555060c88061005f6000396000f3fe60806040526000341415601157600080fd5b6000809054906101000a900473ffffffffffffffffffffffffffffffffffffffff1673ffffffffffffffffffffffffffffffffffffffff1663ca899878346040518263ffffffff1660e01b81526004016000604051808303818588803b158015607957600080fd5b505af1158015608c573d6000803e3d6000fd5b505050505000fea265627a7a72305820b7ee47bc8541675b62ca84340a770528622d9702e4ca419cd866e018d41228a464736f6c634300050a0032",
    "source": "pragma solidity ^0.5.0;\n\nimport \"openzeppelin-solidity/contracts/GSN/Context.sol\";\nimport \"openzeppelin-solidity/contracts/cryptography/ECDSA.sol\";\nimport \"openzeppelin-solidity/contracts/introspection/IERC1820Registry.sol\";\nimport \"openzeppelin-solidity/contracts/token/ERC777/IERC777Recipient.sol\";\nimport './Admins.sol';\nimport './IMintableToken.sol';\nimport './IWhitelist.sol';\nimport './FreeGas.sol';\n\n\ncontract Dispenser is FreeGas, Admins, IERC777Recipient {\n  using ECDSA for bytes32;\n\n  struct Code {\n    uint256 value;\n    bool enabled;\n    string message;\n    mapping(address => bool) claimed;\n  }\n  IMintableToken public token;\n\n  mapping(address => Code) private codes;\n\n  event Claim(address indexed claimer, address indexed code, uint256 value);\n  event CodeCreated(address signer, uint256 value, string message);\n\n  constructor(IWhitelist admins) public Admins(admins) {\n    IERC1820Registry(0x1820a4B7618BdE71Dce8cdc73aAB6C95905faD24)\n      .setInterfaceImplementer(address(this), keccak256(\"ERC777TokensRecipient\"), address(this));\n  }\n\n  function setToken(IMintableToken _token) external onlyAdmins {\n    token = _token;\n  }\n\n  function claim(bytes calldata signature) external {\n    address sender = _msgSender();\n    address signer = keccak256(abi.encodePacked(sender)).toEthSignedMessageHash().recover(signature);\n\n    require(codes[signer].enabled, \"Not an active code\");\n    require(!codes[signer].claimed[sender], \"Already claimed\");\n\n    codes[signer].claimed[sender] = true;\n    token.mint(address(this), codes[signer].value, new bytes(0));\n    token.send(sender, codes[signer].value, bytes(codes[signer].message));\n  }\n\n  function getCode(address signer) external view returns (uint256 value, bool enabled, string memory message) {\n    value = codes[signer].value;\n    enabled = codes[signer].enabled;\n    message = codes[signer].message;\n  }\n\n  function canClaim(address signer, address user) external view returns (bool) {\n    return !codes[signer].claimed[user];\n  }\n\n  function createCode(uint256 value, address signer, string calldata message) external onlyAdmins {\n    codes[signer].value = value;\n    codes[signer].enabled = true;\n    codes[signer].message = message;\n    emit CodeCreated(signer, value, message);\n  }\n\n  function setEnabled(address signer, bool isEnabled) external onlyAdmins {\n    codes[signer].enabled = isEnabled;\n  }\n\n  function tokensReceived(\n    address /* operator */,\n    address /* from */,\n    address /* to */,\n    uint256 /* amount */,\n    bytes calldata /* userData */,\n    bytes calldata /* operatorData */\n  ) external {}\n}\n",
    "sourcePath": "/home/rmoore/Projects/ethdenver-burner-wallet/contracts/contracts/Dispenser.sol",
    "compiler": {
        "name": "solc",
        "version": "0.5.10+commit.5a6ea5b1.Emscripten.clang"
    },
    "schemaVersion": "3.0.15",
    "updatedAt": "2020-02-13T23:25:47.812Z",
    "devdoc": {
        "methods": {
            "getHubAddr()": {
                "details": "Returns the address of the {IRelayHub} contract for this recipient."
            },
            "postRelayedCall(bytes,bool,uint256,bytes32)": {
                "details": "See `IRelayRecipient.postRelayedCall`.     * This function should not be overriden directly, use `_postRelayedCall` instead.     * * Requirements:     * - the caller must be the `RelayHub` contract."
            },
            "preRelayedCall(bytes)": {
                "details": "See `IRelayRecipient.preRelayedCall`.     * This function should not be overriden directly, use `_preRelayedCall` instead.     * * Requirements:     * - the caller must be the `RelayHub` contract."
            },
            "relayHubVersion()": {
                "details": "Returns the version string of the {IRelayHub} for which this recipient implementation was built. If {_upgradeRelayHub} is used, the new {IRelayHub} instance should be compatible with this version."
            }
        }
    },
    "userdoc": {
        "methods": {}
    }
}