{
    "contractName": "Faucet",
    "abi": [
        {
            "constant": true,
            "inputs": [
                {
                    "name": "",
                    "type": "address"
                }
            ],
            "name": "lastTransaction",
            "outputs": [
                {
                    "name": "",
                    "type": "uint256"
                }
            ],
            "payable": false,
            "stateMutability": "view",
            "type": "function"
        },
        {
            "constant": true,
            "inputs": [
                {
                    "name": "",
                    "type": "address"
                }
            ],
            "name": "rate",
            "outputs": [
                {
                    "name": "",
                    "type": "uint256"
                }
            ],
            "payable": false,
            "stateMutability": "view",
            "type": "function"
        },
        {
            "constant": true,
            "inputs": [],
            "name": "cap",
            "outputs": [
                {
                    "name": "",
                    "type": "uint256"
                }
            ],
            "payable": false,
            "stateMutability": "view",
            "type": "function"
        },
        {
            "constant": true,
            "inputs": [
                {
                    "name": "",
                    "type": "address"
                }
            ],
            "name": "userCap",
            "outputs": [
                {
                    "name": "",
                    "type": "uint256"
                }
            ],
            "payable": false,
            "stateMutability": "view",
            "type": "function"
        },
        {
            "constant": true,
            "inputs": [],
            "name": "getHubAddr",
            "outputs": [
                {
                    "name": "",
                    "type": "address"
                }
            ],
            "payable": false,
            "stateMutability": "view",
            "type": "function"
        },
        {
            "constant": false,
            "inputs": [
                {
                    "name": "context",
                    "type": "bytes"
                }
            ],
            "name": "preRelayedCall",
            "outputs": [
                {
                    "name": "",
                    "type": "bytes32"
                }
            ],
            "payable": false,
            "stateMutability": "nonpayable",
            "type": "function"
        },
        {
            "constant": true,
            "inputs": [
                {
                    "name": "",
                    "type": "address"
                },
                {
                    "name": "",
                    "type": "address"
                },
                {
                    "name": "",
                    "type": "bytes"
                },
                {
                    "name": "",
                    "type": "uint256"
                },
                {
                    "name": "",
                    "type": "uint256"
                },
                {
                    "name": "",
                    "type": "uint256"
                },
                {
                    "name": "",
                    "type": "uint256"
                },
                {
                    "name": "",
                    "type": "bytes"
                },
                {
                    "name": "",
                    "type": "uint256"
                }
            ],
            "name": "acceptRelayedCall",
            "outputs": [
                {
                    "name": "",
                    "type": "uint256"
                },
                {
                    "name": "",
                    "type": "bytes"
                }
            ],
            "payable": false,
            "stateMutability": "view",
            "type": "function"
        },
        {
            "constant": true,
            "inputs": [],
            "name": "admins",
            "outputs": [
                {
                    "name": "",
                    "type": "address"
                }
            ],
            "payable": false,
            "stateMutability": "view",
            "type": "function"
        },
        {
            "constant": true,
            "inputs": [],
            "name": "getRecipientBalance",
            "outputs": [
                {
                    "name": "",
                    "type": "uint256"
                }
            ],
            "payable": false,
            "stateMutability": "view",
            "type": "function"
        },
        {
            "constant": true,
            "inputs": [],
            "name": "relayHubVersion",
            "outputs": [
                {
                    "name": "",
                    "type": "string"
                }
            ],
            "payable": false,
            "stateMutability": "view",
            "type": "function"
        },
        {
            "constant": false,
            "inputs": [],
            "name": "depositForRelay",
            "outputs": [],
            "payable": true,
            "stateMutability": "payable",
            "type": "function"
        },
        {
            "constant": false,
            "inputs": [
                {
                    "name": "context",
                    "type": "bytes"
                },
                {
                    "name": "success",
                    "type": "bool"
                },
                {
                    "name": "actualCharge",
                    "type": "uint256"
                },
                {
                    "name": "preRetVal",
                    "type": "bytes32"
                }
            ],
            "name": "postRelayedCall",
            "outputs": [],
            "payable": false,
            "stateMutability": "nonpayable",
            "type": "function"
        },
        {
            "constant": true,
            "inputs": [],
            "name": "gsnDepositAddress",
            "outputs": [
                {
                    "name": "",
                    "type": "address"
                }
            ],
            "payable": false,
            "stateMutability": "view",
            "type": "function"
        },
        {
            "constant": true,
            "inputs": [],
            "name": "token",
            "outputs": [
                {
                    "name": "",
                    "type": "address"
                }
            ],
            "payable": false,
            "stateMutability": "view",
            "type": "function"
        },
        {
            "inputs": [
                {
                    "name": "admins",
                    "type": "address"
                }
            ],
            "payable": false,
            "stateMutability": "nonpayable",
            "type": "constructor"
        },
        {
            "anonymous": false,
            "inputs": [
                {
                    "indexed": true,
                    "name": "user",
                    "type": "address"
                },
                {
                    "indexed": false,
                    "name": "rate",
                    "type": "uint256"
                }
            ],
            "name": "RateChange",
            "type": "event"
        },
        {
            "anonymous": false,
            "inputs": [
                {
                    "indexed": true,
                    "name": "oldRelayHub",
                    "type": "address"
                },
                {
                    "indexed": true,
                    "name": "newRelayHub",
                    "type": "address"
                }
            ],
            "name": "RelayHubChanged",
            "type": "event"
        },
        {
            "anonymous": false,
            "inputs": [
                {
                    "indexed": true,
                    "name": "from",
                    "type": "address"
                },
                {
                    "indexed": true,
                    "name": "to",
                    "type": "address"
                },
                {
                    "indexed": false,
                    "name": "value",
                    "type": "uint256"
                }
            ],
            "name": "Transfer",
            "type": "event"
        },
        {
            "anonymous": false,
            "inputs": [
                {
                    "indexed": true,
                    "name": "owner",
                    "type": "address"
                },
                {
                    "indexed": true,
                    "name": "spender",
                    "type": "address"
                },
                {
                    "indexed": false,
                    "name": "value",
                    "type": "uint256"
                }
            ],
            "name": "Approval",
            "type": "event"
        },
        {
            "anonymous": false,
            "inputs": [
                {
                    "indexed": true,
                    "name": "operator",
                    "type": "address"
                },
                {
                    "indexed": true,
                    "name": "from",
                    "type": "address"
                },
                {
                    "indexed": true,
                    "name": "to",
                    "type": "address"
                },
                {
                    "indexed": false,
                    "name": "amount",
                    "type": "uint256"
                },
                {
                    "indexed": false,
                    "name": "data",
                    "type": "bytes"
                },
                {
                    "indexed": false,
                    "name": "operatorData",
                    "type": "bytes"
                }
            ],
            "name": "Sent",
            "type": "event"
        },
        {
            "anonymous": false,
            "inputs": [
                {
                    "indexed": true,
                    "name": "operator",
                    "type": "address"
                },
                {
                    "indexed": true,
                    "name": "to",
                    "type": "address"
                },
                {
                    "indexed": false,
                    "name": "amount",
                    "type": "uint256"
                },
                {
                    "indexed": false,
                    "name": "data",
                    "type": "bytes"
                },
                {
                    "indexed": false,
                    "name": "operatorData",
                    "type": "bytes"
                }
            ],
            "name": "Minted",
            "type": "event"
        },
        {
            "anonymous": false,
            "inputs": [
                {
                    "indexed": true,
                    "name": "operator",
                    "type": "address"
                },
                {
                    "indexed": true,
                    "name": "from",
                    "type": "address"
                },
                {
                    "indexed": false,
                    "name": "amount",
                    "type": "uint256"
                },
                {
                    "indexed": false,
                    "name": "data",
                    "type": "bytes"
                },
                {
                    "indexed": false,
                    "name": "operatorData",
                    "type": "bytes"
                }
            ],
            "name": "Burned",
            "type": "event"
        },
        {
            "anonymous": false,
            "inputs": [
                {
                    "indexed": true,
                    "name": "operator",
                    "type": "address"
                },
                {
                    "indexed": true,
                    "name": "tokenHolder",
                    "type": "address"
                }
            ],
            "name": "AuthorizedOperator",
            "type": "event"
        },
        {
            "anonymous": false,
            "inputs": [
                {
                    "indexed": true,
                    "name": "operator",
                    "type": "address"
                },
                {
                    "indexed": true,
                    "name": "tokenHolder",
                    "type": "address"
                }
            ],
            "name": "RevokedOperator",
            "type": "event"
        },
        {
            "constant": false,
            "inputs": [
                {
                    "name": "_cap",
                    "type": "uint256"
                }
            ],
            "name": "setCap",
            "outputs": [],
            "payable": false,
            "stateMutability": "nonpayable",
            "type": "function"
        },
        {
            "constant": false,
            "inputs": [
                {
                    "name": "_token",
                    "type": "address"
                }
            ],
            "name": "setToken",
            "outputs": [],
            "payable": false,
            "stateMutability": "nonpayable",
            "type": "function"
        },
        {
            "constant": false,
            "inputs": [
                {
                    "name": "_rate",
                    "type": "uint256"
                },
                {
                    "name": "users",
                    "type": "address[]"
                }
            ],
            "name": "setRate",
            "outputs": [],
            "payable": false,
            "stateMutability": "nonpayable",
            "type": "function"
        },
        {
            "constant": false,
            "inputs": [
                {
                    "name": "_cap",
                    "type": "uint256"
                },
                {
                    "name": "users",
                    "type": "address[]"
                }
            ],
            "name": "setUserCap",
            "outputs": [],
            "payable": false,
            "stateMutability": "nonpayable",
            "type": "function"
        },
        {
            "constant": false,
            "inputs": [
                {
                    "name": "newAdmins",
                    "type": "address"
                }
            ],
            "name": "setAdminList",
            "outputs": [],
            "payable": false,
            "stateMutability": "nonpayable",
            "type": "function"
        },
        {
            "constant": false,
            "inputs": [
                {
                    "name": "recipient",
                    "type": "address"
                },
                {
                    "name": "amount",
                    "type": "uint256"
                }
            ],
            "name": "transfer",
            "outputs": [
                {
                    "name": "",
                    "type": "bool"
                }
            ],
            "payable": false,
            "stateMutability": "nonpayable",
            "type": "function"
        },
        {
            "constant": false,
            "inputs": [
                {
                    "name": "recipient",
                    "type": "address"
                },
                {
                    "name": "amount",
                    "type": "uint256"
                },
                {
                    "name": "data",
                    "type": "bytes"
                }
            ],
            "name": "send",
            "outputs": [],
            "payable": false,
            "stateMutability": "nonpayable",
            "type": "function"
        },
        {
            "constant": true,
            "inputs": [
                {
                    "name": "owner",
                    "type": "address"
                }
            ],
            "name": "balanceOf",
            "outputs": [
                {
                    "name": "",
                    "type": "uint256"
                }
            ],
            "payable": false,
            "stateMutability": "view",
            "type": "function"
        },
        {
            "constant": true,
            "inputs": [
                {
                    "name": "from",
                    "type": "address"
                },
                {
                    "name": "to",
                    "type": "address"
                },
                {
                    "name": "amount",
                    "type": "uint256"
                }
            ],
            "name": "canSend",
            "outputs": [
                {
                    "name": "",
                    "type": "bool"
                },
                {
                    "name": "",
                    "type": "string"
                }
            ],
            "payable": false,
            "stateMutability": "view",
            "type": "function"
        },
        {
            "constant": true,
            "inputs": [],
            "name": "name",
            "outputs": [
                {
                    "name": "",
                    "type": "string"
                }
            ],
            "payable": false,
            "stateMutability": "view",
            "type": "function"
        },
        {
            "constant": true,
            "inputs": [],
            "name": "symbol",
            "outputs": [
                {
                    "name": "",
                    "type": "string"
                }
            ],
            "payable": false,
            "stateMutability": "view",
            "type": "function"
        },
        {
            "constant": true,
            "inputs": [],
            "name": "granularity",
            "outputs": [
                {
                    "name": "",
                    "type": "uint256"
                }
            ],
            "payable": false,
            "stateMutability": "view",
            "type": "function"
        },
        {
            "constant": true,
            "inputs": [],
            "name": "totalSupply",
            "outputs": [
                {
                    "name": "",
                    "type": "uint256"
                }
            ],
            "payable": false,
            "stateMutability": "view",
            "type": "function"
        },
        {
            "constant": true,
            "inputs": [
                {
                    "name": "owner",
                    "type": "address"
                },
                {
                    "name": "spender",
                    "type": "address"
                }
            ],
            "name": "allowance",
            "outputs": [
                {
                    "name": "",
                    "type": "uint256"
                }
            ],
            "payable": false,
            "stateMutability": "view",
            "type": "function"
        },
        {
            "constant": false,
            "inputs": [
                {
                    "name": "amount",
                    "type": "uint256"
                },
                {
                    "name": "data",
                    "type": "bytes"
                }
            ],
            "name": "burn",
            "outputs": [],
            "payable": false,
            "stateMutability": "nonpayable",
            "type": "function"
        },
        {
            "constant": true,
            "inputs": [
                {
                    "name": "operator",
                    "type": "address"
                },
                {
                    "name": "tokenHolder",
                    "type": "address"
                }
            ],
            "name": "isOperatorFor",
            "outputs": [
                {
                    "name": "",
                    "type": "bool"
                }
            ],
            "payable": false,
            "stateMutability": "view",
            "type": "function"
        },
        {
            "constant": false,
            "inputs": [
                {
                    "name": "spender",
                    "type": "address"
                },
                {
                    "name": "amount",
                    "type": "uint256"
                }
            ],
            "name": "approve",
            "outputs": [
                {
                    "name": "",
                    "type": "bool"
                }
            ],
            "payable": false,
            "stateMutability": "nonpayable",
            "type": "function"
        },
        {
            "constant": false,
            "inputs": [
                {
                    "name": "sender",
                    "type": "address"
                },
                {
                    "name": "recipient",
                    "type": "address"
                },
                {
                    "name": "amount",
                    "type": "uint256"
                }
            ],
            "name": "transferFrom",
            "outputs": [
                {
                    "name": "",
                    "type": "bool"
                }
            ],
            "payable": false,
            "stateMutability": "nonpayable",
            "type": "function"
        },
        {
            "constant": false,
            "inputs": [
                {
                    "name": "operator",
                    "type": "address"
                }
            ],
            "name": "authorizeOperator",
            "outputs": [],
            "payable": false,
            "stateMutability": "nonpayable",
            "type": "function"
        },
        {
            "constant": false,
            "inputs": [
                {
                    "name": "operator",
                    "type": "address"
                }
            ],
            "name": "revokeOperator",
            "outputs": [],
            "payable": false,
            "stateMutability": "nonpayable",
            "type": "function"
        },
        {
            "constant": true,
            "inputs": [],
            "name": "defaultOperators",
            "outputs": [
                {
                    "name": "",
                    "type": "address[]"
                }
            ],
            "payable": false,
            "stateMutability": "view",
            "type": "function"
        },
        {
            "constant": false,
            "inputs": [
                {
                    "name": "sender",
                    "type": "address"
                },
                {
                    "name": "recipient",
                    "type": "address"
                },
                {
                    "name": "amount",
                    "type": "uint256"
                },
                {
                    "name": "data",
                    "type": "bytes"
                },
                {
                    "name": "operatorData",
                    "type": "bytes"
                }
            ],
            "name": "operatorSend",
            "outputs": [],
            "payable": false,
            "stateMutability": "nonpayable",
            "type": "function"
        },
        {
            "constant": false,
            "inputs": [
                {
                    "name": "account",
                    "type": "address"
                },
                {
                    "name": "amount",
                    "type": "uint256"
                },
                {
                    "name": "data",
                    "type": "bytes"
                },
                {
                    "name": "operatorData",
                    "type": "bytes"
                }
            ],
            "name": "operatorBurn",
            "outputs": [],
            "payable": false,
            "stateMutability": "nonpayable",
            "type": "function"
        }
    ],
    "bytecode": "0x608060405273d216153c06e857cd7f72665e0af1d7d82172f494600160006101000a81548173ffffffffffffffffffffffffffffffffffffffff021916908373ffffffffffffffffffffffffffffffffffffffff1602179055503480156200006657600080fd5b5060405162003b0838038062003b08833981810160405260208110156200008c57600080fd5b810190808051906020019092919050505080806000806101000a81548173ffffffffffffffffffffffffffffffffffffffff021916908373ffffffffffffffffffffffffffffffffffffffff16021790555050604051620000ed9062000152565b604051809103906000f0801580156200010a573d6000803e3d6000fd5b50600260006101000a81548173ffffffffffffffffffffffffffffffffffffffff021916908373ffffffffffffffffffffffffffffffffffffffff1602179055505062000160565b61012780620039e183390190565b61387180620001706000396000f3fe6080604052600436106102195760003560e01c806383947ea011610123578063c4e2c3bd116100ab578063e53117b01161006f578063e53117b0146111e9578063fad8b32a14611240578063fc0c546a14611291578063fc673c4f146112e8578063fe9d9303146113ed57610219565b8063c4e2c3bd14610f2c578063ca8998781461102b578063d95b637114611035578063dd62ed3e146110be578063e06e0e221461114357610219565b8063a5de3619116100f2578063a5de361914610d17578063a9059cbb14610d6e578063aa3dbf3a14610de1578063ac57041114610e71578063ad61ccd514610e9c57610219565b806383947ea0146109b8578063959b8c3f14610b8657806395d89b4114610bd75780639bd9bbc614610c6757610219565b8063355274ea116101a657806355ae2a941161017557806355ae2a94146106ec57806362ad1b831461073d57806370a082311461086257806374e861d6146108c757806380274db71461091e57610219565b8063355274ea146105f65780633ace0b401461062157806347786d3714610686578063556f0dc7146106c157610219565b8063095ea7b3116101ed578063095ea7b31461040f5780630ba9d8ca14610482578063144fa6d7146104e757806318160ddd1461053857806323b872dd1461056357610219565b806257eb281461021e5780630531be92146102ae57806306e485381461031357806306fdde031461037f575b600080fd5b34801561022a57600080fd5b506102ac6004803603604081101561024157600080fd5b81019080803590602001909291908035906020019064010000000081111561026857600080fd5b82018360208201111561027a57600080fd5b8035906020019184602083028401116401000000008311171561029c57600080fd5b909192939192939050505061147d565b005b3480156102ba57600080fd5b506102fd600480360360208110156102d157600080fd5b81019080803573ffffffffffffffffffffffffffffffffffffffff1690602001909291905050506115ef565b6040518082815260200191505060405180910390f35b34801561031f57600080fd5b50610328611607565b6040518080602001828103825283818151815260200191508051906020019060200280838360005b8381101561036b578082015181840152602081019050610350565b505050509050019250505060405180910390f35b34801561038b57600080fd5b50610394611707565b6040518080602001828103825283818151815260200191508051906020019080838360005b838110156103d45780820151818401526020810190506103b9565b50505050905090810190601f1680156104015780820380516001836020036101000a031916815260200191505b509250505060405180910390f35b34801561041b57600080fd5b506104686004803603604081101561043257600080fd5b81019080803573ffffffffffffffffffffffffffffffffffffffff16906020019092919080359060200190929190505050611807565b604051808215151515815260200191505060405180910390f35b34801561048e57600080fd5b506104d1600480360360208110156104a557600080fd5b81019080803573ffffffffffffffffffffffffffffffffffffffff16906020019092919050505061180f565b6040518082815260200191505060405180910390f35b3480156104f357600080fd5b506105366004803603602081101561050a57600080fd5b81019080803573ffffffffffffffffffffffffffffffffffffffff169060200190929190505050611827565b005b34801561054457600080fd5b5061054d61194d565b6040518082815260200191505060405180910390f35b34801561056f57600080fd5b506105dc6004803603606081101561058657600080fd5b81019080803573ffffffffffffffffffffffffffffffffffffffff169060200190929190803573ffffffffffffffffffffffffffffffffffffffff169060200190929190803590602001909291905050506119f7565b604051808215151515815260200191505060405180910390f35b34801561060257600080fd5b5061060b611a00565b6040518082815260200191505060405180910390f35b34801561062d57600080fd5b506106706004803603602081101561064457600080fd5b81019080803573ffffffffffffffffffffffffffffffffffffffff169060200190929190505050611a06565b6040518082815260200191505060405180910390f35b34801561069257600080fd5b506106bf600480360360208110156106a957600080fd5b8101908080359060200190929190505050611a1e565b005b3480156106cd57600080fd5b506106d6611b0a565b6040518082815260200191505060405180910390f35b3480156106f857600080fd5b5061073b6004803603602081101561070f57600080fd5b81019080803573ffffffffffffffffffffffffffffffffffffffff169060200190929190505050611bb4565b005b34801561074957600080fd5b50610860600480360360a081101561076057600080fd5b81019080803573ffffffffffffffffffffffffffffffffffffffff169060200190929190803573ffffffffffffffffffffffffffffffffffffffff16906020019092919080359060200190929190803590602001906401000000008111156107c757600080fd5b8201836020820111156107d957600080fd5b803590602001918460018302840111640100000000831117156107fb57600080fd5b90919293919293908035906020019064010000000081111561081c57600080fd5b82018360208201111561082e57600080fd5b8035906020019184600183028401116401000000008311171561085057600080fd5b9091929391929390505050611ca2565b005b34801561086e57600080fd5b506108b16004803603602081101561088557600080fd5b81019080803573ffffffffffffffffffffffffffffffffffffffff169060200190929190505050611cab565b6040518082815260200191505060405180910390f35b3480156108d357600080fd5b506108dc611e56565b604051808273ffffffffffffffffffffffffffffffffffffffff1673ffffffffffffffffffffffffffffffffffffffff16815260200191505060405180910390f35b34801561092a57600080fd5b506109a26004803603602081101561094157600080fd5b810190808035906020019064010000000081111561095e57600080fd5b82018360208201111561097057600080fd5b8035906020019184600183028401116401000000008311171561099257600080fd5b9091929391929390505050611e80565b6040518082815260200191505060405180910390f35b3480156109c457600080fd5b50610b0460048036036101208110156109dc57600080fd5b81019080803573ffffffffffffffffffffffffffffffffffffffff169060200190929190803573ffffffffffffffffffffffffffffffffffffffff16906020019092919080359060200190640100000000811115610a3957600080fd5b820183602082011115610a4b57600080fd5b80359060200191846001830284011164010000000083111715610a6d57600080fd5b90919293919293908035906020019092919080359060200190929190803590602001909291908035906020019092919080359060200190640100000000811115610ab657600080fd5b820183602082011115610ac857600080fd5b80359060200191846001830284011164010000000083111715610aea57600080fd5b909192939192939080359060200190929190505050611f62565b6040518083815260200180602001828103825283818151815260200191508051906020019080838360005b83811015610b4a578082015181840152602081019050610b2f565b50505050905090810190601f168015610b775780820380516001836020036101000a031916815260200191505b50935050505060405180910390f35b348015610b9257600080fd5b50610bd560048036036020811015610ba957600080fd5b81019080803573ffffffffffffffffffffffffffffffffffffffff169060200190929190505050611f82565b005b348015610be357600080fd5b50610bec611f85565b6040518080602001828103825283818151815260200191508051906020019080838360005b83811015610c2c578082015181840152602081019050610c11565b50505050905090810190601f168015610c595780820380516001836020036101000a031916815260200191505b509250505060405180910390f35b348015610c7357600080fd5b50610d1560048036036060811015610c8a57600080fd5b81019080803573ffffffffffffffffffffffffffffffffffffffff1690602001909291908035906020019092919080359060200190640100000000811115610cd157600080fd5b820183602082011115610ce357600080fd5b80359060200191846001830284011164010000000083111715610d0557600080fd5b9091929391929390505050612085565b005b348015610d2357600080fd5b50610d2c6122af565b604051808273ffffffffffffffffffffffffffffffffffffffff1673ffffffffffffffffffffffffffffffffffffffff16815260200191505060405180910390f35b348015610d7a57600080fd5b50610dc760048036036040811015610d9157600080fd5b81019080803573ffffffffffffffffffffffffffffffffffffffff169060200190929190803590602001909291905050506122d4565b604051808215151515815260200191505060405180910390f35b348015610ded57600080fd5b50610e6f60048036036040811015610e0457600080fd5b810190808035906020019092919080359060200190640100000000811115610e2b57600080fd5b820183602082011115610e3d57600080fd5b80359060200191846020830284011164010000000083111715610e5f57600080fd5b9091929391929390505050612570565b005b348015610e7d57600080fd5b50610e866127f5565b6040518082815260200191505060405180910390f35b348015610ea857600080fd5b50610eb16128bb565b6040518080602001828103825283818151815260200191508051906020019080838360005b83811015610ef1578082015181840152602081019050610ed6565b50505050905090810190601f168015610f1e5780820380516001836020036101000a031916815260200191505b509250505060405180910390f35b348015610f3857600080fd5b50610fa560048036036060811015610f4f57600080fd5b81019080803573ffffffffffffffffffffffffffffffffffffffff169060200190929190803573ffffffffffffffffffffffffffffffffffffffff169060200190929190803590602001909291905050506128f8565b604051808315151515815260200180602001828103825283818151815260200191508051906020019080838360005b83811015610fef578082015181840152602081019050610fd4565b50505050905090810190601f16801561101c5780820380516001836020036101000a031916815260200191505b50935050505060405180910390f35b611033612a7e565b005b34801561104157600080fd5b506110a46004803603604081101561105857600080fd5b81019080803573ffffffffffffffffffffffffffffffffffffffff169060200190929190803573ffffffffffffffffffffffffffffffffffffffff169060200190929190505050612b1f565b604051808215151515815260200191505060405180910390f35b3480156110ca57600080fd5b5061112d600480360360408110156110e157600080fd5b81019080803573ffffffffffffffffffffffffffffffffffffffff169060200190929190803573ffffffffffffffffffffffffffffffffffffffff169060200190929190505050612c37565b6040518082815260200191505060405180910390f35b34801561114f57600080fd5b506111e76004803603608081101561116657600080fd5b810190808035906020019064010000000081111561118357600080fd5b82018360208201111561119557600080fd5b803590602001918460018302840111640100000000831117156111b757600080fd5b90919293919293908035151590602001909291908035906020019092919080359060200190929190505050612d4f565b005b3480156111f557600080fd5b506111fe612e31565b604051808273ffffffffffffffffffffffffffffffffffffffff1673ffffffffffffffffffffffffffffffffffffffff16815260200191505060405180910390f35b34801561124c57600080fd5b5061128f6004803603602081101561126357600080fd5b81019080803573ffffffffffffffffffffffffffffffffffffffff169060200190929190505050612e57565b005b34801561129d57600080fd5b506112a6612e5a565b604051808273ffffffffffffffffffffffffffffffffffffffff1673ffffffffffffffffffffffffffffffffffffffff16815260200191505060405180910390f35b3480156112f457600080fd5b506113eb6004803603608081101561130b57600080fd5b81019080803573ffffffffffffffffffffffffffffffffffffffff169060200190929190803590602001909291908035906020019064010000000081111561135257600080fd5b82018360208201111561136457600080fd5b8035906020019184600183028401116401000000008311171561138657600080fd5b9091929391929390803590602001906401000000008111156113a757600080fd5b8201836020820111156113b957600080fd5b803590602001918460018302840111640100000000831117156113db57600080fd5b9091929391929390505050612e80565b005b3480156113f957600080fd5b5061147b6004803603604081101561141057600080fd5b81019080803590602001909291908035906020019064010000000081111561143757600080fd5b82018360208201111561144957600080fd5b8035906020019184600183028401116401000000008311171561146b57600080fd5b9091929391929390505050612e88565b005b6000809054906101000a900473ffffffffffffffffffffffffffffffffffffffff1673ffffffffffffffffffffffffffffffffffffffff16633af32abf336040518263ffffffff1660e01b8152600401808273ffffffffffffffffffffffffffffffffffffffff1673ffffffffffffffffffffffffffffffffffffffff16815260200191505060206040518083038186803b15801561151b57600080fd5b505afa15801561152f573d6000803e3d6000fd5b505050506040513d602081101561154557600080fd5b810190808051906020019092919050505061155f57600080fd5b60008090505b828290508110156115e957836006600085858581811061158157fe5b9050602002013573ffffffffffffffffffffffffffffffffffffffff1673ffffffffffffffffffffffffffffffffffffffff1673ffffffffffffffffffffffffffffffffffffffff168152602001908152602001600020819055508080600101915050611565565b50505050565b60046020528060005260406000206000915090505481565b6060600360009054906101000a900473ffffffffffffffffffffffffffffffffffffffff1673ffffffffffffffffffffffffffffffffffffffff166306e485386040518163ffffffff1660e01b815260040160006040518083038186803b15801561167157600080fd5b505afa158015611685573d6000803e3d6000fd5b505050506040513d6000823e3d601f19601f8201168201806040525060208110156116af57600080fd5b8101908080516401000000008111156116c757600080fd5b828101905060208101848111156116dd57600080fd5b81518560208202830111640100000000821117156116fa57600080fd5b5050929190505050905090565b6060600360009054906101000a900473ffffffffffffffffffffffffffffffffffffffff1673ffffffffffffffffffffffffffffffffffffffff166306fdde036040518163ffffffff1660e01b815260040160006040518083038186803b15801561177157600080fd5b505afa158015611785573d6000803e3d6000fd5b505050506040513d6000823e3d601f19601f8201168201806040525060208110156117af57600080fd5b8101908080516401000000008111156117c757600080fd5b828101905060208101848111156117dd57600080fd5b81518560018202830111640100000000821117156117fa57600080fd5b5050929190505050905090565b600092915050565b60056020528060005260406000206000915090505481565b6000809054906101000a900473ffffffffffffffffffffffffffffffffffffffff1673ffffffffffffffffffffffffffffffffffffffff16633af32abf336040518263ffffffff1660e01b8152600401808273ffffffffffffffffffffffffffffffffffffffff1673ffffffffffffffffffffffffffffffffffffffff16815260200191505060206040518083038186803b1580156118c557600080fd5b505afa1580156118d9573d6000803e3d6000fd5b505050506040513d60208110156118ef57600080fd5b810190808051906020019092919050505061190957600080fd5b80600360006101000a81548173ffffffffffffffffffffffffffffffffffffffff021916908373ffffffffffffffffffffffffffffffffffffffff16021790555050565b6000600360009054906101000a900473ffffffffffffffffffffffffffffffffffffffff1673ffffffffffffffffffffffffffffffffffffffff166318160ddd6040518163ffffffff1660e01b815260040160206040518083038186803b1580156119b757600080fd5b505afa1580156119cb573d6000803e3d6000fd5b505050506040513d60208110156119e157600080fd5b8101908080519060200190929190505050905090565b60009392505050565b60075481565b60066020528060005260406000206000915090505481565b6000809054906101000a900473ffffffffffffffffffffffffffffffffffffffff1673ffffffffffffffffffffffffffffffffffffffff16633af32abf336040518263ffffffff1660e01b8152600401808273ffffffffffffffffffffffffffffffffffffffff1673ffffffffffffffffffffffffffffffffffffffff16815260200191505060206040518083038186803b158015611abc57600080fd5b505afa158015611ad0573d6000803e3d6000fd5b505050506040513d6020811015611ae657600080fd5b8101908080519060200190929190505050611b0057600080fd5b8060078190555050565b6000600360009054906101000a900473ffffffffffffffffffffffffffffffffffffffff1673ffffffffffffffffffffffffffffffffffffffff1663556f0dc76040518163ffffffff1660e01b815260040160206040518083038186803b158015611b7457600080fd5b505afa158015611b88573d6000803e3d6000fd5b505050506040513d6020811015611b9e57600080fd5b8101908080519060200190929190505050905090565b6000809054906101000a900473ffffffffffffffffffffffffffffffffffffffff1673ffffffffffffffffffffffffffffffffffffffff16633af32abf336040518263ffffffff1660e01b8152600401808273ffffffffffffffffffffffffffffffffffffffff1673ffffffffffffffffffffffffffffffffffffffff16815260200191505060206040518083038186803b158015611c5257600080fd5b505afa158015611c66573d6000803e3d6000fd5b505050506040513d6020811015611c7c57600080fd5b8101908080519060200190929190505050611c9657600080fd5b611c9f8161302a565b50565b50505050505050565b600080600360009054906101000a900473ffffffffffffffffffffffffffffffffffffffff1673ffffffffffffffffffffffffffffffffffffffff166370a08231846040518263ffffffff1660e01b8152600401808273ffffffffffffffffffffffffffffffffffffffff1673ffffffffffffffffffffffffffffffffffffffff16815260200191505060206040518083038186803b158015611d4d57600080fd5b505afa158015611d61573d6000803e3d6000fd5b505050506040513d6020811015611d7757600080fd5b81019080805190602001909291905050509050600060075414158015611d9e575060075481115b15611dac5780915050611e51565b6000600560008573ffffffffffffffffffffffffffffffffffffffff1673ffffffffffffffffffffffffffffffffffffffff16815260200190815260200160002054600460008673ffffffffffffffffffffffffffffffffffffffff1673ffffffffffffffffffffffffffffffffffffffff1681526020019081526020016000205442030282019050600754811115611e4b5760075492505050611e51565b80925050505b919050565b6000600160009054906101000a900473ffffffffffffffffffffffffffffffffffffffff16905090565b6000611e8a611e56565b73ffffffffffffffffffffffffffffffffffffffff163373ffffffffffffffffffffffffffffffffffffffff1614611f0d576040517f08c379a00000000000000000000000000000000000000000000000000000000081526004018080602001828103825260248152602001806138196024913960400191505060405180910390fd5b611f5a83838080601f016020809104026020016040519081016040528093929190818152602001838380828437600081840152601f19601f8201169050808301925050505050505061306d565b905092915050565b60006060611f6e613074565b915091509b509b9950505050505050505050565b50565b6060600360009054906101000a900473ffffffffffffffffffffffffffffffffffffffff1673ffffffffffffffffffffffffffffffffffffffff166395d89b416040518163ffffffff1660e01b815260040160006040518083038186803b158015611fef57600080fd5b505afa158015612003573d6000803e3d6000fd5b505050506040513d6000823e3d601f19601f82011682018060405250602081101561202d57600080fd5b81019080805164010000000081111561204557600080fd5b8281019050602081018481111561205b57600080fd5b815185600182028301116401000000008211171561207857600080fd5b5050929190505050905090565b600061208f613098565b905061209a81613105565b42600460008373ffffffffffffffffffffffffffffffffffffffff1673ffffffffffffffffffffffffffffffffffffffff16815260200190815260200160002081905550600360009054906101000a900473ffffffffffffffffffffffffffffffffffffffff1673ffffffffffffffffffffffffffffffffffffffff166362ad1b83828787878760006040519080825280601f01601f1916602001820160405280156121555781602001600182028038833980820191505090505b506040518763ffffffff1660e01b8152600401808773ffffffffffffffffffffffffffffffffffffffff1673ffffffffffffffffffffffffffffffffffffffff1681526020018673ffffffffffffffffffffffffffffffffffffffff1673ffffffffffffffffffffffffffffffffffffffff16815260200185815260200180602001806020018381038352868682818152602001925080828437600081840152601f19601f820116905080830192505050838103825284818151815260200191508051906020019080838360005b8381101561223e578082015181840152602081019050612223565b50505050905090810190601f16801561226b5780820380516001836020036101000a031916815260200191505b5098505050505050505050600060405180830381600087803b15801561229057600080fd5b505af11580156122a4573d6000803e3d6000fd5b505050505050505050565b6000809054906101000a900473ffffffffffffffffffffffffffffffffffffffff1681565b6000806122df613098565b90506122ea81613105565b42600460008373ffffffffffffffffffffffffffffffffffffffff1673ffffffffffffffffffffffffffffffffffffffff16815260200190815260200160002081905550600360009054906101000a900473ffffffffffffffffffffffffffffffffffffffff1673ffffffffffffffffffffffffffffffffffffffff166362ad1b8382868660006040519080825280601f01601f1916602001820160405280156123a35781602001600182028038833980820191505090505b5060006040519080825280601f01601f1916602001820160405280156123d85781602001600182028038833980820191505090505b506040518663ffffffff1660e01b8152600401808673ffffffffffffffffffffffffffffffffffffffff1673ffffffffffffffffffffffffffffffffffffffff1681526020018573ffffffffffffffffffffffffffffffffffffffff1673ffffffffffffffffffffffffffffffffffffffff1681526020018481526020018060200180602001838103835285818151815260200191508051906020019080838360005b8381101561249657808201518184015260208101905061247b565b50505050905090810190601f1680156124c35780820380516001836020036101000a031916815260200191505b50838103825284818151815260200191508051906020019080838360005b838110156124fc5780820151818401526020810190506124e1565b50505050905090810190601f1680156125295780820380516001836020036101000a031916815260200191505b50975050505050505050600060405180830381600087803b15801561254d57600080fd5b505af1158015612561573d6000803e3d6000fd5b50505050600191505092915050565b6000809054906101000a900473ffffffffffffffffffffffffffffffffffffffff1673ffffffffffffffffffffffffffffffffffffffff16633af32abf336040518263ffffffff1660e01b8152600401808273ffffffffffffffffffffffffffffffffffffffff1673ffffffffffffffffffffffffffffffffffffffff16815260200191505060206040518083038186803b15801561260e57600080fd5b505afa158015612622573d6000803e3d6000fd5b505050506040513d602081101561263857600080fd5b810190808051906020019092919050505061265257600080fd5b60008090505b828290508110156127ef5761269483838381811061267257fe5b9050602002013573ffffffffffffffffffffffffffffffffffffffff16613105565b83600560008585858181106126a557fe5b9050602002013573ffffffffffffffffffffffffffffffffffffffff1673ffffffffffffffffffffffffffffffffffffffff1673ffffffffffffffffffffffffffffffffffffffff16815260200190815260200160002081905550426004600085858581811061271157fe5b9050602002013573ffffffffffffffffffffffffffffffffffffffff1673ffffffffffffffffffffffffffffffffffffffff1673ffffffffffffffffffffffffffffffffffffffff1681526020019081526020016000208190555082828281811061277857fe5b9050602002013573ffffffffffffffffffffffffffffffffffffffff1673ffffffffffffffffffffffffffffffffffffffff167ffa9eee6b142afc22a1af1f2aa5676c202fd1aa4138fde6a13484e6dc6b3f4ac1856040518082815260200191505060405180910390a28080600101915050612658565b50505050565b60006127ff6134a8565b73ffffffffffffffffffffffffffffffffffffffff166370a08231306040518263ffffffff1660e01b8152600401808273ffffffffffffffffffffffffffffffffffffffff1673ffffffffffffffffffffffffffffffffffffffff16815260200191505060206040518083038186803b15801561287b57600080fd5b505afa15801561288f573d6000803e3d6000fd5b505050506040513d60208110156128a557600080fd5b8101908080519060200190929190505050905090565b60606040518060400160405280600581526020017f312e302e30000000000000000000000000000000000000000000000000000000815250905090565b60006060600360009054906101000a900473ffffffffffffffffffffffffffffffffffffffff1673ffffffffffffffffffffffffffffffffffffffff1663c4e2c3bd8686866040518463ffffffff1660e01b8152600401808473ffffffffffffffffffffffffffffffffffffffff1673ffffffffffffffffffffffffffffffffffffffff1681526020018373ffffffffffffffffffffffffffffffffffffffff1673ffffffffffffffffffffffffffffffffffffffff168152602001828152602001935050505060006040518083038186803b1580156129d757600080fd5b505afa1580156129eb573d6000803e3d6000fd5b505050506040513d6000823e3d601f19601f820116820180604052506040811015612a1557600080fd5b81019080805190602001909291908051640100000000811115612a3757600080fd5b82810190506020810184811115612a4d57600080fd5b8151856001820283011164010000000082111715612a6a57600080fd5b505092919050505091509150935093915050565b612a866134a8565b73ffffffffffffffffffffffffffffffffffffffff1663aa67c91934306040518363ffffffff1660e01b8152600401808273ffffffffffffffffffffffffffffffffffffffff1673ffffffffffffffffffffffffffffffffffffffff1681526020019150506000604051808303818588803b158015612b0457600080fd5b505af1158015612b18573d6000803e3d6000fd5b5050505050565b6000600360009054906101000a900473ffffffffffffffffffffffffffffffffffffffff1673ffffffffffffffffffffffffffffffffffffffff1663d95b637184846040518363ffffffff1660e01b8152600401808373ffffffffffffffffffffffffffffffffffffffff1673ffffffffffffffffffffffffffffffffffffffff1681526020018273ffffffffffffffffffffffffffffffffffffffff1673ffffffffffffffffffffffffffffffffffffffff1681526020019250505060206040518083038186803b158015612bf457600080fd5b505afa158015612c08573d6000803e3d6000fd5b505050506040513d6020811015612c1e57600080fd5b8101908080519060200190929190505050905092915050565b6000600360009054906101000a900473ffffffffffffffffffffffffffffffffffffffff1673ffffffffffffffffffffffffffffffffffffffff1663dd62ed3e84846040518363ffffffff1660e01b8152600401808373ffffffffffffffffffffffffffffffffffffffff1673ffffffffffffffffffffffffffffffffffffffff1681526020018273ffffffffffffffffffffffffffffffffffffffff1673ffffffffffffffffffffffffffffffffffffffff1681526020019250505060206040518083038186803b158015612d0c57600080fd5b505afa158015612d20573d6000803e3d6000fd5b505050506040513d6020811015612d3657600080fd5b8101908080519060200190929190505050905092915050565b612d57611e56565b73ffffffffffffffffffffffffffffffffffffffff163373ffffffffffffffffffffffffffffffffffffffff1614612dda576040517f08c379a00000000000000000000000000000000000000000000000000000000081526004018080602001828103825260248152602001806138196024913960400191505060405180910390fd5b612e2a85858080601f016020809104026020016040519081016040528093929190818152602001838380828437600081840152601f19601f820116905080830192505050505050508484846134b7565b5050505050565b600260009054906101000a900473ffffffffffffffffffffffffffffffffffffffff1681565b50565b600360009054906101000a900473ffffffffffffffffffffffffffffffffffffffff1681565b505050505050565b600360009054906101000a900473ffffffffffffffffffffffffffffffffffffffff1673ffffffffffffffffffffffffffffffffffffffff1663fc673c4f612ece613098565b85858560006040519080825280601f01601f191660200182016040528015612f055781602001600182028038833980820191505090505b506040518663ffffffff1660e01b8152600401808673ffffffffffffffffffffffffffffffffffffffff1673ffffffffffffffffffffffffffffffffffffffff16815260200185815260200180602001806020018381038352868682818152602001925080828437600081840152601f19601f820116905080830192505050838103825284818151815260200191508051906020019080838360005b83811015612fbc578082015181840152602081019050612fa1565b50505050905090810190601f168015612fe95780820380516001836020036101000a031916815260200191505b50975050505050505050600060405180830381600087803b15801561300d57600080fd5b505af1158015613021573d6000803e3d6000fd5b50505050505050565b806000806101000a81548173ffffffffffffffffffffffffffffffffffffffff021916908373ffffffffffffffffffffffffffffffffffffffff16021790555050565b6000919050565b60006060613090604051806020016040528060008152506134bd565b915091509091565b6000600160009054906101000a900473ffffffffffffffffffffffffffffffffffffffff1673ffffffffffffffffffffffffffffffffffffffff163373ffffffffffffffffffffffffffffffffffffffff16146130f757339050613102565b6130ff6134cd565b90505b90565b6000600560008373ffffffffffffffffffffffffffffffffffffffff1673ffffffffffffffffffffffffffffffffffffffff168152602001908152602001600020541415613152576134a5565b6000600360009054906101000a900473ffffffffffffffffffffffffffffffffffffffff1673ffffffffffffffffffffffffffffffffffffffff166370a08231836040518263ffffffff1660e01b8152600401808273ffffffffffffffffffffffffffffffffffffffff1673ffffffffffffffffffffffffffffffffffffffff16815260200191505060206040518083038186803b1580156131f357600080fd5b505afa158015613207573d6000803e3d6000fd5b505050506040513d602081101561321d57600080fd5b81019080805190602001909291905050509050600061323b83613545565b905060008111801561324c57508082115b156132585750506134a5565b60006132ac600460008673ffffffffffffffffffffffffffffffffffffffff1673ffffffffffffffffffffffffffffffffffffffff16815260200190815260200160002054426135df90919063ffffffff16565b90506000613302600560008773ffffffffffffffffffffffffffffffffffffffff1673ffffffffffffffffffffffffffffffffffffffff168152602001908152602001600020548361362990919063ffffffff16565b90508261331885836136af90919063ffffffff16565b11156133345761333184846135df90919063ffffffff16565b90505b60008111156134a057600360009054906101000a900473ffffffffffffffffffffffffffffffffffffffff1673ffffffffffffffffffffffffffffffffffffffff166394d008ef868360006040519080825280601f01601f1916602001820160405280156133b15781602001600182028038833980820191505090505b506040518463ffffffff1660e01b8152600401808473ffffffffffffffffffffffffffffffffffffffff1673ffffffffffffffffffffffffffffffffffffffff16815260200183815260200180602001828103825283818151815260200191508051906020019080838360005b8381101561343957808201518184015260208101905061341e565b50505050905090810190601f1680156134665780820380516001836020036101000a031916815260200191505b50945050505050600060405180830381600087803b15801561348757600080fd5b505af115801561349b573d6000803e3d6000fd5b505050505b505050505b50565b60006134b2611e56565b905090565b50505050565b6000606060008391509150915091565b600060606000368080601f016020809104026020016040519081016040528093929190818152602001838380828437600081840152601f19601f820116905080830192505050505050509050600080369050905073ffffffffffffffffffffffffffffffffffffffff81830151169250829250505090565b600080600660008473ffffffffffffffffffffffffffffffffffffffff1673ffffffffffffffffffffffffffffffffffffffff16815260200190815260200160002054146135d457600660008373ffffffffffffffffffffffffffffffffffffffff1673ffffffffffffffffffffffffffffffffffffffff1681526020019081526020016000205490506135da565b60075490505b919050565b600061362183836040518060400160405280601e81526020017f536166654d6174683a207375627472616374696f6e206f766572666c6f770000815250613737565b905092915050565b60008083141561363c57600090506136a9565b600082840290508284828161364d57fe5b04146136a4576040517f08c379a00000000000000000000000000000000000000000000000000000000081526004018080602001828103825260218152602001806137f86021913960400191505060405180910390fd5b809150505b92915050565b60008082840190508381101561372d576040517f08c379a000000000000000000000000000000000000000000000000000000000815260040180806020018281038252601b8152602001807f536166654d6174683a206164646974696f6e206f766572666c6f77000000000081525060200191505060405180910390fd5b8091505092915050565b60008383111582906137e4576040517f08c379a00000000000000000000000000000000000000000000000000000000081526004018080602001828103825283818151815260200191508051906020019080838360005b838110156137a957808201518184015260208101905061378e565b50505050905090810190601f1680156137d65780820380516001836020036101000a031916815260200191505b509250505060405180910390fd5b506000838503905080915050939250505056fe536166654d6174683a206d756c7469706c69636174696f6e206f766572666c6f7747534e526563697069656e743a2063616c6c6572206973206e6f742052656c6179487562a265627a7a72305820079da69bb642dd0df6abfc4fb331933ff5a1ce23cdf8b7ff1fd808341eaa90cc64736f6c634300050a0032608060405234801561001057600080fd5b50336000806101000a81548173ffffffffffffffffffffffffffffffffffffffff021916908373ffffffffffffffffffffffffffffffffffffffff16021790555060c88061005f6000396000f3fe60806040526000341415601157600080fd5b6000809054906101000a900473ffffffffffffffffffffffffffffffffffffffff1673ffffffffffffffffffffffffffffffffffffffff1663ca899878346040518263ffffffff1660e01b81526004016000604051808303818588803b158015607957600080fd5b505af1158015608c573d6000803e3d6000fd5b505050505000fea265627a7a72305820b7ee47bc8541675b62ca84340a770528622d9702e4ca419cd866e018d41228a464736f6c634300050a0032",
    "source": "pragma solidity ^0.5.0;\n\nimport \"openzeppelin-solidity/contracts/math/SafeMath.sol\";\nimport \"openzeppelin-solidity/contracts/GSN/Context.sol\";\nimport \"openzeppelin-solidity/contracts/token/ERC777/IERC777.sol\";\nimport \"openzeppelin-solidity/contracts/token/ERC20/IERC20.sol\";\nimport './Admins.sol';\nimport './IMintableToken.sol';\nimport './IWhitelist.sol';\nimport './FreeGas.sol';\n\ncontract Faucet is Context, IERC777, IERC20, Admins, FreeGas {\n  IMintableToken public token;\n  using SafeMath for uint256;\n\n  event RateChange(address indexed user, uint256 rate);\n\n  mapping(address => uint256) public lastTransaction;\n  mapping(address => uint256) public rate;\n  mapping(address => uint256) public userCap;\n  uint256 public cap;\n\n  constructor(IWhitelist admins) public Admins(admins) {}\n\n  function setCap(uint256 _cap) external onlyAdmins {\n    cap = _cap;\n  }\n\n  function setToken(IMintableToken _token) external onlyAdmins {\n    token = _token;\n  }\n\n  function setRate(uint256 _rate, address[] calldata users) external onlyAdmins {\n    for(uint i = 0; i < users.length; i++) {\n      _mint(users[i]);\n      rate[users[i]] = _rate;\n      lastTransaction[users[i]] = now;\n      emit RateChange(users[i], _rate);\n    }\n  }\n\n  function setUserCap(uint256 _cap, address[] calldata users) external onlyAdmins {\n    for(uint i = 0; i < users.length; i++) {\n      userCap[users[i]] = _cap;\n    }\n  }\n\n  function setAdminList(IWhitelist newAdmins) external onlyAdmins {\n    _setAdminList(newAdmins);\n  }\n\n  function transfer(address recipient, uint256 amount) external returns (bool) {\n    address sender = _msgSender();\n    _mint(sender);\n\n    lastTransaction[sender] = now;\n    token.operatorSend(sender, recipient, amount, new bytes(0), new bytes(0));\n    return true;\n  }\n\n  function send(address recipient, uint256 amount, bytes calldata data) external {\n    address sender = _msgSender();\n    _mint(sender);\n\n    lastTransaction[sender] = now;\n    token.operatorSend(sender, recipient, amount, data, new bytes(0));\n  }\n\n  function _mint(address user) private {\n    if(rate[user] == 0) {\n      return;\n    }\n\n    uint256 currentBalance = token.balanceOf(user);\n    uint256 _cap = getCap(user);\n    if (_cap > 0 && currentBalance > _cap) {\n      return;\n    }\n\n    uint256 time = now.sub(lastTransaction[user]);\n    uint256 newTokens = time.mul(rate[user]);\n\n    if (newTokens.add(currentBalance) > _cap) {\n      newTokens = _cap.sub(currentBalance);\n    }\n\n    if (newTokens > 0) {\n      token.mint(user, newTokens, new bytes(0));\n    }\n  }\n\n  function getCap(address user) private view returns (uint256) {\n    if (userCap[user] != 0) {\n      return userCap[user];\n    }\n\n    return cap;\n  }\n\n  function balanceOf(address owner) external view returns (uint256) {\n    uint256 currentBalance = token.balanceOf(owner);\n    if (cap != 0 && currentBalance > cap) {\n      return currentBalance;\n    }\n\n    uint256 adjustedBalance = currentBalance + ((now - lastTransaction[owner]) * rate[owner]);\n\n    if (adjustedBalance > cap) {\n      return cap;\n    }\n\n    return adjustedBalance;\n  }\n\n  function canSend(\n    address from,\n    address to,\n    uint256 amount\n  ) external view returns (bool, string memory) {\n    return token.canSend(from, to, amount);\n  }\n\n\n  function name() external view returns (string memory) {\n    return token.name();\n  }\n  function symbol() external view returns (string memory) {\n    return token.symbol();\n  }\n  function granularity() external view returns (uint256) {\n    return token.granularity();\n  }\n  function totalSupply() external view returns (uint256) {\n    return token.totalSupply();\n  }\n  function allowance(address owner, address spender) external view returns (uint256) {\n    return token.allowance(owner, spender);\n  }\n  function burn(uint256 amount, bytes calldata data) external {\n    token.operatorBurn(_msgSender(), amount, data, new bytes(0));\n  }\n  function isOperatorFor(address operator, address tokenHolder) external view returns (bool) {\n    return token.isOperatorFor(operator, tokenHolder);\n  }\n  function approve(address spender, uint256 amount) external returns (bool) {}\n  function transferFrom(address sender, address recipient, uint256 amount) external returns (bool) {}\n  function authorizeOperator(address operator) external {}\n  function revokeOperator(address operator) external {}\n  function defaultOperators() external view returns (address[] memory) {\n    return token.defaultOperators();\n  }\n  function operatorSend(\n    address sender,\n    address recipient,\n    uint256 amount,\n    bytes calldata data,\n    bytes calldata operatorData\n  ) external {}\n  function operatorBurn(\n    address account,\n    uint256 amount,\n    bytes calldata data,\n    bytes calldata operatorData\n  ) external {}\n}\n",
    "sourcePath": "/home/rmoore/Projects/ethdenver-burner-wallet/contracts/contracts/Faucet.sol",
    "compiler": {
        "name": "solc",
        "version": "0.5.10+commit.5a6ea5b1.Emscripten.clang"
    },
    "schemaVersion": "3.0.15",
    "updatedAt": "2020-02-13T23:25:47.814Z",
    "devdoc": {
        "methods": {
            "getHubAddr()": {
                "details": "Returns the address of the {IRelayHub} contract for this recipient."
            },
            "postRelayedCall(bytes,bool,uint256,bytes32)": {
                "details": "See `IRelayRecipient.postRelayedCall`.     * This function should not be overriden directly, use `_postRelayedCall` instead.     * * Requirements:     * - the caller must be the `RelayHub` contract."
            },
            "preRelayedCall(bytes)": {
                "details": "See `IRelayRecipient.preRelayedCall`.     * This function should not be overriden directly, use `_preRelayedCall` instead.     * * Requirements:     * - the caller must be the `RelayHub` contract."
            },
            "relayHubVersion()": {
                "details": "Returns the version string of the {IRelayHub} for which this recipient implementation was built. If {_upgradeRelayHub} is used, the new {IRelayHub} instance should be compatible with this version."
            }
        }
    },
    "userdoc": {
        "methods": {}
    }
}