{
    "contractName": "FreeGas",
    "abi": [
        {
            "constant": true,
            "inputs": [],
            "name": "getHubAddr",
            "outputs": [
                {
                    "name": "",
                    "type": "address"
                }
            ],
            "payable": false,
            "stateMutability": "view",
            "type": "function"
        },
        {
            "constant": false,
            "inputs": [
                {
                    "name": "context",
                    "type": "bytes"
                }
            ],
            "name": "preRelayedCall",
            "outputs": [
                {
                    "name": "",
                    "type": "bytes32"
                }
            ],
            "payable": false,
            "stateMutability": "nonpayable",
            "type": "function"
        },
        {
            "constant": true,
            "inputs": [],
            "name": "relayHubVersion",
            "outputs": [
                {
                    "name": "",
                    "type": "string"
                }
            ],
            "payable": false,
            "stateMutability": "view",
            "type": "function"
        },
        {
            "constant": false,
            "inputs": [
                {
                    "name": "context",
                    "type": "bytes"
                },
                {
                    "name": "success",
                    "type": "bool"
                },
                {
                    "name": "actualCharge",
                    "type": "uint256"
                },
                {
                    "name": "preRetVal",
                    "type": "bytes32"
                }
            ],
            "name": "postRelayedCall",
            "outputs": [],
            "payable": false,
            "stateMutability": "nonpayable",
            "type": "function"
        },
        {
            "constant": true,
            "inputs": [],
            "name": "gsnDepositAddress",
            "outputs": [
                {
                    "name": "",
                    "type": "address"
                }
            ],
            "payable": false,
            "stateMutability": "view",
            "type": "function"
        },
        {
            "inputs": [],
            "payable": false,
            "stateMutability": "nonpayable",
            "type": "constructor"
        },
        {
            "anonymous": false,
            "inputs": [
                {
                    "indexed": true,
                    "name": "oldRelayHub",
                    "type": "address"
                },
                {
                    "indexed": true,
                    "name": "newRelayHub",
                    "type": "address"
                }
            ],
            "name": "RelayHubChanged",
            "type": "event"
        },
        {
            "constant": true,
            "inputs": [
                {
                    "name": "",
                    "type": "address"
                },
                {
                    "name": "",
                    "type": "address"
                },
                {
                    "name": "",
                    "type": "bytes"
                },
                {
                    "name": "",
                    "type": "uint256"
                },
                {
                    "name": "",
                    "type": "uint256"
                },
                {
                    "name": "",
                    "type": "uint256"
                },
                {
                    "name": "",
                    "type": "uint256"
                },
                {
                    "name": "",
                    "type": "bytes"
                },
                {
                    "name": "",
                    "type": "uint256"
                }
            ],
            "name": "acceptRelayedCall",
            "outputs": [
                {
                    "name": "",
                    "type": "uint256"
                },
                {
                    "name": "",
                    "type": "bytes"
                }
            ],
            "payable": false,
            "stateMutability": "view",
            "type": "function"
        },
        {
            "constant": true,
            "inputs": [],
            "name": "getRecipientBalance",
            "outputs": [
                {
                    "name": "",
                    "type": "uint256"
                }
            ],
            "payable": false,
            "stateMutability": "view",
            "type": "function"
        },
        {
            "constant": false,
            "inputs": [],
            "name": "depositForRelay",
            "outputs": [],
            "payable": true,
            "stateMutability": "payable",
            "type": "function"
        }
    ],
    "bytecode": "0x608060405273d216153c06e857cd7f72665e0af1d7d82172f4946000806101000a81548173ffffffffffffffffffffffffffffffffffffffff021916908373ffffffffffffffffffffffffffffffffffffffff16021790555034801561006457600080fd5b50604051610071906100d3565b604051809103906000f08015801561008d573d6000803e3d6000fd5b50600160006101000a81548173ffffffffffffffffffffffffffffffffffffffff021916908373ffffffffffffffffffffffffffffffffffffffff1602179055506100e0565b61012780610a7083390190565b610981806100ef6000396000f3fe60806040526004361061007b5760003560e01c8063ad61ccd51161004e578063ad61ccd51461036a578063ca899878146103fa578063e06e0e2214610404578063e53117b0146104aa5761007b565b806374e861d61461008057806380274db7146100d757806383947ea014610171578063ac5704111461033f575b600080fd5b34801561008c57600080fd5b50610095610501565b604051808273ffffffffffffffffffffffffffffffffffffffff1673ffffffffffffffffffffffffffffffffffffffff16815260200191505060405180910390f35b3480156100e357600080fd5b5061015b600480360360208110156100fa57600080fd5b810190808035906020019064010000000081111561011757600080fd5b82018360208201111561012957600080fd5b8035906020019184600183028401116401000000008311171561014b57600080fd5b909192939192939050505061052a565b6040518082815260200191505060405180910390f35b34801561017d57600080fd5b506102bd600480360361012081101561019557600080fd5b81019080803573ffffffffffffffffffffffffffffffffffffffff169060200190929190803573ffffffffffffffffffffffffffffffffffffffff169060200190929190803590602001906401000000008111156101f257600080fd5b82018360208201111561020457600080fd5b8035906020019184600183028401116401000000008311171561022657600080fd5b9091929391929390803590602001909291908035906020019092919080359060200190929190803590602001909291908035906020019064010000000081111561026f57600080fd5b82018360208201111561028157600080fd5b803590602001918460018302840111640100000000831117156102a357600080fd5b90919293919293908035906020019092919050505061060c565b6040518083815260200180602001828103825283818151815260200191508051906020019080838360005b838110156103035780820151818401526020810190506102e8565b50505050905090810190601f1680156103305780820380516001836020036101000a031916815260200191505b50935050505060405180910390f35b34801561034b57600080fd5b5061035461062c565b6040518082815260200191505060405180910390f35b34801561037657600080fd5b5061037f6106f2565b6040518080602001828103825283818151815260200191508051906020019080838360005b838110156103bf5780820151818401526020810190506103a4565b50505050905090810190601f1680156103ec5780820380516001836020036101000a031916815260200191505b509250505060405180910390f35b61040261072f565b005b34801561041057600080fd5b506104a86004803603608081101561042757600080fd5b810190808035906020019064010000000081111561044457600080fd5b82018360208201111561045657600080fd5b8035906020019184600183028401116401000000008311171561047857600080fd5b909192939192939080351515906020019092919080359060200190929190803590602001909291905050506107d0565b005b3480156104b657600080fd5b506104bf6108b2565b604051808273ffffffffffffffffffffffffffffffffffffffff1673ffffffffffffffffffffffffffffffffffffffff16815260200191505060405180910390f35b60008060009054906101000a900473ffffffffffffffffffffffffffffffffffffffff16905090565b6000610534610501565b73ffffffffffffffffffffffffffffffffffffffff163373ffffffffffffffffffffffffffffffffffffffff16146105b7576040517f08c379a00000000000000000000000000000000000000000000000000000000081526004018080602001828103825260248152602001806109296024913960400191505060405180910390fd5b61060483838080601f016020809104026020016040519081016040528093929190818152602001838380828437600081840152601f19601f820116905080830192505050505050506108d8565b905092915050565b600060606106186108df565b915091509b509b9950505050505050505050565b6000610636610903565b73ffffffffffffffffffffffffffffffffffffffff166370a08231306040518263ffffffff1660e01b8152600401808273ffffffffffffffffffffffffffffffffffffffff1673ffffffffffffffffffffffffffffffffffffffff16815260200191505060206040518083038186803b1580156106b257600080fd5b505afa1580156106c6573d6000803e3d6000fd5b505050506040513d60208110156106dc57600080fd5b8101908080519060200190929190505050905090565b60606040518060400160405280600581526020017f312e302e30000000000000000000000000000000000000000000000000000000815250905090565b610737610903565b73ffffffffffffffffffffffffffffffffffffffff1663aa67c91934306040518363ffffffff1660e01b8152600401808273ffffffffffffffffffffffffffffffffffffffff1673ffffffffffffffffffffffffffffffffffffffff1681526020019150506000604051808303818588803b1580156107b557600080fd5b505af11580156107c9573d6000803e3d6000fd5b5050505050565b6107d8610501565b73ffffffffffffffffffffffffffffffffffffffff163373ffffffffffffffffffffffffffffffffffffffff161461085b576040517f08c379a00000000000000000000000000000000000000000000000000000000081526004018080602001828103825260248152602001806109296024913960400191505060405180910390fd5b6108ab85858080601f016020809104026020016040519081016040528093929190818152602001838380828437600081840152601f19601f82011690508083019250505050505050848484610912565b5050505050565b600160009054906101000a900473ffffffffffffffffffffffffffffffffffffffff1681565b6000919050565b600060606108fb60405180602001604052806000815250610918565b915091509091565b600061090d610501565b905090565b50505050565b600060606000839150915091509156fe47534e526563697069656e743a2063616c6c6572206973206e6f742052656c6179487562a265627a7a72305820a934cd17c13faad4f11a5da31b4c86b1d008a6b90bcf340a5ed7a8e4021752ec64736f6c634300050a0032608060405234801561001057600080fd5b50336000806101000a81548173ffffffffffffffffffffffffffffffffffffffff021916908373ffffffffffffffffffffffffffffffffffffffff16021790555060c88061005f6000396000f3fe60806040526000341415601157600080fd5b6000809054906101000a900473ffffffffffffffffffffffffffffffffffffffff1673ffffffffffffffffffffffffffffffffffffffff1663ca899878346040518263ffffffff1660e01b81526004016000604051808303818588803b158015607957600080fd5b505af1158015608c573d6000803e3d6000fd5b505050505000fea265627a7a72305820b7ee47bc8541675b62ca84340a770528622d9702e4ca419cd866e018d41228a464736f6c634300050a0032",
    "source": "pragma solidity ^0.5.0;\n\nimport 'openzeppelin-solidity/contracts/GSN/GSNRecipient.sol';\n\ncontract SimpleForwardingAddress {\n  FreeGas private parent;\n  constructor() public {\n    parent = FreeGas(msg.sender);\n  }\n\n  function () payable external {\n    require(msg.value != 0);\n    parent.depositForRelay.value(msg.value)();\n  }\n}\n\ncontract FreeGas is GSNRecipient {\n  SimpleForwardingAddress public gsnDepositAddress;\n\n  constructor() public {\n    gsnDepositAddress = new SimpleForwardingAddress();\n  }\n\n  // accept all requests\n  function acceptRelayedCall(\n    address,\n    address,\n    bytes calldata,\n    uint256,\n    uint256,\n    uint256,\n    uint256,\n    bytes calldata,\n    uint256\n  ) external view returns (uint256, bytes memory) {\n    return _approveRelayedCall();\n  }\n\n  function getRecipientBalance() public view returns (uint) {\n    return getRelayHub().balanceOf(address(this));\n  }\n\n  function depositForRelay() public payable {\n    getRelayHub().depositFor.value(msg.value)(address(this));\n  }\n\n  function getRelayHub() internal view returns (IRelayHub) {\n    return IRelayHub(getHubAddr());\n  }\n\n  function _preRelayedCall(bytes memory) internal returns (bytes32) {\n    // solhint-disable-previous-line no-empty-blocks\n  }\n\n  function _postRelayedCall(bytes memory, bool, uint256, bytes32) internal {\n    // solhint-disable-previous-line no-empty-blocks\n  }\n\n}\n",
    "sourcePath": "/home/rmoore/Projects/ethdenver-burner-wallet/contracts/contracts/FreeGas.sol",
    "compiler": {
        "name": "solc",
        "version": "0.5.10+commit.5a6ea5b1.Emscripten.clang"
    },
    "schemaVersion": "3.0.15",
    "updatedAt": "2020-02-13T23:25:47.818Z",
    "devdoc": {
        "methods": {
            "getHubAddr()": {
                "details": "Returns the address of the {IRelayHub} contract for this recipient."
            },
            "postRelayedCall(bytes,bool,uint256,bytes32)": {
                "details": "See `IRelayRecipient.postRelayedCall`.     * This function should not be overriden directly, use `_postRelayedCall` instead.     * * Requirements:     * - the caller must be the `RelayHub` contract."
            },
            "preRelayedCall(bytes)": {
                "details": "See `IRelayRecipient.preRelayedCall`.     * This function should not be overriden directly, use `_preRelayedCall` instead.     * * Requirements:     * - the caller must be the `RelayHub` contract."
            },
            "relayHubVersion()": {
                "details": "Returns the version string of the {IRelayHub} for which this recipient implementation was built. If {_upgradeRelayHub} is used, the new {IRelayHub} instance should be compatible with this version."
            }
        }
    },
    "userdoc": {
        "methods": {}
    }
}