{
    "contractName": "TestAdapter",
    "abi": [
        {
            "constant": true,
            "inputs": [],
            "name": "vendingMachine",
            "outputs": [
                {
                    "name": "",
                    "type": "address"
                }
            ],
            "payable": false,
            "stateMutability": "view",
            "type": "function"
        },
        {
            "constant": true,
            "inputs": [],
            "name": "faucet",
            "outputs": [
                {
                    "name": "",
                    "type": "address"
                }
            ],
            "payable": false,
            "stateMutability": "view",
            "type": "function"
        },
        {
            "inputs": [
                {
                    "name": "_faucet",
                    "type": "address"
                },
                {
                    "name": "_machine",
                    "type": "address"
                }
            ],
            "payable": false,
            "stateMutability": "nonpayable",
            "type": "constructor"
        },
        {
            "constant": false,
            "inputs": [
                {
                    "name": "user",
                    "type": "address"
                },
                {
                    "name": "isOn",
                    "type": "bool"
                }
            ],
            "name": "toggleFaucet",
            "outputs": [],
            "payable": false,
            "stateMutability": "nonpayable",
            "type": "function"
        },
        {
            "constant": false,
            "inputs": [
                {
                    "name": "newRate",
                    "type": "uint256"
                }
            ],
            "name": "setFaucetRate",
            "outputs": [],
            "payable": false,
            "stateMutability": "nonpayable",
            "type": "function"
        },
        {
            "constant": false,
            "inputs": [
                {
                    "name": "amount",
                    "type": "uint256"
                }
            ],
            "name": "mintBuffidai",
            "outputs": [],
            "payable": false,
            "stateMutability": "nonpayable",
            "type": "function"
        }
    ],
    "bytecode": "0x6080604052655af3107a400060025534801561001a57600080fd5b506040516106613803806106618339818101604052604081101561003d57600080fd5b810190808051906020019092919080519060200190929190505050816000806101000a81548173ffffffffffffffffffffffffffffffffffffffff021916908373ffffffffffffffffffffffffffffffffffffffff16021790555080600160006101000a81548173ffffffffffffffffffffffffffffffffffffffff021916908373ffffffffffffffffffffffffffffffffffffffff1602179055505050610577806100ea6000396000f3fe608060405234801561001057600080fd5b50600436106100575760003560e01c80632cab007c1461005c578063424f4fef1461008a5780636fd81021146100d457806376aefaf814610124578063de5f72fd14610152575b600080fd5b6100886004803603602081101561007257600080fd5b810190808035906020019092919050505061019c565b005b6100926101a6565b604051808273ffffffffffffffffffffffffffffffffffffffff1673ffffffffffffffffffffffffffffffffffffffff16815260200191505060405180910390f35b610122600480360360408110156100ea57600080fd5b81019080803573ffffffffffffffffffffffffffffffffffffffff1690602001909291908035151590602001909291905050506101cc565b005b6101506004803603602081101561013a57600080fd5b8101908080359060200190929190505050610335565b005b61015a61051d565b604051808273ffffffffffffffffffffffffffffffffffffffff1673ffffffffffffffffffffffffffffffffffffffff16815260200191505060405180910390f35b8060028190555050565b600160009054906101000a900473ffffffffffffffffffffffffffffffffffffffff1681565b600080905081156101dd5760025490505b6060600160405190808252806020026020018201604052801561020f5781602001602082028038833980820191505090505b509050838160008151811061022057fe5b602002602001019073ffffffffffffffffffffffffffffffffffffffff16908173ffffffffffffffffffffffffffffffffffffffff16815250506000809054906101000a900473ffffffffffffffffffffffffffffffffffffffff1673ffffffffffffffffffffffffffffffffffffffff1663aa3dbf3a83836040518363ffffffff1660e01b81526004018083815260200180602001828103825283818151815260200191508051906020019060200280838360005b838110156102f15780820151818401526020810190506102d6565b505050509050019350505050600060405180830381600087803b15801561031757600080fd5b505af115801561032b573d6000803e3d6000fd5b5050505050505050565b606060016040519080825280602002602001820160405280156103675781602001602082028038833980820191505090505b509050818160008151811061037857fe5b602002602001018181525050606060016040519080825280602002602001820160405280156103b65781602001602082028038833980820191505090505b50905033816000815181106103c757fe5b602002602001019073ffffffffffffffffffffffffffffffffffffffff16908173ffffffffffffffffffffffffffffffffffffffff1681525050600160009054906101000a900473ffffffffffffffffffffffffffffffffffffffff1673ffffffffffffffffffffffffffffffffffffffff16632929abe682846040518363ffffffff1660e01b8152600401808060200180602001838103835285818151815260200191508051906020019060200280838360005b8381101561049757808201518184015260208101905061047c565b50505050905001838103825284818151815260200191508051906020019060200280838360005b838110156104d95780820151818401526020810190506104be565b50505050905001945050505050600060405180830381600087803b15801561050057600080fd5b505af1158015610514573d6000803e3d6000fd5b50505050505050565b6000809054906101000a900473ffffffffffffffffffffffffffffffffffffffff168156fea265627a7a72305820e16af61e5629342aec32585a5a4974384008e1ae412d636c188840686612c87c64736f6c634300050a0032",
    "source": "pragma solidity ^0.5.0;\n\nimport './Faucet.sol';\n\ncontract VendingMachine {\n  function distribute(address[] calldata recipients, uint256[] calldata values) external;\n}\n\ncontract TestAdapter {\n  Faucet public faucet;\n  VendingMachine public vendingMachine;\n\n  uint256 faucetRate = 100000000000000;\n\n  constructor(Faucet _faucet, VendingMachine _machine) public {\n    faucet = _faucet;\n    vendingMachine = _machine;\n  }\n\n  function toggleFaucet(address user, bool isOn) external {\n    uint256 rate = 0;\n    if (isOn) {\n      rate = faucetRate;\n    }\n    address[] memory _user = new address[](1);\n    _user[0] = user;\n    faucet.setRate(rate, _user);\n  }\n\n  function setFaucetRate(uint256 newRate) external {\n    faucetRate = newRate;\n  }\n\n  function mintBuffidai(uint256 amount) external {\n    uint[] memory _amount = new uint[](1);\n    _amount[0] = amount;\n\n    address[] memory _sender = new address[](1);\n    _sender[0] = msg.sender;\n\n    vendingMachine.distribute(_sender, _amount);\n  }\n}\n",
    "sourcePath": "/home/rmoore/Projects/ethdenver-burner-wallet/contracts/contracts/TestAdapter.sol",
    "compiler": {
        "name": "solc",
        "version": "0.5.10+commit.5a6ea5b1.Emscripten.clang"
    },
    "schemaVersion": "3.0.15",
    "updatedAt": "2020-02-13T23:25:47.830Z",
    "devdoc": {
        "methods": {}
    },
    "userdoc": {
        "methods": {}
    }
}