{
    "contractName": "Whitelist",
    "abi": [
        {
            "constant": false,
            "inputs": [],
            "name": "renounceOwnership",
            "outputs": [],
            "payable": false,
            "stateMutability": "nonpayable",
            "type": "function"
        },
        {
            "constant": true,
            "inputs": [],
            "name": "owner",
            "outputs": [
                {
                    "name": "",
                    "type": "address"
                }
            ],
            "payable": false,
            "stateMutability": "view",
            "type": "function"
        },
        {
            "constant": true,
            "inputs": [],
            "name": "isOwner",
            "outputs": [
                {
                    "name": "",
                    "type": "bool"
                }
            ],
            "payable": false,
            "stateMutability": "view",
            "type": "function"
        },
        {
            "constant": false,
            "inputs": [
                {
                    "name": "newOwner",
                    "type": "address"
                }
            ],
            "name": "transferOwnership",
            "outputs": [],
            "payable": false,
            "stateMutability": "nonpayable",
            "type": "function"
        },
        {
            "anonymous": false,
            "inputs": [
                {
                    "indexed": true,
                    "name": "user",
                    "type": "address"
                },
                {
                    "indexed": false,
                    "name": "isWhitelisted",
                    "type": "bool"
                }
            ],
            "name": "WhitelistChanged",
            "type": "event"
        },
        {
            "anonymous": false,
            "inputs": [
                {
                    "indexed": true,
                    "name": "previousOwner",
                    "type": "address"
                },
                {
                    "indexed": true,
                    "name": "newOwner",
                    "type": "address"
                }
            ],
            "name": "OwnershipTransferred",
            "type": "event"
        },
        {
            "constant": true,
            "inputs": [
                {
                    "name": "user",
                    "type": "address"
                }
            ],
            "name": "isWhitelisted",
            "outputs": [
                {
                    "name": "",
                    "type": "bool"
                }
            ],
            "payable": false,
            "stateMutability": "view",
            "type": "function"
        },
        {
            "constant": false,
            "inputs": [
                {
                    "name": "whitelisted",
                    "type": "bool"
                },
                {
                    "name": "users",
                    "type": "address[]"
                }
            ],
            "name": "setWhitelisted",
            "outputs": [],
            "payable": false,
            "stateMutability": "nonpayable",
            "type": "function"
        }
    ],
    "bytecode": "0x608060405260006100146100b760201b60201c565b9050806000806101000a81548173ffffffffffffffffffffffffffffffffffffffff021916908373ffffffffffffffffffffffffffffffffffffffff1602179055508073ffffffffffffffffffffffffffffffffffffffff16600073ffffffffffffffffffffffffffffffffffffffff167f8be0079c531659141344cd1fd0a4f28419497f9722a3daafe3b4186f6b6457e060405160405180910390a3506100bf565b600033905090565b6107dc806100ce6000396000f3fe608060405234801561001057600080fd5b50600436106100625760003560e01c80633af32abf14610067578063715018a6146100c35780638da5cb5b146100cd5780638f32d59b14610117578063ae972b6114610139578063f2fde38b146101be575b600080fd5b6100a96004803603602081101561007d57600080fd5b81019080803573ffffffffffffffffffffffffffffffffffffffff169060200190929190505050610202565b604051808215151515815260200191505060405180910390f35b6100cb610258565b005b6100d5610391565b604051808273ffffffffffffffffffffffffffffffffffffffff1673ffffffffffffffffffffffffffffffffffffffff16815260200191505060405180910390f35b61011f6103ba565b604051808215151515815260200191505060405180910390f35b6101bc6004803603604081101561014f57600080fd5b810190808035151590602001909291908035906020019064010000000081111561017857600080fd5b82018360208201111561018a57600080fd5b803590602001918460208302840111640100000000831117156101ac57600080fd5b9091929391929390505050610418565b005b610200600480360360208110156101d457600080fd5b81019080803573ffffffffffffffffffffffffffffffffffffffff1690602001909291905050506105af565b005b6000600160008373ffffffffffffffffffffffffffffffffffffffff1673ffffffffffffffffffffffffffffffffffffffff16815260200190815260200160002060009054906101000a900460ff169050919050565b6102606103ba565b6102d2576040517f08c379a00000000000000000000000000000000000000000000000000000000081526004018080602001828103825260208152602001807f4f776e61626c653a2063616c6c6572206973206e6f7420746865206f776e657281525060200191505060405180910390fd5b600073ffffffffffffffffffffffffffffffffffffffff166000809054906101000a900473ffffffffffffffffffffffffffffffffffffffff1673ffffffffffffffffffffffffffffffffffffffff167f8be0079c531659141344cd1fd0a4f28419497f9722a3daafe3b4186f6b6457e060405160405180910390a360008060006101000a81548173ffffffffffffffffffffffffffffffffffffffff021916908373ffffffffffffffffffffffffffffffffffffffff160217905550565b60008060009054906101000a900473ffffffffffffffffffffffffffffffffffffffff16905090565b60008060009054906101000a900473ffffffffffffffffffffffffffffffffffffffff1673ffffffffffffffffffffffffffffffffffffffff166103fc610635565b73ffffffffffffffffffffffffffffffffffffffff1614905090565b6104206103ba565b610492576040517f08c379a00000000000000000000000000000000000000000000000000000000081526004018080602001828103825260208152602001807f4f776e61626c653a2063616c6c6572206973206e6f7420746865206f776e657281525060200191505060405180910390fd5b60008090505b828290508110156105a95783600160008585858181106104b457fe5b9050602002013573ffffffffffffffffffffffffffffffffffffffff1673ffffffffffffffffffffffffffffffffffffffff1673ffffffffffffffffffffffffffffffffffffffff16815260200190815260200160002060006101000a81548160ff02191690831515021790555082828281811061052e57fe5b9050602002013573ffffffffffffffffffffffffffffffffffffffff1673ffffffffffffffffffffffffffffffffffffffff167fb840a1dbd8b09a3dc45161bba92dfb9aba643c0e44c085a447f839d1d02cf13b85604051808215151515815260200191505060405180910390a28080600101915050610498565b50505050565b6105b76103ba565b610629576040517f08c379a00000000000000000000000000000000000000000000000000000000081526004018080602001828103825260208152602001807f4f776e61626c653a2063616c6c6572206973206e6f7420746865206f776e657281525060200191505060405180910390fd5b6106328161063d565b50565b600033905090565b600073ffffffffffffffffffffffffffffffffffffffff168173ffffffffffffffffffffffffffffffffffffffff1614156106c3576040517f08c379a00000000000000000000000000000000000000000000000000000000081526004018080602001828103825260268152602001806107826026913960400191505060405180910390fd5b8073ffffffffffffffffffffffffffffffffffffffff166000809054906101000a900473ffffffffffffffffffffffffffffffffffffffff1673ffffffffffffffffffffffffffffffffffffffff167f8be0079c531659141344cd1fd0a4f28419497f9722a3daafe3b4186f6b6457e060405160405180910390a3806000806101000a81548173ffffffffffffffffffffffffffffffffffffffff021916908373ffffffffffffffffffffffffffffffffffffffff1602179055505056fe4f776e61626c653a206e6577206f776e657220697320746865207a65726f2061646472657373a265627a7a723058203912c6ed90746e96f0d0adaa7c402f3664d44f37e2d250254d7a2001abaff4f464736f6c634300050a0032",
    "source": "pragma solidity ^0.5.0;\n\nimport 'openzeppelin-solidity/contracts/GSN/Context.sol';\nimport 'openzeppelin-solidity/contracts/ownership/Ownable.sol';\nimport './IWhitelist.sol';\n\ncontract Whitelist is Context, Ownable, IWhitelist {\n  mapping(address => bool) private _isWhitelisted;\n\n  event WhitelistChanged(address indexed user, bool isWhitelisted);\n\n  function isWhitelisted(address user) external view returns (bool) {\n    return _isWhitelisted[user];\n  }\n\n  function setWhitelisted(bool whitelisted, address[] calldata users) external onlyOwner {\n    for(uint i = 0; i < users.length; i++) {\n      _isWhitelisted[users[i]] = whitelisted;\n      emit WhitelistChanged(users[i], whitelisted);\n    }\n  }\n}\n",
    "sourcePath": "/home/rmoore/Projects/ethdenver-burner-wallet/contracts/contracts/Whitelist.sol",
    "compiler": {
        "name": "solc",
        "version": "0.5.10+commit.5a6ea5b1.Emscripten.clang"
    },
    "schemaVersion": "3.0.15",
    "updatedAt": "2020-02-13T23:25:47.832Z",
    "devdoc": {
        "methods": {
            "isOwner()": {
                "details": "Returns true if the caller is the current owner."
            },
            "owner()": {
                "details": "Returns the address of the current owner."
            },
            "renounceOwnership()": {
                "details": "Leaves the contract without owner. It will not be possible to call `onlyOwner` functions anymore. Can only be called by the current owner.     * NOTE: Renouncing ownership will leave the contract without an owner, thereby removing any functionality that is only available to the owner."
            },
            "transferOwnership(address)": {
                "details": "Transfers ownership of the contract to a new account (`newOwner`). Can only be called by the current owner."
            }
        }
    },
    "userdoc": {
        "methods": {}
    }
}