{
    "contractName": "XPToken",
    "abi": [
        {
            "constant": true,
            "inputs": [],
            "name": "defaultOperators",
            "outputs": [
                {
                    "name": "",
                    "type": "address[]"
                }
            ],
            "payable": false,
            "stateMutability": "view",
            "type": "function"
        },
        {
            "constant": true,
            "inputs": [],
            "name": "name",
            "outputs": [
                {
                    "name": "",
                    "type": "string"
                }
            ],
            "payable": false,
            "stateMutability": "view",
            "type": "function"
        },
        {
            "constant": false,
            "inputs": [
                {
                    "name": "spender",
                    "type": "address"
                },
                {
                    "name": "value",
                    "type": "uint256"
                }
            ],
            "name": "approve",
            "outputs": [
                {
                    "name": "",
                    "type": "bool"
                }
            ],
            "payable": false,
            "stateMutability": "nonpayable",
            "type": "function"
        },
        {
            "constant": true,
            "inputs": [],
            "name": "totalSupply",
            "outputs": [
                {
                    "name": "",
                    "type": "uint256"
                }
            ],
            "payable": false,
            "stateMutability": "view",
            "type": "function"
        },
        {
            "constant": true,
            "inputs": [],
            "name": "senderList",
            "outputs": [
                {
                    "name": "",
                    "type": "address"
                }
            ],
            "payable": false,
            "stateMutability": "view",
            "type": "function"
        },
        {
            "constant": false,
            "inputs": [
                {
                    "name": "holder",
                    "type": "address"
                },
                {
                    "name": "recipient",
                    "type": "address"
                },
                {
                    "name": "amount",
                    "type": "uint256"
                }
            ],
            "name": "transferFrom",
            "outputs": [
                {
                    "name": "",
                    "type": "bool"
                }
            ],
            "payable": false,
            "stateMutability": "nonpayable",
            "type": "function"
        },
        {
            "constant": true,
            "inputs": [],
            "name": "decimals",
            "outputs": [
                {
                    "name": "",
                    "type": "uint8"
                }
            ],
            "payable": false,
            "stateMutability": "pure",
            "type": "function"
        },
        {
            "constant": true,
            "inputs": [],
            "name": "minterList",
            "outputs": [
                {
                    "name": "",
                    "type": "address"
                }
            ],
            "payable": false,
            "stateMutability": "view",
            "type": "function"
        },
        {
            "constant": true,
            "inputs": [],
            "name": "granularity",
            "outputs": [
                {
                    "name": "",
                    "type": "uint256"
                }
            ],
            "payable": false,
            "stateMutability": "view",
            "type": "function"
        },
        {
            "constant": false,
            "inputs": [
                {
                    "name": "sender",
                    "type": "address"
                },
                {
                    "name": "recipient",
                    "type": "address"
                },
                {
                    "name": "amount",
                    "type": "uint256"
                },
                {
                    "name": "data",
                    "type": "bytes"
                },
                {
                    "name": "operatorData",
                    "type": "bytes"
                }
            ],
            "name": "operatorSend",
            "outputs": [],
            "payable": false,
            "stateMutability": "nonpayable",
            "type": "function"
        },
        {
            "constant": true,
            "inputs": [
                {
                    "name": "tokenHolder",
                    "type": "address"
                }
            ],
            "name": "balanceOf",
            "outputs": [
                {
                    "name": "",
                    "type": "uint256"
                }
            ],
            "payable": false,
            "stateMutability": "view",
            "type": "function"
        },
        {
            "constant": false,
            "inputs": [],
            "name": "renounceOwnership",
            "outputs": [],
            "payable": false,
            "stateMutability": "nonpayable",
            "type": "function"
        },
        {
            "constant": true,
            "inputs": [],
            "name": "getHubAddr",
            "outputs": [
                {
                    "name": "",
                    "type": "address"
                }
            ],
            "payable": false,
            "stateMutability": "view",
            "type": "function"
        },
        {
            "constant": false,
            "inputs": [
                {
                    "name": "context",
                    "type": "bytes"
                }
            ],
            "name": "preRelayedCall",
            "outputs": [
                {
                    "name": "",
                    "type": "bytes32"
                }
            ],
            "payable": false,
            "stateMutability": "nonpayable",
            "type": "function"
        },
        {
            "constant": true,
            "inputs": [
                {
                    "name": "",
                    "type": "address"
                },
                {
                    "name": "",
                    "type": "address"
                },
                {
                    "name": "",
                    "type": "bytes"
                },
                {
                    "name": "",
                    "type": "uint256"
                },
                {
                    "name": "",
                    "type": "uint256"
                },
                {
                    "name": "",
                    "type": "uint256"
                },
                {
                    "name": "",
                    "type": "uint256"
                },
                {
                    "name": "",
                    "type": "bytes"
                },
                {
                    "name": "",
                    "type": "uint256"
                }
            ],
            "name": "acceptRelayedCall",
            "outputs": [
                {
                    "name": "",
                    "type": "uint256"
                },
                {
                    "name": "",
                    "type": "bytes"
                }
            ],
            "payable": false,
            "stateMutability": "view",
            "type": "function"
        },
        {
            "constant": true,
            "inputs": [],
            "name": "owner",
            "outputs": [
                {
                    "name": "",
                    "type": "address"
                }
            ],
            "payable": false,
            "stateMutability": "view",
            "type": "function"
        },
        {
            "constant": true,
            "inputs": [],
            "name": "isOwner",
            "outputs": [
                {
                    "name": "",
                    "type": "bool"
                }
            ],
            "payable": false,
            "stateMutability": "view",
            "type": "function"
        },
        {
            "constant": true,
            "inputs": [],
            "name": "receiverList",
            "outputs": [
                {
                    "name": "",
                    "type": "address"
                }
            ],
            "payable": false,
            "stateMutability": "view",
            "type": "function"
        },
        {
            "constant": false,
            "inputs": [
                {
                    "name": "operator",
                    "type": "address"
                }
            ],
            "name": "authorizeOperator",
            "outputs": [],
            "payable": false,
            "stateMutability": "nonpayable",
            "type": "function"
        },
        {
            "constant": true,
            "inputs": [],
            "name": "symbol",
            "outputs": [
                {
                    "name": "",
                    "type": "string"
                }
            ],
            "payable": false,
            "stateMutability": "view",
            "type": "function"
        },
        {
            "constant": false,
            "inputs": [
                {
                    "name": "recipient",
                    "type": "address"
                },
                {
                    "name": "amount",
                    "type": "uint256"
                },
                {
                    "name": "data",
                    "type": "bytes"
                }
            ],
            "name": "send",
            "outputs": [],
            "payable": false,
            "stateMutability": "nonpayable",
            "type": "function"
        },
        {
            "constant": false,
            "inputs": [
                {
                    "name": "recipient",
                    "type": "address"
                },
                {
                    "name": "amount",
                    "type": "uint256"
                }
            ],
            "name": "transfer",
            "outputs": [
                {
                    "name": "",
                    "type": "bool"
                }
            ],
            "payable": false,
            "stateMutability": "nonpayable",
            "type": "function"
        },
        {
            "constant": true,
            "inputs": [],
            "name": "getRecipientBalance",
            "outputs": [
                {
                    "name": "",
                    "type": "uint256"
                }
            ],
            "payable": false,
            "stateMutability": "view",
            "type": "function"
        },
        {
            "constant": true,
            "inputs": [],
            "name": "relayHubVersion",
            "outputs": [
                {
                    "name": "",
                    "type": "string"
                }
            ],
            "payable": false,
            "stateMutability": "view",
            "type": "function"
        },
        {
            "constant": false,
            "inputs": [],
            "name": "depositForRelay",
            "outputs": [],
            "payable": true,
            "stateMutability": "payable",
            "type": "function"
        },
        {
            "constant": true,
            "inputs": [],
            "name": "rep",
            "outputs": [
                {
                    "name": "",
                    "type": "address"
                }
            ],
            "payable": false,
            "stateMutability": "view",
            "type": "function"
        },
        {
            "constant": true,
            "inputs": [
                {
                    "name": "operator",
                    "type": "address"
                },
                {
                    "name": "tokenHolder",
                    "type": "address"
                }
            ],
            "name": "isOperatorFor",
            "outputs": [
                {
                    "name": "",
                    "type": "bool"
                }
            ],
            "payable": false,
            "stateMutability": "view",
            "type": "function"
        },
        {
            "constant": true,
            "inputs": [
                {
                    "name": "holder",
                    "type": "address"
                },
                {
                    "name": "spender",
                    "type": "address"
                }
            ],
            "name": "allowance",
            "outputs": [
                {
                    "name": "",
                    "type": "uint256"
                }
            ],
            "payable": false,
            "stateMutability": "view",
            "type": "function"
        },
        {
            "constant": false,
            "inputs": [
                {
                    "name": "context",
                    "type": "bytes"
                },
                {
                    "name": "success",
                    "type": "bool"
                },
                {
                    "name": "actualCharge",
                    "type": "uint256"
                },
                {
                    "name": "preRetVal",
                    "type": "bytes32"
                }
            ],
            "name": "postRelayedCall",
            "outputs": [],
            "payable": false,
            "stateMutability": "nonpayable",
            "type": "function"
        },
        {
            "constant": true,
            "inputs": [],
            "name": "gsnDepositAddress",
            "outputs": [
                {
                    "name": "",
                    "type": "address"
                }
            ],
            "payable": false,
            "stateMutability": "view",
            "type": "function"
        },
        {
            "constant": false,
            "inputs": [
                {
                    "name": "newOwner",
                    "type": "address"
                }
            ],
            "name": "transferOwnership",
            "outputs": [],
            "payable": false,
            "stateMutability": "nonpayable",
            "type": "function"
        },
        {
            "constant": false,
            "inputs": [
                {
                    "name": "operator",
                    "type": "address"
                }
            ],
            "name": "revokeOperator",
            "outputs": [],
            "payable": false,
            "stateMutability": "nonpayable",
            "type": "function"
        },
        {
            "constant": false,
            "inputs": [
                {
                    "name": "account",
                    "type": "address"
                },
                {
                    "name": "amount",
                    "type": "uint256"
                },
                {
                    "name": "data",
                    "type": "bytes"
                },
                {
                    "name": "operatorData",
                    "type": "bytes"
                }
            ],
            "name": "operatorBurn",
            "outputs": [],
            "payable": false,
            "stateMutability": "nonpayable",
            "type": "function"
        },
        {
            "constant": false,
            "inputs": [
                {
                    "name": "amount",
                    "type": "uint256"
                },
                {
                    "name": "data",
                    "type": "bytes"
                }
            ],
            "name": "burn",
            "outputs": [],
            "payable": false,
            "stateMutability": "nonpayable",
            "type": "function"
        },
        {
            "inputs": [
                {
                    "name": "name",
                    "type": "string"
                },
                {
                    "name": "symbol",
                    "type": "string"
                },
                {
                    "name": "_senderList",
                    "type": "address"
                },
                {
                    "name": "_receiverList",
                    "type": "address"
                },
                {
                    "name": "_minterList",
                    "type": "address"
                },
                {
                    "name": "operators",
                    "type": "address[]"
                }
            ],
            "payable": false,
            "stateMutability": "nonpayable",
            "type": "constructor"
        },
        {
            "anonymous": false,
            "inputs": [
                {
                    "indexed": true,
                    "name": "from",
                    "type": "address"
                },
                {
                    "indexed": true,
                    "name": "to",
                    "type": "address"
                },
                {
                    "indexed": false,
                    "name": "amount",
                    "type": "uint256"
                },
                {
                    "indexed": false,
                    "name": "data",
                    "type": "bytes"
                }
            ],
            "name": "Distribute",
            "type": "event"
        },
        {
            "anonymous": false,
            "inputs": [
                {
                    "indexed": true,
                    "name": "oldRelayHub",
                    "type": "address"
                },
                {
                    "indexed": true,
                    "name": "newRelayHub",
                    "type": "address"
                }
            ],
            "name": "RelayHubChanged",
            "type": "event"
        },
        {
            "anonymous": false,
            "inputs": [
                {
                    "indexed": true,
                    "name": "from",
                    "type": "address"
                },
                {
                    "indexed": true,
                    "name": "to",
                    "type": "address"
                },
                {
                    "indexed": false,
                    "name": "value",
                    "type": "uint256"
                }
            ],
            "name": "Transfer",
            "type": "event"
        },
        {
            "anonymous": false,
            "inputs": [
                {
                    "indexed": true,
                    "name": "owner",
                    "type": "address"
                },
                {
                    "indexed": true,
                    "name": "spender",
                    "type": "address"
                },
                {
                    "indexed": false,
                    "name": "value",
                    "type": "uint256"
                }
            ],
            "name": "Approval",
            "type": "event"
        },
        {
            "anonymous": false,
            "inputs": [
                {
                    "indexed": true,
                    "name": "operator",
                    "type": "address"
                },
                {
                    "indexed": true,
                    "name": "from",
                    "type": "address"
                },
                {
                    "indexed": true,
                    "name": "to",
                    "type": "address"
                },
                {
                    "indexed": false,
                    "name": "amount",
                    "type": "uint256"
                },
                {
                    "indexed": false,
                    "name": "data",
                    "type": "bytes"
                },
                {
                    "indexed": false,
                    "name": "operatorData",
                    "type": "bytes"
                }
            ],
            "name": "Sent",
            "type": "event"
        },
        {
            "anonymous": false,
            "inputs": [
                {
                    "indexed": true,
                    "name": "operator",
                    "type": "address"
                },
                {
                    "indexed": true,
                    "name": "to",
                    "type": "address"
                },
                {
                    "indexed": false,
                    "name": "amount",
                    "type": "uint256"
                },
                {
                    "indexed": false,
                    "name": "data",
                    "type": "bytes"
                },
                {
                    "indexed": false,
                    "name": "operatorData",
                    "type": "bytes"
                }
            ],
            "name": "Minted",
            "type": "event"
        },
        {
            "anonymous": false,
            "inputs": [
                {
                    "indexed": true,
                    "name": "operator",
                    "type": "address"
                },
                {
                    "indexed": true,
                    "name": "from",
                    "type": "address"
                },
                {
                    "indexed": false,
                    "name": "amount",
                    "type": "uint256"
                },
                {
                    "indexed": false,
                    "name": "data",
                    "type": "bytes"
                },
                {
                    "indexed": false,
                    "name": "operatorData",
                    "type": "bytes"
                }
            ],
            "name": "Burned",
            "type": "event"
        },
        {
            "anonymous": false,
            "inputs": [
                {
                    "indexed": true,
                    "name": "operator",
                    "type": "address"
                },
                {
                    "indexed": true,
                    "name": "tokenHolder",
                    "type": "address"
                }
            ],
            "name": "AuthorizedOperator",
            "type": "event"
        },
        {
            "anonymous": false,
            "inputs": [
                {
                    "indexed": true,
                    "name": "operator",
                    "type": "address"
                },
                {
                    "indexed": true,
                    "name": "tokenHolder",
                    "type": "address"
                }
            ],
            "name": "RevokedOperator",
            "type": "event"
        },
        {
            "anonymous": false,
            "inputs": [
                {
                    "indexed": true,
                    "name": "previousOwner",
                    "type": "address"
                },
                {
                    "indexed": true,
                    "name": "newOwner",
                    "type": "address"
                }
            ],
            "name": "OwnershipTransferred",
            "type": "event"
        },
        {
            "constant": true,
            "inputs": [],
            "name": "getDenominations",
            "outputs": [
                {
                    "name": "",
                    "type": "uint256[]"
                }
            ],
            "payable": false,
            "stateMutability": "view",
            "type": "function"
        },
        {
            "constant": false,
            "inputs": [
                {
                    "name": "denomination",
                    "type": "uint256"
                },
                {
                    "name": "isAllowed",
                    "type": "bool"
                }
            ],
            "name": "setDenomination",
            "outputs": [],
            "payable": false,
            "stateMutability": "nonpayable",
            "type": "function"
        },
        {
            "constant": true,
            "inputs": [
                {
                    "name": "from",
                    "type": "address"
                },
                {
                    "name": "to",
                    "type": "address"
                },
                {
                    "name": "amount",
                    "type": "uint256"
                }
            ],
            "name": "canSend",
            "outputs": [
                {
                    "name": "",
                    "type": "bool"
                },
                {
                    "name": "",
                    "type": "string"
                }
            ],
            "payable": false,
            "stateMutability": "view",
            "type": "function"
        },
        {
            "constant": false,
            "inputs": [
                {
                    "name": "recipient",
                    "type": "address"
                },
                {
                    "name": "amount",
                    "type": "uint256"
                },
                {
                    "name": "data",
                    "type": "bytes"
                }
            ],
            "name": "mint",
            "outputs": [],
            "payable": false,
            "stateMutability": "nonpayable",
            "type": "function"
        },
        {
            "constant": false,
            "inputs": [
                {
                    "name": "_rep",
                    "type": "address"
                }
            ],
            "name": "setRep",
            "outputs": [],
            "payable": false,
            "stateMutability": "nonpayable",
            "type": "function"
        },
        {
            "constant": false,
            "inputs": [
                {
                    "name": "newOwner",
                    "type": "address"
                }
            ],
            "name": "transferRepOwnership",
            "outputs": [],
            "payable": false,
            "stateMutability": "nonpayable",
            "type": "function"
        },
        {
            "constant": false,
            "inputs": [
                {
                    "name": "_beneficiaries",
                    "type": "address[]"
                },
                {
                    "name": "_amounts",
                    "type": "uint256[]"
                }
            ],
            "name": "reputationMint",
            "outputs": [],
            "payable": false,
            "stateMutability": "nonpayable",
            "type": "function"
        }
    ],
    "bytecode": "0x608060405273d216153c06e857cd7f72665e0af1d7d82172f494600a60006101000a81548173ffffffffffffffffffffffffffffffffffffffff021916908373ffffffffffffffffffffffffffffffffffffffff1602179055503480156200006657600080fd5b506040516200634e3803806200634e833981810160405260c08110156200008c57600080fd5b810190808051640100000000811115620000a557600080fd5b82810190506020810184811115620000bc57600080fd5b8151856001820283011164010000000082111715620000da57600080fd5b50509291906020018051640100000000811115620000f757600080fd5b828101905060208101848111156200010e57600080fd5b81518560018202830111640100000000821117156200012c57600080fd5b505092919060200180519060200190929190805190602001909291908051906020019092919080516401000000008111156200016757600080fd5b828101905060208101848111156200017e57600080fd5b81518560208202830111640100000000821117156200019c57600080fd5b50509291905050508585826000620001b9620006cf60201b60201c565b9050806000806101000a81548173ffffffffffffffffffffffffffffffffffffffff021916908373ffffffffffffffffffffffffffffffffffffffff1602179055508073ffffffffffffffffffffffffffffffffffffffff16600073ffffffffffffffffffffffffffffffffffffffff167f8be0079c531659141344cd1fd0a4f28419497f9722a3daafe3b4186f6b6457e060405160405180910390a35082600390805190602001906200026f929190620007be565b50816004908051906020019062000288929190620007be565b508060059080519060200190620002a192919062000845565b5060008090505b600580549050811015620003545760016006600060058481548110620002ca57fe5b9060005260206000200160009054906101000a900473ffffffffffffffffffffffffffffffffffffffff1673ffffffffffffffffffffffffffffffffffffffff1673ffffffffffffffffffffffffffffffffffffffff16815260200190815260200160002060006101000a81548160ff0219169083151502179055508080600101915050620002a8565b50731820a4b7618bde71dce8cdc73aab6c95905fad2473ffffffffffffffffffffffffffffffffffffffff166329965a1d3060405180807f455243373737546f6b656e000000000000000000000000000000000000000000815250600b0190506040518091039020306040518463ffffffff1660e01b8152600401808473ffffffffffffffffffffffffffffffffffffffff1673ffffffffffffffffffffffffffffffffffffffff1681526020018381526020018273ffffffffffffffffffffffffffffffffffffffff1673ffffffffffffffffffffffffffffffffffffffff1681526020019350505050600060405180830381600087803b1580156200045a57600080fd5b505af11580156200046f573d6000803e3d6000fd5b50505050731820a4b7618bde71dce8cdc73aab6c95905fad2473ffffffffffffffffffffffffffffffffffffffff166329965a1d3060405180807f4552433230546f6b656e00000000000000000000000000000000000000000000815250600a0190506040518091039020306040518463ffffffff1660e01b8152600401808473ffffffffffffffffffffffffffffffffffffffff1673ffffffffffffffffffffffffffffffffffffffff1681526020018381526020018273ffffffffffffffffffffffffffffffffffffffff1673ffffffffffffffffffffffffffffffffffffffff1681526020019350505050600060405180830381600087803b1580156200057857600080fd5b505af11580156200058d573d6000803e3d6000fd5b50505050505050604051620005a290620008d4565b604051809103906000f080158015620005bf573d6000803e3d6000fd5b50600b60006101000a81548173ffffffffffffffffffffffffffffffffffffffff021916908373ffffffffffffffffffffffffffffffffffffffff16021790555083600c60006101000a81548173ffffffffffffffffffffffffffffffffffffffff021916908373ffffffffffffffffffffffffffffffffffffffff16021790555082600d60006101000a81548173ffffffffffffffffffffffffffffffffffffffff021916908373ffffffffffffffffffffffffffffffffffffffff16021790555081600e60006101000a81548173ffffffffffffffffffffffffffffffffffffffff021916908373ffffffffffffffffffffffffffffffffffffffff16021790555050505050505062000950565b6000600a60009054906101000a900473ffffffffffffffffffffffffffffffffffffffff1673ffffffffffffffffffffffffffffffffffffffff163373ffffffffffffffffffffffffffffffffffffffff1614620007305733905062000743565b620007406200074660201b60201c565b90505b90565b600060606000368080601f016020809104026020016040519081016040528093929190818152602001838380828437600081840152601f19601f820116905080830192505050505050509050600080369050905073ffffffffffffffffffffffffffffffffffffffff81830151169250829250505090565b828054600181600116156101000203166002900490600052602060002090601f016020900481019282601f106200080157805160ff191683800117855562000832565b8280016001018555821562000832579182015b828111156200083157825182559160200191906001019062000814565b5b509050620008419190620008e2565b5090565b828054828255906000526020600020908101928215620008c1579160200282015b82811115620008c05782518260006101000a81548173ffffffffffffffffffffffffffffffffffffffff021916908373ffffffffffffffffffffffffffffffffffffffff1602179055509160200191906001019062000866565b5b509050620008d091906200090a565b5090565b610127806200622783390190565b6200090791905b8082111562000903576000816000905550600101620008e9565b5090565b90565b6200094d91905b808211156200094957600081816101000a81549073ffffffffffffffffffffffffffffffffffffffff02191690555060010162000911565b5090565b90565b6158c780620009606000396000f3fe6080604052600436106102465760003560e01c8063943fcea111610139578063ca899878116100b6578063e06e0e221161007a578063e06e0e22146112cc578063e53117b014611372578063f2fde38b146113c9578063fad8b32a1461141a578063fc673c4f1461146b578063fe9d93031461157057610246565b8063ca899878146110f1578063ccc07959146110fb578063d95a1c7614611152578063d95b6371146111be578063dd62ed3e1461124757610246565b8063a9059cbb116100fd578063a9059cbb14610e73578063ac57041114610ee6578063ad61ccd514610f11578063c4e2c3bd14610fa1578063c72d8061146110a057610246565b8063943fcea114610bdb57806394d008ef14610c32578063959b8c3f14610ce257806395d89b4114610d335780639bd9bbc614610dc357610246565b8063556f0dc7116101c757806374e861d61161018b57806374e861d61461089657806380274db7146108ed57806383947ea0146109875780638da5cb5b14610b555780638f32d59b14610bac57610246565b8063556f0dc7146106795780635dc51cea146106a457806362ad1b83146106f557806370a082311461081a578063715018a61461087f57610246565b806318160ddd1161020e57806318160ddd146104dc578063202a33bf1461050757806323b872dd1461055e578063313ce567146105f157806341f08b521461062257610246565b806306e485381461024b57806306fdde03146102b7578063095ea7b3146103475780630f3ce408146103ba5780631167d35014610495575b600080fd5b34801561025757600080fd5b50610260611600565b6040518080602001828103825283818151815260200191508051906020019060200280838360005b838110156102a3578082015181840152602081019050610288565b505050509050019250505060405180910390f35b3480156102c357600080fd5b506102cc61168e565b6040518080602001828103825283818151815260200191508051906020019080838360005b8381101561030c5780820151818401526020810190506102f1565b50505050905090810190601f1680156103395780820380516001836020036101000a031916815260200191505b509250505060405180910390f35b34801561035357600080fd5b506103a06004803603604081101561036a57600080fd5b81019080803573ffffffffffffffffffffffffffffffffffffffff16906020019092919080359060200190929190505050611730565b604051808215151515815260200191505060405180910390f35b3480156103c657600080fd5b50610493600480360360408110156103dd57600080fd5b81019080803590602001906401000000008111156103fa57600080fd5b82018360208201111561040c57600080fd5b8035906020019184602083028401116401000000008311171561042e57600080fd5b90919293919293908035906020019064010000000081111561044f57600080fd5b82018360208201111561046157600080fd5b8035906020019184602083028401116401000000008311171561048357600080fd5b9091929391929390505050611753565b005b3480156104a157600080fd5b506104da600480360360408110156104b857600080fd5b81019080803590602001909291908035151590602001909291905050506118c6565b005b3480156104e857600080fd5b506104f1611a78565b6040518082815260200191505060405180910390f35b34801561051357600080fd5b5061051c611a82565b604051808273ffffffffffffffffffffffffffffffffffffffff1673ffffffffffffffffffffffffffffffffffffffff16815260200191505060405180910390f35b34801561056a57600080fd5b506105d76004803603606081101561058157600080fd5b81019080803573ffffffffffffffffffffffffffffffffffffffff169060200190929190803573ffffffffffffffffffffffffffffffffffffffff16906020019092919080359060200190929190505050611aa8565b604051808215151515815260200191505060405180910390f35b3480156105fd57600080fd5b50610606611d06565b604051808260ff1660ff16815260200191505060405180910390f35b34801561062e57600080fd5b50610637611d0f565b604051808273ffffffffffffffffffffffffffffffffffffffff1673ffffffffffffffffffffffffffffffffffffffff16815260200191505060405180910390f35b34801561068557600080fd5b5061068e611d35565b6040518082815260200191505060405180910390f35b3480156106b057600080fd5b506106f3600480360360208110156106c757600080fd5b81019080803573ffffffffffffffffffffffffffffffffffffffff169060200190929190505050611d3e565b005b34801561070157600080fd5b50610818600480360360a081101561071857600080fd5b81019080803573ffffffffffffffffffffffffffffffffffffffff169060200190929190803573ffffffffffffffffffffffffffffffffffffffff169060200190929190803590602001909291908035906020019064010000000081111561077f57600080fd5b82018360208201111561079157600080fd5b803590602001918460018302840111640100000000831117156107b357600080fd5b9091929391929390803590602001906401000000008111156107d457600080fd5b8201836020820111156107e657600080fd5b8035906020019184600183028401116401000000008311171561080857600080fd5b9091929391929390505050611e74565b005b34801561082657600080fd5b506108696004803603602081101561083d57600080fd5b81019080803573ffffffffffffffffffffffffffffffffffffffff169060200190929190505050611f82565b6040518082815260200191505060405180910390f35b34801561088b57600080fd5b50610894611fcb565b005b3480156108a257600080fd5b506108ab612104565b604051808273ffffffffffffffffffffffffffffffffffffffff1673ffffffffffffffffffffffffffffffffffffffff16815260200191505060405180910390f35b3480156108f957600080fd5b506109716004803603602081101561091057600080fd5b810190808035906020019064010000000081111561092d57600080fd5b82018360208201111561093f57600080fd5b8035906020019184600183028401116401000000008311171561096157600080fd5b909192939192939050505061212e565b6040518082815260200191505060405180910390f35b34801561099357600080fd5b50610ad360048036036101208110156109ab57600080fd5b81019080803573ffffffffffffffffffffffffffffffffffffffff169060200190929190803573ffffffffffffffffffffffffffffffffffffffff16906020019092919080359060200190640100000000811115610a0857600080fd5b820183602082011115610a1a57600080fd5b80359060200191846001830284011164010000000083111715610a3c57600080fd5b90919293919293908035906020019092919080359060200190929190803590602001909291908035906020019092919080359060200190640100000000811115610a8557600080fd5b820183602082011115610a9757600080fd5b80359060200191846001830284011164010000000083111715610ab957600080fd5b909192939192939080359060200190929190505050612210565b6040518083815260200180602001828103825283818151815260200191508051906020019080838360005b83811015610b19578082015181840152602081019050610afe565b50505050905090810190601f168015610b465780820380516001836020036101000a031916815260200191505b50935050505060405180910390f35b348015610b6157600080fd5b50610b6a612230565b604051808273ffffffffffffffffffffffffffffffffffffffff1673ffffffffffffffffffffffffffffffffffffffff16815260200191505060405180910390f35b348015610bb857600080fd5b50610bc1612259565b604051808215151515815260200191505060405180910390f35b348015610be757600080fd5b50610bf06122b7565b604051808273ffffffffffffffffffffffffffffffffffffffff1673ffffffffffffffffffffffffffffffffffffffff16815260200191505060405180910390f35b348015610c3e57600080fd5b50610ce060048036036060811015610c5557600080fd5b81019080803573ffffffffffffffffffffffffffffffffffffffff1690602001909291908035906020019092919080359060200190640100000000811115610c9c57600080fd5b820183602082011115610cae57600080fd5b80359060200191846001830284011164010000000083111715610cd057600080fd5b90919293919293905050506122dd565b005b348015610cee57600080fd5b50610d3160048036036020811015610d0557600080fd5b81019080803573ffffffffffffffffffffffffffffffffffffffff1690602001909291905050506124c1565b005b348015610d3f57600080fd5b50610d48612738565b6040518080602001828103825283818151815260200191508051906020019080838360005b83811015610d88578082015181840152602081019050610d6d565b50505050905090810190601f168015610db55780820380516001836020036101000a031916815260200191505b509250505060405180910390f35b348015610dcf57600080fd5b50610e7160048036036060811015610de657600080fd5b81019080803573ffffffffffffffffffffffffffffffffffffffff1690602001909291908035906020019092919080359060200190640100000000811115610e2d57600080fd5b820183602082011115610e3f57600080fd5b80359060200191846001830284011164010000000083111715610e6157600080fd5b90919293919293905050506127da565b005b348015610e7f57600080fd5b50610ecc60048036036040811015610e9657600080fd5b81019080803573ffffffffffffffffffffffffffffffffffffffff16906020019092919080359060200190929190505050612851565b604051808215151515815260200191505060405180910390f35b348015610ef257600080fd5b50610efb612975565b6040518082815260200191505060405180910390f35b348015610f1d57600080fd5b50610f26612a3b565b6040518080602001828103825283818151815260200191508051906020019080838360005b83811015610f66578082015181840152602081019050610f4b565b50505050905090810190601f168015610f935780820380516001836020036101000a031916815260200191505b509250505060405180910390f35b348015610fad57600080fd5b5061101a60048036036060811015610fc457600080fd5b81019080803573ffffffffffffffffffffffffffffffffffffffff169060200190929190803573ffffffffffffffffffffffffffffffffffffffff16906020019092919080359060200190929190505050612a78565b604051808315151515815260200180602001828103825283818151815260200191508051906020019080838360005b83811015611064578082015181840152602081019050611049565b50505050905090810190601f1680156110915780820380516001836020036101000a031916815260200191505b50935050505060405180910390f35b3480156110ac57600080fd5b506110ef600480360360208110156110c357600080fd5b81019080803573ffffffffffffffffffffffffffffffffffffffff169060200190929190505050612db0565b005b6110f9612e6e565b005b34801561110757600080fd5b50611110612f0f565b604051808273ffffffffffffffffffffffffffffffffffffffff1673ffffffffffffffffffffffffffffffffffffffff16815260200191505060405180910390f35b34801561115e57600080fd5b50611167612f35565b6040518080602001828103825283818151815260200191508051906020019060200280838360005b838110156111aa57808201518184015260208101905061118f565b505050509050019250505060405180910390f35b3480156111ca57600080fd5b5061122d600480360360408110156111e157600080fd5b81019080803573ffffffffffffffffffffffffffffffffffffffff169060200190929190803573ffffffffffffffffffffffffffffffffffffffff169060200190929190505050612f8d565b604051808215151515815260200191505060405180910390f35b34801561125357600080fd5b506112b66004803603604081101561126a57600080fd5b81019080803573ffffffffffffffffffffffffffffffffffffffff169060200190929190803573ffffffffffffffffffffffffffffffffffffffff16906020019092919050505061313e565b6040518082815260200191505060405180910390f35b3480156112d857600080fd5b50611370600480360360808110156112ef57600080fd5b810190808035906020019064010000000081111561130c57600080fd5b82018360208201111561131e57600080fd5b8035906020019184600183028401116401000000008311171561134057600080fd5b909192939192939080351515906020019092919080359060200190929190803590602001909291905050506131c5565b005b34801561137e57600080fd5b506113876132a7565b604051808273ffffffffffffffffffffffffffffffffffffffff1673ffffffffffffffffffffffffffffffffffffffff16815260200191505060405180910390f35b3480156113d557600080fd5b50611418600480360360208110156113ec57600080fd5b81019080803573ffffffffffffffffffffffffffffffffffffffff1690602001909291905050506132cd565b005b34801561142657600080fd5b506114696004803603602081101561143d57600080fd5b81019080803573ffffffffffffffffffffffffffffffffffffffff169060200190929190505050613353565b005b34801561147757600080fd5b5061156e6004803603608081101561148e57600080fd5b81019080803573ffffffffffffffffffffffffffffffffffffffff16906020019092919080359060200190929190803590602001906401000000008111156114d557600080fd5b8201836020820111156114e757600080fd5b8035906020019184600183028401116401000000008311171561150957600080fd5b90919293919293908035906020019064010000000081111561152a57600080fd5b82018360208201111561153c57600080fd5b8035906020019184600183028401116401000000008311171561155e57600080fd5b90919293919293905050506135ca565b005b34801561157c57600080fd5b506115fe6004803603604081101561159357600080fd5b8101908080359060200190929190803590602001906401000000008111156115ba57600080fd5b8201836020820111156115cc57600080fd5b803590602001918460018302840111640100000000831117156115ee57600080fd5b90919293919293905050506136d4565b005b6060600580548060200260200160405190810160405280929190818152602001828054801561168457602002820191906000526020600020905b8160009054906101000a900473ffffffffffffffffffffffffffffffffffffffff1673ffffffffffffffffffffffffffffffffffffffff168152602001906001019080831161163a575b5050505050905090565b606060038054600181600116156101000203166002900480601f0160208091040260200160405190810160405280929190818152602001828054600181600116156101000203166002900480156117265780601f106116fb57610100808354040283529160200191611726565b820191906000526020600020905b81548152906001019060200180831161170957829003601f168201915b5050505050905090565b60008061173b613747565b90506117488185856137b4565b600191505092915050565b61175b612259565b6117cd576040517f08c379a00000000000000000000000000000000000000000000000000000000081526004018080602001828103825260208152602001807f4f776e61626c653a2063616c6c6572206973206e6f7420746865206f776e657281525060200191505060405180910390fd5b600f60009054906101000a900473ffffffffffffffffffffffffffffffffffffffff1673ffffffffffffffffffffffffffffffffffffffff16630f3ce408858585856040518563ffffffff1660e01b81526004018080602001806020018381038352878782818152602001925060200280828437600081840152601f19601f8201169050808301925050508381038252858582818152602001925060200280828437600081840152601f19601f8201169050808301925050509650505050505050600060405180830381600087803b1580156118a857600080fd5b505af11580156118bc573d6000803e3d6000fd5b5050505050505050565b6118ce612259565b611940576040517f08c379a00000000000000000000000000000000000000000000000000000000081526004018080602001828103825260208152602001807f4f776e61626c653a2063616c6c6572206973206e6f7420746865206f776e657281525060200191505060405180910390fd5b8015156010600084815260200190815260200160002060009054906101000a900460ff161515141561197157600080fd5b806010600084815260200190815260200160002060006101000a81548160ff02191690831515021790555080156119d3576011829080600181540180825580915050906001820390600052602060002001600090919290919091505550611a74565b60006011600160118054905003815481106119ea57fe5b90600052602060002001549050828114611a5c5760008090505b601180549050811015611a5a578360118281548110611a1f57fe5b90600052602060002001541415611a4d578160118281548110611a3e57fe5b90600052602060002001819055505b8080600101915050611a04565b505b6011805480919060019003611a719190615615565b50505b5050565b6000600254905090565b600c60009054906101000a900473ffffffffffffffffffffffffffffffffffffffff1681565b60008073ffffffffffffffffffffffffffffffffffffffff168373ffffffffffffffffffffffffffffffffffffffff161415611b2f576040517f08c379a000000000000000000000000000000000000000000000000000000000815260040180806020018281038252602481526020018061578a6024913960400191505060405180910390fd5b600073ffffffffffffffffffffffffffffffffffffffff168473ffffffffffffffffffffffffffffffffffffffff161415611bb5576040517f08c379a00000000000000000000000000000000000000000000000000000000081526004018080602001828103825260268152602001806158276026913960400191505060405180910390fd5b6000611bbf613747565b9050611bed818686866040518060200160405280600081525060405180602001604052806000815250613925565b611c19818686866040518060200160405280600081525060405180602001604052806000815250613c3f565b611ccc8582611cc7866040518060600160405280602981526020016157fe60299139600960008c73ffffffffffffffffffffffffffffffffffffffff1673ffffffffffffffffffffffffffffffffffffffff16815260200190815260200160002060008873ffffffffffffffffffffffffffffffffffffffff1673ffffffffffffffffffffffffffffffffffffffff168152602001908152602001600020546143629092919063ffffffff16565b6137b4565b611cfa8186868660405180602001604052806000815250604051806020016040528060008152506000614422565b60019150509392505050565b60006012905090565b600e60009054906101000a900473ffffffffffffffffffffffffffffffffffffffff1681565b60006001905090565b611d46612259565b611db8576040517f08c379a00000000000000000000000000000000000000000000000000000000081526004018080602001828103825260208152602001807f4f776e61626c653a2063616c6c6572206973206e6f7420746865206f776e657281525060200191505060405180910390fd5b600f60009054906101000a900473ffffffffffffffffffffffffffffffffffffffff1673ffffffffffffffffffffffffffffffffffffffff1663f2fde38b826040518263ffffffff1660e01b8152600401808273ffffffffffffffffffffffffffffffffffffffff1673ffffffffffffffffffffffffffffffffffffffff168152602001915050600060405180830381600087803b158015611e5957600080fd5b505af1158015611e6d573d6000803e3d6000fd5b5050505050565b611e85611e7f613747565b88612f8d565b611eda576040517f08c379a000000000000000000000000000000000000000000000000000000000815260040180806020018281038252602c8152602001806157d2602c913960400191505060405180910390fd5b611f79611ee5613747565b88888888888080601f016020809104026020016040519081016040528093929190818152602001838380828437600081840152601f19601f8201169050808301925050505050505087878080601f016020809104026020016040519081016040528093929190818152602001838380828437600081840152601f19601f8201169050808301925050505050505060016147bd565b50505050505050565b6000600160008373ffffffffffffffffffffffffffffffffffffffff1673ffffffffffffffffffffffffffffffffffffffff168152602001908152602001600020549050919050565b611fd3612259565b612045576040517f08c379a00000000000000000000000000000000000000000000000000000000081526004018080602001828103825260208152602001807f4f776e61626c653a2063616c6c6572206973206e6f7420746865206f776e657281525060200191505060405180910390fd5b600073ffffffffffffffffffffffffffffffffffffffff166000809054906101000a900473ffffffffffffffffffffffffffffffffffffffff1673ffffffffffffffffffffffffffffffffffffffff167f8be0079c531659141344cd1fd0a4f28419497f9722a3daafe3b4186f6b6457e060405160405180910390a360008060006101000a81548173ffffffffffffffffffffffffffffffffffffffff021916908373ffffffffffffffffffffffffffffffffffffffff160217905550565b6000600a60009054906101000a900473ffffffffffffffffffffffffffffffffffffffff16905090565b6000612138612104565b73ffffffffffffffffffffffffffffffffffffffff163373ffffffffffffffffffffffffffffffffffffffff16146121bb576040517f08c379a00000000000000000000000000000000000000000000000000000000081526004018080602001828103825260248152602001806157ae6024913960400191505060405180910390fd5b61220883838080601f016020809104026020016040519081016040528093929190818152602001838380828437600081840152601f19601f8201169050808301925050505050505061491a565b905092915050565b6000606061221c614921565b915091509b509b9950505050505050505050565b60008060009054906101000a900473ffffffffffffffffffffffffffffffffffffffff16905090565b60008060009054906101000a900473ffffffffffffffffffffffffffffffffffffffff1673ffffffffffffffffffffffffffffffffffffffff1661229b613747565b73ffffffffffffffffffffffffffffffffffffffff1614905090565b600d60009054906101000a900473ffffffffffffffffffffffffffffffffffffffff1681565b60006122e7613747565b9050600e60009054906101000a900473ffffffffffffffffffffffffffffffffffffffff1673ffffffffffffffffffffffffffffffffffffffff16633af32abf826040518263ffffffff1660e01b8152600401808273ffffffffffffffffffffffffffffffffffffffff1673ffffffffffffffffffffffffffffffffffffffff16815260200191505060206040518083038186803b15801561238857600080fd5b505afa15801561239c573d6000803e3d6000fd5b505050506040513d60208110156123b257600080fd5b8101908080519060200190929190505050612435576040517f08c379a00000000000000000000000000000000000000000000000000000000081526004018080602001828103825260198152602001807f4d696e746572206973206e6f742077686974656c69737465640000000000000081525060200191505060405180910390fd5b6124ba81868660006040519080825280601f01601f19166020018201604052801561246f5781602001600182028038833980820191505090505b5087878080601f016020809104026020016040519081016040528093929190818152602001838380828437600081840152601f19601f82011690508083019250505050505050614945565b5050505050565b8073ffffffffffffffffffffffffffffffffffffffff166124e0613747565b73ffffffffffffffffffffffffffffffffffffffff16141561254d576040517f08c379a00000000000000000000000000000000000000000000000000000000081526004018080602001828103825260248152602001806156f86024913960400191505060405180910390fd5b600660008273ffffffffffffffffffffffffffffffffffffffff1673ffffffffffffffffffffffffffffffffffffffff16815260200190815260200160002060009054906101000a900460ff161561263757600860006125ab613747565b73ffffffffffffffffffffffffffffffffffffffff1673ffffffffffffffffffffffffffffffffffffffff16815260200190815260200160002060008273ffffffffffffffffffffffffffffffffffffffff1673ffffffffffffffffffffffffffffffffffffffff16815260200190815260200160002060006101000a81549060ff02191690556126d4565b600160076000612645613747565b73ffffffffffffffffffffffffffffffffffffffff1673ffffffffffffffffffffffffffffffffffffffff16815260200190815260200160002060008373ffffffffffffffffffffffffffffffffffffffff1673ffffffffffffffffffffffffffffffffffffffff16815260200190815260200160002060006101000a81548160ff0219169083151502179055505b6126dc613747565b73ffffffffffffffffffffffffffffffffffffffff168173ffffffffffffffffffffffffffffffffffffffff167ff4caeb2d6ca8932a215a353d0703c326ec2d81fc68170f320eb2ab49e9df61f960405160405180910390a350565b606060048054600181600116156101000203166002900480601f0160208091040260200160405190810160405280929190818152602001828054600181600116156101000203166002900480156127d05780601f106127a5576101008083540402835291602001916127d0565b820191906000526020600020905b8154815290600101906020018083116127b357829003601f168201915b5050505050905090565b61284b6127e5613747565b6127ed613747565b868686868080601f016020809104026020016040519081016040528093929190818152602001838380828437600081840152601f19601f820116905080830192505050505050506040518060200160405280600081525060016147bd565b50505050565b60008073ffffffffffffffffffffffffffffffffffffffff168373ffffffffffffffffffffffffffffffffffffffff1614156128d8576040517f08c379a000000000000000000000000000000000000000000000000000000000815260040180806020018281038252602481526020018061578a6024913960400191505060405180910390fd5b60006128e2613747565b9050612910818286866040518060200160405280600081525060405180602001604052806000815250613925565b61293c818286866040518060200160405280600081525060405180602001604052806000815250613c3f565b61296a8182868660405180602001604052806000815250604051806020016040528060008152506000614422565b600191505092915050565b600061297f614c55565b73ffffffffffffffffffffffffffffffffffffffff166370a08231306040518263ffffffff1660e01b8152600401808273ffffffffffffffffffffffffffffffffffffffff1673ffffffffffffffffffffffffffffffffffffffff16815260200191505060206040518083038186803b1580156129fb57600080fd5b505afa158015612a0f573d6000803e3d6000fd5b505050506040513d6020811015612a2557600080fd5b8101908080519060200190929190505050905090565b60606040518060400160405280600581526020017f312e302e30000000000000000000000000000000000000000000000000000000815250905090565b60006060600c60009054906101000a900473ffffffffffffffffffffffffffffffffffffffff1673ffffffffffffffffffffffffffffffffffffffff16633af32abf866040518263ffffffff1660e01b8152600401808273ffffffffffffffffffffffffffffffffffffffff1673ffffffffffffffffffffffffffffffffffffffff16815260200191505060206040518083038186803b158015612b1b57600080fd5b505afa158015612b2f573d6000803e3d6000fd5b505050506040513d6020811015612b4557600080fd5b8101908080519060200190929190505050612b9b5760006040518060400160405280601581526020017f4e6f7420617574686f72697a65642073656e646572000000000000000000000081525091509150612da8565b600d60009054906101000a900473ffffffffffffffffffffffffffffffffffffffff1673ffffffffffffffffffffffffffffffffffffffff16633af32abf856040518263ffffffff1660e01b8152600401808273ffffffffffffffffffffffffffffffffffffffff1673ffffffffffffffffffffffffffffffffffffffff16815260200191505060206040518083038186803b158015612c3a57600080fd5b505afa158015612c4e573d6000803e3d6000fd5b505050506040513d6020811015612c6457600080fd5b8101908080519060200190929190505050612cba5760006040518060400160405280601781526020017f4e6f7420617574686f72697a656420726563656976657200000000000000000081525091509150612da8565b6010600084815260200190815260200160002060009054906101000a900460ff16612d205760006040518060400160405280601481526020017f496e76616c69642064656e6f6d696e6174696f6e00000000000000000000000081525091509150612da8565b60126000612d2f878787614c64565b815260200190815260200160002060009054906101000a900460ff1615612d915760006040518060400160405280600c81526020017f416c72656164792073656e74000000000000000000000000000000000000000081525091509150612da8565b600160405180602001604052806000815250915091505b935093915050565b612db8612259565b612e2a576040517f08c379a00000000000000000000000000000000000000000000000000000000081526004018080602001828103825260208152602001807f4f776e61626c653a2063616c6c6572206973206e6f7420746865206f776e657281525060200191505060405180910390fd5b80600f60006101000a81548173ffffffffffffffffffffffffffffffffffffffff021916908373ffffffffffffffffffffffffffffffffffffffff16021790555050565b612e76614c55565b73ffffffffffffffffffffffffffffffffffffffff1663aa67c91934306040518363ffffffff1660e01b8152600401808273ffffffffffffffffffffffffffffffffffffffff1673ffffffffffffffffffffffffffffffffffffffff1681526020019150506000604051808303818588803b158015612ef457600080fd5b505af1158015612f08573d6000803e3d6000fd5b5050505050565b600f60009054906101000a900473ffffffffffffffffffffffffffffffffffffffff1681565b60606011805480602002602001604051908101604052809291908181526020018280548015612f8357602002820191906000526020600020905b815481526020019060010190808311612f6f575b5050505050905090565b60008173ffffffffffffffffffffffffffffffffffffffff168373ffffffffffffffffffffffffffffffffffffffff1614806130a55750600660008473ffffffffffffffffffffffffffffffffffffffff1673ffffffffffffffffffffffffffffffffffffffff16815260200190815260200160002060009054906101000a900460ff1680156130a45750600860008373ffffffffffffffffffffffffffffffffffffffff1673ffffffffffffffffffffffffffffffffffffffff16815260200190815260200160002060008473ffffffffffffffffffffffffffffffffffffffff1673ffffffffffffffffffffffffffffffffffffffff16815260200190815260200160002060009054906101000a900460ff16155b5b806131365750600760008373ffffffffffffffffffffffffffffffffffffffff1673ffffffffffffffffffffffffffffffffffffffff16815260200190815260200160002060008473ffffffffffffffffffffffffffffffffffffffff1673ffffffffffffffffffffffffffffffffffffffff16815260200190815260200160002060009054906101000a900460ff165b905092915050565b6000600960008473ffffffffffffffffffffffffffffffffffffffff1673ffffffffffffffffffffffffffffffffffffffff16815260200190815260200160002060008373ffffffffffffffffffffffffffffffffffffffff1673ffffffffffffffffffffffffffffffffffffffff16815260200190815260200160002054905092915050565b6131cd612104565b73ffffffffffffffffffffffffffffffffffffffff163373ffffffffffffffffffffffffffffffffffffffff1614613250576040517f08c379a00000000000000000000000000000000000000000000000000000000081526004018080602001828103825260248152602001806157ae6024913960400191505060405180910390fd5b6132a085858080601f016020809104026020016040519081016040528093929190818152602001838380828437600081840152601f19601f82011690508083019250505050505050848484614cfe565b5050505050565b600b60009054906101000a900473ffffffffffffffffffffffffffffffffffffffff1681565b6132d5612259565b613347576040517f08c379a00000000000000000000000000000000000000000000000000000000081526004018080602001828103825260208152602001807f4f776e61626c653a2063616c6c6572206973206e6f7420746865206f776e657281525060200191505060405180910390fd5b61335081614d04565b50565b61335b613747565b73ffffffffffffffffffffffffffffffffffffffff168173ffffffffffffffffffffffffffffffffffffffff1614156133df576040517f08c379a000000000000000000000000000000000000000000000000000000000815260040180806020018281038252602181526020018061571c6021913960400191505060405180910390fd5b600660008273ffffffffffffffffffffffffffffffffffffffff1673ffffffffffffffffffffffffffffffffffffffff16815260200190815260200160002060009054906101000a900460ff16156134d25760016008600061343f613747565b73ffffffffffffffffffffffffffffffffffffffff1673ffffffffffffffffffffffffffffffffffffffff16815260200190815260200160002060008373ffffffffffffffffffffffffffffffffffffffff1673ffffffffffffffffffffffffffffffffffffffff16815260200190815260200160002060006101000a81548160ff021916908315150217905550613566565b600760006134de613747565b73ffffffffffffffffffffffffffffffffffffffff1673ffffffffffffffffffffffffffffffffffffffff16815260200190815260200160002060008273ffffffffffffffffffffffffffffffffffffffff1673ffffffffffffffffffffffffffffffffffffffff16815260200190815260200160002060006101000a81549060ff02191690555b61356e613747565b73ffffffffffffffffffffffffffffffffffffffff168173ffffffffffffffffffffffffffffffffffffffff167f50546e66e5f44d728365dc3908c63bc5cfeeab470722c1677e3073a6ac294aa160405160405180910390a350565b6135db6135d5613747565b87612f8d565b613630576040517f08c379a000000000000000000000000000000000000000000000000000000000815260040180806020018281038252602c8152602001806157d2602c913960400191505060405180910390fd5b6136cc61363b613747565b878787878080601f016020809104026020016040519081016040528093929190818152602001838380828437600081840152601f19601f8201169050808301925050505050505086868080601f016020809104026020016040519081016040528093929190818152602001838380828437600081840152601f19601f82011690508083019250505050505050614e48565b505050505050565b6137426136df613747565b6136e7613747565b8585858080601f016020809104026020016040519081016040528093929190818152602001838380828437600081840152601f19601f8201169050808301925050505050505060405180602001604052806000815250614e48565b505050565b6000600a60009054906101000a900473ffffffffffffffffffffffffffffffffffffffff1673ffffffffffffffffffffffffffffffffffffffff163373ffffffffffffffffffffffffffffffffffffffff16146137a6573390506137b1565b6137ae615153565b90505b90565b600073ffffffffffffffffffffffffffffffffffffffff168273ffffffffffffffffffffffffffffffffffffffff16141561383a576040517f08c379a00000000000000000000000000000000000000000000000000000000081526004018080602001828103825260238152602001806158706023913960400191505060405180910390fd5b80600960008573ffffffffffffffffffffffffffffffffffffffff1673ffffffffffffffffffffffffffffffffffffffff16815260200190815260200160002060008473ffffffffffffffffffffffffffffffffffffffff1673ffffffffffffffffffffffffffffffffffffffff168152602001908152602001600020819055508173ffffffffffffffffffffffffffffffffffffffff168373ffffffffffffffffffffffffffffffffffffffff167f8c5be1e5ebec7d5bd14f71427d1e84f3dd0314c0f7b2291e5b200ac8c7c3b925836040518082815260200191505060405180910390a3505050565b6000731820a4b7618bde71dce8cdc73aab6c95905fad2473ffffffffffffffffffffffffffffffffffffffff1663aabbb8ca877f29ddb589b1fb5fc7cf394961c1adf5f8c6454761adf795e67fe149f658abe89560001b6040518363ffffffff1660e01b8152600401808373ffffffffffffffffffffffffffffffffffffffff1673ffffffffffffffffffffffffffffffffffffffff1681526020018281526020019250505060206040518083038186803b1580156139e357600080fd5b505afa1580156139f7573d6000803e3d6000fd5b505050506040513d6020811015613a0d57600080fd5b81019080805190602001909291905050509050600073ffffffffffffffffffffffffffffffffffffffff168173ffffffffffffffffffffffffffffffffffffffff1614613c36578073ffffffffffffffffffffffffffffffffffffffff166375ab97828888888888886040518763ffffffff1660e01b8152600401808773ffffffffffffffffffffffffffffffffffffffff1673ffffffffffffffffffffffffffffffffffffffff1681526020018673ffffffffffffffffffffffffffffffffffffffff1673ffffffffffffffffffffffffffffffffffffffff1681526020018573ffffffffffffffffffffffffffffffffffffffff1673ffffffffffffffffffffffffffffffffffffffff1681526020018481526020018060200180602001838103835285818151815260200191508051906020019080838360005b83811015613b65578082015181840152602081019050613b4a565b50505050905090810190601f168015613b925780820380516001836020036101000a031916815260200191505b50838103825284818151815260200191508051906020019080838360005b83811015613bcb578082015181840152602081019050613bb0565b50505050905090810190601f168015613bf85780820380516001836020036101000a031916815260200191505b5098505050505050505050600060405180830381600087803b158015613c1d57600080fd5b505af1158015613c31573d6000803e3d6000fd5b505050505b50505050505050565b600c60009054906101000a900473ffffffffffffffffffffffffffffffffffffffff1673ffffffffffffffffffffffffffffffffffffffff16633af32abf866040518263ffffffff1660e01b8152600401808273ffffffffffffffffffffffffffffffffffffffff1673ffffffffffffffffffffffffffffffffffffffff16815260200191505060206040518083038186803b158015613cde57600080fd5b505afa158015613cf2573d6000803e3d6000fd5b505050506040513d6020811015613d0857600080fd5b8101908080519060200190929190505050613d8b576040517f08c379a00000000000000000000000000000000000000000000000000000000081526004018080602001828103825260198152602001807f53656e646572206973206e6f742077686974656c69737465640000000000000081525060200191505060405180910390fd5b600d60009054906101000a900473ffffffffffffffffffffffffffffffffffffffff1673ffffffffffffffffffffffffffffffffffffffff16633af32abf856040518263ffffffff1660e01b8152600401808273ffffffffffffffffffffffffffffffffffffffff1673ffffffffffffffffffffffffffffffffffffffff16815260200191505060206040518083038186803b158015613e2a57600080fd5b505afa158015613e3e573d6000803e3d6000fd5b505050506040513d6020811015613e5457600080fd5b8101908080519060200190929190505050613ed7576040517f08c379a000000000000000000000000000000000000000000000000000000000815260040180806020018281038252601b8152602001807f5265636569766572206973206e6f742077686974656c6973746564000000000081525060200191505060405180910390fd5b6010600084815260200190815260200160002060009054906101000a900460ff16613f6a576040517f08c379a00000000000000000000000000000000000000000000000000000000081526004018080602001828103825260148152602001807f496e76616c69642064656e6f6d696e6174696f6e00000000000000000000000081525060200191505060405180910390fd5b60126000613f79878787614c64565b815260200190815260200160002060009054906101000a900460ff1615614008576040517f08c379a000000000000000000000000000000000000000000000000000000000815260040180806020018281038252600c8152602001807f416c72656164792073656e74000000000000000000000000000000000000000081525060200191505060405180910390fd5b600160126000614019888888614c64565b815260200190815260200160002060006101000a81548160ff02191690831515021790555061404c8686868686866151cb565b600073ffffffffffffffffffffffffffffffffffffffff16600f60009054906101000a900473ffffffffffffffffffffffffffffffffffffffff1673ffffffffffffffffffffffffffffffffffffffff161461428857606060016040519080825280602002602001820160405280156140d45781602001602082028038833980820191505090505b50905084816000815181106140e557fe5b602002602001019073ffffffffffffffffffffffffffffffffffffffff16908173ffffffffffffffffffffffffffffffffffffffff1681525050606060016040519080825280602002602001820160405280156141515781602001602082028038833980820191505090505b509050848160008151811061416257fe5b602002602001018181525050600f60009054906101000a900473ffffffffffffffffffffffffffffffffffffffff1673ffffffffffffffffffffffffffffffffffffffff16630f3ce40883836040518363ffffffff1660e01b8152600401808060200180602001838103835285818151815260200191508051906020019060200280838360005b838110156142045780820151818401526020810190506141e9565b50505050905001838103825284818151815260200191508051906020019060200280838360005b8381101561424657808201518184015260208101905061422b565b50505050905001945050505050600060405180830381600087803b15801561426d57600080fd5b505af1158015614281573d6000803e3d6000fd5b5050505050505b8373ffffffffffffffffffffffffffffffffffffffff168573ffffffffffffffffffffffffffffffffffffffff167f77eb406d2a36b9cc3c9d570e9bfa855e5a47830463d08e8f5c875bae79867ef085856040518083815260200180602001828103825283818151815260200191508051906020019080838360005b8381101561431f578082015181840152602081019050614304565b50505050905090810190601f16801561434c5780820380516001836020036101000a031916815260200191505b50935050505060405180910390a3505050505050565b600083831115829061440f576040517f08c379a00000000000000000000000000000000000000000000000000000000081526004018080602001828103825283818151815260200191508051906020019080838360005b838110156143d45780820151818401526020810190506143b9565b50505050905090810190601f1680156144015780820380516001836020036101000a031916815260200191505b509250505060405180910390fd5b5060008385039050809150509392505050565b6000731820a4b7618bde71dce8cdc73aab6c95905fad2473ffffffffffffffffffffffffffffffffffffffff1663aabbb8ca877fb281fc8c12954d22544db45de3159a39272895b169a852b314f9cc762e44c53b60001b6040518363ffffffff1660e01b8152600401808373ffffffffffffffffffffffffffffffffffffffff1673ffffffffffffffffffffffffffffffffffffffff1681526020018281526020019250505060206040518083038186803b1580156144e057600080fd5b505afa1580156144f4573d6000803e3d6000fd5b505050506040513d602081101561450a57600080fd5b81019080805190602001909291905050509050600073ffffffffffffffffffffffffffffffffffffffff168173ffffffffffffffffffffffffffffffffffffffff1614614736578073ffffffffffffffffffffffffffffffffffffffff166223de298989898989896040518763ffffffff1660e01b8152600401808773ffffffffffffffffffffffffffffffffffffffff1673ffffffffffffffffffffffffffffffffffffffff1681526020018673ffffffffffffffffffffffffffffffffffffffff1673ffffffffffffffffffffffffffffffffffffffff1681526020018573ffffffffffffffffffffffffffffffffffffffff1673ffffffffffffffffffffffffffffffffffffffff1681526020018481526020018060200180602001838103835285818151815260200191508051906020019080838360005b83811015614661578082015181840152602081019050614646565b50505050905090810190601f16801561468e5780820380516001836020036101000a031916815260200191505b50838103825284818151815260200191508051906020019080838360005b838110156146c75780820151818401526020810190506146ac565b50505050905090810190601f1680156146f45780820380516001836020036101000a031916815260200191505b5098505050505050505050600060405180830381600087803b15801561471957600080fd5b505af115801561472d573d6000803e3d6000fd5b505050506147b3565b81156147b25761475b8673ffffffffffffffffffffffffffffffffffffffff166154e0565b156147b1576040517f08c379a000000000000000000000000000000000000000000000000000000000815260040180806020018281038252604d81526020018061573d604d913960600191505060405180910390fd5b5b5b5050505050505050565b600073ffffffffffffffffffffffffffffffffffffffff168673ffffffffffffffffffffffffffffffffffffffff161415614843576040517f08c379a00000000000000000000000000000000000000000000000000000000081526004018080602001828103825260228152602001806156676022913960400191505060405180910390fd5b600073ffffffffffffffffffffffffffffffffffffffff168573ffffffffffffffffffffffffffffffffffffffff1614156148e6576040517f08c379a00000000000000000000000000000000000000000000000000000000081526004018080602001828103825260208152602001807f4552433737373a2073656e6420746f20746865207a65726f206164647265737381525060200191505060405180910390fd5b6148f4878787878787613925565b614902878787878787613c3f565b61491187878787878787614422565b50505050505050565b6000919050565b6000606061493d6040518060200160405280600081525061552b565b915091509091565b600073ffffffffffffffffffffffffffffffffffffffff168473ffffffffffffffffffffffffffffffffffffffff1614156149e8576040517f08c379a00000000000000000000000000000000000000000000000000000000081526004018080602001828103825260208152602001807f4552433737373a206d696e7420746f20746865207a65726f206164647265737381525060200191505060405180910390fd5b6149fd8360025461553b90919063ffffffff16565b600281905550614a5583600160008773ffffffffffffffffffffffffffffffffffffffff1673ffffffffffffffffffffffffffffffffffffffff1681526020019081526020016000205461553b90919063ffffffff16565b600160008673ffffffffffffffffffffffffffffffffffffffff1673ffffffffffffffffffffffffffffffffffffffff16815260200190815260200160002081905550614aa9856000868686866001614422565b8373ffffffffffffffffffffffffffffffffffffffff168573ffffffffffffffffffffffffffffffffffffffff167f2fe5be0146f74c5bce36c0b80911af6c7d86ff27e89d5cfa61fc681327954e5d858585604051808481526020018060200180602001838103835285818151815260200191508051906020019080838360005b83811015614b45578082015181840152602081019050614b2a565b50505050905090810190601f168015614b725780820380516001836020036101000a031916815260200191505b50838103825284818151815260200191508051906020019080838360005b83811015614bab578082015181840152602081019050614b90565b50505050905090810190601f168015614bd85780820380516001836020036101000a031916815260200191505b509550505050505060405180910390a38373ffffffffffffffffffffffffffffffffffffffff16600073ffffffffffffffffffffffffffffffffffffffff167fddf252ad1be2c89b69c2b068fc378daa952ba7f163c4a11628f55a4df523b3ef856040518082815260200191505060405180910390a35050505050565b6000614c5f612104565b905090565b6000838383604051602001808473ffffffffffffffffffffffffffffffffffffffff1673ffffffffffffffffffffffffffffffffffffffff1681526020018373ffffffffffffffffffffffffffffffffffffffff1673ffffffffffffffffffffffffffffffffffffffff16815260200182815260200193505050506040516020818303038152906040528051906020012090509392505050565b50505050565b600073ffffffffffffffffffffffffffffffffffffffff168173ffffffffffffffffffffffffffffffffffffffff161415614d8a576040517f08c379a00000000000000000000000000000000000000000000000000000000081526004018080602001828103825260268152602001806156b06026913960400191505060405180910390fd5b8073ffffffffffffffffffffffffffffffffffffffff166000809054906101000a900473ffffffffffffffffffffffffffffffffffffffff1673ffffffffffffffffffffffffffffffffffffffff167f8be0079c531659141344cd1fd0a4f28419497f9722a3daafe3b4186f6b6457e060405160405180910390a3806000806101000a81548173ffffffffffffffffffffffffffffffffffffffff021916908373ffffffffffffffffffffffffffffffffffffffff16021790555050565b600073ffffffffffffffffffffffffffffffffffffffff168473ffffffffffffffffffffffffffffffffffffffff161415614ece576040517f08c379a00000000000000000000000000000000000000000000000000000000081526004018080602001828103825260228152602001806156d66022913960400191505060405180910390fd5b614edd85856000868686613925565b614f498360405180606001604052806023815260200161584d60239139600160008873ffffffffffffffffffffffffffffffffffffffff1673ffffffffffffffffffffffffffffffffffffffff168152602001908152602001600020546143629092919063ffffffff16565b600160008673ffffffffffffffffffffffffffffffffffffffff1673ffffffffffffffffffffffffffffffffffffffff16815260200190815260200160002081905550614fa1836002546155c390919063ffffffff16565b6002819055508373ffffffffffffffffffffffffffffffffffffffff168573ffffffffffffffffffffffffffffffffffffffff167fa78a9be3a7b862d26933ad85fb11d80ef66b8f972d7cbba06621d583943a4098858585604051808481526020018060200180602001838103835285818151815260200191508051906020019080838360005b83811015615043578082015181840152602081019050615028565b50505050905090810190601f1680156150705780820380516001836020036101000a031916815260200191505b50838103825284818151815260200191508051906020019080838360005b838110156150a957808201518184015260208101905061508e565b50505050905090810190601f1680156150d65780820380516001836020036101000a031916815260200191505b509550505050505060405180910390a3600073ffffffffffffffffffffffffffffffffffffffff168473ffffffffffffffffffffffffffffffffffffffff167fddf252ad1be2c89b69c2b068fc378daa952ba7f163c4a11628f55a4df523b3ef856040518082815260200191505060405180910390a35050505050565b600060606000368080601f016020809104026020016040519081016040528093929190818152602001838380828437600081840152601f19601f820116905080830192505050505050509050600080369050905073ffffffffffffffffffffffffffffffffffffffff81830151169250829250505090565b6152378360405180606001604052806027815260200161568960279139600160008973ffffffffffffffffffffffffffffffffffffffff1673ffffffffffffffffffffffffffffffffffffffff168152602001908152602001600020546143629092919063ffffffff16565b600160008773ffffffffffffffffffffffffffffffffffffffff1673ffffffffffffffffffffffffffffffffffffffff168152602001908152602001600020819055506152cc83600160008773ffffffffffffffffffffffffffffffffffffffff1673ffffffffffffffffffffffffffffffffffffffff1681526020019081526020016000205461553b90919063ffffffff16565b600160008673ffffffffffffffffffffffffffffffffffffffff1673ffffffffffffffffffffffffffffffffffffffff1681526020019081526020016000208190555061531d86868686868661560d565b8373ffffffffffffffffffffffffffffffffffffffff168573ffffffffffffffffffffffffffffffffffffffff168773ffffffffffffffffffffffffffffffffffffffff167f06b541ddaa720db2b10a4d0cdac39b8d360425fc073085fac19bc82614677987868686604051808481526020018060200180602001838103835285818151815260200191508051906020019080838360005b838110156153d05780820151818401526020810190506153b5565b50505050905090810190601f1680156153fd5780820380516001836020036101000a031916815260200191505b50838103825284818151815260200191508051906020019080838360005b8381101561543657808201518184015260208101905061541b565b50505050905090810190601f1680156154635780820380516001836020036101000a031916815260200191505b509550505050505060405180910390a48373ffffffffffffffffffffffffffffffffffffffff168573ffffffffffffffffffffffffffffffffffffffff167fddf252ad1be2c89b69c2b068fc378daa952ba7f163c4a11628f55a4df523b3ef856040518082815260200191505060405180910390a3505050505050565b60008060007fc5d2460186f7233c927e7db2dcc703c0e500b653ca82273b7bfad8045d85a47060001b9050833f915080821415801561552257506000801b8214155b92505050919050565b6000606060008391509150915091565b6000808284019050838110156155b9576040517f08c379a000000000000000000000000000000000000000000000000000000000815260040180806020018281038252601b8152602001807f536166654d6174683a206164646974696f6e206f766572666c6f77000000000081525060200191505060405180910390fd5b8091505092915050565b600061560583836040518060400160405280601e81526020017f536166654d6174683a207375627472616374696f6e206f766572666c6f770000815250614362565b905092915050565b505050505050565b81548183558181111561563c5781836000526020600020918201910161563b9190615641565b5b505050565b61566391905b8082111561565f576000816000905550600101615647565b5090565b9056fe4552433737373a2073656e642066726f6d20746865207a65726f20616464726573734552433737373a207472616e7366657220616d6f756e7420657863656564732062616c616e63654f776e61626c653a206e6577206f776e657220697320746865207a65726f20616464726573734552433737373a206275726e2066726f6d20746865207a65726f20616464726573734552433737373a20617574686f72697a696e672073656c66206173206f70657261746f724552433737373a207265766f6b696e672073656c66206173206f70657261746f724552433737373a20746f6b656e20726563697069656e7420636f6e747261637420686173206e6f20696d706c656d656e74657220666f7220455243373737546f6b656e73526563697069656e744552433737373a207472616e7366657220746f20746865207a65726f206164647265737347534e526563697069656e743a2063616c6c6572206973206e6f742052656c61794875624552433737373a2063616c6c6572206973206e6f7420616e206f70657261746f7220666f7220686f6c6465724552433737373a207472616e7366657220616d6f756e74206578636565647320616c6c6f77616e63654552433737373a207472616e736665722066726f6d20746865207a65726f20616464726573734552433737373a206275726e20616d6f756e7420657863656564732062616c616e63654552433737373a20617070726f766520746f20746865207a65726f2061646472657373a265627a7a723058207f0d29967ed09d42c1fa8d4e8bb999d91b6f731cd171c1edbe9737ab78eaecfb64736f6c634300050a0032608060405234801561001057600080fd5b50336000806101000a81548173ffffffffffffffffffffffffffffffffffffffff021916908373ffffffffffffffffffffffffffffffffffffffff16021790555060c88061005f6000396000f3fe60806040526000341415601157600080fd5b6000809054906101000a900473ffffffffffffffffffffffffffffffffffffffff1673ffffffffffffffffffffffffffffffffffffffff1663ca899878346040518263ffffffff1660e01b81526004016000604051808303818588803b158015607957600080fd5b505af1158015608c573d6000803e3d6000fd5b505050505000fea265627a7a72305820b7ee47bc8541675b62ca84340a770528622d9702e4ca419cd866e018d41228a464736f6c634300050a0032",
    "source": "pragma solidity ^0.5.0;\n\nimport 'openzeppelin-solidity/contracts/GSN/Context.sol';\nimport \"openzeppelin-solidity/contracts/cryptography/ECDSA.sol\";\nimport 'openzeppelin-solidity/contracts/ownership/Ownable.sol';\nimport 'openzeppelin-solidity/contracts/math/SafeMath.sol';\nimport './ModifiedERC777.sol';\nimport './IWhitelist.sol';\nimport './FreeGas.sol';\nimport './IMintableToken.sol';\nimport './IReputationAdmin.sol';\n\ncontract XPToken is Context, Ownable, ModifiedERC777, FreeGas, IMintableToken {\n\n  IWhitelist public senderList;\n  IWhitelist public receiverList;\n  IWhitelist public minterList;\n\n  IReputationAdmin public rep;\n\n  mapping(uint256 => bool) private _allowedDenominations;\n  uint256[] private _allowedDenominationList;\n\n  mapping(bytes32 => bool) private sent;\n\n  event Distribute(address indexed from, address indexed to, uint256 amount, bytes data);\n\n  constructor(\n    string memory name,\n    string memory symbol,\n    IWhitelist _senderList,\n    IWhitelist _receiverList,\n    IWhitelist _minterList,\n    address[] memory operators\n  ) public ModifiedERC777(name, symbol, operators) {\n    senderList = _senderList;\n    receiverList = _receiverList;\n    minterList = _minterList;\n  }\n\n  function getDenominations() external view returns (uint256[] memory) {\n    return _allowedDenominationList;\n  }\n\n  function setDenomination(uint256 denomination, bool isAllowed) external onlyOwner {\n    require(_allowedDenominations[denomination] != isAllowed);\n\n    _allowedDenominations[denomination] = isAllowed;\n\n    if (isAllowed) {\n      _allowedDenominationList.push(denomination);\n    } else {\n      uint256 lastValue = _allowedDenominationList[_allowedDenominationList.length - 1];\n\n      if (lastValue != denomination) {\n        for (uint256 i = 0; i < _allowedDenominationList.length; i++) {\n          if (_allowedDenominationList[i] == denomination) {\n            _allowedDenominationList[i] = lastValue;\n          }\n        }\n      }\n      _allowedDenominationList.length--;\n    }\n  }\n\n  function canSend(\n    address from,\n    address to,\n    uint256 amount\n  ) external view returns (bool, string memory) {\n    if (!senderList.isWhitelisted(from)) {\n      return (false, \"Not authorized sender\");\n    }\n    if (!receiverList.isWhitelisted(to)) {\n      return (false, \"Not authorized receiver\");\n    }\n    if (!_allowedDenominations[amount]) {\n      return (false, \"Invalid denomination\");\n    }\n    if (sent[hash(from, to, amount)]) {\n      return (false, \"Already sent\");\n    }\n\n    return (true, \"\");\n  }\n\n  function hash(\n    address from,\n    address to,\n    uint256 amount\n  ) private pure returns (bytes32) {\n    return keccak256(abi.encode(from, to, amount));\n  }\n\n  function mint(address recipient, uint256 amount, bytes calldata data) external {\n    address sender = _msgSender();\n    require(minterList.isWhitelisted(sender), \"Minter is not whitelisted\");\n\n    _mint(sender, recipient, amount, new bytes(0), data);\n  }\n\n  function _move(\n    address operator,\n    address from,\n    address to,\n    uint256 amount,\n    bytes memory userData,\n    bytes memory operatorData\n  )\n    internal\n  {\n    require(senderList.isWhitelisted(from), \"Sender is not whitelisted\");\n    require(receiverList.isWhitelisted(to), \"Receiver is not whitelisted\");\n    require(_allowedDenominations[amount], \"Invalid denomination\");\n    require(!sent[hash(from,to,amount)], \"Already sent\");\n\n    sent[hash(from, to, amount)] = true;\n\n    ModifiedERC777._move(operator, from, to, amount, userData, operatorData);\n\n    if (address(rep) != address(0)) {\n      address[] memory toList = new address[](1);\n      toList[0] = to;\n      uint256[] memory amtList = new uint256[](1);\n      amtList[0] = amount;\n      rep.reputationMint(toList, amtList);\n    }\n\n    emit Distribute(from, to, amount, userData);\n  }\n\n  function setRep(IReputationAdmin _rep) external onlyOwner {\n    rep = _rep;\n  }\n\n  function transferRepOwnership(address newOwner) external onlyOwner {\n    rep.transferOwnership(newOwner);\n  }\n\n  function reputationMint(address[] calldata _beneficiaries, uint256[] calldata _amounts) external onlyOwner {\n    rep.reputationMint(_beneficiaries, _amounts);\n  }\n\n  function _postTransfer(address, address from, address to, uint256, bytes memory, bytes memory) internal {\n  }\n}\n",
    "sourcePath": "/home/rmoore/Projects/ethdenver-burner-wallet/contracts/contracts/XPToken.sol",
    "compiler": {
        "name": "solc",
        "version": "0.5.10+commit.5a6ea5b1.Emscripten.clang"
    },
    "schemaVersion": "3.0.15",
    "updatedAt": "2020-02-13T23:25:47.836Z",
    "devdoc": {
        "methods": {
            "allowance(address,address)": {
                "details": "See {IERC20-allowance}.     * Note that operator and allowance concepts are orthogonal: operators may not have allowance, and accounts with allowance may not be operators themselves."
            },
            "approve(address,uint256)": {
                "details": "See {IERC20-approve}.     * Note that accounts cannot have allowance issued by their operators."
            },
            "authorizeOperator(address)": {
                "details": "See {IERC777-authorizeOperator}."
            },
            "balanceOf(address)": {
                "details": "Returns the amount of tokens owned by an account (`tokenHolder`)."
            },
            "burn(uint256,bytes)": {
                "details": "See {IERC777-burn}.     * Also emits a {Transfer} event for ERC20 compatibility."
            },
            "decimals()": {
                "details": "See {ERC20Detailed-decimals}.     * Always returns 18, as per the [ERC777 EIP](https://eips.ethereum.org/EIPS/eip-777#backward-compatibility)."
            },
            "defaultOperators()": {
                "details": "See {IERC777-defaultOperators}."
            },
            "getHubAddr()": {
                "details": "Returns the address of the {IRelayHub} contract for this recipient."
            },
            "granularity()": {
                "details": "See {IERC777-granularity}.     * This implementation always returns `1`."
            },
            "isOperatorFor(address,address)": {
                "details": "See {IERC777-isOperatorFor}."
            },
            "isOwner()": {
                "details": "Returns true if the caller is the current owner."
            },
            "name()": {
                "details": "See {IERC777-name}."
            },
            "operatorBurn(address,uint256,bytes,bytes)": {
                "details": "See {IERC777-operatorBurn}.     * Emits {Burned} and {Transfer} events."
            },
            "operatorSend(address,address,uint256,bytes,bytes)": {
                "details": "See {IERC777-operatorSend}.     * Emits {Sent} and {Transfer} events."
            },
            "owner()": {
                "details": "Returns the address of the current owner."
            },
            "postRelayedCall(bytes,bool,uint256,bytes32)": {
                "details": "See `IRelayRecipient.postRelayedCall`.     * This function should not be overriden directly, use `_postRelayedCall` instead.     * * Requirements:     * - the caller must be the `RelayHub` contract."
            },
            "preRelayedCall(bytes)": {
                "details": "See `IRelayRecipient.preRelayedCall`.     * This function should not be overriden directly, use `_preRelayedCall` instead.     * * Requirements:     * - the caller must be the `RelayHub` contract."
            },
            "relayHubVersion()": {
                "details": "Returns the version string of the {IRelayHub} for which this recipient implementation was built. If {_upgradeRelayHub} is used, the new {IRelayHub} instance should be compatible with this version."
            },
            "renounceOwnership()": {
                "details": "Leaves the contract without owner. It will not be possible to call `onlyOwner` functions anymore. Can only be called by the current owner.     * NOTE: Renouncing ownership will leave the contract without an owner, thereby removing any functionality that is only available to the owner."
            },
            "revokeOperator(address)": {
                "details": "See {IERC777-revokeOperator}."
            },
            "send(address,uint256,bytes)": {
                "details": "See {IERC777-send}.     * Also emits a {Transfer} event for ERC20 compatibility."
            },
            "symbol()": {
                "details": "See {IERC777-symbol}."
            },
            "totalSupply()": {
                "details": "See {IERC777-totalSupply}."
            },
            "transfer(address,uint256)": {
                "details": "See {IERC20-transfer}.     * Unlike `send`, `recipient` is _not_ required to implement the {IERC777Recipient} interface if it is a contract.     * Also emits a {Sent} event."
            },
            "transferFrom(address,address,uint256)": {
                "details": "See {IERC20-transferFrom}.    * Note that operator and allowance concepts are orthogonal: operators cannot call `transferFrom` (unless they have allowance), and accounts with allowance cannot call `operatorSend` (unless they are operators).    * Emits {Sent}, {Transfer} and {Approval} events."
            },
            "transferOwnership(address)": {
                "details": "Transfers ownership of the contract to a new account (`newOwner`). Can only be called by the current owner."
            }
        }
    },
    "userdoc": {
        "methods": {}
    }
}